{
	"contracts/TheDexFactory.sol": {
		"TheDexFactory": {
			"abi": [
				{
					"anonymous": false,
					"inputs": [
						{
							"indexed": true,
							"internalType": "address",
							"name": "token1",
							"type": "address"
						},
						{
							"indexed": true,
							"internalType": "address",
							"name": "token2",
							"type": "address"
						},
						{
							"indexed": false,
							"internalType": "address",
							"name": "pool",
							"type": "address"
						},
						{
							"indexed": false,
							"internalType": "uint256",
							"name": "",
							"type": "uint256"
						}
					],
					"name": "PoolCreated",
					"type": "event"
				},
				{
					"inputs": [
						{
							"internalType": "uint256",
							"name": "",
							"type": "uint256"
						}
					],
					"name": "allPools",
					"outputs": [
						{
							"internalType": "address",
							"name": "",
							"type": "address"
						}
					],
					"stateMutability": "view",
					"type": "function"
				},
				{
					"inputs": [
						{
							"internalType": "address",
							"name": "token1",
							"type": "address"
						},
						{
							"internalType": "address",
							"name": "token2",
							"type": "address"
						}
					],
					"name": "createPool",
					"outputs": [
						{
							"internalType": "address",
							"name": "pool",
							"type": "address"
						}
					],
					"stateMutability": "nonpayable",
					"type": "function"
				},
				{
					"inputs": [
						{
							"internalType": "address",
							"name": "",
							"type": "address"
						},
						{
							"internalType": "address",
							"name": "",
							"type": "address"
						}
					],
					"name": "getPool",
					"outputs": [
						{
							"internalType": "address",
							"name": "",
							"type": "address"
						}
					],
					"stateMutability": "view",
					"type": "function"
				}
			],
			"devdoc": {
				"kind": "dev",
				"methods": {},
				"version": 1
			},
			"evm": {
				"assembly": "    /* \"contracts/TheDexFactory.sol\":82:951  contract TheDexFactory {... */\n  mstore(0x40, 0x80)\n  callvalue\n  dup1\n  iszero\n  tag_1\n  jumpi\n  0x00\n  dup1\n  revert\ntag_1:\n  pop\n  dataSize(sub_0)\n  dup1\n  dataOffset(sub_0)\n  0x00\n  codecopy\n  0x00\n  return\nstop\n\nsub_0: assembly {\n        /* \"contracts/TheDexFactory.sol\":82:951  contract TheDexFactory {... */\n      mstore(0x40, 0x80)\n      callvalue\n      dup1\n      iszero\n      tag_1\n      jumpi\n      0x00\n      dup1\n      revert\n    tag_1:\n      pop\n      jumpi(tag_2, lt(calldatasize, 0x04))\n      shr(0xe0, calldataload(0x00))\n      dup1\n      0x41d1de97\n      eq\n      tag_3\n      jumpi\n      dup1\n      0x531aa03e\n      eq\n      tag_4\n      jumpi\n      dup1\n      0xe3433615\n      eq\n      tag_5\n      jumpi\n    tag_2:\n      0x00\n      dup1\n      revert\n        /* \"contracts/TheDexFactory.sol\":179:204  address[] public allPools */\n    tag_3:\n      tag_6\n      0x04\n      dup1\n      calldatasize\n      sub\n      dup2\n      add\n      swap1\n      tag_7\n      swap2\n      swap1\n      tag_8\n      jump\t// in\n    tag_7:\n      tag_9\n      jump\t// in\n    tag_6:\n      mload(0x40)\n      tag_10\n      swap2\n      swap1\n      tag_11\n      jump\t// in\n    tag_10:\n      mload(0x40)\n      dup1\n      swap2\n      sub\n      swap1\n      return\n        /* \"contracts/TheDexFactory.sol\":111:173  mapping(address => mapping(address => address)) public getPool */\n    tag_4:\n      tag_12\n      0x04\n      dup1\n      calldatasize\n      sub\n      dup2\n      add\n      swap1\n      tag_13\n      swap2\n      swap1\n      tag_14\n      jump\t// in\n    tag_13:\n      tag_15\n      jump\t// in\n    tag_12:\n      mload(0x40)\n      tag_16\n      swap2\n      swap1\n      tag_11\n      jump\t// in\n    tag_16:\n      mload(0x40)\n      dup1\n      swap2\n      sub\n      swap1\n      return\n        /* \"contracts/TheDexFactory.sol\":306:949  function createPool(address token1, address token2) external returns (address pool) {... */\n    tag_5:\n      tag_17\n      0x04\n      dup1\n      calldatasize\n      sub\n      dup2\n      add\n      swap1\n      tag_18\n      swap2\n      swap1\n      tag_14\n      jump\t// in\n    tag_18:\n      tag_19\n      jump\t// in\n    tag_17:\n      mload(0x40)\n      tag_20\n      swap2\n      swap1\n      tag_11\n      jump\t// in\n    tag_20:\n      mload(0x40)\n      dup1\n      swap2\n      sub\n      swap1\n      return\n        /* \"contracts/TheDexFactory.sol\":179:204  address[] public allPools */\n    tag_9:\n      0x01\n      dup2\n      dup2\n      sload\n      dup2\n      lt\n      tag_21\n      jumpi\n      0x00\n      dup1\n      revert\n    tag_21:\n      swap1\n      0x00\n      mstore\n      keccak256(0x00, 0x20)\n      add\n      0x00\n      swap2\n      pop\n      sload\n      swap1\n      0x0100\n      exp\n      swap1\n      div\n      0xffffffffffffffffffffffffffffffffffffffff\n      and\n      dup2\n      jump\t// out\n        /* \"contracts/TheDexFactory.sol\":111:173  mapping(address => mapping(address => address)) public getPool */\n    tag_15:\n      mstore(0x20, 0x00)\n      dup2\n      0x00\n      mstore\n      mstore(0x20, keccak256(0x00, 0x40))\n      dup1\n      0x00\n      mstore\n      keccak256(0x00, 0x40)\n      0x00\n      swap2\n      pop\n      swap2\n      pop\n      swap1\n      sload\n      swap1\n      0x0100\n      exp\n      swap1\n      div\n      0xffffffffffffffffffffffffffffffffffffffff\n      and\n      dup2\n      jump\t// out\n        /* \"contracts/TheDexFactory.sol\":306:949  function createPool(address token1, address token2) external returns (address pool) {... */\n    tag_19:\n        /* \"contracts/TheDexFactory.sol\":376:388  address pool */\n      0x00\n        /* \"contracts/TheDexFactory.sol\":418:424  token2 */\n      dup2\n        /* \"contracts/TheDexFactory.sol\":408:424  token1 != token2 */\n      0xffffffffffffffffffffffffffffffffffffffff\n      and\n        /* \"contracts/TheDexFactory.sol\":408:414  token1 */\n      dup4\n        /* \"contracts/TheDexFactory.sol\":408:424  token1 != token2 */\n      0xffffffffffffffffffffffffffffffffffffffff\n      and\n      sub\n        /* \"contracts/TheDexFactory.sol\":400:448  require(token1 != token2, \"Identical addresses\") */\n      tag_24\n      jumpi\n      mload(0x40)\n      0x08c379a000000000000000000000000000000000000000000000000000000000\n      dup2\n      mstore\n      0x04\n      add\n      tag_25\n      swap1\n      tag_26\n      jump\t// in\n    tag_25:\n      mload(0x40)\n      dup1\n      swap2\n      sub\n      swap1\n      revert\n    tag_24:\n        /* \"contracts/TheDexFactory.sol\":501:502  0 */\n      0x00\n        /* \"contracts/TheDexFactory.sol\":466:503  getPool[token1][token2] == address(0) */\n      0xffffffffffffffffffffffffffffffffffffffff\n      and\n        /* \"contracts/TheDexFactory.sol\":466:473  getPool */\n      0x00\n        /* \"contracts/TheDexFactory.sol\":466:481  getPool[token1] */\n      dup1\n        /* \"contracts/TheDexFactory.sol\":474:480  token1 */\n      dup6\n        /* \"contracts/TheDexFactory.sol\":466:481  getPool[token1] */\n      0xffffffffffffffffffffffffffffffffffffffff\n      and\n      0xffffffffffffffffffffffffffffffffffffffff\n      and\n      dup2\n      mstore\n      0x20\n      add\n      swap1\n      dup2\n      mstore\n      0x20\n      add\n      0x00\n      keccak256\n        /* \"contracts/TheDexFactory.sol\":466:489  getPool[token1][token2] */\n      0x00\n        /* \"contracts/TheDexFactory.sol\":482:488  token2 */\n      dup5\n        /* \"contracts/TheDexFactory.sol\":466:489  getPool[token1][token2] */\n      0xffffffffffffffffffffffffffffffffffffffff\n      and\n      0xffffffffffffffffffffffffffffffffffffffff\n      and\n      dup2\n      mstore\n      0x20\n      add\n      swap1\n      dup2\n      mstore\n      0x20\n      add\n      0x00\n      keccak256\n      0x00\n      swap1\n      sload\n      swap1\n      0x0100\n      exp\n      swap1\n      div\n      0xffffffffffffffffffffffffffffffffffffffff\n      and\n        /* \"contracts/TheDexFactory.sol\":466:503  getPool[token1][token2] == address(0) */\n      0xffffffffffffffffffffffffffffffffffffffff\n      and\n      eq\n        /* \"contracts/TheDexFactory.sol\":458:527  require(getPool[token1][token2] == address(0), \"Pool already exists\") */\n      tag_27\n      jumpi\n      mload(0x40)\n      0x08c379a000000000000000000000000000000000000000000000000000000000\n      dup2\n      mstore\n      0x04\n      add\n      tag_28\n      swap1\n      tag_29\n      jump\t// in\n    tag_28:\n      mload(0x40)\n      dup1\n      swap2\n      sub\n      swap1\n      revert\n    tag_27:\n        /* \"contracts/TheDexFactory.sol\":538:559  bytes memory bytecode */\n      0x00\n        /* \"contracts/TheDexFactory.sol\":562:587  type(TheDex).creationCode */\n      mload(0x40)\n      dup1\n      0x20\n      add\n      tag_30\n      swap1\n      tag_31\n      jump\t// in\n    tag_30:\n      0x20\n      dup3\n      add\n      dup2\n      sub\n      dup3\n      mstore\n      not(0x1f)\n      0x1f\n      dup3\n      add\n      and\n      0x40\n      mstore\n      pop\n        /* \"contracts/TheDexFactory.sol\":538:587  bytes memory bytecode = type(TheDex).creationCode */\n      swap1\n      pop\n        /* \"contracts/TheDexFactory.sol\":597:609  bytes32 salt */\n      0x00\n        /* \"contracts/TheDexFactory.sol\":639:645  token1 */\n      dup5\n        /* \"contracts/TheDexFactory.sol\":647:653  token2 */\n      dup5\n        /* \"contracts/TheDexFactory.sol\":622:654  abi.encodePacked(token1, token2) */\n      add(0x20, mload(0x40))\n      tag_32\n      swap3\n      swap2\n      swap1\n      tag_33\n      jump\t// in\n    tag_32:\n      mload(0x40)\n      0x20\n      dup2\n      dup4\n      sub\n      sub\n      dup2\n      mstore\n      swap1\n      0x40\n      mstore\n        /* \"contracts/TheDexFactory.sol\":612:655  keccak256(abi.encodePacked(token1, token2)) */\n      dup1\n      mload\n      swap1\n      0x20\n      add\n      keccak256\n        /* \"contracts/TheDexFactory.sol\":597:655  bytes32 salt = keccak256(abi.encodePacked(token1, token2)) */\n      swap1\n      pop\n        /* \"contracts/TheDexFactory.sol\":743:747  salt */\n      dup1\n        /* \"contracts/TheDexFactory.sol\":732:740  bytecode */\n      dup3\n        /* \"contracts/TheDexFactory.sol\":726:741  mload(bytecode) */\n      mload\n        /* \"contracts/TheDexFactory.sol\":721:723  32 */\n      0x20\n        /* \"contracts/TheDexFactory.sol\":711:719  bytecode */\n      dup5\n        /* \"contracts/TheDexFactory.sol\":707:724  add(bytecode, 32) */\n      add\n        /* \"contracts/TheDexFactory.sol\":704:705  0 */\n      0x00\n        /* \"contracts/TheDexFactory.sol\":696:748  create2(0, add(bytecode, 32), mload(bytecode), salt) */\n      create2\n        /* \"contracts/TheDexFactory.sol\":688:748  pool := create2(0, add(bytecode, 32), mload(bytecode), salt) */\n      swap3\n      pop\n        /* \"contracts/TheDexFactory.sol\":775:779  pool */\n      dup3\n        /* \"contracts/TheDexFactory.sol\":768:791  TheDex(pool).initialize */\n      0xffffffffffffffffffffffffffffffffffffffff\n      and\n      0x485cc955\n        /* \"contracts/TheDexFactory.sol\":792:798  token1 */\n      dup7\n        /* \"contracts/TheDexFactory.sol\":800:806  token2 */\n      dup7\n        /* \"contracts/TheDexFactory.sol\":768:807  TheDex(pool).initialize(token1, token2) */\n      mload(0x40)\n      dup4\n      0xffffffff\n      and\n      0xe0\n      shl\n      dup2\n      mstore\n      0x04\n      add\n      tag_34\n      swap3\n      swap2\n      swap1\n      tag_35\n      jump\t// in\n    tag_34:\n      0x00\n      mload(0x40)\n      dup1\n      dup4\n      sub\n      dup2\n      0x00\n      dup8\n      dup1\n      extcodesize\n      iszero\n      dup1\n      iszero\n      tag_36\n      jumpi\n      0x00\n      dup1\n      revert\n    tag_36:\n      pop\n      gas\n      call\n      iszero\n      dup1\n      iszero\n      tag_38\n      jumpi\n      returndatasize\n      0x00\n      dup1\n      returndatacopy\n      revert(0x00, returndatasize)\n    tag_38:\n      pop\n      pop\n      pop\n      pop\n        /* \"contracts/TheDexFactory.sol\":843:847  pool */\n      dup3\n        /* \"contracts/TheDexFactory.sol\":817:824  getPool */\n      0x00\n        /* \"contracts/TheDexFactory.sol\":817:832  getPool[token1] */\n      dup1\n        /* \"contracts/TheDexFactory.sol\":825:831  token1 */\n      dup8\n        /* \"contracts/TheDexFactory.sol\":817:832  getPool[token1] */\n      0xffffffffffffffffffffffffffffffffffffffff\n      and\n      0xffffffffffffffffffffffffffffffffffffffff\n      and\n      dup2\n      mstore\n      0x20\n      add\n      swap1\n      dup2\n      mstore\n      0x20\n      add\n      0x00\n      keccak256\n        /* \"contracts/TheDexFactory.sol\":817:840  getPool[token1][token2] */\n      0x00\n        /* \"contracts/TheDexFactory.sol\":833:839  token2 */\n      dup7\n        /* \"contracts/TheDexFactory.sol\":817:840  getPool[token1][token2] */\n      0xffffffffffffffffffffffffffffffffffffffff\n      and\n      0xffffffffffffffffffffffffffffffffffffffff\n      and\n      dup2\n      mstore\n      0x20\n      add\n      swap1\n      dup2\n      mstore\n      0x20\n      add\n      0x00\n      keccak256\n      0x00\n        /* \"contracts/TheDexFactory.sol\":817:847  getPool[token1][token2] = pool */\n      0x0100\n      exp\n      dup2\n      sload\n      dup2\n      0xffffffffffffffffffffffffffffffffffffffff\n      mul\n      not\n      and\n      swap1\n      dup4\n      0xffffffffffffffffffffffffffffffffffffffff\n      and\n      mul\n      or\n      swap1\n      sstore\n      pop\n        /* \"contracts/TheDexFactory.sol\":857:865  allPools */\n      0x01\n        /* \"contracts/TheDexFactory.sol\":871:875  pool */\n      dup4\n        /* \"contracts/TheDexFactory.sol\":857:876  allPools.push(pool) */\n      swap1\n      dup1\n      0x01\n      dup2\n      sload\n      add\n      dup1\n      dup3\n      sstore\n      dup1\n      swap2\n      pop\n      pop\n      0x01\n      swap1\n      sub\n      swap1\n      0x00\n      mstore\n      keccak256(0x00, 0x20)\n      add\n      0x00\n      swap1\n      swap2\n      swap1\n      swap2\n      swap1\n      swap2\n      0x0100\n      exp\n      dup2\n      sload\n      dup2\n      0xffffffffffffffffffffffffffffffffffffffff\n      mul\n      not\n      and\n      swap1\n      dup4\n      0xffffffffffffffffffffffffffffffffffffffff\n      and\n      mul\n      or\n      swap1\n      sstore\n      pop\n        /* \"contracts/TheDexFactory.sol\":912:918  token2 */\n      dup4\n        /* \"contracts/TheDexFactory.sol\":892:942  PoolCreated(token1, token2, pool, allPools.length) */\n      0xffffffffffffffffffffffffffffffffffffffff\n      and\n        /* \"contracts/TheDexFactory.sol\":904:910  token1 */\n      dup6\n        /* \"contracts/TheDexFactory.sol\":892:942  PoolCreated(token1, token2, pool, allPools.length) */\n      0xffffffffffffffffffffffffffffffffffffffff\n      and\n      0xebbbe9dc3a19d2f959ac76ac0372b4983cdfb945f5d6aef4873c36fabb2ba8aa\n        /* \"contracts/TheDexFactory.sol\":920:924  pool */\n      dup6\n        /* \"contracts/TheDexFactory.sol\":926:934  allPools */\n      0x01\n        /* \"contracts/TheDexFactory.sol\":926:941  allPools.length */\n      dup1\n      sload\n      swap1\n      pop\n        /* \"contracts/TheDexFactory.sol\":892:942  PoolCreated(token1, token2, pool, allPools.length) */\n      mload(0x40)\n      tag_40\n      swap3\n      swap2\n      swap1\n      tag_41\n      jump\t// in\n    tag_40:\n      mload(0x40)\n      dup1\n      swap2\n      sub\n      swap1\n      log3\n        /* \"contracts/TheDexFactory.sol\":390:949  {... */\n      pop\n      pop\n        /* \"contracts/TheDexFactory.sol\":306:949  function createPool(address token1, address token2) external returns (address pool) {... */\n      swap3\n      swap2\n      pop\n      pop\n      jump\t// out\n    tag_31:\n      dataSize(sub_0)\n      dup1\n      dataOffset(sub_0)\n      dup4\n      codecopy\n      add\n      swap1\n      jump\t// out\n        /* \"#utility.yul\":88:205   */\n    tag_43:\n        /* \"#utility.yul\":197:198   */\n      0x00\n        /* \"#utility.yul\":194:195   */\n      dup1\n        /* \"#utility.yul\":187:199   */\n      revert\n        /* \"#utility.yul\":334:411   */\n    tag_45:\n        /* \"#utility.yul\":371:378   */\n      0x00\n        /* \"#utility.yul\":400:405   */\n      dup2\n        /* \"#utility.yul\":389:405   */\n      swap1\n      pop\n        /* \"#utility.yul\":334:411   */\n      swap2\n      swap1\n      pop\n      jump\t// out\n        /* \"#utility.yul\":417:539   */\n    tag_46:\n        /* \"#utility.yul\":490:514   */\n      tag_69\n        /* \"#utility.yul\":508:513   */\n      dup2\n        /* \"#utility.yul\":490:514   */\n      tag_45\n      jump\t// in\n    tag_69:\n        /* \"#utility.yul\":483:488   */\n      dup2\n        /* \"#utility.yul\":480:515   */\n      eq\n        /* \"#utility.yul\":470:533   */\n      tag_70\n      jumpi\n        /* \"#utility.yul\":529:530   */\n      0x00\n        /* \"#utility.yul\":526:527   */\n      dup1\n        /* \"#utility.yul\":519:531   */\n      revert\n        /* \"#utility.yul\":470:533   */\n    tag_70:\n        /* \"#utility.yul\":417:539   */\n      pop\n      jump\t// out\n        /* \"#utility.yul\":545:684   */\n    tag_47:\n        /* \"#utility.yul\":591:596   */\n      0x00\n        /* \"#utility.yul\":629:635   */\n      dup2\n        /* \"#utility.yul\":616:636   */\n      calldataload\n        /* \"#utility.yul\":607:636   */\n      swap1\n      pop\n        /* \"#utility.yul\":645:678   */\n      tag_72\n        /* \"#utility.yul\":672:677   */\n      dup2\n        /* \"#utility.yul\":645:678   */\n      tag_46\n      jump\t// in\n    tag_72:\n        /* \"#utility.yul\":545:684   */\n      swap3\n      swap2\n      pop\n      pop\n      jump\t// out\n        /* \"#utility.yul\":690:1019   */\n    tag_8:\n        /* \"#utility.yul\":749:755   */\n      0x00\n        /* \"#utility.yul\":798:800   */\n      0x20\n        /* \"#utility.yul\":786:795   */\n      dup3\n        /* \"#utility.yul\":777:784   */\n      dup5\n        /* \"#utility.yul\":773:796   */\n      sub\n        /* \"#utility.yul\":769:801   */\n      slt\n        /* \"#utility.yul\":766:885   */\n      iszero\n      tag_74\n      jumpi\n        /* \"#utility.yul\":804:883   */\n      tag_75\n      tag_43\n      jump\t// in\n    tag_75:\n        /* \"#utility.yul\":766:885   */\n    tag_74:\n        /* \"#utility.yul\":924:925   */\n      0x00\n        /* \"#utility.yul\":949:1002   */\n      tag_76\n        /* \"#utility.yul\":994:1001   */\n      dup5\n        /* \"#utility.yul\":985:991   */\n      dup3\n        /* \"#utility.yul\":974:983   */\n      dup6\n        /* \"#utility.yul\":970:992   */\n      add\n        /* \"#utility.yul\":949:1002   */\n      tag_47\n      jump\t// in\n    tag_76:\n        /* \"#utility.yul\":939:1002   */\n      swap2\n      pop\n        /* \"#utility.yul\":895:1012   */\n      pop\n        /* \"#utility.yul\":690:1019   */\n      swap3\n      swap2\n      pop\n      pop\n      jump\t// out\n        /* \"#utility.yul\":1025:1151   */\n    tag_48:\n        /* \"#utility.yul\":1062:1069   */\n      0x00\n        /* \"#utility.yul\":1102:1144   */\n      0xffffffffffffffffffffffffffffffffffffffff\n        /* \"#utility.yul\":1095:1100   */\n      dup3\n        /* \"#utility.yul\":1091:1145   */\n      and\n        /* \"#utility.yul\":1080:1145   */\n      swap1\n      pop\n        /* \"#utility.yul\":1025:1151   */\n      swap2\n      swap1\n      pop\n      jump\t// out\n        /* \"#utility.yul\":1157:1253   */\n    tag_49:\n        /* \"#utility.yul\":1194:1201   */\n      0x00\n        /* \"#utility.yul\":1223:1247   */\n      tag_79\n        /* \"#utility.yul\":1241:1246   */\n      dup3\n        /* \"#utility.yul\":1223:1247   */\n      tag_48\n      jump\t// in\n    tag_79:\n        /* \"#utility.yul\":1212:1247   */\n      swap1\n      pop\n        /* \"#utility.yul\":1157:1253   */\n      swap2\n      swap1\n      pop\n      jump\t// out\n        /* \"#utility.yul\":1259:1377   */\n    tag_50:\n        /* \"#utility.yul\":1346:1370   */\n      tag_81\n        /* \"#utility.yul\":1364:1369   */\n      dup2\n        /* \"#utility.yul\":1346:1370   */\n      tag_49\n      jump\t// in\n    tag_81:\n        /* \"#utility.yul\":1341:1344   */\n      dup3\n        /* \"#utility.yul\":1334:1371   */\n      mstore\n        /* \"#utility.yul\":1259:1377   */\n      pop\n      pop\n      jump\t// out\n        /* \"#utility.yul\":1383:1605   */\n    tag_11:\n        /* \"#utility.yul\":1476:1480   */\n      0x00\n        /* \"#utility.yul\":1514:1516   */\n      0x20\n        /* \"#utility.yul\":1503:1512   */\n      dup3\n        /* \"#utility.yul\":1499:1517   */\n      add\n        /* \"#utility.yul\":1491:1517   */\n      swap1\n      pop\n        /* \"#utility.yul\":1527:1598   */\n      tag_83\n        /* \"#utility.yul\":1595:1596   */\n      0x00\n        /* \"#utility.yul\":1584:1593   */\n      dup4\n        /* \"#utility.yul\":1580:1597   */\n      add\n        /* \"#utility.yul\":1571:1577   */\n      dup5\n        /* \"#utility.yul\":1527:1598   */\n      tag_50\n      jump\t// in\n    tag_83:\n        /* \"#utility.yul\":1383:1605   */\n      swap3\n      swap2\n      pop\n      pop\n      jump\t// out\n        /* \"#utility.yul\":1611:1733   */\n    tag_51:\n        /* \"#utility.yul\":1684:1708   */\n      tag_85\n        /* \"#utility.yul\":1702:1707   */\n      dup2\n        /* \"#utility.yul\":1684:1708   */\n      tag_49\n      jump\t// in\n    tag_85:\n        /* \"#utility.yul\":1677:1682   */\n      dup2\n        /* \"#utility.yul\":1674:1709   */\n      eq\n        /* \"#utility.yul\":1664:1727   */\n      tag_86\n      jumpi\n        /* \"#utility.yul\":1723:1724   */\n      0x00\n        /* \"#utility.yul\":1720:1721   */\n      dup1\n        /* \"#utility.yul\":1713:1725   */\n      revert\n        /* \"#utility.yul\":1664:1727   */\n    tag_86:\n        /* \"#utility.yul\":1611:1733   */\n      pop\n      jump\t// out\n        /* \"#utility.yul\":1739:1878   */\n    tag_52:\n        /* \"#utility.yul\":1785:1790   */\n      0x00\n        /* \"#utility.yul\":1823:1829   */\n      dup2\n        /* \"#utility.yul\":1810:1830   */\n      calldataload\n        /* \"#utility.yul\":1801:1830   */\n      swap1\n      pop\n        /* \"#utility.yul\":1839:1872   */\n      tag_88\n        /* \"#utility.yul\":1866:1871   */\n      dup2\n        /* \"#utility.yul\":1839:1872   */\n      tag_51\n      jump\t// in\n    tag_88:\n        /* \"#utility.yul\":1739:1878   */\n      swap3\n      swap2\n      pop\n      pop\n      jump\t// out\n        /* \"#utility.yul\":1884:2358   */\n    tag_14:\n        /* \"#utility.yul\":1952:1958   */\n      0x00\n        /* \"#utility.yul\":1960:1966   */\n      dup1\n        /* \"#utility.yul\":2009:2011   */\n      0x40\n        /* \"#utility.yul\":1997:2006   */\n      dup4\n        /* \"#utility.yul\":1988:1995   */\n      dup6\n        /* \"#utility.yul\":1984:2007   */\n      sub\n        /* \"#utility.yul\":1980:2012   */\n      slt\n        /* \"#utility.yul\":1977:2096   */\n      iszero\n      tag_90\n      jumpi\n        /* \"#utility.yul\":2015:2094   */\n      tag_91\n      tag_43\n      jump\t// in\n    tag_91:\n        /* \"#utility.yul\":1977:2096   */\n    tag_90:\n        /* \"#utility.yul\":2135:2136   */\n      0x00\n        /* \"#utility.yul\":2160:2213   */\n      tag_92\n        /* \"#utility.yul\":2205:2212   */\n      dup6\n        /* \"#utility.yul\":2196:2202   */\n      dup3\n        /* \"#utility.yul\":2185:2194   */\n      dup7\n        /* \"#utility.yul\":2181:2203   */\n      add\n        /* \"#utility.yul\":2160:2213   */\n      tag_52\n      jump\t// in\n    tag_92:\n        /* \"#utility.yul\":2150:2213   */\n      swap3\n      pop\n        /* \"#utility.yul\":2106:2223   */\n      pop\n        /* \"#utility.yul\":2262:2264   */\n      0x20\n        /* \"#utility.yul\":2288:2341   */\n      tag_93\n        /* \"#utility.yul\":2333:2340   */\n      dup6\n        /* \"#utility.yul\":2324:2330   */\n      dup3\n        /* \"#utility.yul\":2313:2322   */\n      dup7\n        /* \"#utility.yul\":2309:2331   */\n      add\n        /* \"#utility.yul\":2288:2341   */\n      tag_52\n      jump\t// in\n    tag_93:\n        /* \"#utility.yul\":2278:2341   */\n      swap2\n      pop\n        /* \"#utility.yul\":2233:2351   */\n      pop\n        /* \"#utility.yul\":1884:2358   */\n      swap3\n      pop\n      swap3\n      swap1\n      pop\n      jump\t// out\n        /* \"#utility.yul\":2364:2533   */\n    tag_53:\n        /* \"#utility.yul\":2448:2459   */\n      0x00\n        /* \"#utility.yul\":2482:2488   */\n      dup3\n        /* \"#utility.yul\":2477:2480   */\n      dup3\n        /* \"#utility.yul\":2470:2489   */\n      mstore\n        /* \"#utility.yul\":2522:2526   */\n      0x20\n        /* \"#utility.yul\":2517:2520   */\n      dup3\n        /* \"#utility.yul\":2513:2527   */\n      add\n        /* \"#utility.yul\":2498:2527   */\n      swap1\n      pop\n        /* \"#utility.yul\":2364:2533   */\n      swap3\n      swap2\n      pop\n      pop\n      jump\t// out\n        /* \"#utility.yul\":2539:2708   */\n    tag_54:\n        /* \"#utility.yul\":2679:2700   */\n      0x4964656e746963616c2061646472657373657300000000000000000000000000\n        /* \"#utility.yul\":2675:2676   */\n      0x00\n        /* \"#utility.yul\":2667:2673   */\n      dup3\n        /* \"#utility.yul\":2663:2677   */\n      add\n        /* \"#utility.yul\":2656:2701   */\n      mstore\n        /* \"#utility.yul\":2539:2708   */\n      pop\n      jump\t// out\n        /* \"#utility.yul\":2714:3080   */\n    tag_55:\n        /* \"#utility.yul\":2856:2859   */\n      0x00\n        /* \"#utility.yul\":2877:2944   */\n      tag_97\n        /* \"#utility.yul\":2941:2943   */\n      0x13\n        /* \"#utility.yul\":2936:2939   */\n      dup4\n        /* \"#utility.yul\":2877:2944   */\n      tag_53\n      jump\t// in\n    tag_97:\n        /* \"#utility.yul\":2870:2944   */\n      swap2\n      pop\n        /* \"#utility.yul\":2953:3046   */\n      tag_98\n        /* \"#utility.yul\":3042:3045   */\n      dup3\n        /* \"#utility.yul\":2953:3046   */\n      tag_54\n      jump\t// in\n    tag_98:\n        /* \"#utility.yul\":3071:3073   */\n      0x20\n        /* \"#utility.yul\":3066:3069   */\n      dup3\n        /* \"#utility.yul\":3062:3074   */\n      add\n        /* \"#utility.yul\":3055:3074   */\n      swap1\n      pop\n        /* \"#utility.yul\":2714:3080   */\n      swap2\n      swap1\n      pop\n      jump\t// out\n        /* \"#utility.yul\":3086:3505   */\n    tag_26:\n        /* \"#utility.yul\":3252:3256   */\n      0x00\n        /* \"#utility.yul\":3290:3292   */\n      0x20\n        /* \"#utility.yul\":3279:3288   */\n      dup3\n        /* \"#utility.yul\":3275:3293   */\n      add\n        /* \"#utility.yul\":3267:3293   */\n      swap1\n      pop\n        /* \"#utility.yul\":3339:3348   */\n      dup2\n        /* \"#utility.yul\":3333:3337   */\n      dup2\n        /* \"#utility.yul\":3329:3349   */\n      sub\n        /* \"#utility.yul\":3325:3326   */\n      0x00\n        /* \"#utility.yul\":3314:3323   */\n      dup4\n        /* \"#utility.yul\":3310:3327   */\n      add\n        /* \"#utility.yul\":3303:3350   */\n      mstore\n        /* \"#utility.yul\":3367:3498   */\n      tag_100\n        /* \"#utility.yul\":3493:3497   */\n      dup2\n        /* \"#utility.yul\":3367:3498   */\n      tag_55\n      jump\t// in\n    tag_100:\n        /* \"#utility.yul\":3359:3498   */\n      swap1\n      pop\n        /* \"#utility.yul\":3086:3505   */\n      swap2\n      swap1\n      pop\n      jump\t// out\n        /* \"#utility.yul\":3511:3680   */\n    tag_56:\n        /* \"#utility.yul\":3651:3672   */\n      0x506f6f6c20616c72656164792065786973747300000000000000000000000000\n        /* \"#utility.yul\":3647:3648   */\n      0x00\n        /* \"#utility.yul\":3639:3645   */\n      dup3\n        /* \"#utility.yul\":3635:3649   */\n      add\n        /* \"#utility.yul\":3628:3673   */\n      mstore\n        /* \"#utility.yul\":3511:3680   */\n      pop\n      jump\t// out\n        /* \"#utility.yul\":3686:4052   */\n    tag_57:\n        /* \"#utility.yul\":3828:3831   */\n      0x00\n        /* \"#utility.yul\":3849:3916   */\n      tag_103\n        /* \"#utility.yul\":3913:3915   */\n      0x13\n        /* \"#utility.yul\":3908:3911   */\n      dup4\n        /* \"#utility.yul\":3849:3916   */\n      tag_53\n      jump\t// in\n    tag_103:\n        /* \"#utility.yul\":3842:3916   */\n      swap2\n      pop\n        /* \"#utility.yul\":3925:4018   */\n      tag_104\n        /* \"#utility.yul\":4014:4017   */\n      dup3\n        /* \"#utility.yul\":3925:4018   */\n      tag_56\n      jump\t// in\n    tag_104:\n        /* \"#utility.yul\":4043:4045   */\n      0x20\n        /* \"#utility.yul\":4038:4041   */\n      dup3\n        /* \"#utility.yul\":4034:4046   */\n      add\n        /* \"#utility.yul\":4027:4046   */\n      swap1\n      pop\n        /* \"#utility.yul\":3686:4052   */\n      swap2\n      swap1\n      pop\n      jump\t// out\n        /* \"#utility.yul\":4058:4477   */\n    tag_29:\n        /* \"#utility.yul\":4224:4228   */\n      0x00\n        /* \"#utility.yul\":4262:4264   */\n      0x20\n        /* \"#utility.yul\":4251:4260   */\n      dup3\n        /* \"#utility.yul\":4247:4265   */\n      add\n        /* \"#utility.yul\":4239:4265   */\n      swap1\n      pop\n        /* \"#utility.yul\":4311:4320   */\n      dup2\n        /* \"#utility.yul\":4305:4309   */\n      dup2\n        /* \"#utility.yul\":4301:4321   */\n      sub\n        /* \"#utility.yul\":4297:4298   */\n      0x00\n        /* \"#utility.yul\":4286:4295   */\n      dup4\n        /* \"#utility.yul\":4282:4299   */\n      add\n        /* \"#utility.yul\":4275:4322   */\n      mstore\n        /* \"#utility.yul\":4339:4470   */\n      tag_106\n        /* \"#utility.yul\":4465:4469   */\n      dup2\n        /* \"#utility.yul\":4339:4470   */\n      tag_57\n      jump\t// in\n    tag_106:\n        /* \"#utility.yul\":4331:4470   */\n      swap1\n      pop\n        /* \"#utility.yul\":4058:4477   */\n      swap2\n      swap1\n      pop\n      jump\t// out\n        /* \"#utility.yul\":4483:4577   */\n    tag_58:\n        /* \"#utility.yul\":4516:4524   */\n      0x00\n        /* \"#utility.yul\":4564:4569   */\n      dup2\n        /* \"#utility.yul\":4560:4562   */\n      0x60\n        /* \"#utility.yul\":4556:4570   */\n      shl\n        /* \"#utility.yul\":4535:4570   */\n      swap1\n      pop\n        /* \"#utility.yul\":4483:4577   */\n      swap2\n      swap1\n      pop\n      jump\t// out\n        /* \"#utility.yul\":4583:4677   */\n    tag_59:\n        /* \"#utility.yul\":4622:4629   */\n      0x00\n        /* \"#utility.yul\":4651:4671   */\n      tag_109\n        /* \"#utility.yul\":4665:4670   */\n      dup3\n        /* \"#utility.yul\":4651:4671   */\n      tag_58\n      jump\t// in\n    tag_109:\n        /* \"#utility.yul\":4640:4671   */\n      swap1\n      pop\n        /* \"#utility.yul\":4583:4677   */\n      swap2\n      swap1\n      pop\n      jump\t// out\n        /* \"#utility.yul\":4683:4783   */\n    tag_60:\n        /* \"#utility.yul\":4722:4729   */\n      0x00\n        /* \"#utility.yul\":4751:4777   */\n      tag_111\n        /* \"#utility.yul\":4771:4776   */\n      dup3\n        /* \"#utility.yul\":4751:4777   */\n      tag_59\n      jump\t// in\n    tag_111:\n        /* \"#utility.yul\":4740:4777   */\n      swap1\n      pop\n        /* \"#utility.yul\":4683:4783   */\n      swap2\n      swap1\n      pop\n      jump\t// out\n        /* \"#utility.yul\":4789:4946   */\n    tag_61:\n        /* \"#utility.yul\":4894:4939   */\n      tag_113\n        /* \"#utility.yul\":4914:4938   */\n      tag_114\n        /* \"#utility.yul\":4932:4937   */\n      dup3\n        /* \"#utility.yul\":4914:4938   */\n      tag_49\n      jump\t// in\n    tag_114:\n        /* \"#utility.yul\":4894:4939   */\n      tag_60\n      jump\t// in\n    tag_113:\n        /* \"#utility.yul\":4889:4892   */\n      dup3\n        /* \"#utility.yul\":4882:4940   */\n      mstore\n        /* \"#utility.yul\":4789:4946   */\n      pop\n      pop\n      jump\t// out\n        /* \"#utility.yul\":4952:5349   */\n    tag_33:\n        /* \"#utility.yul\":5092:5095   */\n      0x00\n        /* \"#utility.yul\":5107:5182   */\n      tag_116\n        /* \"#utility.yul\":5178:5181   */\n      dup3\n        /* \"#utility.yul\":5169:5175   */\n      dup6\n        /* \"#utility.yul\":5107:5182   */\n      tag_61\n      jump\t// in\n    tag_116:\n        /* \"#utility.yul\":5207:5209   */\n      0x14\n        /* \"#utility.yul\":5202:5205   */\n      dup3\n        /* \"#utility.yul\":5198:5210   */\n      add\n        /* \"#utility.yul\":5191:5210   */\n      swap2\n      pop\n        /* \"#utility.yul\":5220:5295   */\n      tag_117\n        /* \"#utility.yul\":5291:5294   */\n      dup3\n        /* \"#utility.yul\":5282:5288   */\n      dup5\n        /* \"#utility.yul\":5220:5295   */\n      tag_61\n      jump\t// in\n    tag_117:\n        /* \"#utility.yul\":5320:5322   */\n      0x14\n        /* \"#utility.yul\":5315:5318   */\n      dup3\n        /* \"#utility.yul\":5311:5323   */\n      add\n        /* \"#utility.yul\":5304:5323   */\n      swap2\n      pop\n        /* \"#utility.yul\":5340:5343   */\n      dup2\n        /* \"#utility.yul\":5333:5343   */\n      swap1\n      pop\n        /* \"#utility.yul\":4952:5349   */\n      swap4\n      swap3\n      pop\n      pop\n      pop\n      jump\t// out\n        /* \"#utility.yul\":5355:5687   */\n    tag_35:\n        /* \"#utility.yul\":5476:5480   */\n      0x00\n        /* \"#utility.yul\":5514:5516   */\n      0x40\n        /* \"#utility.yul\":5503:5512   */\n      dup3\n        /* \"#utility.yul\":5499:5517   */\n      add\n        /* \"#utility.yul\":5491:5517   */\n      swap1\n      pop\n        /* \"#utility.yul\":5527:5598   */\n      tag_119\n        /* \"#utility.yul\":5595:5596   */\n      0x00\n        /* \"#utility.yul\":5584:5593   */\n      dup4\n        /* \"#utility.yul\":5580:5597   */\n      add\n        /* \"#utility.yul\":5571:5577   */\n      dup6\n        /* \"#utility.yul\":5527:5598   */\n      tag_50\n      jump\t// in\n    tag_119:\n        /* \"#utility.yul\":5608:5680   */\n      tag_120\n        /* \"#utility.yul\":5676:5678   */\n      0x20\n        /* \"#utility.yul\":5665:5674   */\n      dup4\n        /* \"#utility.yul\":5661:5679   */\n      add\n        /* \"#utility.yul\":5652:5658   */\n      dup5\n        /* \"#utility.yul\":5608:5680   */\n      tag_50\n      jump\t// in\n    tag_120:\n        /* \"#utility.yul\":5355:5687   */\n      swap4\n      swap3\n      pop\n      pop\n      pop\n      jump\t// out\n        /* \"#utility.yul\":5693:5811   */\n    tag_62:\n        /* \"#utility.yul\":5780:5804   */\n      tag_122\n        /* \"#utility.yul\":5798:5803   */\n      dup2\n        /* \"#utility.yul\":5780:5804   */\n      tag_45\n      jump\t// in\n    tag_122:\n        /* \"#utility.yul\":5775:5778   */\n      dup3\n        /* \"#utility.yul\":5768:5805   */\n      mstore\n        /* \"#utility.yul\":5693:5811   */\n      pop\n      pop\n      jump\t// out\n        /* \"#utility.yul\":5817:6149   */\n    tag_41:\n        /* \"#utility.yul\":5938:5942   */\n      0x00\n        /* \"#utility.yul\":5976:5978   */\n      0x40\n        /* \"#utility.yul\":5965:5974   */\n      dup3\n        /* \"#utility.yul\":5961:5979   */\n      add\n        /* \"#utility.yul\":5953:5979   */\n      swap1\n      pop\n        /* \"#utility.yul\":5989:6060   */\n      tag_124\n        /* \"#utility.yul\":6057:6058   */\n      0x00\n        /* \"#utility.yul\":6046:6055   */\n      dup4\n        /* \"#utility.yul\":6042:6059   */\n      add\n        /* \"#utility.yul\":6033:6039   */\n      dup6\n        /* \"#utility.yul\":5989:6060   */\n      tag_50\n      jump\t// in\n    tag_124:\n        /* \"#utility.yul\":6070:6142   */\n      tag_125\n        /* \"#utility.yul\":6138:6140   */\n      0x20\n        /* \"#utility.yul\":6127:6136   */\n      dup4\n        /* \"#utility.yul\":6123:6141   */\n      add\n        /* \"#utility.yul\":6114:6120   */\n      dup5\n        /* \"#utility.yul\":6070:6142   */\n      tag_62\n      jump\t// in\n    tag_125:\n        /* \"#utility.yul\":5817:6149   */\n      swap4\n      swap3\n      pop\n      pop\n      pop\n      jump\t// out\n    stop\n\n    sub_0: assembly {\n            /* \"contracts/TheDex.sol\":381:6085  contract TheDex {... */\n          mstore(0x40, 0x80)\n          callvalue\n          dup1\n          iszero\n          tag_1\n          jumpi\n          0x00\n          dup1\n          revert\n        tag_1:\n          pop\n          dataSize(sub_0)\n          dup1\n          dataOffset(sub_0)\n          0x00\n          codecopy\n          0x00\n          return\n        stop\n\n        sub_0: assembly {\n                /* \"contracts/TheDex.sol\":381:6085  contract TheDex {... */\n              mstore(0x40, 0x80)\n              callvalue\n              dup1\n              iszero\n              tag_1\n              jumpi\n              0x00\n              dup1\n              revert\n            tag_1:\n              pop\n              jumpi(tag_2, lt(calldatasize, 0x04))\n              shr(0xe0, calldataload(0x00))\n              dup1\n              0x565841d1\n              gt\n              tag_11\n              jumpi\n              dup1\n              0x565841d1\n              eq\n              tag_7\n              jumpi\n              dup1\n              0xcf6c62ea\n              eq\n              tag_8\n              jumpi\n              dup1\n              0xd752fab2\n              eq\n              tag_9\n              jumpi\n              dup1\n              0xd7cb416f\n              eq\n              tag_10\n              jumpi\n              jump(tag_2)\n            tag_11:\n              dup1\n              0x158ef93e\n              eq\n              tag_3\n              jumpi\n              dup1\n              0x2456af82\n              eq\n              tag_4\n              jumpi\n              dup1\n              0x485cc955\n              eq\n              tag_5\n              jumpi\n              dup1\n              0x4a5a7270\n              eq\n              tag_6\n              jumpi\n            tag_2:\n              0x00\n              dup1\n              revert\n                /* \"contracts/TheDex.sol\":828:851  bool public initialized */\n            tag_3:\n              tag_12\n              tag_13\n              jump\t// in\n            tag_12:\n              mload(0x40)\n              tag_14\n              swap2\n              swap1\n              tag_15\n              jump\t// in\n            tag_14:\n              mload(0x40)\n              dup1\n              swap2\n              sub\n              swap1\n              return\n                /* \"contracts/TheDex.sol\":794:822  address public token2Address */\n            tag_4:\n              tag_16\n              tag_17\n              jump\t// in\n            tag_16:\n              mload(0x40)\n              tag_18\n              swap2\n              swap1\n              tag_19\n              jump\t// in\n            tag_18:\n              mload(0x40)\n              dup1\n              swap2\n              sub\n              swap1\n              return\n                /* \"contracts/TheDex.sol\":1218:1464  function initialize(address _token1Address, address _token2Address) external {... */\n            tag_5:\n              tag_20\n              0x04\n              dup1\n              calldatasize\n              sub\n              dup2\n              add\n              swap1\n              tag_21\n              swap2\n              swap1\n              tag_22\n              jump\t// in\n            tag_21:\n              tag_23\n              jump\t// in\n            tag_20:\n              stop\n                /* \"contracts/TheDex.sol\":4411:5695  function swapWithSlippageProtection(... */\n            tag_6:\n              tag_24\n              0x04\n              dup1\n              calldatasize\n              sub\n              dup2\n              add\n              swap1\n              tag_25\n              swap2\n              swap1\n              tag_26\n              jump\t// in\n            tag_25:\n              tag_27\n              jump\t// in\n            tag_24:\n              mload(0x40)\n              tag_28\n              swap2\n              swap1\n              tag_29\n              jump\t// in\n            tag_28:\n              mload(0x40)\n              dup1\n              swap2\n              sub\n              swap1\n              return\n                /* \"contracts/TheDex.sol\":678:753  mapping(address => mapping(address => LiquidityPool)) public liquidityPools */\n            tag_7:\n              tag_30\n              0x04\n              dup1\n              calldatasize\n              sub\n              dup2\n              add\n              swap1\n              tag_31\n              swap2\n              swap1\n              tag_22\n              jump\t// in\n            tag_31:\n              tag_32\n              jump\t// in\n            tag_30:\n              mload(0x40)\n              tag_33\n              swap4\n              swap3\n              swap2\n              swap1\n              tag_34\n              jump\t// in\n            tag_33:\n              mload(0x40)\n              dup1\n              swap2\n              sub\n              swap1\n              return\n                /* \"contracts/TheDex.sol\":1777:2738  function addLiquidity(... */\n            tag_8:\n              tag_35\n              0x04\n              dup1\n              calldatasize\n              sub\n              dup2\n              add\n              swap1\n              tag_36\n              swap2\n              swap1\n              tag_26\n              jump\t// in\n            tag_36:\n              tag_37\n              jump\t// in\n            tag_35:\n              stop\n                /* \"contracts/TheDex.sol\":2994:3952  function removeLiquidity(... */\n            tag_9:\n              tag_38\n              0x04\n              dup1\n              calldatasize\n              sub\n              dup2\n              add\n              swap1\n              tag_39\n              swap2\n              swap1\n              tag_40\n              jump\t// in\n            tag_39:\n              tag_41\n              jump\t// in\n            tag_38:\n              stop\n                /* \"contracts/TheDex.sol\":760:788  address public token1Address */\n            tag_10:\n              tag_42\n              tag_43\n              jump\t// in\n            tag_42:\n              mload(0x40)\n              tag_44\n              swap2\n              swap1\n              tag_19\n              jump\t// in\n            tag_44:\n              mload(0x40)\n              dup1\n              swap2\n              sub\n              swap1\n              return\n                /* \"contracts/TheDex.sol\":828:851  bool public initialized */\n            tag_13:\n              0x02\n              0x14\n              swap1\n              sload\n              swap1\n              0x0100\n              exp\n              swap1\n              div\n              0xff\n              and\n              dup2\n              jump\t// out\n                /* \"contracts/TheDex.sol\":794:822  address public token2Address */\n            tag_17:\n              0x02\n              0x00\n              swap1\n              sload\n              swap1\n              0x0100\n              exp\n              swap1\n              div\n              0xffffffffffffffffffffffffffffffffffffffff\n              and\n              dup2\n              jump\t// out\n                /* \"contracts/TheDex.sol\":1218:1464  function initialize(address _token1Address, address _token2Address) external {... */\n            tag_23:\n                /* \"contracts/TheDex.sol\":1314:1325  initialized */\n              0x02\n              0x14\n              swap1\n              sload\n              swap1\n              0x0100\n              exp\n              swap1\n              div\n              0xff\n              and\n                /* \"contracts/TheDex.sol\":1313:1325  !initialized */\n              iszero\n                /* \"contracts/TheDex.sol\":1305:1349  require(!initialized, \"Already initialized\") */\n              tag_46\n              jumpi\n              mload(0x40)\n              0x08c379a000000000000000000000000000000000000000000000000000000000\n              dup2\n              mstore\n              0x04\n              add\n              tag_47\n              swap1\n              tag_48\n              jump\t// in\n            tag_47:\n              mload(0x40)\n              dup1\n              swap2\n              sub\n              swap1\n              revert\n            tag_46:\n                /* \"contracts/TheDex.sol\":1375:1389  _token1Address */\n              dup2\n                /* \"contracts/TheDex.sol\":1359:1372  token1Address */\n              0x01\n              0x00\n                /* \"contracts/TheDex.sol\":1359:1389  token1Address = _token1Address */\n              0x0100\n              exp\n              dup2\n              sload\n              dup2\n              0xffffffffffffffffffffffffffffffffffffffff\n              mul\n              not\n              and\n              swap1\n              dup4\n              0xffffffffffffffffffffffffffffffffffffffff\n              and\n              mul\n              or\n              swap1\n              sstore\n              pop\n                /* \"contracts/TheDex.sol\":1415:1429  _token2Address */\n              dup1\n                /* \"contracts/TheDex.sol\":1399:1412  token2Address */\n              0x02\n              0x00\n                /* \"contracts/TheDex.sol\":1399:1429  token2Address = _token2Address */\n              0x0100\n              exp\n              dup2\n              sload\n              dup2\n              0xffffffffffffffffffffffffffffffffffffffff\n              mul\n              not\n              and\n              swap1\n              dup4\n              0xffffffffffffffffffffffffffffffffffffffff\n              and\n              mul\n              or\n              swap1\n              sstore\n              pop\n                /* \"contracts/TheDex.sol\":1453:1457  true */\n              0x01\n                /* \"contracts/TheDex.sol\":1439:1450  initialized */\n              0x02\n              0x14\n                /* \"contracts/TheDex.sol\":1439:1457  initialized = true */\n              0x0100\n              exp\n              dup2\n              sload\n              dup2\n              0xff\n              mul\n              not\n              and\n              swap1\n              dup4\n              iszero\n              iszero\n              mul\n              or\n              swap1\n              sstore\n              pop\n                /* \"contracts/TheDex.sol\":1218:1464  function initialize(address _token1Address, address _token2Address) external {... */\n              pop\n              pop\n              jump\t// out\n                /* \"contracts/TheDex.sol\":4411:5695  function swapWithSlippageProtection(... */\n            tag_27:\n                /* \"contracts/TheDex.sol\":4579:4596  uint256 amountOut */\n              0x00\n                /* \"contracts/TheDex.sol\":4629:4636  toToken */\n              dup4\n                /* \"contracts/TheDex.sol\":4616:4636  fromToken != toToken */\n              0xffffffffffffffffffffffffffffffffffffffff\n              and\n                /* \"contracts/TheDex.sol\":4616:4625  fromToken */\n              dup6\n                /* \"contracts/TheDex.sol\":4616:4636  fromToken != toToken */\n              0xffffffffffffffffffffffffffffffffffffffff\n              and\n              sub\n                /* \"contracts/TheDex.sol\":4608:4670  require(fromToken != toToken, \"Cannot swap identical tokens.\") */\n              tag_50\n              jumpi\n              mload(0x40)\n              0x08c379a000000000000000000000000000000000000000000000000000000000\n              dup2\n              mstore\n              0x04\n              add\n              tag_51\n              swap1\n              tag_52\n              jump\t// in\n            tag_51:\n              mload(0x40)\n              dup1\n              swap2\n              sub\n              swap1\n              revert\n            tag_50:\n                /* \"contracts/TheDex.sol\":4699:4700  0 */\n              0x00\n                /* \"contracts/TheDex.sol\":4688:4696  amountIn */\n              dup4\n                /* \"contracts/TheDex.sol\":4688:4700  amountIn > 0 */\n              gt\n                /* \"contracts/TheDex.sol\":4680:4738  require(amountIn > 0, \"Amount must be greater than zero.\") */\n              tag_53\n              jumpi\n              mload(0x40)\n              0x08c379a000000000000000000000000000000000000000000000000000000000\n              dup2\n              mstore\n              0x04\n              add\n              tag_54\n              swap1\n              tag_55\n              jump\t// in\n            tag_54:\n              mload(0x40)\n              dup1\n              swap2\n              sub\n              swap1\n              revert\n            tag_53:\n                /* \"contracts/TheDex.sol\":4770:4783  token1Address */\n              0x01\n              0x00\n              swap1\n              sload\n              swap1\n              0x0100\n              exp\n              swap1\n              div\n              0xffffffffffffffffffffffffffffffffffffffff\n              and\n                /* \"contracts/TheDex.sol\":4757:4783  fromToken == token1Address */\n              0xffffffffffffffffffffffffffffffffffffffff\n              and\n                /* \"contracts/TheDex.sol\":4757:4766  fromToken */\n              dup6\n                /* \"contracts/TheDex.sol\":4757:4783  fromToken == token1Address */\n              0xffffffffffffffffffffffffffffffffffffffff\n              and\n              eq\n                /* \"contracts/TheDex.sol\":4757:4811  fromToken == token1Address && toToken == token2Address */\n              dup1\n              iszero\n              tag_56\n              jumpi\n              pop\n                /* \"contracts/TheDex.sol\":4798:4811  token2Address */\n              0x02\n              0x00\n              swap1\n              sload\n              swap1\n              0x0100\n              exp\n              swap1\n              div\n              0xffffffffffffffffffffffffffffffffffffffff\n              and\n                /* \"contracts/TheDex.sol\":4787:4811  toToken == token2Address */\n              0xffffffffffffffffffffffffffffffffffffffff\n              and\n                /* \"contracts/TheDex.sol\":4787:4794  toToken */\n              dup5\n                /* \"contracts/TheDex.sol\":4787:4811  toToken == token2Address */\n              0xffffffffffffffffffffffffffffffffffffffff\n              and\n              eq\n                /* \"contracts/TheDex.sol\":4757:4811  fromToken == token1Address && toToken == token2Address */\n            tag_56:\n                /* \"contracts/TheDex.sol\":4756:4872  (fromToken == token1Address && toToken == token2Address) || (fromToken == token2Address && toToken == token1Address) */\n              dup1\n              tag_57\n              jumpi\n              pop\n                /* \"contracts/TheDex.sol\":4830:4843  token2Address */\n              0x02\n              0x00\n              swap1\n              sload\n              swap1\n              0x0100\n              exp\n              swap1\n              div\n              0xffffffffffffffffffffffffffffffffffffffff\n              and\n                /* \"contracts/TheDex.sol\":4817:4843  fromToken == token2Address */\n              0xffffffffffffffffffffffffffffffffffffffff\n              and\n                /* \"contracts/TheDex.sol\":4817:4826  fromToken */\n              dup6\n                /* \"contracts/TheDex.sol\":4817:4843  fromToken == token2Address */\n              0xffffffffffffffffffffffffffffffffffffffff\n              and\n              eq\n                /* \"contracts/TheDex.sol\":4817:4871  fromToken == token2Address && toToken == token1Address */\n              dup1\n              iszero\n              tag_58\n              jumpi\n              pop\n                /* \"contracts/TheDex.sol\":4858:4871  token1Address */\n              0x01\n              0x00\n              swap1\n              sload\n              swap1\n              0x0100\n              exp\n              swap1\n              div\n              0xffffffffffffffffffffffffffffffffffffffff\n              and\n                /* \"contracts/TheDex.sol\":4847:4871  toToken == token1Address */\n              0xffffffffffffffffffffffffffffffffffffffff\n              and\n                /* \"contracts/TheDex.sol\":4847:4854  toToken */\n              dup5\n                /* \"contracts/TheDex.sol\":4847:4871  toToken == token1Address */\n              0xffffffffffffffffffffffffffffffffffffffff\n              and\n              eq\n                /* \"contracts/TheDex.sol\":4817:4871  fromToken == token2Address && toToken == token1Address */\n            tag_58:\n                /* \"contracts/TheDex.sol\":4756:4872  (fromToken == token1Address && toToken == token2Address) || (fromToken == token2Address && toToken == token1Address) */\n            tag_57:\n                /* \"contracts/TheDex.sol\":4748:4905  require((fromToken == token1Address && toToken == token2Address) || (fromToken == token2Address && toToken == token1Address), \"Tokens do not match the pool\") */\n              tag_59\n              jumpi\n              mload(0x40)\n              0x08c379a000000000000000000000000000000000000000000000000000000000\n              dup2\n              mstore\n              0x04\n              add\n              tag_60\n              swap1\n              tag_61\n              jump\t// in\n            tag_60:\n              mload(0x40)\n              dup1\n              swap2\n              sub\n              swap1\n              revert\n            tag_59:\n                /* \"contracts/TheDex.sol\":4916:4942  LiquidityPool storage pool */\n              0x00\n                /* \"contracts/TheDex.sol\":4945:4959  liquidityPools */\n              dup1\n                /* \"contracts/TheDex.sol\":4945:4970  liquidityPools[fromToken] */\n              0x00\n                /* \"contracts/TheDex.sol\":4960:4969  fromToken */\n              dup8\n                /* \"contracts/TheDex.sol\":4945:4970  liquidityPools[fromToken] */\n              0xffffffffffffffffffffffffffffffffffffffff\n              and\n              0xffffffffffffffffffffffffffffffffffffffff\n              and\n              dup2\n              mstore\n              0x20\n              add\n              swap1\n              dup2\n              mstore\n              0x20\n              add\n              0x00\n              keccak256\n                /* \"contracts/TheDex.sol\":4945:4979  liquidityPools[fromToken][toToken] */\n              0x00\n                /* \"contracts/TheDex.sol\":4971:4978  toToken */\n              dup7\n                /* \"contracts/TheDex.sol\":4945:4979  liquidityPools[fromToken][toToken] */\n              0xffffffffffffffffffffffffffffffffffffffff\n              and\n              0xffffffffffffffffffffffffffffffffffffffff\n              and\n              dup2\n              mstore\n              0x20\n              add\n              swap1\n              dup2\n              mstore\n              0x20\n              add\n              0x00\n              keccak256\n                /* \"contracts/TheDex.sol\":4916:4979  LiquidityPool storage pool = liquidityPools[fromToken][toToken] */\n              swap1\n              pop\n                /* \"contracts/TheDex.sol\":4990:5061  IERC20(fromToken).safeTransferFrom(msg.sender, address(this), amountIn) */\n              tag_62\n                /* \"contracts/TheDex.sol\":5025:5035  msg.sender */\n              caller\n                /* \"contracts/TheDex.sol\":5045:5049  this */\n              address\n                /* \"contracts/TheDex.sol\":5052:5060  amountIn */\n              dup7\n                /* \"contracts/TheDex.sol\":4997:5006  fromToken */\n              dup10\n                /* \"contracts/TheDex.sol\":4990:5024  IERC20(fromToken).safeTransferFrom */\n              0xffffffffffffffffffffffffffffffffffffffff\n              and\n              tag_63\n              swap1\n                /* \"contracts/TheDex.sol\":4990:5061  IERC20(fromToken).safeTransferFrom(msg.sender, address(this), amountIn) */\n              swap4\n              swap3\n              swap2\n              swap1\n              0xffffffff\n              and\n              jump\t// in\n            tag_62:\n                /* \"contracts/TheDex.sol\":5072:5096  uint256 fromTokenReserve */\n              0x00\n                /* \"contracts/TheDex.sol\":5099:5103  pool */\n              dup2\n                /* \"contracts/TheDex.sol\":5099:5117  pool.token1Reserve */\n              0x00\n              add\n              sload\n                /* \"contracts/TheDex.sol\":5072:5117  uint256 fromTokenReserve = pool.token1Reserve */\n              swap1\n              pop\n                /* \"contracts/TheDex.sol\":5127:5149  uint256 toTokenReserve */\n              0x00\n                /* \"contracts/TheDex.sol\":5152:5156  pool */\n              dup3\n                /* \"contracts/TheDex.sol\":5152:5170  pool.token2Reserve */\n              0x01\n              add\n              sload\n                /* \"contracts/TheDex.sol\":5127:5170  uint256 toTokenReserve = pool.token2Reserve */\n              swap1\n              pop\n                /* \"contracts/TheDex.sol\":5189:5212  uint256 amountInWithFee */\n              0x00\n                /* \"contracts/TheDex.sol\":5226:5229  997 */\n              0x03e5\n                /* \"contracts/TheDex.sol\":5215:5223  amountIn */\n              dup8\n                /* \"contracts/TheDex.sol\":5215:5229  amountIn * 997 */\n              tag_64\n              swap2\n              swap1\n              tag_65\n              jump\t// in\n            tag_64:\n                /* \"contracts/TheDex.sol\":5189:5229  uint256 amountInWithFee = amountIn * 997 */\n              swap1\n              pop\n                /* \"contracts/TheDex.sol\":5339:5354  amountInWithFee */\n              dup1\n                /* \"contracts/TheDex.sol\":5332:5336  1000 */\n              0x03e8\n                /* \"contracts/TheDex.sol\":5313:5329  fromTokenReserve */\n              dup5\n                /* \"contracts/TheDex.sol\":5313:5336  fromTokenReserve * 1000 */\n              tag_66\n              swap2\n              swap1\n              tag_65\n              jump\t// in\n            tag_66:\n                /* \"contracts/TheDex.sol\":5313:5354  fromTokenReserve * 1000 + amountInWithFee */\n              tag_67\n              swap2\n              swap1\n              tag_68\n              jump\t// in\n            tag_67:\n                /* \"contracts/TheDex.sol\":5294:5308  toTokenReserve */\n              dup3\n                /* \"contracts/TheDex.sol\":5276:5291  amountInWithFee */\n              dup3\n                /* \"contracts/TheDex.sol\":5276:5308  amountInWithFee * toTokenReserve */\n              tag_69\n              swap2\n              swap1\n              tag_65\n              jump\t// in\n            tag_69:\n                /* \"contracts/TheDex.sol\":5275:5355  (amountInWithFee * toTokenReserve) / (fromTokenReserve * 1000 + amountInWithFee) */\n              tag_70\n              swap2\n              swap1\n              tag_71\n              jump\t// in\n            tag_70:\n                /* \"contracts/TheDex.sol\":5263:5355  amountOut = (amountInWithFee * toTokenReserve) / (fromTokenReserve * 1000 + amountInWithFee) */\n              swap5\n              pop\n                /* \"contracts/TheDex.sol\":5387:5399  minAmountOut */\n              dup6\n                /* \"contracts/TheDex.sol\":5374:5383  amountOut */\n              dup6\n                /* \"contracts/TheDex.sol\":5374:5399  amountOut >= minAmountOut */\n              lt\n              iszero\n                /* \"contracts/TheDex.sol\":5366:5463  require(amountOut >= minAmountOut, \"Slippage protection: received amount is less than expected.\") */\n              tag_72\n              jumpi\n              mload(0x40)\n              0x08c379a000000000000000000000000000000000000000000000000000000000\n              dup2\n              mstore\n              0x04\n              add\n              tag_73\n              swap1\n              tag_74\n              jump\t// in\n            tag_73:\n              mload(0x40)\n              dup1\n              swap2\n              sub\n              swap1\n              revert\n            tag_72:\n                /* \"contracts/TheDex.sol\":5496:5504  amountIn */\n              dup7\n                /* \"contracts/TheDex.sol\":5474:5478  pool */\n              dup5\n                /* \"contracts/TheDex.sol\":5474:5492  pool.token1Reserve */\n              0x00\n              add\n              0x00\n                /* \"contracts/TheDex.sol\":5474:5504  pool.token1Reserve += amountIn */\n              dup3\n              dup3\n              sload\n              tag_75\n              swap2\n              swap1\n              tag_68\n              jump\t// in\n            tag_75:\n              swap3\n              pop\n              pop\n              dup2\n              swap1\n              sstore\n              pop\n                /* \"contracts/TheDex.sol\":5536:5545  amountOut */\n              dup5\n                /* \"contracts/TheDex.sol\":5514:5518  pool */\n              dup5\n                /* \"contracts/TheDex.sol\":5514:5532  pool.token2Reserve */\n              0x01\n              add\n              0x00\n                /* \"contracts/TheDex.sol\":5514:5545  pool.token2Reserve -= amountOut */\n              dup3\n              dup3\n              sload\n              tag_76\n              swap2\n              swap1\n              tag_77\n              jump\t// in\n            tag_76:\n              swap3\n              pop\n              pop\n              dup2\n              swap1\n              sstore\n              pop\n                /* \"contracts/TheDex.sol\":5556:5607  IERC20(toToken).safeTransfer(msg.sender, amountOut) */\n              tag_78\n                /* \"contracts/TheDex.sol\":5585:5595  msg.sender */\n              caller\n                /* \"contracts/TheDex.sol\":5597:5606  amountOut */\n              dup7\n                /* \"contracts/TheDex.sol\":5563:5570  toToken */\n              dup11\n                /* \"contracts/TheDex.sol\":5556:5584  IERC20(toToken).safeTransfer */\n              0xffffffffffffffffffffffffffffffffffffffff\n              and\n              tag_79\n              swap1\n                /* \"contracts/TheDex.sol\":5556:5607  IERC20(toToken).safeTransfer(msg.sender, amountOut) */\n              swap3\n              swap2\n              swap1\n              0xffffffff\n              and\n              jump\t// in\n            tag_78:\n                /* \"contracts/TheDex.sol\":5636:5646  msg.sender */\n              caller\n                /* \"contracts/TheDex.sol\":5623:5688  SwapExecuted(msg.sender, fromToken, toToken, amountIn, amountOut) */\n              0xffffffffffffffffffffffffffffffffffffffff\n              and\n              0x764f0dc063c06f32d89a3f3af80c0db4be8a090901f589a478b447e0a51f09f1\n                /* \"contracts/TheDex.sol\":5648:5657  fromToken */\n              dup11\n                /* \"contracts/TheDex.sol\":5659:5666  toToken */\n              dup11\n                /* \"contracts/TheDex.sol\":5668:5676  amountIn */\n              dup11\n                /* \"contracts/TheDex.sol\":5678:5687  amountOut */\n              dup10\n                /* \"contracts/TheDex.sol\":5623:5688  SwapExecuted(msg.sender, fromToken, toToken, amountIn, amountOut) */\n              mload(0x40)\n              tag_80\n              swap5\n              swap4\n              swap3\n              swap2\n              swap1\n              tag_81\n              jump\t// in\n            tag_80:\n              mload(0x40)\n              dup1\n              swap2\n              sub\n              swap1\n              log2\n                /* \"contracts/TheDex.sol\":4598:5695  {... */\n              pop\n              pop\n              pop\n              pop\n                /* \"contracts/TheDex.sol\":4411:5695  function swapWithSlippageProtection(... */\n              swap5\n              swap4\n              pop\n              pop\n              pop\n              pop\n              jump\t// out\n                /* \"contracts/TheDex.sol\":678:753  mapping(address => mapping(address => LiquidityPool)) public liquidityPools */\n            tag_32:\n              mstore(0x20, 0x00)\n              dup2\n              0x00\n              mstore\n              mstore(0x20, keccak256(0x00, 0x40))\n              dup1\n              0x00\n              mstore\n              keccak256(0x00, 0x40)\n              0x00\n              swap2\n              pop\n              swap2\n              pop\n              pop\n              dup1\n              0x00\n              add\n              sload\n              swap1\n              dup1\n              0x01\n              add\n              sload\n              swap1\n              dup1\n              0x02\n              add\n              sload\n              swap1\n              pop\n              dup4\n              jump\t// out\n                /* \"contracts/TheDex.sol\":1777:2738  function addLiquidity(... */\n            tag_37:\n                /* \"contracts/TheDex.sol\":1943:1950  _token2 */\n              dup3\n                /* \"contracts/TheDex.sol\":1932:1950  _token1 != _token2 */\n              0xffffffffffffffffffffffffffffffffffffffff\n              and\n                /* \"contracts/TheDex.sol\":1932:1939  _token1 */\n              dup5\n                /* \"contracts/TheDex.sol\":1932:1950  _token1 != _token2 */\n              0xffffffffffffffffffffffffffffffffffffffff\n              and\n              sub\n                /* \"contracts/TheDex.sol\":1924:1996  require(_token1 != _token2, \"Cannot create pool with identical tokens.\") */\n              tag_83\n              jumpi\n              mload(0x40)\n              0x08c379a000000000000000000000000000000000000000000000000000000000\n              dup2\n              mstore\n              0x04\n              add\n              tag_84\n              swap1\n              tag_85\n              jump\t// in\n            tag_84:\n              mload(0x40)\n              dup1\n              swap2\n              sub\n              swap1\n              revert\n            tag_83:\n                /* \"contracts/TheDex.sol\":2024:2025  0 */\n              0x00\n                /* \"contracts/TheDex.sol\":2014:2021  amount1 */\n              dup3\n                /* \"contracts/TheDex.sol\":2014:2025  amount1 > 0 */\n              gt\n                /* \"contracts/TheDex.sol\":2014:2040  amount1 > 0 && amount2 > 0 */\n              dup1\n              iszero\n              tag_86\n              jumpi\n              pop\n                /* \"contracts/TheDex.sol\":2039:2040  0 */\n              0x00\n                /* \"contracts/TheDex.sol\":2029:2036  amount2 */\n              dup2\n                /* \"contracts/TheDex.sol\":2029:2040  amount2 > 0 */\n              gt\n                /* \"contracts/TheDex.sol\":2014:2040  amount1 > 0 && amount2 > 0 */\n            tag_86:\n                /* \"contracts/TheDex.sol\":2006:2079  require(amount1 > 0 && amount2 > 0, \"Amounts must be greater than zero.\") */\n              tag_87\n              jumpi\n              mload(0x40)\n              0x08c379a000000000000000000000000000000000000000000000000000000000\n              dup2\n              mstore\n              0x04\n              add\n              tag_88\n              swap1\n              tag_89\n              jump\t// in\n            tag_88:\n              mload(0x40)\n              dup1\n              swap2\n              sub\n              swap1\n              revert\n            tag_87:\n                /* \"contracts/TheDex.sol\":2108:2121  token1Address */\n              0x01\n              0x00\n              swap1\n              sload\n              swap1\n              0x0100\n              exp\n              swap1\n              div\n              0xffffffffffffffffffffffffffffffffffffffff\n              and\n                /* \"contracts/TheDex.sol\":2097:2121  _token1 == token1Address */\n              0xffffffffffffffffffffffffffffffffffffffff\n              and\n                /* \"contracts/TheDex.sol\":2097:2104  _token1 */\n              dup5\n                /* \"contracts/TheDex.sol\":2097:2121  _token1 == token1Address */\n              0xffffffffffffffffffffffffffffffffffffffff\n              and\n              eq\n                /* \"contracts/TheDex.sol\":2097:2149  _token1 == token1Address && _token2 == token2Address */\n              dup1\n              iszero\n              tag_90\n              jumpi\n              pop\n                /* \"contracts/TheDex.sol\":2136:2149  token2Address */\n              0x02\n              0x00\n              swap1\n              sload\n              swap1\n              0x0100\n              exp\n              swap1\n              div\n              0xffffffffffffffffffffffffffffffffffffffff\n              and\n                /* \"contracts/TheDex.sol\":2125:2149  _token2 == token2Address */\n              0xffffffffffffffffffffffffffffffffffffffff\n              and\n                /* \"contracts/TheDex.sol\":2125:2132  _token2 */\n              dup4\n                /* \"contracts/TheDex.sol\":2125:2149  _token2 == token2Address */\n              0xffffffffffffffffffffffffffffffffffffffff\n              and\n              eq\n                /* \"contracts/TheDex.sol\":2097:2149  _token1 == token1Address && _token2 == token2Address */\n            tag_90:\n                /* \"contracts/TheDex.sol\":2089:2182  require(_token1 == token1Address && _token2 == token2Address, \"Tokens do not match the pool\") */\n              tag_91\n              jumpi\n              mload(0x40)\n              0x08c379a000000000000000000000000000000000000000000000000000000000\n              dup2\n              mstore\n              0x04\n              add\n              tag_92\n              swap1\n              tag_61\n              jump\t// in\n            tag_92:\n              mload(0x40)\n              dup1\n              swap2\n              sub\n              swap1\n              revert\n            tag_91:\n                /* \"contracts/TheDex.sol\":2193:2219  LiquidityPool storage pool */\n              0x00\n                /* \"contracts/TheDex.sol\":2222:2236  liquidityPools */\n              dup1\n                /* \"contracts/TheDex.sol\":2222:2245  liquidityPools[_token1] */\n              0x00\n                /* \"contracts/TheDex.sol\":2237:2244  _token1 */\n              dup7\n                /* \"contracts/TheDex.sol\":2222:2245  liquidityPools[_token1] */\n              0xffffffffffffffffffffffffffffffffffffffff\n              and\n              0xffffffffffffffffffffffffffffffffffffffff\n              and\n              dup2\n              mstore\n              0x20\n              add\n              swap1\n              dup2\n              mstore\n              0x20\n              add\n              0x00\n              keccak256\n                /* \"contracts/TheDex.sol\":2222:2254  liquidityPools[_token1][_token2] */\n              0x00\n                /* \"contracts/TheDex.sol\":2246:2253  _token2 */\n              dup6\n                /* \"contracts/TheDex.sol\":2222:2254  liquidityPools[_token1][_token2] */\n              0xffffffffffffffffffffffffffffffffffffffff\n              and\n              0xffffffffffffffffffffffffffffffffffffffff\n              and\n              dup2\n              mstore\n              0x20\n              add\n              swap1\n              dup2\n              mstore\n              0x20\n              add\n              0x00\n              keccak256\n                /* \"contracts/TheDex.sol\":2193:2254  LiquidityPool storage pool = liquidityPools[_token1][_token2] */\n              swap1\n              pop\n                /* \"contracts/TheDex.sol\":2265:2333  IERC20(_token1).safeTransferFrom(msg.sender, address(this), amount1) */\n              tag_93\n                /* \"contracts/TheDex.sol\":2298:2308  msg.sender */\n              caller\n                /* \"contracts/TheDex.sol\":2318:2322  this */\n              address\n                /* \"contracts/TheDex.sol\":2325:2332  amount1 */\n              dup6\n                /* \"contracts/TheDex.sol\":2272:2279  _token1 */\n              dup9\n                /* \"contracts/TheDex.sol\":2265:2297  IERC20(_token1).safeTransferFrom */\n              0xffffffffffffffffffffffffffffffffffffffff\n              and\n              tag_63\n              swap1\n                /* \"contracts/TheDex.sol\":2265:2333  IERC20(_token1).safeTransferFrom(msg.sender, address(this), amount1) */\n              swap4\n              swap3\n              swap2\n              swap1\n              0xffffffff\n              and\n              jump\t// in\n            tag_93:\n                /* \"contracts/TheDex.sol\":2343:2411  IERC20(_token2).safeTransferFrom(msg.sender, address(this), amount2) */\n              tag_94\n                /* \"contracts/TheDex.sol\":2376:2386  msg.sender */\n              caller\n                /* \"contracts/TheDex.sol\":2396:2400  this */\n              address\n                /* \"contracts/TheDex.sol\":2403:2410  amount2 */\n              dup5\n                /* \"contracts/TheDex.sol\":2350:2357  _token2 */\n              dup8\n                /* \"contracts/TheDex.sol\":2343:2375  IERC20(_token2).safeTransferFrom */\n              0xffffffffffffffffffffffffffffffffffffffff\n              and\n              tag_63\n              swap1\n                /* \"contracts/TheDex.sol\":2343:2411  IERC20(_token2).safeTransferFrom(msg.sender, address(this), amount2) */\n              swap4\n              swap3\n              swap2\n              swap1\n              0xffffffff\n              and\n              jump\t// in\n            tag_94:\n                /* \"contracts/TheDex.sol\":2444:2451  amount1 */\n              dup3\n                /* \"contracts/TheDex.sol\":2422:2426  pool */\n              dup2\n                /* \"contracts/TheDex.sol\":2422:2440  pool.token1Reserve */\n              0x00\n              add\n              0x00\n                /* \"contracts/TheDex.sol\":2422:2451  pool.token1Reserve += amount1 */\n              dup3\n              dup3\n              sload\n              tag_95\n              swap2\n              swap1\n              tag_68\n              jump\t// in\n            tag_95:\n              swap3\n              pop\n              pop\n              dup2\n              swap1\n              sstore\n              pop\n                /* \"contracts/TheDex.sol\":2483:2490  amount2 */\n              dup2\n                /* \"contracts/TheDex.sol\":2461:2465  pool */\n              dup2\n                /* \"contracts/TheDex.sol\":2461:2479  pool.token2Reserve */\n              0x01\n              add\n              0x00\n                /* \"contracts/TheDex.sol\":2461:2490  pool.token2Reserve += amount2 */\n              dup3\n              dup3\n              sload\n              tag_96\n              swap2\n              swap1\n              tag_68\n              jump\t// in\n            tag_96:\n              swap3\n              pop\n              pop\n              dup2\n              swap1\n              sstore\n              pop\n                /* \"contracts/TheDex.sol\":2501:2524  uint256 liquidityMinted */\n              0x00\n                /* \"contracts/TheDex.sol\":2527:2550  sqrt(amount1 * amount2) */\n              tag_97\n                /* \"contracts/TheDex.sol\":2542:2549  amount2 */\n              dup4\n                /* \"contracts/TheDex.sol\":2532:2539  amount1 */\n              dup6\n                /* \"contracts/TheDex.sol\":2532:2549  amount1 * amount2 */\n              tag_98\n              swap2\n              swap1\n              tag_65\n              jump\t// in\n            tag_98:\n                /* \"contracts/TheDex.sol\":2527:2531  sqrt */\n              tag_99\n                /* \"contracts/TheDex.sol\":2527:2550  sqrt(amount1 * amount2) */\n              jump\t// in\n            tag_97:\n                /* \"contracts/TheDex.sol\":2501:2550  uint256 liquidityMinted = sqrt(amount1 * amount2) */\n              swap1\n              pop\n                /* \"contracts/TheDex.sol\":2583:2598  liquidityMinted */\n              dup1\n                /* \"contracts/TheDex.sol\":2560:2564  pool */\n              dup3\n                /* \"contracts/TheDex.sol\":2560:2579  pool.totalLiquidity */\n              0x02\n              add\n              0x00\n                /* \"contracts/TheDex.sol\":2560:2598  pool.totalLiquidity += liquidityMinted */\n              dup3\n              dup3\n              sload\n              tag_100\n              swap2\n              swap1\n              tag_68\n              jump\t// in\n            tag_100:\n              swap3\n              pop\n              pop\n              dup2\n              swap1\n              sstore\n              pop\n                /* \"contracts/TheDex.sol\":2638:2653  liquidityMinted */\n              dup1\n                /* \"contracts/TheDex.sol\":2608:2612  pool */\n              dup3\n                /* \"contracts/TheDex.sol\":2608:2622  pool.liquidity */\n              0x03\n              add\n                /* \"contracts/TheDex.sol\":2608:2634  pool.liquidity[msg.sender] */\n              0x00\n                /* \"contracts/TheDex.sol\":2623:2633  msg.sender */\n              caller\n                /* \"contracts/TheDex.sol\":2608:2634  pool.liquidity[msg.sender] */\n              0xffffffffffffffffffffffffffffffffffffffff\n              and\n              0xffffffffffffffffffffffffffffffffffffffff\n              and\n              dup2\n              mstore\n              0x20\n              add\n              swap1\n              dup2\n              mstore\n              0x20\n              add\n              0x00\n              keccak256\n              0x00\n                /* \"contracts/TheDex.sol\":2608:2653  pool.liquidity[msg.sender] += liquidityMinted */\n              dup3\n              dup3\n              sload\n              tag_101\n              swap2\n              swap1\n              tag_68\n              jump\t// in\n            tag_101:\n              swap3\n              pop\n              pop\n              dup2\n              swap1\n              sstore\n              pop\n                /* \"contracts/TheDex.sol\":2684:2694  msg.sender */\n              caller\n                /* \"contracts/TheDex.sol\":2669:2731  LiquidityAdded(msg.sender, _token1, _token2, amount1, amount2) */\n              0xffffffffffffffffffffffffffffffffffffffff\n              and\n              0xb5bf3f2c68363aa6e695c29010485bcfecb5439239c6b1306fdec5b26cb7c62e\n                /* \"contracts/TheDex.sol\":2696:2703  _token1 */\n              dup8\n                /* \"contracts/TheDex.sol\":2705:2712  _token2 */\n              dup8\n                /* \"contracts/TheDex.sol\":2714:2721  amount1 */\n              dup8\n                /* \"contracts/TheDex.sol\":2723:2730  amount2 */\n              dup8\n                /* \"contracts/TheDex.sol\":2669:2731  LiquidityAdded(msg.sender, _token1, _token2, amount1, amount2) */\n              mload(0x40)\n              tag_102\n              swap5\n              swap4\n              swap3\n              swap2\n              swap1\n              tag_81\n              jump\t// in\n            tag_102:\n              mload(0x40)\n              dup1\n              swap2\n              sub\n              swap1\n              log2\n                /* \"contracts/TheDex.sol\":1914:2738  {... */\n              pop\n              pop\n                /* \"contracts/TheDex.sol\":1777:2738  function addLiquidity(... */\n              pop\n              pop\n              pop\n              pop\n              jump\t// out\n                /* \"contracts/TheDex.sol\":2994:3952  function removeLiquidity(... */\n            tag_41:\n                /* \"contracts/TheDex.sol\":3121:3147  LiquidityPool storage pool */\n              0x00\n                /* \"contracts/TheDex.sol\":3150:3164  liquidityPools */\n              dup1\n                /* \"contracts/TheDex.sol\":3150:3173  liquidityPools[_token1] */\n              0x00\n                /* \"contracts/TheDex.sol\":3165:3172  _token1 */\n              dup6\n                /* \"contracts/TheDex.sol\":3150:3173  liquidityPools[_token1] */\n              0xffffffffffffffffffffffffffffffffffffffff\n              and\n              0xffffffffffffffffffffffffffffffffffffffff\n              and\n              dup2\n              mstore\n              0x20\n              add\n              swap1\n              dup2\n              mstore\n              0x20\n              add\n              0x00\n              keccak256\n                /* \"contracts/TheDex.sol\":3150:3182  liquidityPools[_token1][_token2] */\n              0x00\n                /* \"contracts/TheDex.sol\":3174:3181  _token2 */\n              dup5\n                /* \"contracts/TheDex.sol\":3150:3182  liquidityPools[_token1][_token2] */\n              0xffffffffffffffffffffffffffffffffffffffff\n              and\n              0xffffffffffffffffffffffffffffffffffffffff\n              and\n              dup2\n              mstore\n              0x20\n              add\n              swap1\n              dup2\n              mstore\n              0x20\n              add\n              0x00\n              keccak256\n                /* \"contracts/TheDex.sol\":3121:3182  LiquidityPool storage pool = liquidityPools[_token1][_token2] */\n              swap1\n              pop\n                /* \"contracts/TheDex.sol\":3230:3239  liquidity */\n              dup2\n                /* \"contracts/TheDex.sol\":3200:3204  pool */\n              dup2\n                /* \"contracts/TheDex.sol\":3200:3214  pool.liquidity */\n              0x03\n              add\n                /* \"contracts/TheDex.sol\":3200:3226  pool.liquidity[msg.sender] */\n              0x00\n                /* \"contracts/TheDex.sol\":3215:3225  msg.sender */\n              caller\n                /* \"contracts/TheDex.sol\":3200:3226  pool.liquidity[msg.sender] */\n              0xffffffffffffffffffffffffffffffffffffffff\n              and\n              0xffffffffffffffffffffffffffffffffffffffff\n              and\n              dup2\n              mstore\n              0x20\n              add\n              swap1\n              dup2\n              mstore\n              0x20\n              add\n              0x00\n              keccak256\n              sload\n                /* \"contracts/TheDex.sol\":3200:3239  pool.liquidity[msg.sender] >= liquidity */\n              lt\n              iszero\n                /* \"contracts/TheDex.sol\":3192:3267  require(pool.liquidity[msg.sender] >= liquidity, \"Insufficient liquidity.\") */\n              tag_104\n              jumpi\n              mload(0x40)\n              0x08c379a000000000000000000000000000000000000000000000000000000000\n              dup2\n              mstore\n              0x04\n              add\n              tag_105\n              swap1\n              tag_106\n              jump\t// in\n            tag_105:\n              mload(0x40)\n              dup1\n              swap2\n              sub\n              swap1\n              revert\n            tag_104:\n                /* \"contracts/TheDex.sol\":3296:3309  token1Address */\n              0x01\n              0x00\n              swap1\n              sload\n              swap1\n              0x0100\n              exp\n              swap1\n              div\n              0xffffffffffffffffffffffffffffffffffffffff\n              and\n                /* \"contracts/TheDex.sol\":3285:3309  _token1 == token1Address */\n              0xffffffffffffffffffffffffffffffffffffffff\n              and\n                /* \"contracts/TheDex.sol\":3285:3292  _token1 */\n              dup5\n                /* \"contracts/TheDex.sol\":3285:3309  _token1 == token1Address */\n              0xffffffffffffffffffffffffffffffffffffffff\n              and\n              eq\n                /* \"contracts/TheDex.sol\":3285:3337  _token1 == token1Address && _token2 == token2Address */\n              dup1\n              iszero\n              tag_107\n              jumpi\n              pop\n                /* \"contracts/TheDex.sol\":3324:3337  token2Address */\n              0x02\n              0x00\n              swap1\n              sload\n              swap1\n              0x0100\n              exp\n              swap1\n              div\n              0xffffffffffffffffffffffffffffffffffffffff\n              and\n                /* \"contracts/TheDex.sol\":3313:3337  _token2 == token2Address */\n              0xffffffffffffffffffffffffffffffffffffffff\n              and\n                /* \"contracts/TheDex.sol\":3313:3320  _token2 */\n              dup4\n                /* \"contracts/TheDex.sol\":3313:3337  _token2 == token2Address */\n              0xffffffffffffffffffffffffffffffffffffffff\n              and\n              eq\n                /* \"contracts/TheDex.sol\":3285:3337  _token1 == token1Address && _token2 == token2Address */\n            tag_107:\n                /* \"contracts/TheDex.sol\":3277:3370  require(_token1 == token1Address && _token2 == token2Address, \"Tokens do not match the pool\") */\n              tag_108\n              jumpi\n              mload(0x40)\n              0x08c379a000000000000000000000000000000000000000000000000000000000\n              dup2\n              mstore\n              0x04\n              add\n              tag_109\n              swap1\n              tag_61\n              jump\t// in\n            tag_109:\n              mload(0x40)\n              dup1\n              swap2\n              sub\n              swap1\n              revert\n            tag_108:\n                /* \"contracts/TheDex.sol\":3381:3401  uint256 token1Amount */\n              0x00\n                /* \"contracts/TheDex.sol\":3439:3443  pool */\n              dup2\n                /* \"contracts/TheDex.sol\":3439:3458  pool.totalLiquidity */\n              0x02\n              add\n              sload\n                /* \"contracts/TheDex.sol\":3417:3421  pool */\n              dup3\n                /* \"contracts/TheDex.sol\":3417:3435  pool.token1Reserve */\n              0x00\n              add\n              sload\n                /* \"contracts/TheDex.sol\":3405:3414  liquidity */\n              dup5\n                /* \"contracts/TheDex.sol\":3405:3435  liquidity * pool.token1Reserve */\n              tag_110\n              swap2\n              swap1\n              tag_65\n              jump\t// in\n            tag_110:\n                /* \"contracts/TheDex.sol\":3404:3458  (liquidity * pool.token1Reserve) / pool.totalLiquidity */\n              tag_111\n              swap2\n              swap1\n              tag_71\n              jump\t// in\n            tag_111:\n                /* \"contracts/TheDex.sol\":3381:3458  uint256 token1Amount = (liquidity * pool.token1Reserve) / pool.totalLiquidity */\n              swap1\n              pop\n                /* \"contracts/TheDex.sol\":3468:3488  uint256 token2Amount */\n              0x00\n                /* \"contracts/TheDex.sol\":3526:3530  pool */\n              dup3\n                /* \"contracts/TheDex.sol\":3526:3545  pool.totalLiquidity */\n              0x02\n              add\n              sload\n                /* \"contracts/TheDex.sol\":3504:3508  pool */\n              dup4\n                /* \"contracts/TheDex.sol\":3504:3522  pool.token2Reserve */\n              0x01\n              add\n              sload\n                /* \"contracts/TheDex.sol\":3492:3501  liquidity */\n              dup6\n                /* \"contracts/TheDex.sol\":3492:3522  liquidity * pool.token2Reserve */\n              tag_112\n              swap2\n              swap1\n              tag_65\n              jump\t// in\n            tag_112:\n                /* \"contracts/TheDex.sol\":3491:3545  (liquidity * pool.token2Reserve) / pool.totalLiquidity */\n              tag_113\n              swap2\n              swap1\n              tag_71\n              jump\t// in\n            tag_113:\n                /* \"contracts/TheDex.sol\":3468:3545  uint256 token2Amount = (liquidity * pool.token2Reserve) / pool.totalLiquidity */\n              swap1\n              pop\n                /* \"contracts/TheDex.sol\":3586:3595  liquidity */\n              dup4\n                /* \"contracts/TheDex.sol\":3556:3560  pool */\n              dup4\n                /* \"contracts/TheDex.sol\":3556:3570  pool.liquidity */\n              0x03\n              add\n                /* \"contracts/TheDex.sol\":3556:3582  pool.liquidity[msg.sender] */\n              0x00\n                /* \"contracts/TheDex.sol\":3571:3581  msg.sender */\n              caller\n                /* \"contracts/TheDex.sol\":3556:3582  pool.liquidity[msg.sender] */\n              0xffffffffffffffffffffffffffffffffffffffff\n              and\n              0xffffffffffffffffffffffffffffffffffffffff\n              and\n              dup2\n              mstore\n              0x20\n              add\n              swap1\n              dup2\n              mstore\n              0x20\n              add\n              0x00\n              keccak256\n              0x00\n                /* \"contracts/TheDex.sol\":3556:3595  pool.liquidity[msg.sender] -= liquidity */\n              dup3\n              dup3\n              sload\n              tag_114\n              swap2\n              swap1\n              tag_77\n              jump\t// in\n            tag_114:\n              swap3\n              pop\n              pop\n              dup2\n              swap1\n              sstore\n              pop\n                /* \"contracts/TheDex.sol\":3628:3637  liquidity */\n              dup4\n                /* \"contracts/TheDex.sol\":3605:3609  pool */\n              dup4\n                /* \"contracts/TheDex.sol\":3605:3624  pool.totalLiquidity */\n              0x02\n              add\n              0x00\n                /* \"contracts/TheDex.sol\":3605:3637  pool.totalLiquidity -= liquidity */\n              dup3\n              dup3\n              sload\n              tag_115\n              swap2\n              swap1\n              tag_77\n              jump\t// in\n            tag_115:\n              swap3\n              pop\n              pop\n              dup2\n              swap1\n              sstore\n              pop\n                /* \"contracts/TheDex.sol\":3670:3682  token1Amount */\n              dup2\n                /* \"contracts/TheDex.sol\":3648:3652  pool */\n              dup4\n                /* \"contracts/TheDex.sol\":3648:3666  pool.token1Reserve */\n              0x00\n              add\n              0x00\n                /* \"contracts/TheDex.sol\":3648:3682  pool.token1Reserve -= token1Amount */\n              dup3\n              dup3\n              sload\n              tag_116\n              swap2\n              swap1\n              tag_77\n              jump\t// in\n            tag_116:\n              swap3\n              pop\n              pop\n              dup2\n              swap1\n              sstore\n              pop\n                /* \"contracts/TheDex.sol\":3714:3726  token2Amount */\n              dup1\n                /* \"contracts/TheDex.sol\":3692:3696  pool */\n              dup4\n                /* \"contracts/TheDex.sol\":3692:3710  pool.token2Reserve */\n              0x01\n              add\n              0x00\n                /* \"contracts/TheDex.sol\":3692:3726  pool.token2Reserve -= token2Amount */\n              dup3\n              dup3\n              sload\n              tag_117\n              swap2\n              swap1\n              tag_77\n              jump\t// in\n            tag_117:\n              swap3\n              pop\n              pop\n              dup2\n              swap1\n              sstore\n              pop\n                /* \"contracts/TheDex.sol\":3737:3791  IERC20(_token1).safeTransfer(msg.sender, token1Amount) */\n              tag_118\n                /* \"contracts/TheDex.sol\":3766:3776  msg.sender */\n              caller\n                /* \"contracts/TheDex.sol\":3778:3790  token1Amount */\n              dup4\n                /* \"contracts/TheDex.sol\":3744:3751  _token1 */\n              dup9\n                /* \"contracts/TheDex.sol\":3737:3765  IERC20(_token1).safeTransfer */\n              0xffffffffffffffffffffffffffffffffffffffff\n              and\n              tag_79\n              swap1\n                /* \"contracts/TheDex.sol\":3737:3791  IERC20(_token1).safeTransfer(msg.sender, token1Amount) */\n              swap3\n              swap2\n              swap1\n              0xffffffff\n              and\n              jump\t// in\n            tag_118:\n                /* \"contracts/TheDex.sol\":3801:3855  IERC20(_token2).safeTransfer(msg.sender, token2Amount) */\n              tag_119\n                /* \"contracts/TheDex.sol\":3830:3840  msg.sender */\n              caller\n                /* \"contracts/TheDex.sol\":3842:3854  token2Amount */\n              dup3\n                /* \"contracts/TheDex.sol\":3808:3815  _token2 */\n              dup8\n                /* \"contracts/TheDex.sol\":3801:3829  IERC20(_token2).safeTransfer */\n              0xffffffffffffffffffffffffffffffffffffffff\n              and\n              tag_79\n              swap1\n                /* \"contracts/TheDex.sol\":3801:3855  IERC20(_token2).safeTransfer(msg.sender, token2Amount) */\n              swap3\n              swap2\n              swap1\n              0xffffffff\n              and\n              jump\t// in\n            tag_119:\n                /* \"contracts/TheDex.sol\":3888:3898  msg.sender */\n              caller\n                /* \"contracts/TheDex.sol\":3871:3945  LiquidityRemoved(msg.sender, _token1, _token2, token1Amount, token2Amount) */\n              0xffffffffffffffffffffffffffffffffffffffff\n              and\n              0xd0aab0ed3b13a2551c0f217aa790c138f132954984c5d047ae27188f7205de11\n                /* \"contracts/TheDex.sol\":3900:3907  _token1 */\n              dup8\n                /* \"contracts/TheDex.sol\":3909:3916  _token2 */\n              dup8\n                /* \"contracts/TheDex.sol\":3918:3930  token1Amount */\n              dup6\n                /* \"contracts/TheDex.sol\":3932:3944  token2Amount */\n              dup6\n                /* \"contracts/TheDex.sol\":3871:3945  LiquidityRemoved(msg.sender, _token1, _token2, token1Amount, token2Amount) */\n              mload(0x40)\n              tag_120\n              swap5\n              swap4\n              swap3\n              swap2\n              swap1\n              tag_81\n              jump\t// in\n            tag_120:\n              mload(0x40)\n              dup1\n              swap2\n              sub\n              swap1\n              log2\n                /* \"contracts/TheDex.sol\":3111:3952  {... */\n              pop\n              pop\n              pop\n                /* \"contracts/TheDex.sol\":2994:3952  function removeLiquidity(... */\n              pop\n              pop\n              pop\n              jump\t// out\n                /* \"contracts/TheDex.sol\":760:788  address public token1Address */\n            tag_43:\n              0x01\n              0x00\n              swap1\n              sload\n              swap1\n              0x0100\n              exp\n              swap1\n              div\n              0xffffffffffffffffffffffffffffffffffffffff\n              and\n              dup2\n              jump\t// out\n                /* \"@openzeppelin/contracts/token/ERC20/utils/SafeERC20.sol\":1702:1890  function safeTransferFrom(IERC20 token, address from, address to, uint256 value) internal {... */\n            tag_63:\n                /* \"@openzeppelin/contracts/token/ERC20/utils/SafeERC20.sol\":1802:1883  _callOptionalReturn(token, abi.encodeCall(token.transferFrom, (from, to, value))) */\n              tag_122\n                /* \"@openzeppelin/contracts/token/ERC20/utils/SafeERC20.sol\":1822:1827  token */\n              dup5\n                /* \"@openzeppelin/contracts/token/ERC20/utils/SafeERC20.sol\":1844:1849  token */\n              dup6\n                /* \"@openzeppelin/contracts/token/ERC20/utils/SafeERC20.sol\":1844:1862  token.transferFrom */\n              0xffffffffffffffffffffffffffffffffffffffff\n              and\n              0x23b872dd\n                /* \"@openzeppelin/contracts/token/ERC20/utils/SafeERC20.sol\":1865:1869  from */\n              dup7\n                /* \"@openzeppelin/contracts/token/ERC20/utils/SafeERC20.sol\":1871:1873  to */\n              dup7\n                /* \"@openzeppelin/contracts/token/ERC20/utils/SafeERC20.sol\":1875:1880  value */\n              dup7\n                /* \"@openzeppelin/contracts/token/ERC20/utils/SafeERC20.sol\":1829:1882  abi.encodeCall(token.transferFrom, (from, to, value)) */\n              add(0x24, mload(0x40))\n              tag_123\n              swap4\n              swap3\n              swap2\n              swap1\n              tag_124\n              jump\t// in\n            tag_123:\n              mload(0x40)\n              0x20\n              dup2\n              dup4\n              sub\n              sub\n              dup2\n              mstore\n              swap1\n              0x40\n              mstore\n              swap2\n              pop\n              0xe0\n              shl\n              0x20\n              dup3\n              add\n              dup1\n              mload\n              0xffffffffffffffffffffffffffffffffffffffffffffffffffffffff\n              dup4\n              dup2\n              dup4\n              and\n              or\n              dup4\n              mstore\n              pop\n              pop\n              pop\n              pop\n                /* \"@openzeppelin/contracts/token/ERC20/utils/SafeERC20.sol\":1802:1821  _callOptionalReturn */\n              tag_125\n                /* \"@openzeppelin/contracts/token/ERC20/utils/SafeERC20.sol\":1802:1883  _callOptionalReturn(token, abi.encodeCall(token.transferFrom, (from, to, value))) */\n              jump\t// in\n            tag_122:\n                /* \"@openzeppelin/contracts/token/ERC20/utils/SafeERC20.sol\":1702:1890  function safeTransferFrom(IERC20 token, address from, address to, uint256 value) internal {... */\n              pop\n              pop\n              pop\n              pop\n              jump\t// out\n                /* \"@openzeppelin/contracts/token/ERC20/utils/SafeERC20.sol\":1303:1463  function safeTransfer(IERC20 token, address to, uint256 value) internal {... */\n            tag_79:\n                /* \"@openzeppelin/contracts/token/ERC20/utils/SafeERC20.sol\":1385:1456  _callOptionalReturn(token, abi.encodeCall(token.transfer, (to, value))) */\n              tag_127\n                /* \"@openzeppelin/contracts/token/ERC20/utils/SafeERC20.sol\":1405:1410  token */\n              dup4\n                /* \"@openzeppelin/contracts/token/ERC20/utils/SafeERC20.sol\":1427:1432  token */\n              dup5\n                /* \"@openzeppelin/contracts/token/ERC20/utils/SafeERC20.sol\":1427:1441  token.transfer */\n              0xffffffffffffffffffffffffffffffffffffffff\n              and\n              0xa9059cbb\n                /* \"@openzeppelin/contracts/token/ERC20/utils/SafeERC20.sol\":1444:1446  to */\n              dup6\n                /* \"@openzeppelin/contracts/token/ERC20/utils/SafeERC20.sol\":1448:1453  value */\n              dup6\n                /* \"@openzeppelin/contracts/token/ERC20/utils/SafeERC20.sol\":1412:1455  abi.encodeCall(token.transfer, (to, value)) */\n              add(0x24, mload(0x40))\n              tag_128\n              swap3\n              swap2\n              swap1\n              tag_129\n              jump\t// in\n            tag_128:\n              mload(0x40)\n              0x20\n              dup2\n              dup4\n              sub\n              sub\n              dup2\n              mstore\n              swap1\n              0x40\n              mstore\n              swap2\n              pop\n              0xe0\n              shl\n              0x20\n              dup3\n              add\n              dup1\n              mload\n              0xffffffffffffffffffffffffffffffffffffffffffffffffffffffff\n              dup4\n              dup2\n              dup4\n              and\n              or\n              dup4\n              mstore\n              pop\n              pop\n              pop\n              pop\n                /* \"@openzeppelin/contracts/token/ERC20/utils/SafeERC20.sol\":1385:1404  _callOptionalReturn */\n              tag_125\n                /* \"@openzeppelin/contracts/token/ERC20/utils/SafeERC20.sol\":1385:1456  _callOptionalReturn(token, abi.encodeCall(token.transfer, (to, value))) */\n              jump\t// in\n            tag_127:\n                /* \"@openzeppelin/contracts/token/ERC20/utils/SafeERC20.sol\":1303:1463  function safeTransfer(IERC20 token, address to, uint256 value) internal {... */\n              pop\n              pop\n              pop\n              jump\t// out\n                /* \"contracts/TheDex.sol\":5884:6083  function sqrt(uint256 x) private pure returns (uint256 y) {... */\n            tag_99:\n                /* \"contracts/TheDex.sol\":5931:5940  uint256 y */\n              0x00\n                /* \"contracts/TheDex.sol\":5952:5961  uint256 z */\n              dup1\n                /* \"contracts/TheDex.sol\":5974:5975  2 */\n              0x02\n                /* \"contracts/TheDex.sol\":5969:5970  1 */\n              0x01\n                /* \"contracts/TheDex.sol\":5965:5966  x */\n              dup5\n                /* \"contracts/TheDex.sol\":5965:5970  x + 1 */\n              tag_131\n              swap2\n              swap1\n              tag_68\n              jump\t// in\n            tag_131:\n                /* \"contracts/TheDex.sol\":5964:5975  (x + 1) / 2 */\n              tag_132\n              swap2\n              swap1\n              tag_71\n              jump\t// in\n            tag_132:\n                /* \"contracts/TheDex.sol\":5952:5975  uint256 z = (x + 1) / 2 */\n              swap1\n              pop\n                /* \"contracts/TheDex.sol\":5989:5990  x */\n              dup3\n                /* \"contracts/TheDex.sol\":5985:5990  y = x */\n              swap2\n              pop\n                /* \"contracts/TheDex.sol\":6000:6077  while (z < y) {... */\n            tag_133:\n                /* \"contracts/TheDex.sol\":6011:6012  y */\n              dup2\n                /* \"contracts/TheDex.sol\":6007:6008  z */\n              dup2\n                /* \"contracts/TheDex.sol\":6007:6012  z < y */\n              lt\n                /* \"contracts/TheDex.sol\":6000:6077  while (z < y) {... */\n              iszero\n              tag_134\n              jumpi\n                /* \"contracts/TheDex.sol\":6032:6033  z */\n              dup1\n                /* \"contracts/TheDex.sol\":6028:6033  y = z */\n              swap2\n              pop\n                /* \"contracts/TheDex.sol\":6065:6066  2 */\n              0x02\n                /* \"contracts/TheDex.sol\":6060:6061  z */\n              dup2\n                /* \"contracts/TheDex.sol\":6056:6057  z */\n              dup3\n                /* \"contracts/TheDex.sol\":6052:6053  x */\n              dup6\n                /* \"contracts/TheDex.sol\":6052:6057  x / z */\n              tag_135\n              swap2\n              swap1\n              tag_71\n              jump\t// in\n            tag_135:\n                /* \"contracts/TheDex.sol\":6052:6061  x / z + z */\n              tag_136\n              swap2\n              swap1\n              tag_68\n              jump\t// in\n            tag_136:\n                /* \"contracts/TheDex.sol\":6051:6066  (x / z + z) / 2 */\n              tag_137\n              swap2\n              swap1\n              tag_71\n              jump\t// in\n            tag_137:\n                /* \"contracts/TheDex.sol\":6047:6066  z = (x / z + z) / 2 */\n              swap1\n              pop\n                /* \"contracts/TheDex.sol\":6000:6077  while (z < y) {... */\n              jump(tag_133)\n            tag_134:\n                /* \"contracts/TheDex.sol\":5942:6083  {... */\n              pop\n                /* \"contracts/TheDex.sol\":5884:6083  function sqrt(uint256 x) private pure returns (uint256 y) {... */\n              swap2\n              swap1\n              pop\n              jump\t// out\n                /* \"@openzeppelin/contracts/token/ERC20/utils/SafeERC20.sol\":4059:4688  function _callOptionalReturn(IERC20 token, bytes memory data) private {... */\n            tag_125:\n                /* \"@openzeppelin/contracts/token/ERC20/utils/SafeERC20.sol\":4478:4501  bytes memory returndata */\n              0x00\n                /* \"@openzeppelin/contracts/token/ERC20/utils/SafeERC20.sol\":4504:4537  address(token).functionCall(data) */\n              tag_139\n                /* \"@openzeppelin/contracts/token/ERC20/utils/SafeERC20.sol\":4532:4536  data */\n              dup3\n                /* \"@openzeppelin/contracts/token/ERC20/utils/SafeERC20.sol\":4512:4517  token */\n              dup5\n                /* \"@openzeppelin/contracts/token/ERC20/utils/SafeERC20.sol\":4504:4531  address(token).functionCall */\n              0xffffffffffffffffffffffffffffffffffffffff\n              and\n              tag_140\n              swap1\n                /* \"@openzeppelin/contracts/token/ERC20/utils/SafeERC20.sol\":4504:4537  address(token).functionCall(data) */\n              swap2\n              swap1\n              0xffffffff\n              and\n              jump\t// in\n            tag_139:\n                /* \"@openzeppelin/contracts/token/ERC20/utils/SafeERC20.sol\":4478:4537  bytes memory returndata = address(token).functionCall(data) */\n              swap1\n              pop\n                /* \"@openzeppelin/contracts/token/ERC20/utils/SafeERC20.sol\":4572:4573  0 */\n              0x00\n                /* \"@openzeppelin/contracts/token/ERC20/utils/SafeERC20.sol\":4551:4561  returndata */\n              dup2\n                /* \"@openzeppelin/contracts/token/ERC20/utils/SafeERC20.sol\":4551:4568  returndata.length */\n              mload\n                /* \"@openzeppelin/contracts/token/ERC20/utils/SafeERC20.sol\":4551:4573  returndata.length != 0 */\n              eq\n              iszero\n                /* \"@openzeppelin/contracts/token/ERC20/utils/SafeERC20.sol\":4551:4608  returndata.length != 0 && !abi.decode(returndata, (bool)) */\n              dup1\n              iszero\n              tag_141\n              jumpi\n              pop\n                /* \"@openzeppelin/contracts/token/ERC20/utils/SafeERC20.sol\":4589:4599  returndata */\n              dup1\n                /* \"@openzeppelin/contracts/token/ERC20/utils/SafeERC20.sol\":4578:4608  abi.decode(returndata, (bool)) */\n              dup1\n              0x20\n              add\n              swap1\n              mload\n              dup2\n              add\n              swap1\n              tag_142\n              swap2\n              swap1\n              tag_143\n              jump\t// in\n            tag_142:\n                /* \"@openzeppelin/contracts/token/ERC20/utils/SafeERC20.sol\":4577:4608  !abi.decode(returndata, (bool)) */\n              iszero\n                /* \"@openzeppelin/contracts/token/ERC20/utils/SafeERC20.sol\":4551:4608  returndata.length != 0 && !abi.decode(returndata, (bool)) */\n            tag_141:\n                /* \"@openzeppelin/contracts/token/ERC20/utils/SafeERC20.sol\":4547:4682  if (returndata.length != 0 && !abi.decode(returndata, (bool))) {... */\n              iszero\n              tag_144\n              jumpi\n                /* \"@openzeppelin/contracts/token/ERC20/utils/SafeERC20.sol\":4664:4669  token */\n              dup3\n                /* \"@openzeppelin/contracts/token/ERC20/utils/SafeERC20.sol\":4631:4671  SafeERC20FailedOperation(address(token)) */\n              mload(0x40)\n              0x5274afe700000000000000000000000000000000000000000000000000000000\n              dup2\n              mstore\n              0x04\n              add\n              tag_145\n              swap2\n              swap1\n              tag_19\n              jump\t// in\n            tag_145:\n              mload(0x40)\n              dup1\n              swap2\n              sub\n              swap1\n              revert\n                /* \"@openzeppelin/contracts/token/ERC20/utils/SafeERC20.sol\":4547:4682  if (returndata.length != 0 && !abi.decode(returndata, (bool))) {... */\n            tag_144:\n                /* \"@openzeppelin/contracts/token/ERC20/utils/SafeERC20.sol\":4129:4688  {... */\n              pop\n                /* \"@openzeppelin/contracts/token/ERC20/utils/SafeERC20.sol\":4059:4688  function _callOptionalReturn(IERC20 token, bytes memory data) private {... */\n              pop\n              pop\n              jump\t// out\n                /* \"@openzeppelin/contracts/utils/Address.sol\":2705:2856  function functionCall(address target, bytes memory data) internal returns (bytes memory) {... */\n            tag_140:\n                /* \"@openzeppelin/contracts/utils/Address.sol\":2780:2792  bytes memory */\n              0x60\n                /* \"@openzeppelin/contracts/utils/Address.sol\":2811:2849  functionCallWithValue(target, data, 0) */\n              tag_147\n                /* \"@openzeppelin/contracts/utils/Address.sol\":2833:2839  target */\n              dup4\n                /* \"@openzeppelin/contracts/utils/Address.sol\":2841:2845  data */\n              dup4\n                /* \"@openzeppelin/contracts/utils/Address.sol\":2847:2848  0 */\n              0x00\n                /* \"@openzeppelin/contracts/utils/Address.sol\":2811:2832  functionCallWithValue */\n              tag_148\n                /* \"@openzeppelin/contracts/utils/Address.sol\":2811:2849  functionCallWithValue(target, data, 0) */\n              jump\t// in\n            tag_147:\n                /* \"@openzeppelin/contracts/utils/Address.sol\":2804:2849  return functionCallWithValue(target, data, 0) */\n              swap1\n              pop\n                /* \"@openzeppelin/contracts/utils/Address.sol\":2705:2856  function functionCall(address target, bytes memory data) internal returns (bytes memory) {... */\n              swap3\n              swap2\n              pop\n              pop\n              jump\t// out\n                /* \"@openzeppelin/contracts/utils/Address.sol\":3180:3572  function functionCallWithValue(address target, bytes memory data, uint256 value) internal returns (bytes memory) {... */\n            tag_148:\n                /* \"@openzeppelin/contracts/utils/Address.sol\":3279:3291  bytes memory */\n              0x60\n                /* \"@openzeppelin/contracts/utils/Address.sol\":3331:3336  value */\n              dup2\n                /* \"@openzeppelin/contracts/utils/Address.sol\":3307:3328  address(this).balance */\n              selfbalance\n                /* \"@openzeppelin/contracts/utils/Address.sol\":3307:3336  address(this).balance < value */\n              lt\n                /* \"@openzeppelin/contracts/utils/Address.sol\":3303:3411  if (address(this).balance < value) {... */\n              iszero\n              tag_150\n              jumpi\n                /* \"@openzeppelin/contracts/utils/Address.sol\":3394:3398  this */\n              address\n                /* \"@openzeppelin/contracts/utils/Address.sol\":3359:3400  AddressInsufficientBalance(address(this)) */\n              mload(0x40)\n              0xcd78605900000000000000000000000000000000000000000000000000000000\n              dup2\n              mstore\n              0x04\n              add\n              tag_151\n              swap2\n              swap1\n              tag_19\n              jump\t// in\n            tag_151:\n              mload(0x40)\n              dup1\n              swap2\n              sub\n              swap1\n              revert\n                /* \"@openzeppelin/contracts/utils/Address.sol\":3303:3411  if (address(this).balance < value) {... */\n            tag_150:\n                /* \"@openzeppelin/contracts/utils/Address.sol\":3421:3433  bool success */\n              0x00\n                /* \"@openzeppelin/contracts/utils/Address.sol\":3435:3458  bytes memory returndata */\n              dup1\n                /* \"@openzeppelin/contracts/utils/Address.sol\":3462:3468  target */\n              dup6\n                /* \"@openzeppelin/contracts/utils/Address.sol\":3462:3473  target.call */\n              0xffffffffffffffffffffffffffffffffffffffff\n              and\n                /* \"@openzeppelin/contracts/utils/Address.sol\":3481:3486  value */\n              dup5\n                /* \"@openzeppelin/contracts/utils/Address.sol\":3488:3492  data */\n              dup7\n                /* \"@openzeppelin/contracts/utils/Address.sol\":3462:3493  target.call{value: value}(data) */\n              mload(0x40)\n              tag_152\n              swap2\n              swap1\n              tag_153\n              jump\t// in\n            tag_152:\n              0x00\n              mload(0x40)\n              dup1\n              dup4\n              sub\n              dup2\n              dup6\n              dup8\n              gas\n              call\n              swap3\n              pop\n              pop\n              pop\n              returndatasize\n              dup1\n              0x00\n              dup2\n              eq\n              tag_156\n              jumpi\n              mload(0x40)\n              swap2\n              pop\n              and(add(returndatasize, 0x3f), not(0x1f))\n              dup3\n              add\n              0x40\n              mstore\n              returndatasize\n              dup3\n              mstore\n              returndatasize\n              0x00\n              0x20\n              dup5\n              add\n              returndatacopy\n              jump(tag_155)\n            tag_156:\n              0x60\n              swap2\n              pop\n            tag_155:\n              pop\n                /* \"@openzeppelin/contracts/utils/Address.sol\":3420:3493  (bool success, bytes memory returndata) = target.call{value: value}(data) */\n              swap2\n              pop\n              swap2\n              pop\n                /* \"@openzeppelin/contracts/utils/Address.sol\":3510:3565  verifyCallResultFromTarget(target, success, returndata) */\n              tag_157\n                /* \"@openzeppelin/contracts/utils/Address.sol\":3537:3543  target */\n              dup7\n                /* \"@openzeppelin/contracts/utils/Address.sol\":3545:3552  success */\n              dup4\n                /* \"@openzeppelin/contracts/utils/Address.sol\":3554:3564  returndata */\n              dup4\n                /* \"@openzeppelin/contracts/utils/Address.sol\":3510:3536  verifyCallResultFromTarget */\n              tag_158\n                /* \"@openzeppelin/contracts/utils/Address.sol\":3510:3565  verifyCallResultFromTarget(target, success, returndata) */\n              jump\t// in\n            tag_157:\n                /* \"@openzeppelin/contracts/utils/Address.sol\":3503:3565  return verifyCallResultFromTarget(target, success, returndata) */\n              swap3\n              pop\n              pop\n              pop\n                /* \"@openzeppelin/contracts/utils/Address.sol\":3180:3572  function functionCallWithValue(address target, bytes memory data, uint256 value) internal returns (bytes memory) {... */\n              swap4\n              swap3\n              pop\n              pop\n              pop\n              jump\t// out\n                /* \"@openzeppelin/contracts/utils/Address.sol\":4625:5207  function verifyCallResultFromTarget(... */\n            tag_158:\n                /* \"@openzeppelin/contracts/utils/Address.sol\":4769:4781  bytes memory */\n              0x60\n                /* \"@openzeppelin/contracts/utils/Address.sol\":4798:4805  success */\n              dup3\n                /* \"@openzeppelin/contracts/utils/Address.sol\":4793:5201  if (!success) {... */\n              tag_160\n              jumpi\n                /* \"@openzeppelin/contracts/utils/Address.sol\":4821:4840  _revert(returndata) */\n              tag_161\n                /* \"@openzeppelin/contracts/utils/Address.sol\":4829:4839  returndata */\n              dup3\n                /* \"@openzeppelin/contracts/utils/Address.sol\":4821:4828  _revert */\n              tag_162\n                /* \"@openzeppelin/contracts/utils/Address.sol\":4821:4840  _revert(returndata) */\n              jump\t// in\n            tag_161:\n                /* \"@openzeppelin/contracts/utils/Address.sol\":4793:5201  if (!success) {... */\n              jump(tag_163)\n            tag_160:\n                /* \"@openzeppelin/contracts/utils/Address.sol\":5066:5067  0 */\n              0x00\n                /* \"@openzeppelin/contracts/utils/Address.sol\":5045:5055  returndata */\n              dup3\n                /* \"@openzeppelin/contracts/utils/Address.sol\":5045:5062  returndata.length */\n              mload\n                /* \"@openzeppelin/contracts/utils/Address.sol\":5045:5067  returndata.length == 0 */\n              eq\n                /* \"@openzeppelin/contracts/utils/Address.sol\":5045:5094  returndata.length == 0 && target.code.length == 0 */\n              dup1\n              iszero\n              tag_164\n              jumpi\n              pop\n                /* \"@openzeppelin/contracts/utils/Address.sol\":5093:5094  0 */\n              0x00\n                /* \"@openzeppelin/contracts/utils/Address.sol\":5071:5077  target */\n              dup5\n                /* \"@openzeppelin/contracts/utils/Address.sol\":5071:5089  target.code.length */\n              0xffffffffffffffffffffffffffffffffffffffff\n              and\n              extcodesize\n                /* \"@openzeppelin/contracts/utils/Address.sol\":5071:5094  target.code.length == 0 */\n              eq\n                /* \"@openzeppelin/contracts/utils/Address.sol\":5045:5094  returndata.length == 0 && target.code.length == 0 */\n            tag_164:\n                /* \"@openzeppelin/contracts/utils/Address.sol\":5041:5160  if (returndata.length == 0 && target.code.length == 0) {... */\n              iszero\n              tag_165\n              jumpi\n                /* \"@openzeppelin/contracts/utils/Address.sol\":5138:5144  target */\n              dup4\n                /* \"@openzeppelin/contracts/utils/Address.sol\":5121:5145  AddressEmptyCode(target) */\n              mload(0x40)\n              0x9996b31500000000000000000000000000000000000000000000000000000000\n              dup2\n              mstore\n              0x04\n              add\n              tag_166\n              swap2\n              swap1\n              tag_19\n              jump\t// in\n            tag_166:\n              mload(0x40)\n              dup1\n              swap2\n              sub\n              swap1\n              revert\n                /* \"@openzeppelin/contracts/utils/Address.sol\":5041:5160  if (returndata.length == 0 && target.code.length == 0) {... */\n            tag_165:\n                /* \"@openzeppelin/contracts/utils/Address.sol\":5180:5190  returndata */\n              dup2\n                /* \"@openzeppelin/contracts/utils/Address.sol\":5173:5190  return returndata */\n              swap1\n              pop\n              jump(tag_159)\n                /* \"@openzeppelin/contracts/utils/Address.sol\":4793:5201  if (!success) {... */\n            tag_163:\n                /* \"@openzeppelin/contracts/utils/Address.sol\":4625:5207  function verifyCallResultFromTarget(... */\n            tag_159:\n              swap4\n              swap3\n              pop\n              pop\n              pop\n              jump\t// out\n                /* \"@openzeppelin/contracts/utils/Address.sol\":5743:6259  function _revert(bytes memory returndata) private pure {... */\n            tag_162:\n                /* \"@openzeppelin/contracts/utils/Address.sol\":5894:5895  0 */\n              0x00\n                /* \"@openzeppelin/contracts/utils/Address.sol\":5874:5884  returndata */\n              dup2\n                /* \"@openzeppelin/contracts/utils/Address.sol\":5874:5891  returndata.length */\n              mload\n                /* \"@openzeppelin/contracts/utils/Address.sol\":5874:5895  returndata.length > 0 */\n              gt\n                /* \"@openzeppelin/contracts/utils/Address.sol\":5870:6253  if (returndata.length > 0) {... */\n              iszero\n              tag_168\n              jumpi\n                /* \"@openzeppelin/contracts/utils/Address.sol\":6102:6112  returndata */\n              dup1\n                /* \"@openzeppelin/contracts/utils/Address.sol\":6096:6113  mload(returndata) */\n              mload\n                /* \"@openzeppelin/contracts/utils/Address.sol\":6158:6173  returndata_size */\n              dup1\n                /* \"@openzeppelin/contracts/utils/Address.sol\":6145:6155  returndata */\n              dup3\n                /* \"@openzeppelin/contracts/utils/Address.sol\":6141:6143  32 */\n              0x20\n                /* \"@openzeppelin/contracts/utils/Address.sol\":6137:6156  add(32, returndata) */\n              add\n                /* \"@openzeppelin/contracts/utils/Address.sol\":6130:6174  revert(add(32, returndata), returndata_size) */\n              revert\n                /* \"@openzeppelin/contracts/utils/Address.sol\":5870:6253  if (returndata.length > 0) {... */\n            tag_168:\n                /* \"@openzeppelin/contracts/utils/Address.sol\":6225:6242  FailedInnerCall() */\n              mload(0x40)\n              0x1425ea4200000000000000000000000000000000000000000000000000000000\n              dup2\n              mstore\n              0x04\n              add\n              mload(0x40)\n              dup1\n              swap2\n              sub\n              swap1\n              revert\n                /* \"#utility.yul\":7:97   */\n            tag_170:\n                /* \"#utility.yul\":41:48   */\n              0x00\n                /* \"#utility.yul\":84:89   */\n              dup2\n                /* \"#utility.yul\":77:90   */\n              iszero\n                /* \"#utility.yul\":70:91   */\n              iszero\n                /* \"#utility.yul\":59:91   */\n              swap1\n              pop\n                /* \"#utility.yul\":7:97   */\n              swap2\n              swap1\n              pop\n              jump\t// out\n                /* \"#utility.yul\":103:212   */\n            tag_171:\n                /* \"#utility.yul\":184:205   */\n              tag_212\n                /* \"#utility.yul\":199:204   */\n              dup2\n                /* \"#utility.yul\":184:205   */\n              tag_170\n              jump\t// in\n            tag_212:\n                /* \"#utility.yul\":179:182   */\n              dup3\n                /* \"#utility.yul\":172:206   */\n              mstore\n                /* \"#utility.yul\":103:212   */\n              pop\n              pop\n              jump\t// out\n                /* \"#utility.yul\":218:428   */\n            tag_15:\n                /* \"#utility.yul\":305:309   */\n              0x00\n                /* \"#utility.yul\":343:345   */\n              0x20\n                /* \"#utility.yul\":332:341   */\n              dup3\n                /* \"#utility.yul\":328:346   */\n              add\n                /* \"#utility.yul\":320:346   */\n              swap1\n              pop\n                /* \"#utility.yul\":356:421   */\n              tag_214\n                /* \"#utility.yul\":418:419   */\n              0x00\n                /* \"#utility.yul\":407:416   */\n              dup4\n                /* \"#utility.yul\":403:420   */\n              add\n                /* \"#utility.yul\":394:400   */\n              dup5\n                /* \"#utility.yul\":356:421   */\n              tag_171\n              jump\t// in\n            tag_214:\n                /* \"#utility.yul\":218:428   */\n              swap3\n              swap2\n              pop\n              pop\n              jump\t// out\n                /* \"#utility.yul\":434:560   */\n            tag_172:\n                /* \"#utility.yul\":471:478   */\n              0x00\n                /* \"#utility.yul\":511:553   */\n              0xffffffffffffffffffffffffffffffffffffffff\n                /* \"#utility.yul\":504:509   */\n              dup3\n                /* \"#utility.yul\":500:554   */\n              and\n                /* \"#utility.yul\":489:554   */\n              swap1\n              pop\n                /* \"#utility.yul\":434:560   */\n              swap2\n              swap1\n              pop\n              jump\t// out\n                /* \"#utility.yul\":566:662   */\n            tag_173:\n                /* \"#utility.yul\":603:610   */\n              0x00\n                /* \"#utility.yul\":632:656   */\n              tag_217\n                /* \"#utility.yul\":650:655   */\n              dup3\n                /* \"#utility.yul\":632:656   */\n              tag_172\n              jump\t// in\n            tag_217:\n                /* \"#utility.yul\":621:656   */\n              swap1\n              pop\n                /* \"#utility.yul\":566:662   */\n              swap2\n              swap1\n              pop\n              jump\t// out\n                /* \"#utility.yul\":668:786   */\n            tag_174:\n                /* \"#utility.yul\":755:779   */\n              tag_219\n                /* \"#utility.yul\":773:778   */\n              dup2\n                /* \"#utility.yul\":755:779   */\n              tag_173\n              jump\t// in\n            tag_219:\n                /* \"#utility.yul\":750:753   */\n              dup3\n                /* \"#utility.yul\":743:780   */\n              mstore\n                /* \"#utility.yul\":668:786   */\n              pop\n              pop\n              jump\t// out\n                /* \"#utility.yul\":792:1014   */\n            tag_19:\n                /* \"#utility.yul\":885:889   */\n              0x00\n                /* \"#utility.yul\":923:925   */\n              0x20\n                /* \"#utility.yul\":912:921   */\n              dup3\n                /* \"#utility.yul\":908:926   */\n              add\n                /* \"#utility.yul\":900:926   */\n              swap1\n              pop\n                /* \"#utility.yul\":936:1007   */\n              tag_221\n                /* \"#utility.yul\":1004:1005   */\n              0x00\n                /* \"#utility.yul\":993:1002   */\n              dup4\n                /* \"#utility.yul\":989:1006   */\n              add\n                /* \"#utility.yul\":980:986   */\n              dup5\n                /* \"#utility.yul\":936:1007   */\n              tag_174\n              jump\t// in\n            tag_221:\n                /* \"#utility.yul\":792:1014   */\n              swap3\n              swap2\n              pop\n              pop\n              jump\t// out\n                /* \"#utility.yul\":1101:1218   */\n            tag_176:\n                /* \"#utility.yul\":1210:1211   */\n              0x00\n                /* \"#utility.yul\":1207:1208   */\n              dup1\n                /* \"#utility.yul\":1200:1212   */\n              revert\n                /* \"#utility.yul\":1347:1469   */\n            tag_178:\n                /* \"#utility.yul\":1420:1444   */\n              tag_226\n                /* \"#utility.yul\":1438:1443   */\n              dup2\n                /* \"#utility.yul\":1420:1444   */\n              tag_173\n              jump\t// in\n            tag_226:\n                /* \"#utility.yul\":1413:1418   */\n              dup2\n                /* \"#utility.yul\":1410:1445   */\n              eq\n                /* \"#utility.yul\":1400:1463   */\n              tag_227\n              jumpi\n                /* \"#utility.yul\":1459:1460   */\n              0x00\n                /* \"#utility.yul\":1456:1457   */\n              dup1\n                /* \"#utility.yul\":1449:1461   */\n              revert\n                /* \"#utility.yul\":1400:1463   */\n            tag_227:\n                /* \"#utility.yul\":1347:1469   */\n              pop\n              jump\t// out\n                /* \"#utility.yul\":1475:1614   */\n            tag_179:\n                /* \"#utility.yul\":1521:1526   */\n              0x00\n                /* \"#utility.yul\":1559:1565   */\n              dup2\n                /* \"#utility.yul\":1546:1566   */\n              calldataload\n                /* \"#utility.yul\":1537:1566   */\n              swap1\n              pop\n                /* \"#utility.yul\":1575:1608   */\n              tag_229\n                /* \"#utility.yul\":1602:1607   */\n              dup2\n                /* \"#utility.yul\":1575:1608   */\n              tag_178\n              jump\t// in\n            tag_229:\n                /* \"#utility.yul\":1475:1614   */\n              swap3\n              swap2\n              pop\n              pop\n              jump\t// out\n                /* \"#utility.yul\":1620:2094   */\n            tag_22:\n                /* \"#utility.yul\":1688:1694   */\n              0x00\n                /* \"#utility.yul\":1696:1702   */\n              dup1\n                /* \"#utility.yul\":1745:1747   */\n              0x40\n                /* \"#utility.yul\":1733:1742   */\n              dup4\n                /* \"#utility.yul\":1724:1731   */\n              dup6\n                /* \"#utility.yul\":1720:1743   */\n              sub\n                /* \"#utility.yul\":1716:1748   */\n              slt\n                /* \"#utility.yul\":1713:1832   */\n              iszero\n              tag_231\n              jumpi\n                /* \"#utility.yul\":1751:1830   */\n              tag_232\n              tag_176\n              jump\t// in\n            tag_232:\n                /* \"#utility.yul\":1713:1832   */\n            tag_231:\n                /* \"#utility.yul\":1871:1872   */\n              0x00\n                /* \"#utility.yul\":1896:1949   */\n              tag_233\n                /* \"#utility.yul\":1941:1948   */\n              dup6\n                /* \"#utility.yul\":1932:1938   */\n              dup3\n                /* \"#utility.yul\":1921:1930   */\n              dup7\n                /* \"#utility.yul\":1917:1939   */\n              add\n                /* \"#utility.yul\":1896:1949   */\n              tag_179\n              jump\t// in\n            tag_233:\n                /* \"#utility.yul\":1886:1949   */\n              swap3\n              pop\n                /* \"#utility.yul\":1842:1959   */\n              pop\n                /* \"#utility.yul\":1998:2000   */\n              0x20\n                /* \"#utility.yul\":2024:2077   */\n              tag_234\n                /* \"#utility.yul\":2069:2076   */\n              dup6\n                /* \"#utility.yul\":2060:2066   */\n              dup3\n                /* \"#utility.yul\":2049:2058   */\n              dup7\n                /* \"#utility.yul\":2045:2067   */\n              add\n                /* \"#utility.yul\":2024:2077   */\n              tag_179\n              jump\t// in\n            tag_234:\n                /* \"#utility.yul\":2014:2077   */\n              swap2\n              pop\n                /* \"#utility.yul\":1969:2087   */\n              pop\n                /* \"#utility.yul\":1620:2094   */\n              swap3\n              pop\n              swap3\n              swap1\n              pop\n              jump\t// out\n                /* \"#utility.yul\":2100:2177   */\n            tag_180:\n                /* \"#utility.yul\":2137:2144   */\n              0x00\n                /* \"#utility.yul\":2166:2171   */\n              dup2\n                /* \"#utility.yul\":2155:2171   */\n              swap1\n              pop\n                /* \"#utility.yul\":2100:2177   */\n              swap2\n              swap1\n              pop\n              jump\t// out\n                /* \"#utility.yul\":2183:2305   */\n            tag_181:\n                /* \"#utility.yul\":2256:2280   */\n              tag_237\n                /* \"#utility.yul\":2274:2279   */\n              dup2\n                /* \"#utility.yul\":2256:2280   */\n              tag_180\n              jump\t// in\n            tag_237:\n                /* \"#utility.yul\":2249:2254   */\n              dup2\n                /* \"#utility.yul\":2246:2281   */\n              eq\n                /* \"#utility.yul\":2236:2299   */\n              tag_238\n              jumpi\n                /* \"#utility.yul\":2295:2296   */\n              0x00\n                /* \"#utility.yul\":2292:2293   */\n              dup1\n                /* \"#utility.yul\":2285:2297   */\n              revert\n                /* \"#utility.yul\":2236:2299   */\n            tag_238:\n                /* \"#utility.yul\":2183:2305   */\n              pop\n              jump\t// out\n                /* \"#utility.yul\":2311:2450   */\n            tag_182:\n                /* \"#utility.yul\":2357:2362   */\n              0x00\n                /* \"#utility.yul\":2395:2401   */\n              dup2\n                /* \"#utility.yul\":2382:2402   */\n              calldataload\n                /* \"#utility.yul\":2373:2402   */\n              swap1\n              pop\n                /* \"#utility.yul\":2411:2444   */\n              tag_240\n                /* \"#utility.yul\":2438:2443   */\n              dup2\n                /* \"#utility.yul\":2411:2444   */\n              tag_181\n              jump\t// in\n            tag_240:\n                /* \"#utility.yul\":2311:2450   */\n              swap3\n              swap2\n              pop\n              pop\n              jump\t// out\n                /* \"#utility.yul\":2456:3221   */\n            tag_26:\n                /* \"#utility.yul\":2542:2548   */\n              0x00\n                /* \"#utility.yul\":2550:2556   */\n              dup1\n                /* \"#utility.yul\":2558:2564   */\n              0x00\n                /* \"#utility.yul\":2566:2572   */\n              dup1\n                /* \"#utility.yul\":2615:2618   */\n              0x80\n                /* \"#utility.yul\":2603:2612   */\n              dup6\n                /* \"#utility.yul\":2594:2601   */\n              dup8\n                /* \"#utility.yul\":2590:2613   */\n              sub\n                /* \"#utility.yul\":2586:2619   */\n              slt\n                /* \"#utility.yul\":2583:2703   */\n              iszero\n              tag_242\n              jumpi\n                /* \"#utility.yul\":2622:2701   */\n              tag_243\n              tag_176\n              jump\t// in\n            tag_243:\n                /* \"#utility.yul\":2583:2703   */\n            tag_242:\n                /* \"#utility.yul\":2742:2743   */\n              0x00\n                /* \"#utility.yul\":2767:2820   */\n              tag_244\n                /* \"#utility.yul\":2812:2819   */\n              dup8\n                /* \"#utility.yul\":2803:2809   */\n              dup3\n                /* \"#utility.yul\":2792:2801   */\n              dup9\n                /* \"#utility.yul\":2788:2810   */\n              add\n                /* \"#utility.yul\":2767:2820   */\n              tag_179\n              jump\t// in\n            tag_244:\n                /* \"#utility.yul\":2757:2820   */\n              swap5\n              pop\n                /* \"#utility.yul\":2713:2830   */\n              pop\n                /* \"#utility.yul\":2869:2871   */\n              0x20\n                /* \"#utility.yul\":2895:2948   */\n              tag_245\n                /* \"#utility.yul\":2940:2947   */\n              dup8\n                /* \"#utility.yul\":2931:2937   */\n              dup3\n                /* \"#utility.yul\":2920:2929   */\n              dup9\n                /* \"#utility.yul\":2916:2938   */\n              add\n                /* \"#utility.yul\":2895:2948   */\n              tag_179\n              jump\t// in\n            tag_245:\n                /* \"#utility.yul\":2885:2948   */\n              swap4\n              pop\n                /* \"#utility.yul\":2840:2958   */\n              pop\n                /* \"#utility.yul\":2997:2999   */\n              0x40\n                /* \"#utility.yul\":3023:3076   */\n              tag_246\n                /* \"#utility.yul\":3068:3075   */\n              dup8\n                /* \"#utility.yul\":3059:3065   */\n              dup3\n                /* \"#utility.yul\":3048:3057   */\n              dup9\n                /* \"#utility.yul\":3044:3066   */\n              add\n                /* \"#utility.yul\":3023:3076   */\n              tag_182\n              jump\t// in\n            tag_246:\n                /* \"#utility.yul\":3013:3076   */\n              swap3\n              pop\n                /* \"#utility.yul\":2968:3086   */\n              pop\n                /* \"#utility.yul\":3125:3127   */\n              0x60\n                /* \"#utility.yul\":3151:3204   */\n              tag_247\n                /* \"#utility.yul\":3196:3203   */\n              dup8\n                /* \"#utility.yul\":3187:3193   */\n              dup3\n                /* \"#utility.yul\":3176:3185   */\n              dup9\n                /* \"#utility.yul\":3172:3194   */\n              add\n                /* \"#utility.yul\":3151:3204   */\n              tag_182\n              jump\t// in\n            tag_247:\n                /* \"#utility.yul\":3141:3204   */\n              swap2\n              pop\n                /* \"#utility.yul\":3096:3214   */\n              pop\n                /* \"#utility.yul\":2456:3221   */\n              swap3\n              swap6\n              swap2\n              swap5\n              pop\n              swap3\n              pop\n              jump\t// out\n                /* \"#utility.yul\":3227:3345   */\n            tag_183:\n                /* \"#utility.yul\":3314:3338   */\n              tag_249\n                /* \"#utility.yul\":3332:3337   */\n              dup2\n                /* \"#utility.yul\":3314:3338   */\n              tag_180\n              jump\t// in\n            tag_249:\n                /* \"#utility.yul\":3309:3312   */\n              dup3\n                /* \"#utility.yul\":3302:3339   */\n              mstore\n                /* \"#utility.yul\":3227:3345   */\n              pop\n              pop\n              jump\t// out\n                /* \"#utility.yul\":3351:3573   */\n            tag_29:\n                /* \"#utility.yul\":3444:3448   */\n              0x00\n                /* \"#utility.yul\":3482:3484   */\n              0x20\n                /* \"#utility.yul\":3471:3480   */\n              dup3\n                /* \"#utility.yul\":3467:3485   */\n              add\n                /* \"#utility.yul\":3459:3485   */\n              swap1\n              pop\n                /* \"#utility.yul\":3495:3566   */\n              tag_251\n                /* \"#utility.yul\":3563:3564   */\n              0x00\n                /* \"#utility.yul\":3552:3561   */\n              dup4\n                /* \"#utility.yul\":3548:3565   */\n              add\n                /* \"#utility.yul\":3539:3545   */\n              dup5\n                /* \"#utility.yul\":3495:3566   */\n              tag_183\n              jump\t// in\n            tag_251:\n                /* \"#utility.yul\":3351:3573   */\n              swap3\n              swap2\n              pop\n              pop\n              jump\t// out\n                /* \"#utility.yul\":3579:4021   */\n            tag_34:\n                /* \"#utility.yul\":3728:3732   */\n              0x00\n                /* \"#utility.yul\":3766:3768   */\n              0x60\n                /* \"#utility.yul\":3755:3764   */\n              dup3\n                /* \"#utility.yul\":3751:3769   */\n              add\n                /* \"#utility.yul\":3743:3769   */\n              swap1\n              pop\n                /* \"#utility.yul\":3779:3850   */\n              tag_253\n                /* \"#utility.yul\":3847:3848   */\n              0x00\n                /* \"#utility.yul\":3836:3845   */\n              dup4\n                /* \"#utility.yul\":3832:3849   */\n              add\n                /* \"#utility.yul\":3823:3829   */\n              dup7\n                /* \"#utility.yul\":3779:3850   */\n              tag_183\n              jump\t// in\n            tag_253:\n                /* \"#utility.yul\":3860:3932   */\n              tag_254\n                /* \"#utility.yul\":3928:3930   */\n              0x20\n                /* \"#utility.yul\":3917:3926   */\n              dup4\n                /* \"#utility.yul\":3913:3931   */\n              add\n                /* \"#utility.yul\":3904:3910   */\n              dup6\n                /* \"#utility.yul\":3860:3932   */\n              tag_183\n              jump\t// in\n            tag_254:\n                /* \"#utility.yul\":3942:4014   */\n              tag_255\n                /* \"#utility.yul\":4010:4012   */\n              0x40\n                /* \"#utility.yul\":3999:4008   */\n              dup4\n                /* \"#utility.yul\":3995:4013   */\n              add\n                /* \"#utility.yul\":3986:3992   */\n              dup5\n                /* \"#utility.yul\":3942:4014   */\n              tag_183\n              jump\t// in\n            tag_255:\n                /* \"#utility.yul\":3579:4021   */\n              swap5\n              swap4\n              pop\n              pop\n              pop\n              pop\n              jump\t// out\n                /* \"#utility.yul\":4027:4646   */\n            tag_40:\n                /* \"#utility.yul\":4104:4110   */\n              0x00\n                /* \"#utility.yul\":4112:4118   */\n              dup1\n                /* \"#utility.yul\":4120:4126   */\n              0x00\n                /* \"#utility.yul\":4169:4171   */\n              0x60\n                /* \"#utility.yul\":4157:4166   */\n              dup5\n                /* \"#utility.yul\":4148:4155   */\n              dup7\n                /* \"#utility.yul\":4144:4167   */\n              sub\n                /* \"#utility.yul\":4140:4172   */\n              slt\n                /* \"#utility.yul\":4137:4256   */\n              iszero\n              tag_257\n              jumpi\n                /* \"#utility.yul\":4175:4254   */\n              tag_258\n              tag_176\n              jump\t// in\n            tag_258:\n                /* \"#utility.yul\":4137:4256   */\n            tag_257:\n                /* \"#utility.yul\":4295:4296   */\n              0x00\n                /* \"#utility.yul\":4320:4373   */\n              tag_259\n                /* \"#utility.yul\":4365:4372   */\n              dup7\n                /* \"#utility.yul\":4356:4362   */\n              dup3\n                /* \"#utility.yul\":4345:4354   */\n              dup8\n                /* \"#utility.yul\":4341:4363   */\n              add\n                /* \"#utility.yul\":4320:4373   */\n              tag_179\n              jump\t// in\n            tag_259:\n                /* \"#utility.yul\":4310:4373   */\n              swap4\n              pop\n                /* \"#utility.yul\":4266:4383   */\n              pop\n                /* \"#utility.yul\":4422:4424   */\n              0x20\n                /* \"#utility.yul\":4448:4501   */\n              tag_260\n                /* \"#utility.yul\":4493:4500   */\n              dup7\n                /* \"#utility.yul\":4484:4490   */\n              dup3\n                /* \"#utility.yul\":4473:4482   */\n              dup8\n                /* \"#utility.yul\":4469:4491   */\n              add\n                /* \"#utility.yul\":4448:4501   */\n              tag_179\n              jump\t// in\n            tag_260:\n                /* \"#utility.yul\":4438:4501   */\n              swap3\n              pop\n                /* \"#utility.yul\":4393:4511   */\n              pop\n                /* \"#utility.yul\":4550:4552   */\n              0x40\n                /* \"#utility.yul\":4576:4629   */\n              tag_261\n                /* \"#utility.yul\":4621:4628   */\n              dup7\n                /* \"#utility.yul\":4612:4618   */\n              dup3\n                /* \"#utility.yul\":4601:4610   */\n              dup8\n                /* \"#utility.yul\":4597:4619   */\n              add\n                /* \"#utility.yul\":4576:4629   */\n              tag_182\n              jump\t// in\n            tag_261:\n                /* \"#utility.yul\":4566:4629   */\n              swap2\n              pop\n                /* \"#utility.yul\":4521:4639   */\n              pop\n                /* \"#utility.yul\":4027:4646   */\n              swap3\n              pop\n              swap3\n              pop\n              swap3\n              jump\t// out\n                /* \"#utility.yul\":4652:4821   */\n            tag_184:\n                /* \"#utility.yul\":4736:4747   */\n              0x00\n                /* \"#utility.yul\":4770:4776   */\n              dup3\n                /* \"#utility.yul\":4765:4768   */\n              dup3\n                /* \"#utility.yul\":4758:4777   */\n              mstore\n                /* \"#utility.yul\":4810:4814   */\n              0x20\n                /* \"#utility.yul\":4805:4808   */\n              dup3\n                /* \"#utility.yul\":4801:4815   */\n              add\n                /* \"#utility.yul\":4786:4815   */\n              swap1\n              pop\n                /* \"#utility.yul\":4652:4821   */\n              swap3\n              swap2\n              pop\n              pop\n              jump\t// out\n                /* \"#utility.yul\":4827:4996   */\n            tag_185:\n                /* \"#utility.yul\":4967:4988   */\n              0x416c726561647920696e697469616c697a656400000000000000000000000000\n                /* \"#utility.yul\":4963:4964   */\n              0x00\n                /* \"#utility.yul\":4955:4961   */\n              dup3\n                /* \"#utility.yul\":4951:4965   */\n              add\n                /* \"#utility.yul\":4944:4989   */\n              mstore\n                /* \"#utility.yul\":4827:4996   */\n              pop\n              jump\t// out\n                /* \"#utility.yul\":5002:5368   */\n            tag_186:\n                /* \"#utility.yul\":5144:5147   */\n              0x00\n                /* \"#utility.yul\":5165:5232   */\n              tag_265\n                /* \"#utility.yul\":5229:5231   */\n              0x13\n                /* \"#utility.yul\":5224:5227   */\n              dup4\n                /* \"#utility.yul\":5165:5232   */\n              tag_184\n              jump\t// in\n            tag_265:\n                /* \"#utility.yul\":5158:5232   */\n              swap2\n              pop\n                /* \"#utility.yul\":5241:5334   */\n              tag_266\n                /* \"#utility.yul\":5330:5333   */\n              dup3\n                /* \"#utility.yul\":5241:5334   */\n              tag_185\n              jump\t// in\n            tag_266:\n                /* \"#utility.yul\":5359:5361   */\n              0x20\n                /* \"#utility.yul\":5354:5357   */\n              dup3\n                /* \"#utility.yul\":5350:5362   */\n              add\n                /* \"#utility.yul\":5343:5362   */\n              swap1\n              pop\n                /* \"#utility.yul\":5002:5368   */\n              swap2\n              swap1\n              pop\n              jump\t// out\n                /* \"#utility.yul\":5374:5793   */\n            tag_48:\n                /* \"#utility.yul\":5540:5544   */\n              0x00\n                /* \"#utility.yul\":5578:5580   */\n              0x20\n                /* \"#utility.yul\":5567:5576   */\n              dup3\n                /* \"#utility.yul\":5563:5581   */\n              add\n                /* \"#utility.yul\":5555:5581   */\n              swap1\n              pop\n                /* \"#utility.yul\":5627:5636   */\n              dup2\n                /* \"#utility.yul\":5621:5625   */\n              dup2\n                /* \"#utility.yul\":5617:5637   */\n              sub\n                /* \"#utility.yul\":5613:5614   */\n              0x00\n                /* \"#utility.yul\":5602:5611   */\n              dup4\n                /* \"#utility.yul\":5598:5615   */\n              add\n                /* \"#utility.yul\":5591:5638   */\n              mstore\n                /* \"#utility.yul\":5655:5786   */\n              tag_268\n                /* \"#utility.yul\":5781:5785   */\n              dup2\n                /* \"#utility.yul\":5655:5786   */\n              tag_186\n              jump\t// in\n            tag_268:\n                /* \"#utility.yul\":5647:5786   */\n              swap1\n              pop\n                /* \"#utility.yul\":5374:5793   */\n              swap2\n              swap1\n              pop\n              jump\t// out\n                /* \"#utility.yul\":5799:5978   */\n            tag_187:\n                /* \"#utility.yul\":5939:5970   */\n              0x43616e6e6f742073776170206964656e746963616c20746f6b656e732e000000\n                /* \"#utility.yul\":5935:5936   */\n              0x00\n                /* \"#utility.yul\":5927:5933   */\n              dup3\n                /* \"#utility.yul\":5923:5937   */\n              add\n                /* \"#utility.yul\":5916:5971   */\n              mstore\n                /* \"#utility.yul\":5799:5978   */\n              pop\n              jump\t// out\n                /* \"#utility.yul\":5984:6350   */\n            tag_188:\n                /* \"#utility.yul\":6126:6129   */\n              0x00\n                /* \"#utility.yul\":6147:6214   */\n              tag_271\n                /* \"#utility.yul\":6211:6213   */\n              0x1d\n                /* \"#utility.yul\":6206:6209   */\n              dup4\n                /* \"#utility.yul\":6147:6214   */\n              tag_184\n              jump\t// in\n            tag_271:\n                /* \"#utility.yul\":6140:6214   */\n              swap2\n              pop\n                /* \"#utility.yul\":6223:6316   */\n              tag_272\n                /* \"#utility.yul\":6312:6315   */\n              dup3\n                /* \"#utility.yul\":6223:6316   */\n              tag_187\n              jump\t// in\n            tag_272:\n                /* \"#utility.yul\":6341:6343   */\n              0x20\n                /* \"#utility.yul\":6336:6339   */\n              dup3\n                /* \"#utility.yul\":6332:6344   */\n              add\n                /* \"#utility.yul\":6325:6344   */\n              swap1\n              pop\n                /* \"#utility.yul\":5984:6350   */\n              swap2\n              swap1\n              pop\n              jump\t// out\n                /* \"#utility.yul\":6356:6775   */\n            tag_52:\n                /* \"#utility.yul\":6522:6526   */\n              0x00\n                /* \"#utility.yul\":6560:6562   */\n              0x20\n                /* \"#utility.yul\":6549:6558   */\n              dup3\n                /* \"#utility.yul\":6545:6563   */\n              add\n                /* \"#utility.yul\":6537:6563   */\n              swap1\n              pop\n                /* \"#utility.yul\":6609:6618   */\n              dup2\n                /* \"#utility.yul\":6603:6607   */\n              dup2\n                /* \"#utility.yul\":6599:6619   */\n              sub\n                /* \"#utility.yul\":6595:6596   */\n              0x00\n                /* \"#utility.yul\":6584:6593   */\n              dup4\n                /* \"#utility.yul\":6580:6597   */\n              add\n                /* \"#utility.yul\":6573:6620   */\n              mstore\n                /* \"#utility.yul\":6637:6768   */\n              tag_274\n                /* \"#utility.yul\":6763:6767   */\n              dup2\n                /* \"#utility.yul\":6637:6768   */\n              tag_188\n              jump\t// in\n            tag_274:\n                /* \"#utility.yul\":6629:6768   */\n              swap1\n              pop\n                /* \"#utility.yul\":6356:6775   */\n              swap2\n              swap1\n              pop\n              jump\t// out\n                /* \"#utility.yul\":6781:7001   */\n            tag_189:\n                /* \"#utility.yul\":6921:6955   */\n              0x416d6f756e74206d7573742062652067726561746572207468616e207a65726f\n                /* \"#utility.yul\":6917:6918   */\n              0x00\n                /* \"#utility.yul\":6909:6915   */\n              dup3\n                /* \"#utility.yul\":6905:6919   */\n              add\n                /* \"#utility.yul\":6898:6956   */\n              mstore\n                /* \"#utility.yul\":6990:6993   */\n              0x2e00000000000000000000000000000000000000000000000000000000000000\n                /* \"#utility.yul\":6985:6987   */\n              0x20\n                /* \"#utility.yul\":6977:6983   */\n              dup3\n                /* \"#utility.yul\":6973:6988   */\n              add\n                /* \"#utility.yul\":6966:6994   */\n              mstore\n                /* \"#utility.yul\":6781:7001   */\n              pop\n              jump\t// out\n                /* \"#utility.yul\":7007:7373   */\n            tag_190:\n                /* \"#utility.yul\":7149:7152   */\n              0x00\n                /* \"#utility.yul\":7170:7237   */\n              tag_277\n                /* \"#utility.yul\":7234:7236   */\n              0x21\n                /* \"#utility.yul\":7229:7232   */\n              dup4\n                /* \"#utility.yul\":7170:7237   */\n              tag_184\n              jump\t// in\n            tag_277:\n                /* \"#utility.yul\":7163:7237   */\n              swap2\n              pop\n                /* \"#utility.yul\":7246:7339   */\n              tag_278\n                /* \"#utility.yul\":7335:7338   */\n              dup3\n                /* \"#utility.yul\":7246:7339   */\n              tag_189\n              jump\t// in\n            tag_278:\n                /* \"#utility.yul\":7364:7366   */\n              0x40\n                /* \"#utility.yul\":7359:7362   */\n              dup3\n                /* \"#utility.yul\":7355:7367   */\n              add\n                /* \"#utility.yul\":7348:7367   */\n              swap1\n              pop\n                /* \"#utility.yul\":7007:7373   */\n              swap2\n              swap1\n              pop\n              jump\t// out\n                /* \"#utility.yul\":7379:7798   */\n            tag_55:\n                /* \"#utility.yul\":7545:7549   */\n              0x00\n                /* \"#utility.yul\":7583:7585   */\n              0x20\n                /* \"#utility.yul\":7572:7581   */\n              dup3\n                /* \"#utility.yul\":7568:7586   */\n              add\n                /* \"#utility.yul\":7560:7586   */\n              swap1\n              pop\n                /* \"#utility.yul\":7632:7641   */\n              dup2\n                /* \"#utility.yul\":7626:7630   */\n              dup2\n                /* \"#utility.yul\":7622:7642   */\n              sub\n                /* \"#utility.yul\":7618:7619   */\n              0x00\n                /* \"#utility.yul\":7607:7616   */\n              dup4\n                /* \"#utility.yul\":7603:7620   */\n              add\n                /* \"#utility.yul\":7596:7643   */\n              mstore\n                /* \"#utility.yul\":7660:7791   */\n              tag_280\n                /* \"#utility.yul\":7786:7790   */\n              dup2\n                /* \"#utility.yul\":7660:7791   */\n              tag_190\n              jump\t// in\n            tag_280:\n                /* \"#utility.yul\":7652:7791   */\n              swap1\n              pop\n                /* \"#utility.yul\":7379:7798   */\n              swap2\n              swap1\n              pop\n              jump\t// out\n                /* \"#utility.yul\":7804:7982   */\n            tag_191:\n                /* \"#utility.yul\":7944:7974   */\n              0x546f6b656e7320646f206e6f74206d617463682074686520706f6f6c00000000\n                /* \"#utility.yul\":7940:7941   */\n              0x00\n                /* \"#utility.yul\":7932:7938   */\n              dup3\n                /* \"#utility.yul\":7928:7942   */\n              add\n                /* \"#utility.yul\":7921:7975   */\n              mstore\n                /* \"#utility.yul\":7804:7982   */\n              pop\n              jump\t// out\n                /* \"#utility.yul\":7988:8354   */\n            tag_192:\n                /* \"#utility.yul\":8130:8133   */\n              0x00\n                /* \"#utility.yul\":8151:8218   */\n              tag_283\n                /* \"#utility.yul\":8215:8217   */\n              0x1c\n                /* \"#utility.yul\":8210:8213   */\n              dup4\n                /* \"#utility.yul\":8151:8218   */\n              tag_184\n              jump\t// in\n            tag_283:\n                /* \"#utility.yul\":8144:8218   */\n              swap2\n              pop\n                /* \"#utility.yul\":8227:8320   */\n              tag_284\n                /* \"#utility.yul\":8316:8319   */\n              dup3\n                /* \"#utility.yul\":8227:8320   */\n              tag_191\n              jump\t// in\n            tag_284:\n                /* \"#utility.yul\":8345:8347   */\n              0x20\n                /* \"#utility.yul\":8340:8343   */\n              dup3\n                /* \"#utility.yul\":8336:8348   */\n              add\n                /* \"#utility.yul\":8329:8348   */\n              swap1\n              pop\n                /* \"#utility.yul\":7988:8354   */\n              swap2\n              swap1\n              pop\n              jump\t// out\n                /* \"#utility.yul\":8360:8779   */\n            tag_61:\n                /* \"#utility.yul\":8526:8530   */\n              0x00\n                /* \"#utility.yul\":8564:8566   */\n              0x20\n                /* \"#utility.yul\":8553:8562   */\n              dup3\n                /* \"#utility.yul\":8549:8567   */\n              add\n                /* \"#utility.yul\":8541:8567   */\n              swap1\n              pop\n                /* \"#utility.yul\":8613:8622   */\n              dup2\n                /* \"#utility.yul\":8607:8611   */\n              dup2\n                /* \"#utility.yul\":8603:8623   */\n              sub\n                /* \"#utility.yul\":8599:8600   */\n              0x00\n                /* \"#utility.yul\":8588:8597   */\n              dup4\n                /* \"#utility.yul\":8584:8601   */\n              add\n                /* \"#utility.yul\":8577:8624   */\n              mstore\n                /* \"#utility.yul\":8641:8772   */\n              tag_286\n                /* \"#utility.yul\":8767:8771   */\n              dup2\n                /* \"#utility.yul\":8641:8772   */\n              tag_192\n              jump\t// in\n            tag_286:\n                /* \"#utility.yul\":8633:8772   */\n              swap1\n              pop\n                /* \"#utility.yul\":8360:8779   */\n              swap2\n              swap1\n              pop\n              jump\t// out\n                /* \"#utility.yul\":8785:8965   */\n            tag_193:\n                /* \"#utility.yul\":8833:8910   */\n              0x4e487b7100000000000000000000000000000000000000000000000000000000\n                /* \"#utility.yul\":8830:8831   */\n              0x00\n                /* \"#utility.yul\":8823:8911   */\n              mstore\n                /* \"#utility.yul\":8930:8934   */\n              0x11\n                /* \"#utility.yul\":8927:8928   */\n              0x04\n                /* \"#utility.yul\":8920:8935   */\n              mstore\n                /* \"#utility.yul\":8954:8958   */\n              0x24\n                /* \"#utility.yul\":8951:8952   */\n              0x00\n                /* \"#utility.yul\":8944:8959   */\n              revert\n                /* \"#utility.yul\":8971:9381   */\n            tag_65:\n                /* \"#utility.yul\":9011:9018   */\n              0x00\n                /* \"#utility.yul\":9034:9054   */\n              tag_289\n                /* \"#utility.yul\":9052:9053   */\n              dup3\n                /* \"#utility.yul\":9034:9054   */\n              tag_180\n              jump\t// in\n            tag_289:\n                /* \"#utility.yul\":9029:9054   */\n              swap2\n              pop\n                /* \"#utility.yul\":9068:9088   */\n              tag_290\n                /* \"#utility.yul\":9086:9087   */\n              dup4\n                /* \"#utility.yul\":9068:9088   */\n              tag_180\n              jump\t// in\n            tag_290:\n                /* \"#utility.yul\":9063:9088   */\n              swap3\n              pop\n                /* \"#utility.yul\":9123:9124   */\n              dup3\n                /* \"#utility.yul\":9120:9121   */\n              dup3\n                /* \"#utility.yul\":9116:9125   */\n              mul\n                /* \"#utility.yul\":9145:9175   */\n              tag_291\n                /* \"#utility.yul\":9163:9174   */\n              dup2\n                /* \"#utility.yul\":9145:9175   */\n              tag_180\n              jump\t// in\n            tag_291:\n                /* \"#utility.yul\":9134:9175   */\n              swap2\n              pop\n                /* \"#utility.yul\":9324:9325   */\n              dup3\n                /* \"#utility.yul\":9315:9322   */\n              dup3\n                /* \"#utility.yul\":9311:9326   */\n              div\n                /* \"#utility.yul\":9308:9309   */\n              dup5\n                /* \"#utility.yul\":9305:9327   */\n              eq\n                /* \"#utility.yul\":9285:9286   */\n              dup4\n                /* \"#utility.yul\":9278:9287   */\n              iszero\n                /* \"#utility.yul\":9258:9341   */\n              or\n                /* \"#utility.yul\":9235:9374   */\n              tag_292\n              jumpi\n                /* \"#utility.yul\":9354:9372   */\n              tag_293\n              tag_193\n              jump\t// in\n            tag_293:\n                /* \"#utility.yul\":9235:9374   */\n            tag_292:\n                /* \"#utility.yul\":9019:9381   */\n              pop\n                /* \"#utility.yul\":8971:9381   */\n              swap3\n              swap2\n              pop\n              pop\n              jump\t// out\n                /* \"#utility.yul\":9387:9578   */\n            tag_68:\n                /* \"#utility.yul\":9427:9430   */\n              0x00\n                /* \"#utility.yul\":9446:9466   */\n              tag_295\n                /* \"#utility.yul\":9464:9465   */\n              dup3\n                /* \"#utility.yul\":9446:9466   */\n              tag_180\n              jump\t// in\n            tag_295:\n                /* \"#utility.yul\":9441:9466   */\n              swap2\n              pop\n                /* \"#utility.yul\":9480:9500   */\n              tag_296\n                /* \"#utility.yul\":9498:9499   */\n              dup4\n                /* \"#utility.yul\":9480:9500   */\n              tag_180\n              jump\t// in\n            tag_296:\n                /* \"#utility.yul\":9475:9500   */\n              swap3\n              pop\n                /* \"#utility.yul\":9523:9524   */\n              dup3\n                /* \"#utility.yul\":9520:9521   */\n              dup3\n                /* \"#utility.yul\":9516:9525   */\n              add\n                /* \"#utility.yul\":9509:9525   */\n              swap1\n              pop\n                /* \"#utility.yul\":9544:9547   */\n              dup1\n                /* \"#utility.yul\":9541:9542   */\n              dup3\n                /* \"#utility.yul\":9538:9548   */\n              gt\n                /* \"#utility.yul\":9535:9571   */\n              iszero\n              tag_297\n              jumpi\n                /* \"#utility.yul\":9551:9569   */\n              tag_298\n              tag_193\n              jump\t// in\n            tag_298:\n                /* \"#utility.yul\":9535:9571   */\n            tag_297:\n                /* \"#utility.yul\":9387:9578   */\n              swap3\n              swap2\n              pop\n              pop\n              jump\t// out\n                /* \"#utility.yul\":9584:9764   */\n            tag_194:\n                /* \"#utility.yul\":9632:9709   */\n              0x4e487b7100000000000000000000000000000000000000000000000000000000\n                /* \"#utility.yul\":9629:9630   */\n              0x00\n                /* \"#utility.yul\":9622:9710   */\n              mstore\n                /* \"#utility.yul\":9729:9733   */\n              0x12\n                /* \"#utility.yul\":9726:9727   */\n              0x04\n                /* \"#utility.yul\":9719:9734   */\n              mstore\n                /* \"#utility.yul\":9753:9757   */\n              0x24\n                /* \"#utility.yul\":9750:9751   */\n              0x00\n                /* \"#utility.yul\":9743:9758   */\n              revert\n                /* \"#utility.yul\":9770:9955   */\n            tag_71:\n                /* \"#utility.yul\":9810:9811   */\n              0x00\n                /* \"#utility.yul\":9827:9847   */\n              tag_301\n                /* \"#utility.yul\":9845:9846   */\n              dup3\n                /* \"#utility.yul\":9827:9847   */\n              tag_180\n              jump\t// in\n            tag_301:\n                /* \"#utility.yul\":9822:9847   */\n              swap2\n              pop\n                /* \"#utility.yul\":9861:9881   */\n              tag_302\n                /* \"#utility.yul\":9879:9880   */\n              dup4\n                /* \"#utility.yul\":9861:9881   */\n              tag_180\n              jump\t// in\n            tag_302:\n                /* \"#utility.yul\":9856:9881   */\n              swap3\n              pop\n                /* \"#utility.yul\":9900:9901   */\n              dup3\n                /* \"#utility.yul\":9890:9925   */\n              tag_303\n              jumpi\n                /* \"#utility.yul\":9905:9923   */\n              tag_304\n              tag_194\n              jump\t// in\n            tag_304:\n                /* \"#utility.yul\":9890:9925   */\n            tag_303:\n                /* \"#utility.yul\":9947:9948   */\n              dup3\n                /* \"#utility.yul\":9944:9945   */\n              dup3\n                /* \"#utility.yul\":9940:9949   */\n              div\n                /* \"#utility.yul\":9935:9949   */\n              swap1\n              pop\n                /* \"#utility.yul\":9770:9955   */\n              swap3\n              swap2\n              pop\n              pop\n              jump\t// out\n                /* \"#utility.yul\":9961:10207   */\n            tag_195:\n                /* \"#utility.yul\":10101:10135   */\n              0x536c6970706167652070726f74656374696f6e3a20726563656976656420616d\n                /* \"#utility.yul\":10097:10098   */\n              0x00\n                /* \"#utility.yul\":10089:10095   */\n              dup3\n                /* \"#utility.yul\":10085:10099   */\n              add\n                /* \"#utility.yul\":10078:10136   */\n              mstore\n                /* \"#utility.yul\":10170:10199   */\n              0x6f756e74206973206c657373207468616e2065787065637465642e0000000000\n                /* \"#utility.yul\":10165:10167   */\n              0x20\n                /* \"#utility.yul\":10157:10163   */\n              dup3\n                /* \"#utility.yul\":10153:10168   */\n              add\n                /* \"#utility.yul\":10146:10200   */\n              mstore\n                /* \"#utility.yul\":9961:10207   */\n              pop\n              jump\t// out\n                /* \"#utility.yul\":10213:10579   */\n            tag_196:\n                /* \"#utility.yul\":10355:10358   */\n              0x00\n                /* \"#utility.yul\":10376:10443   */\n              tag_307\n                /* \"#utility.yul\":10440:10442   */\n              0x3b\n                /* \"#utility.yul\":10435:10438   */\n              dup4\n                /* \"#utility.yul\":10376:10443   */\n              tag_184\n              jump\t// in\n            tag_307:\n                /* \"#utility.yul\":10369:10443   */\n              swap2\n              pop\n                /* \"#utility.yul\":10452:10545   */\n              tag_308\n                /* \"#utility.yul\":10541:10544   */\n              dup3\n                /* \"#utility.yul\":10452:10545   */\n              tag_195\n              jump\t// in\n            tag_308:\n                /* \"#utility.yul\":10570:10572   */\n              0x40\n                /* \"#utility.yul\":10565:10568   */\n              dup3\n                /* \"#utility.yul\":10561:10573   */\n              add\n                /* \"#utility.yul\":10554:10573   */\n              swap1\n              pop\n                /* \"#utility.yul\":10213:10579   */\n              swap2\n              swap1\n              pop\n              jump\t// out\n                /* \"#utility.yul\":10585:11004   */\n            tag_74:\n                /* \"#utility.yul\":10751:10755   */\n              0x00\n                /* \"#utility.yul\":10789:10791   */\n              0x20\n                /* \"#utility.yul\":10778:10787   */\n              dup3\n                /* \"#utility.yul\":10774:10792   */\n              add\n                /* \"#utility.yul\":10766:10792   */\n              swap1\n              pop\n                /* \"#utility.yul\":10838:10847   */\n              dup2\n                /* \"#utility.yul\":10832:10836   */\n              dup2\n                /* \"#utility.yul\":10828:10848   */\n              sub\n                /* \"#utility.yul\":10824:10825   */\n              0x00\n                /* \"#utility.yul\":10813:10822   */\n              dup4\n                /* \"#utility.yul\":10809:10826   */\n              add\n                /* \"#utility.yul\":10802:10849   */\n              mstore\n                /* \"#utility.yul\":10866:10997   */\n              tag_310\n                /* \"#utility.yul\":10992:10996   */\n              dup2\n                /* \"#utility.yul\":10866:10997   */\n              tag_196\n              jump\t// in\n            tag_310:\n                /* \"#utility.yul\":10858:10997   */\n              swap1\n              pop\n                /* \"#utility.yul\":10585:11004   */\n              swap2\n              swap1\n              pop\n              jump\t// out\n                /* \"#utility.yul\":11010:11204   */\n            tag_77:\n                /* \"#utility.yul\":11050:11054   */\n              0x00\n                /* \"#utility.yul\":11070:11090   */\n              tag_312\n                /* \"#utility.yul\":11088:11089   */\n              dup3\n                /* \"#utility.yul\":11070:11090   */\n              tag_180\n              jump\t// in\n            tag_312:\n                /* \"#utility.yul\":11065:11090   */\n              swap2\n              pop\n                /* \"#utility.yul\":11104:11124   */\n              tag_313\n                /* \"#utility.yul\":11122:11123   */\n              dup4\n                /* \"#utility.yul\":11104:11124   */\n              tag_180\n              jump\t// in\n            tag_313:\n                /* \"#utility.yul\":11099:11124   */\n              swap3\n              pop\n                /* \"#utility.yul\":11148:11149   */\n              dup3\n                /* \"#utility.yul\":11145:11146   */\n              dup3\n                /* \"#utility.yul\":11141:11150   */\n              sub\n                /* \"#utility.yul\":11133:11150   */\n              swap1\n              pop\n                /* \"#utility.yul\":11172:11173   */\n              dup2\n                /* \"#utility.yul\":11166:11170   */\n              dup2\n                /* \"#utility.yul\":11163:11174   */\n              gt\n                /* \"#utility.yul\":11160:11197   */\n              iszero\n              tag_314\n              jumpi\n                /* \"#utility.yul\":11177:11195   */\n              tag_315\n              tag_193\n              jump\t// in\n            tag_315:\n                /* \"#utility.yul\":11160:11197   */\n            tag_314:\n                /* \"#utility.yul\":11010:11204   */\n              swap3\n              swap2\n              pop\n              pop\n              jump\t// out\n                /* \"#utility.yul\":11210:11763   */\n            tag_81:\n                /* \"#utility.yul\":11387:11391   */\n              0x00\n                /* \"#utility.yul\":11425:11428   */\n              0x80\n                /* \"#utility.yul\":11414:11423   */\n              dup3\n                /* \"#utility.yul\":11410:11429   */\n              add\n                /* \"#utility.yul\":11402:11429   */\n              swap1\n              pop\n                /* \"#utility.yul\":11439:11510   */\n              tag_317\n                /* \"#utility.yul\":11507:11508   */\n              0x00\n                /* \"#utility.yul\":11496:11505   */\n              dup4\n                /* \"#utility.yul\":11492:11509   */\n              add\n                /* \"#utility.yul\":11483:11489   */\n              dup8\n                /* \"#utility.yul\":11439:11510   */\n              tag_174\n              jump\t// in\n            tag_317:\n                /* \"#utility.yul\":11520:11592   */\n              tag_318\n                /* \"#utility.yul\":11588:11590   */\n              0x20\n                /* \"#utility.yul\":11577:11586   */\n              dup4\n                /* \"#utility.yul\":11573:11591   */\n              add\n                /* \"#utility.yul\":11564:11570   */\n              dup7\n                /* \"#utility.yul\":11520:11592   */\n              tag_174\n              jump\t// in\n            tag_318:\n                /* \"#utility.yul\":11602:11674   */\n              tag_319\n                /* \"#utility.yul\":11670:11672   */\n              0x40\n                /* \"#utility.yul\":11659:11668   */\n              dup4\n                /* \"#utility.yul\":11655:11673   */\n              add\n                /* \"#utility.yul\":11646:11652   */\n              dup6\n                /* \"#utility.yul\":11602:11674   */\n              tag_183\n              jump\t// in\n            tag_319:\n                /* \"#utility.yul\":11684:11756   */\n              tag_320\n                /* \"#utility.yul\":11752:11754   */\n              0x60\n                /* \"#utility.yul\":11741:11750   */\n              dup4\n                /* \"#utility.yul\":11737:11755   */\n              add\n                /* \"#utility.yul\":11728:11734   */\n              dup5\n                /* \"#utility.yul\":11684:11756   */\n              tag_183\n              jump\t// in\n            tag_320:\n                /* \"#utility.yul\":11210:11763   */\n              swap6\n              swap5\n              pop\n              pop\n              pop\n              pop\n              pop\n              jump\t// out\n                /* \"#utility.yul\":11769:11997   */\n            tag_197:\n                /* \"#utility.yul\":11909:11943   */\n              0x43616e6e6f742063726561746520706f6f6c2077697468206964656e74696361\n                /* \"#utility.yul\":11905:11906   */\n              0x00\n                /* \"#utility.yul\":11897:11903   */\n              dup3\n                /* \"#utility.yul\":11893:11907   */\n              add\n                /* \"#utility.yul\":11886:11944   */\n              mstore\n                /* \"#utility.yul\":11978:11989   */\n              0x6c20746f6b656e732e0000000000000000000000000000000000000000000000\n                /* \"#utility.yul\":11973:11975   */\n              0x20\n                /* \"#utility.yul\":11965:11971   */\n              dup3\n                /* \"#utility.yul\":11961:11976   */\n              add\n                /* \"#utility.yul\":11954:11990   */\n              mstore\n                /* \"#utility.yul\":11769:11997   */\n              pop\n              jump\t// out\n                /* \"#utility.yul\":12003:12369   */\n            tag_198:\n                /* \"#utility.yul\":12145:12148   */\n              0x00\n                /* \"#utility.yul\":12166:12233   */\n              tag_323\n                /* \"#utility.yul\":12230:12232   */\n              0x29\n                /* \"#utility.yul\":12225:12228   */\n              dup4\n                /* \"#utility.yul\":12166:12233   */\n              tag_184\n              jump\t// in\n            tag_323:\n                /* \"#utility.yul\":12159:12233   */\n              swap2\n              pop\n                /* \"#utility.yul\":12242:12335   */\n              tag_324\n                /* \"#utility.yul\":12331:12334   */\n              dup3\n                /* \"#utility.yul\":12242:12335   */\n              tag_197\n              jump\t// in\n            tag_324:\n                /* \"#utility.yul\":12360:12362   */\n              0x40\n                /* \"#utility.yul\":12355:12358   */\n              dup3\n                /* \"#utility.yul\":12351:12363   */\n              add\n                /* \"#utility.yul\":12344:12363   */\n              swap1\n              pop\n                /* \"#utility.yul\":12003:12369   */\n              swap2\n              swap1\n              pop\n              jump\t// out\n                /* \"#utility.yul\":12375:12794   */\n            tag_85:\n                /* \"#utility.yul\":12541:12545   */\n              0x00\n                /* \"#utility.yul\":12579:12581   */\n              0x20\n                /* \"#utility.yul\":12568:12577   */\n              dup3\n                /* \"#utility.yul\":12564:12582   */\n              add\n                /* \"#utility.yul\":12556:12582   */\n              swap1\n              pop\n                /* \"#utility.yul\":12628:12637   */\n              dup2\n                /* \"#utility.yul\":12622:12626   */\n              dup2\n                /* \"#utility.yul\":12618:12638   */\n              sub\n                /* \"#utility.yul\":12614:12615   */\n              0x00\n                /* \"#utility.yul\":12603:12612   */\n              dup4\n                /* \"#utility.yul\":12599:12616   */\n              add\n                /* \"#utility.yul\":12592:12639   */\n              mstore\n                /* \"#utility.yul\":12656:12787   */\n              tag_326\n                /* \"#utility.yul\":12782:12786   */\n              dup2\n                /* \"#utility.yul\":12656:12787   */\n              tag_198\n              jump\t// in\n            tag_326:\n                /* \"#utility.yul\":12648:12787   */\n              swap1\n              pop\n                /* \"#utility.yul\":12375:12794   */\n              swap2\n              swap1\n              pop\n              jump\t// out\n                /* \"#utility.yul\":12800:13021   */\n            tag_199:\n                /* \"#utility.yul\":12940:12974   */\n              0x416d6f756e7473206d7573742062652067726561746572207468616e207a6572\n                /* \"#utility.yul\":12936:12937   */\n              0x00\n                /* \"#utility.yul\":12928:12934   */\n              dup3\n                /* \"#utility.yul\":12924:12938   */\n              add\n                /* \"#utility.yul\":12917:12975   */\n              mstore\n                /* \"#utility.yul\":13009:13013   */\n              0x6f2e000000000000000000000000000000000000000000000000000000000000\n                /* \"#utility.yul\":13004:13006   */\n              0x20\n                /* \"#utility.yul\":12996:13002   */\n              dup3\n                /* \"#utility.yul\":12992:13007   */\n              add\n                /* \"#utility.yul\":12985:13014   */\n              mstore\n                /* \"#utility.yul\":12800:13021   */\n              pop\n              jump\t// out\n                /* \"#utility.yul\":13027:13393   */\n            tag_200:\n                /* \"#utility.yul\":13169:13172   */\n              0x00\n                /* \"#utility.yul\":13190:13257   */\n              tag_329\n                /* \"#utility.yul\":13254:13256   */\n              0x22\n                /* \"#utility.yul\":13249:13252   */\n              dup4\n                /* \"#utility.yul\":13190:13257   */\n              tag_184\n              jump\t// in\n            tag_329:\n                /* \"#utility.yul\":13183:13257   */\n              swap2\n              pop\n                /* \"#utility.yul\":13266:13359   */\n              tag_330\n                /* \"#utility.yul\":13355:13358   */\n              dup3\n                /* \"#utility.yul\":13266:13359   */\n              tag_199\n              jump\t// in\n            tag_330:\n                /* \"#utility.yul\":13384:13386   */\n              0x40\n                /* \"#utility.yul\":13379:13382   */\n              dup3\n                /* \"#utility.yul\":13375:13387   */\n              add\n                /* \"#utility.yul\":13368:13387   */\n              swap1\n              pop\n                /* \"#utility.yul\":13027:13393   */\n              swap2\n              swap1\n              pop\n              jump\t// out\n                /* \"#utility.yul\":13399:13818   */\n            tag_89:\n                /* \"#utility.yul\":13565:13569   */\n              0x00\n                /* \"#utility.yul\":13603:13605   */\n              0x20\n                /* \"#utility.yul\":13592:13601   */\n              dup3\n                /* \"#utility.yul\":13588:13606   */\n              add\n                /* \"#utility.yul\":13580:13606   */\n              swap1\n              pop\n                /* \"#utility.yul\":13652:13661   */\n              dup2\n                /* \"#utility.yul\":13646:13650   */\n              dup2\n                /* \"#utility.yul\":13642:13662   */\n              sub\n                /* \"#utility.yul\":13638:13639   */\n              0x00\n                /* \"#utility.yul\":13627:13636   */\n              dup4\n                /* \"#utility.yul\":13623:13640   */\n              add\n                /* \"#utility.yul\":13616:13663   */\n              mstore\n                /* \"#utility.yul\":13680:13811   */\n              tag_332\n                /* \"#utility.yul\":13806:13810   */\n              dup2\n                /* \"#utility.yul\":13680:13811   */\n              tag_200\n              jump\t// in\n            tag_332:\n                /* \"#utility.yul\":13672:13811   */\n              swap1\n              pop\n                /* \"#utility.yul\":13399:13818   */\n              swap2\n              swap1\n              pop\n              jump\t// out\n                /* \"#utility.yul\":13824:13997   */\n            tag_201:\n                /* \"#utility.yul\":13964:13989   */\n              0x496e73756666696369656e74206c69717569646974792e000000000000000000\n                /* \"#utility.yul\":13960:13961   */\n              0x00\n                /* \"#utility.yul\":13952:13958   */\n              dup3\n                /* \"#utility.yul\":13948:13962   */\n              add\n                /* \"#utility.yul\":13941:13990   */\n              mstore\n                /* \"#utility.yul\":13824:13997   */\n              pop\n              jump\t// out\n                /* \"#utility.yul\":14003:14369   */\n            tag_202:\n                /* \"#utility.yul\":14145:14148   */\n              0x00\n                /* \"#utility.yul\":14166:14233   */\n              tag_335\n                /* \"#utility.yul\":14230:14232   */\n              0x17\n                /* \"#utility.yul\":14225:14228   */\n              dup4\n                /* \"#utility.yul\":14166:14233   */\n              tag_184\n              jump\t// in\n            tag_335:\n                /* \"#utility.yul\":14159:14233   */\n              swap2\n              pop\n                /* \"#utility.yul\":14242:14335   */\n              tag_336\n                /* \"#utility.yul\":14331:14334   */\n              dup3\n                /* \"#utility.yul\":14242:14335   */\n              tag_201\n              jump\t// in\n            tag_336:\n                /* \"#utility.yul\":14360:14362   */\n              0x20\n                /* \"#utility.yul\":14355:14358   */\n              dup3\n                /* \"#utility.yul\":14351:14363   */\n              add\n                /* \"#utility.yul\":14344:14363   */\n              swap1\n              pop\n                /* \"#utility.yul\":14003:14369   */\n              swap2\n              swap1\n              pop\n              jump\t// out\n                /* \"#utility.yul\":14375:14794   */\n            tag_106:\n                /* \"#utility.yul\":14541:14545   */\n              0x00\n                /* \"#utility.yul\":14579:14581   */\n              0x20\n                /* \"#utility.yul\":14568:14577   */\n              dup3\n                /* \"#utility.yul\":14564:14582   */\n              add\n                /* \"#utility.yul\":14556:14582   */\n              swap1\n              pop\n                /* \"#utility.yul\":14628:14637   */\n              dup2\n                /* \"#utility.yul\":14622:14626   */\n              dup2\n                /* \"#utility.yul\":14618:14638   */\n              sub\n                /* \"#utility.yul\":14614:14615   */\n              0x00\n                /* \"#utility.yul\":14603:14612   */\n              dup4\n                /* \"#utility.yul\":14599:14616   */\n              add\n                /* \"#utility.yul\":14592:14639   */\n              mstore\n                /* \"#utility.yul\":14656:14787   */\n              tag_338\n                /* \"#utility.yul\":14782:14786   */\n              dup2\n                /* \"#utility.yul\":14656:14787   */\n              tag_202\n              jump\t// in\n            tag_338:\n                /* \"#utility.yul\":14648:14787   */\n              swap1\n              pop\n                /* \"#utility.yul\":14375:14794   */\n              swap2\n              swap1\n              pop\n              jump\t// out\n                /* \"#utility.yul\":14800:15242   */\n            tag_124:\n                /* \"#utility.yul\":14949:14953   */\n              0x00\n                /* \"#utility.yul\":14987:14989   */\n              0x60\n                /* \"#utility.yul\":14976:14985   */\n              dup3\n                /* \"#utility.yul\":14972:14990   */\n              add\n                /* \"#utility.yul\":14964:14990   */\n              swap1\n              pop\n                /* \"#utility.yul\":15000:15071   */\n              tag_340\n                /* \"#utility.yul\":15068:15069   */\n              0x00\n                /* \"#utility.yul\":15057:15066   */\n              dup4\n                /* \"#utility.yul\":15053:15070   */\n              add\n                /* \"#utility.yul\":15044:15050   */\n              dup7\n                /* \"#utility.yul\":15000:15071   */\n              tag_174\n              jump\t// in\n            tag_340:\n                /* \"#utility.yul\":15081:15153   */\n              tag_341\n                /* \"#utility.yul\":15149:15151   */\n              0x20\n                /* \"#utility.yul\":15138:15147   */\n              dup4\n                /* \"#utility.yul\":15134:15152   */\n              add\n                /* \"#utility.yul\":15125:15131   */\n              dup6\n                /* \"#utility.yul\":15081:15153   */\n              tag_174\n              jump\t// in\n            tag_341:\n                /* \"#utility.yul\":15163:15235   */\n              tag_342\n                /* \"#utility.yul\":15231:15233   */\n              0x40\n                /* \"#utility.yul\":15220:15229   */\n              dup4\n                /* \"#utility.yul\":15216:15234   */\n              add\n                /* \"#utility.yul\":15207:15213   */\n              dup5\n                /* \"#utility.yul\":15163:15235   */\n              tag_183\n              jump\t// in\n            tag_342:\n                /* \"#utility.yul\":14800:15242   */\n              swap5\n              swap4\n              pop\n              pop\n              pop\n              pop\n              jump\t// out\n                /* \"#utility.yul\":15248:15580   */\n            tag_129:\n                /* \"#utility.yul\":15369:15373   */\n              0x00\n                /* \"#utility.yul\":15407:15409   */\n              0x40\n                /* \"#utility.yul\":15396:15405   */\n              dup3\n                /* \"#utility.yul\":15392:15410   */\n              add\n                /* \"#utility.yul\":15384:15410   */\n              swap1\n              pop\n                /* \"#utility.yul\":15420:15491   */\n              tag_344\n                /* \"#utility.yul\":15488:15489   */\n              0x00\n                /* \"#utility.yul\":15477:15486   */\n              dup4\n                /* \"#utility.yul\":15473:15490   */\n              add\n                /* \"#utility.yul\":15464:15470   */\n              dup6\n                /* \"#utility.yul\":15420:15491   */\n              tag_174\n              jump\t// in\n            tag_344:\n                /* \"#utility.yul\":15501:15573   */\n              tag_345\n                /* \"#utility.yul\":15569:15571   */\n              0x20\n                /* \"#utility.yul\":15558:15567   */\n              dup4\n                /* \"#utility.yul\":15554:15572   */\n              add\n                /* \"#utility.yul\":15545:15551   */\n              dup5\n                /* \"#utility.yul\":15501:15573   */\n              tag_183\n              jump\t// in\n            tag_345:\n                /* \"#utility.yul\":15248:15580   */\n              swap4\n              swap3\n              pop\n              pop\n              pop\n              jump\t// out\n                /* \"#utility.yul\":15586:15702   */\n            tag_203:\n                /* \"#utility.yul\":15656:15677   */\n              tag_347\n                /* \"#utility.yul\":15671:15676   */\n              dup2\n                /* \"#utility.yul\":15656:15677   */\n              tag_170\n              jump\t// in\n            tag_347:\n                /* \"#utility.yul\":15649:15654   */\n              dup2\n                /* \"#utility.yul\":15646:15678   */\n              eq\n                /* \"#utility.yul\":15636:15696   */\n              tag_348\n              jumpi\n                /* \"#utility.yul\":15692:15693   */\n              0x00\n                /* \"#utility.yul\":15689:15690   */\n              dup1\n                /* \"#utility.yul\":15682:15694   */\n              revert\n                /* \"#utility.yul\":15636:15696   */\n            tag_348:\n                /* \"#utility.yul\":15586:15702   */\n              pop\n              jump\t// out\n                /* \"#utility.yul\":15708:15845   */\n            tag_204:\n                /* \"#utility.yul\":15762:15767   */\n              0x00\n                /* \"#utility.yul\":15793:15799   */\n              dup2\n                /* \"#utility.yul\":15787:15800   */\n              mload\n                /* \"#utility.yul\":15778:15800   */\n              swap1\n              pop\n                /* \"#utility.yul\":15809:15839   */\n              tag_350\n                /* \"#utility.yul\":15833:15838   */\n              dup2\n                /* \"#utility.yul\":15809:15839   */\n              tag_203\n              jump\t// in\n            tag_350:\n                /* \"#utility.yul\":15708:15845   */\n              swap3\n              swap2\n              pop\n              pop\n              jump\t// out\n                /* \"#utility.yul\":15851:16196   */\n            tag_143:\n                /* \"#utility.yul\":15918:15924   */\n              0x00\n                /* \"#utility.yul\":15967:15969   */\n              0x20\n                /* \"#utility.yul\":15955:15964   */\n              dup3\n                /* \"#utility.yul\":15946:15953   */\n              dup5\n                /* \"#utility.yul\":15942:15965   */\n              sub\n                /* \"#utility.yul\":15938:15970   */\n              slt\n                /* \"#utility.yul\":15935:16054   */\n              iszero\n              tag_352\n              jumpi\n                /* \"#utility.yul\":15973:16052   */\n              tag_353\n              tag_176\n              jump\t// in\n            tag_353:\n                /* \"#utility.yul\":15935:16054   */\n            tag_352:\n                /* \"#utility.yul\":16093:16094   */\n              0x00\n                /* \"#utility.yul\":16118:16179   */\n              tag_354\n                /* \"#utility.yul\":16171:16178   */\n              dup5\n                /* \"#utility.yul\":16162:16168   */\n              dup3\n                /* \"#utility.yul\":16151:16160   */\n              dup6\n                /* \"#utility.yul\":16147:16169   */\n              add\n                /* \"#utility.yul\":16118:16179   */\n              tag_204\n              jump\t// in\n            tag_354:\n                /* \"#utility.yul\":16108:16179   */\n              swap2\n              pop\n                /* \"#utility.yul\":16064:16189   */\n              pop\n                /* \"#utility.yul\":15851:16196   */\n              swap3\n              swap2\n              pop\n              pop\n              jump\t// out\n                /* \"#utility.yul\":16202:16300   */\n            tag_205:\n                /* \"#utility.yul\":16253:16259   */\n              0x00\n                /* \"#utility.yul\":16287:16292   */\n              dup2\n                /* \"#utility.yul\":16281:16293   */\n              mload\n                /* \"#utility.yul\":16271:16293   */\n              swap1\n              pop\n                /* \"#utility.yul\":16202:16300   */\n              swap2\n              swap1\n              pop\n              jump\t// out\n                /* \"#utility.yul\":16306:16453   */\n            tag_206:\n                /* \"#utility.yul\":16407:16418   */\n              0x00\n                /* \"#utility.yul\":16444:16447   */\n              dup2\n                /* \"#utility.yul\":16429:16447   */\n              swap1\n              pop\n                /* \"#utility.yul\":16306:16453   */\n              swap3\n              swap2\n              pop\n              pop\n              jump\t// out\n                /* \"#utility.yul\":16459:16598   */\n            tag_207:\n                /* \"#utility.yul\":16548:16554   */\n              dup3\n                /* \"#utility.yul\":16543:16546   */\n              dup2\n                /* \"#utility.yul\":16538:16541   */\n              dup4\n                /* \"#utility.yul\":16532:16555   */\n              mcopy\n                /* \"#utility.yul\":16589:16590   */\n              0x00\n                /* \"#utility.yul\":16580:16586   */\n              dup4\n                /* \"#utility.yul\":16575:16578   */\n              dup4\n                /* \"#utility.yul\":16571:16587   */\n              add\n                /* \"#utility.yul\":16564:16591   */\n              mstore\n                /* \"#utility.yul\":16459:16598   */\n              pop\n              pop\n              pop\n              jump\t// out\n                /* \"#utility.yul\":16604:16990   */\n            tag_208:\n                /* \"#utility.yul\":16708:16711   */\n              0x00\n                /* \"#utility.yul\":16736:16774   */\n              tag_359\n                /* \"#utility.yul\":16768:16773   */\n              dup3\n                /* \"#utility.yul\":16736:16774   */\n              tag_205\n              jump\t// in\n            tag_359:\n                /* \"#utility.yul\":16790:16878   */\n              tag_360\n                /* \"#utility.yul\":16871:16877   */\n              dup2\n                /* \"#utility.yul\":16866:16869   */\n              dup6\n                /* \"#utility.yul\":16790:16878   */\n              tag_206\n              jump\t// in\n            tag_360:\n                /* \"#utility.yul\":16783:16878   */\n              swap4\n              pop\n                /* \"#utility.yul\":16887:16952   */\n              tag_361\n                /* \"#utility.yul\":16945:16951   */\n              dup2\n                /* \"#utility.yul\":16940:16943   */\n              dup6\n                /* \"#utility.yul\":16933:16937   */\n              0x20\n                /* \"#utility.yul\":16926:16931   */\n              dup7\n                /* \"#utility.yul\":16922:16938   */\n              add\n                /* \"#utility.yul\":16887:16952   */\n              tag_207\n              jump\t// in\n            tag_361:\n                /* \"#utility.yul\":16977:16983   */\n              dup1\n                /* \"#utility.yul\":16972:16975   */\n              dup5\n                /* \"#utility.yul\":16968:16984   */\n              add\n                /* \"#utility.yul\":16961:16984   */\n              swap2\n              pop\n                /* \"#utility.yul\":16712:16990   */\n              pop\n                /* \"#utility.yul\":16604:16990   */\n              swap3\n              swap2\n              pop\n              pop\n              jump\t// out\n                /* \"#utility.yul\":16996:17267   */\n            tag_153:\n                /* \"#utility.yul\":17126:17129   */\n              0x00\n                /* \"#utility.yul\":17148:17241   */\n              tag_363\n                /* \"#utility.yul\":17237:17240   */\n              dup3\n                /* \"#utility.yul\":17228:17234   */\n              dup5\n                /* \"#utility.yul\":17148:17241   */\n              tag_208\n              jump\t// in\n            tag_363:\n                /* \"#utility.yul\":17141:17241   */\n              swap2\n              pop\n                /* \"#utility.yul\":17258:17261   */\n              dup2\n                /* \"#utility.yul\":17251:17261   */\n              swap1\n              pop\n                /* \"#utility.yul\":16996:17267   */\n              swap3\n              swap2\n              pop\n              pop\n              jump\t// out\n\n            auxdata: 0xa2646970667358221220ead03df4c8df09a07f47be7f9148d7c4cd6b1247fae0ba088bf7660afcacd41864736f6c63430008190033\n        }\n    }\n\n    auxdata: 0xa26469706673582212201911c0524fa7989e4852e68f96631bd22efba161a8df08be9ce1b5c57f771c0f64736f6c63430008190033\n}\n",
				"bytecode": {
					"linkReferences": {},
					"object": "6080604052348015600e575f80fd5b5061231c8061001c5f395ff3fe608060405234801561000f575f80fd5b506004361061003f575f3560e01c806341d1de9714610043578063531aa03e14610073578063e3433615146100a3575b5f80fd5b61005d60048036038101906100589190610550565b6100d3565b60405161006a91906105ba565b60405180910390f35b61008d600480360381019061008891906105fd565b61010e565b60405161009a91906105ba565b60405180910390f35b6100bd60048036038101906100b891906105fd565b61014a565b6040516100ca91906105ba565b60405180910390f35b600181815481106100e2575f80fd5b905f5260205f20015f915054906101000a900473ffffffffffffffffffffffffffffffffffffffff1681565b5f602052815f5260405f20602052805f5260405f205f915091509054906101000a900473ffffffffffffffffffffffffffffffffffffffff1681565b5f8173ffffffffffffffffffffffffffffffffffffffff168373ffffffffffffffffffffffffffffffffffffffff16036101b9576040517f08c379a00000000000000000000000000000000000000000000000000000000081526004016101b090610695565b60405180910390fd5b5f73ffffffffffffffffffffffffffffffffffffffff165f808573ffffffffffffffffffffffffffffffffffffffff1673ffffffffffffffffffffffffffffffffffffffff1681526020019081526020015f205f8473ffffffffffffffffffffffffffffffffffffffff1673ffffffffffffffffffffffffffffffffffffffff1681526020019081526020015f205f9054906101000a900473ffffffffffffffffffffffffffffffffffffffff1673ffffffffffffffffffffffffffffffffffffffff16146102bd576040517f08c379a00000000000000000000000000000000000000000000000000000000081526004016102b4906106fd565b60405180910390fd5b5f604051806020016102ce9061050c565b6020820181038252601f19601f8201166040525090505f84846040516020016102f8929190610760565b604051602081830303815290604052805190602001209050808251602084015ff592508273ffffffffffffffffffffffffffffffffffffffff1663485cc95586866040518363ffffffff1660e01b815260040161035692919061078b565b5f604051808303815f87803b15801561036d575f80fd5b505af115801561037f573d5f803e3d5ffd5b50505050825f808773ffffffffffffffffffffffffffffffffffffffff1673ffffffffffffffffffffffffffffffffffffffff1681526020019081526020015f205f8673ffffffffffffffffffffffffffffffffffffffff1673ffffffffffffffffffffffffffffffffffffffff1681526020019081526020015f205f6101000a81548173ffffffffffffffffffffffffffffffffffffffff021916908373ffffffffffffffffffffffffffffffffffffffff160217905550600183908060018154018082558091505060019003905f5260205f20015f9091909190916101000a81548173ffffffffffffffffffffffffffffffffffffffff021916908373ffffffffffffffffffffffffffffffffffffffff1602179055508373ffffffffffffffffffffffffffffffffffffffff168573ffffffffffffffffffffffffffffffffffffffff167febbbe9dc3a19d2f959ac76ac0372b4983cdfb945f5d6aef4873c36fabb2ba8aa856001805490506040516104fc9291906107c1565b60405180910390a3505092915050565b611afe806107e983390190565b5f80fd5b5f819050919050565b61052f8161051d565b8114610539575f80fd5b50565b5f8135905061054a81610526565b92915050565b5f6020828403121561056557610564610519565b5b5f6105728482850161053c565b91505092915050565b5f73ffffffffffffffffffffffffffffffffffffffff82169050919050565b5f6105a48261057b565b9050919050565b6105b48161059a565b82525050565b5f6020820190506105cd5f8301846105ab565b92915050565b6105dc8161059a565b81146105e6575f80fd5b50565b5f813590506105f7816105d3565b92915050565b5f806040838503121561061357610612610519565b5b5f610620858286016105e9565b9250506020610631858286016105e9565b9150509250929050565b5f82825260208201905092915050565b7f4964656e746963616c20616464726573736573000000000000000000000000005f82015250565b5f61067f60138361063b565b915061068a8261064b565b602082019050919050565b5f6020820190508181035f8301526106ac81610673565b9050919050565b7f506f6f6c20616c726561647920657869737473000000000000000000000000005f82015250565b5f6106e760138361063b565b91506106f2826106b3565b602082019050919050565b5f6020820190508181035f830152610714816106db565b9050919050565b5f8160601b9050919050565b5f6107318261071b565b9050919050565b5f61074282610727565b9050919050565b61075a6107558261059a565b610738565b82525050565b5f61076b8285610749565b60148201915061077b8284610749565b6014820191508190509392505050565b5f60408201905061079e5f8301856105ab565b6107ab60208301846105ab565b9392505050565b6107bb8161051d565b82525050565b5f6040820190506107d45f8301856105ab565b6107e160208301846107b2565b939250505056fe6080604052348015600e575f80fd5b50611ae28061001c5f395ff3fe608060405234801561000f575f80fd5b5060043610610086575f3560e01c8063565841d111610059578063565841d114610112578063cf6c62ea14610144578063d752fab214610160578063d7cb416f1461017c57610086565b8063158ef93e1461008a5780632456af82146100a8578063485cc955146100c65780634a5a7270146100e2575b5f80fd5b61009261019a565b60405161009f9190611216565b60405180910390f35b6100b06101ad565b6040516100bd919061126e565b60405180910390f35b6100e060048036038101906100db91906112b5565b6101d2565b005b6100fc60048036038101906100f79190611326565b6102c1565b6040516101099190611399565b60405180910390f35b61012c600480360381019061012791906112b5565b610701565b60405161013b939291906113b2565b60405180910390f35b61015e60048036038101906101599190611326565b610731565b005b61017a600480360381019061017591906113e7565b610abc565b005b610184610e36565b604051610191919061126e565b60405180910390f35b600260149054906101000a900460ff1681565b60025f9054906101000a900473ffffffffffffffffffffffffffffffffffffffff1681565b600260149054906101000a900460ff1615610222576040517f08c379a000000000000000000000000000000000000000000000000000000000815260040161021990611491565b60405180910390fd5b8160015f6101000a81548173ffffffffffffffffffffffffffffffffffffffff021916908373ffffffffffffffffffffffffffffffffffffffff1602179055508060025f6101000a81548173ffffffffffffffffffffffffffffffffffffffff021916908373ffffffffffffffffffffffffffffffffffffffff1602179055506001600260146101000a81548160ff0219169083151502179055505050565b5f8373ffffffffffffffffffffffffffffffffffffffff168573ffffffffffffffffffffffffffffffffffffffff1603610330576040517f08c379a0000000000000000000000000000000000000000000000000000000008152600401610327906114f9565b60405180910390fd5b5f8311610372576040517f08c379a000000000000000000000000000000000000000000000000000000000815260040161036990611587565b60405180910390fd5b60015f9054906101000a900473ffffffffffffffffffffffffffffffffffffffff1673ffffffffffffffffffffffffffffffffffffffff168573ffffffffffffffffffffffffffffffffffffffff1614801561041a575060025f9054906101000a900473ffffffffffffffffffffffffffffffffffffffff1673ffffffffffffffffffffffffffffffffffffffff168473ffffffffffffffffffffffffffffffffffffffff16145b806104c9575060025f9054906101000a900473ffffffffffffffffffffffffffffffffffffffff1673ffffffffffffffffffffffffffffffffffffffff168573ffffffffffffffffffffffffffffffffffffffff161480156104c8575060015f9054906101000a900473ffffffffffffffffffffffffffffffffffffffff1673ffffffffffffffffffffffffffffffffffffffff168473ffffffffffffffffffffffffffffffffffffffff16145b5b610508576040517f08c379a00000000000000000000000000000000000000000000000000000000081526004016104ff906115ef565b60405180910390fd5b5f805f8773ffffffffffffffffffffffffffffffffffffffff1673ffffffffffffffffffffffffffffffffffffffff1681526020019081526020015f205f8673ffffffffffffffffffffffffffffffffffffffff1673ffffffffffffffffffffffffffffffffffffffff1681526020019081526020015f2090506105af3330868973ffffffffffffffffffffffffffffffffffffffff16610e5b909392919063ffffffff16565b5f815f015490505f826001015490505f6103e5876105cd919061163a565b9050806103e8846105de919061163a565b6105e8919061167b565b82826105f4919061163a565b6105fe91906116db565b945085851015610643576040517f08c379a000000000000000000000000000000000000000000000000000000000815260040161063a9061177b565b60405180910390fd5b86845f015f828254610655919061167b565b9250508190555084846001015f82825461066f9190611799565b925050819055506106a133868a73ffffffffffffffffffffffffffffffffffffffff16610edd9092919063ffffffff16565b3373ffffffffffffffffffffffffffffffffffffffff167f764f0dc063c06f32d89a3f3af80c0db4be8a090901f589a478b447e0a51f09f18a8a8a896040516106ed94939291906117cc565b60405180910390a250505050949350505050565b5f602052815f5260405f20602052805f5260405f205f9150915050805f0154908060010154908060020154905083565b8273ffffffffffffffffffffffffffffffffffffffff168473ffffffffffffffffffffffffffffffffffffffff160361079f576040517f08c379a00000000000000000000000000000000000000000000000000000000081526004016107969061187f565b60405180910390fd5b5f821180156107ad57505f81115b6107ec576040517f08c379a00000000000000000000000000000000000000000000000000000000081526004016107e39061190d565b60405180910390fd5b60015f9054906101000a900473ffffffffffffffffffffffffffffffffffffffff1673ffffffffffffffffffffffffffffffffffffffff168473ffffffffffffffffffffffffffffffffffffffff16148015610894575060025f9054906101000a900473ffffffffffffffffffffffffffffffffffffffff1673ffffffffffffffffffffffffffffffffffffffff168373ffffffffffffffffffffffffffffffffffffffff16145b6108d3576040517f08c379a00000000000000000000000000000000000000000000000000000000081526004016108ca906115ef565b60405180910390fd5b5f805f8673ffffffffffffffffffffffffffffffffffffffff1673ffffffffffffffffffffffffffffffffffffffff1681526020019081526020015f205f8573ffffffffffffffffffffffffffffffffffffffff1673ffffffffffffffffffffffffffffffffffffffff1681526020019081526020015f20905061097a3330858873ffffffffffffffffffffffffffffffffffffffff16610e5b909392919063ffffffff16565b6109a73330848773ffffffffffffffffffffffffffffffffffffffff16610e5b909392919063ffffffff16565b82815f015f8282546109b9919061167b565b9250508190555081816001015f8282546109d3919061167b565b925050819055505f6109ef83856109ea919061163a565b610f5c565b905080826002015f828254610a04919061167b565b9250508190555080826003015f3373ffffffffffffffffffffffffffffffffffffffff1673ffffffffffffffffffffffffffffffffffffffff1681526020019081526020015f205f828254610a59919061167b565b925050819055503373ffffffffffffffffffffffffffffffffffffffff167fb5bf3f2c68363aa6e695c29010485bcfecb5439239c6b1306fdec5b26cb7c62e87878787604051610aac94939291906117cc565b60405180910390a2505050505050565b5f805f8573ffffffffffffffffffffffffffffffffffffffff1673ffffffffffffffffffffffffffffffffffffffff1681526020019081526020015f205f8473ffffffffffffffffffffffffffffffffffffffff1673ffffffffffffffffffffffffffffffffffffffff1681526020019081526020015f20905081816003015f3373ffffffffffffffffffffffffffffffffffffffff1673ffffffffffffffffffffffffffffffffffffffff1681526020019081526020015f20541015610bb8576040517f08c379a0000000000000000000000000000000000000000000000000000000008152600401610baf90611975565b60405180910390fd5b60015f9054906101000a900473ffffffffffffffffffffffffffffffffffffffff1673ffffffffffffffffffffffffffffffffffffffff168473ffffffffffffffffffffffffffffffffffffffff16148015610c60575060025f9054906101000a900473ffffffffffffffffffffffffffffffffffffffff1673ffffffffffffffffffffffffffffffffffffffff168373ffffffffffffffffffffffffffffffffffffffff16145b610c9f576040517f08c379a0000000000000000000000000000000000000000000000000000000008152600401610c96906115ef565b60405180910390fd5b5f8160020154825f015484610cb4919061163a565b610cbe91906116db565b90505f8260020154836001015485610cd6919061163a565b610ce091906116db565b905083836003015f3373ffffffffffffffffffffffffffffffffffffffff1673ffffffffffffffffffffffffffffffffffffffff1681526020019081526020015f205f828254610d309190611799565b9250508190555083836002015f828254610d4a9190611799565b9250508190555081835f015f828254610d639190611799565b9250508190555080836001015f828254610d7d9190611799565b92505081905550610daf33838873ffffffffffffffffffffffffffffffffffffffff16610edd9092919063ffffffff16565b610dda33828773ffffffffffffffffffffffffffffffffffffffff16610edd9092919063ffffffff16565b3373ffffffffffffffffffffffffffffffffffffffff167fd0aab0ed3b13a2551c0f217aa790c138f132954984c5d047ae27188f7205de1187878585604051610e2694939291906117cc565b60405180910390a2505050505050565b60015f9054906101000a900473ffffffffffffffffffffffffffffffffffffffff1681565b610ed7848573ffffffffffffffffffffffffffffffffffffffff166323b872dd868686604051602401610e9093929190611993565b604051602081830303815290604052915060e01b6020820180517bffffffffffffffffffffffffffffffffffffffffffffffffffffffff8381831617835250505050610fb8565b50505050565b610f57838473ffffffffffffffffffffffffffffffffffffffff1663a9059cbb8585604051602401610f109291906119c8565b604051602081830303815290604052915060e01b6020820180517bffffffffffffffffffffffffffffffffffffffffffffffffffffffff8381831617835250505050610fb8565b505050565b5f806002600184610f6d919061167b565b610f7791906116db565b90508291505b81811015610fb2578091506002818285610f9791906116db565b610fa1919061167b565b610fab91906116db565b9050610f7d565b50919050565b5f610fe2828473ffffffffffffffffffffffffffffffffffffffff1661104d90919063ffffffff16565b90505f8151141580156110065750808060200190518101906110049190611a19565b155b1561104857826040517f5274afe700000000000000000000000000000000000000000000000000000000815260040161103f919061126e565b60405180910390fd5b505050565b606061105a83835f611062565b905092915050565b6060814710156110a957306040517fcd7860590000000000000000000000000000000000000000000000000000000081526004016110a0919061126e565b60405180910390fd5b5f808573ffffffffffffffffffffffffffffffffffffffff1684866040516110d19190611a96565b5f6040518083038185875af1925050503d805f811461110b576040519150601f19603f3d011682016040523d82523d5f602084013e611110565b606091505b509150915061112086838361112b565b925050509392505050565b6060826111405761113b826111b8565b6111b0565b5f825114801561116657505f8473ffffffffffffffffffffffffffffffffffffffff163b145b156111a857836040517f9996b31500000000000000000000000000000000000000000000000000000000815260040161119f919061126e565b60405180910390fd5b8190506111b1565b5b9392505050565b5f815111156111ca5780518082602001fd5b6040517f1425ea4200000000000000000000000000000000000000000000000000000000815260040160405180910390fd5b5f8115159050919050565b611210816111fc565b82525050565b5f6020820190506112295f830184611207565b92915050565b5f73ffffffffffffffffffffffffffffffffffffffff82169050919050565b5f6112588261122f565b9050919050565b6112688161124e565b82525050565b5f6020820190506112815f83018461125f565b92915050565b5f80fd5b6112948161124e565b811461129e575f80fd5b50565b5f813590506112af8161128b565b92915050565b5f80604083850312156112cb576112ca611287565b5b5f6112d8858286016112a1565b92505060206112e9858286016112a1565b9150509250929050565b5f819050919050565b611305816112f3565b811461130f575f80fd5b50565b5f81359050611320816112fc565b92915050565b5f805f806080858703121561133e5761133d611287565b5b5f61134b878288016112a1565b945050602061135c878288016112a1565b935050604061136d87828801611312565b925050606061137e87828801611312565b91505092959194509250565b611393816112f3565b82525050565b5f6020820190506113ac5f83018461138a565b92915050565b5f6060820190506113c55f83018661138a565b6113d2602083018561138a565b6113df604083018461138a565b949350505050565b5f805f606084860312156113fe576113fd611287565b5b5f61140b868287016112a1565b935050602061141c868287016112a1565b925050604061142d86828701611312565b9150509250925092565b5f82825260208201905092915050565b7f416c726561647920696e697469616c697a6564000000000000000000000000005f82015250565b5f61147b601383611437565b915061148682611447565b602082019050919050565b5f6020820190508181035f8301526114a88161146f565b9050919050565b7f43616e6e6f742073776170206964656e746963616c20746f6b656e732e0000005f82015250565b5f6114e3601d83611437565b91506114ee826114af565b602082019050919050565b5f6020820190508181035f830152611510816114d7565b9050919050565b7f416d6f756e74206d7573742062652067726561746572207468616e207a65726f5f8201527f2e00000000000000000000000000000000000000000000000000000000000000602082015250565b5f611571602183611437565b915061157c82611517565b604082019050919050565b5f6020820190508181035f83015261159e81611565565b9050919050565b7f546f6b656e7320646f206e6f74206d617463682074686520706f6f6c000000005f82015250565b5f6115d9601c83611437565b91506115e4826115a5565b602082019050919050565b5f6020820190508181035f830152611606816115cd565b9050919050565b7f4e487b71000000000000000000000000000000000000000000000000000000005f52601160045260245ffd5b5f611644826112f3565b915061164f836112f3565b925082820261165d816112f3565b915082820484148315176116745761167361160d565b5b5092915050565b5f611685826112f3565b9150611690836112f3565b92508282019050808211156116a8576116a761160d565b5b92915050565b7f4e487b71000000000000000000000000000000000000000000000000000000005f52601260045260245ffd5b5f6116e5826112f3565b91506116f0836112f3565b925082611700576116ff6116ae565b5b828204905092915050565b7f536c6970706167652070726f74656374696f6e3a20726563656976656420616d5f8201527f6f756e74206973206c657373207468616e2065787065637465642e0000000000602082015250565b5f611765603b83611437565b91506117708261170b565b604082019050919050565b5f6020820190508181035f83015261179281611759565b9050919050565b5f6117a3826112f3565b91506117ae836112f3565b92508282039050818111156117c6576117c561160d565b5b92915050565b5f6080820190506117df5f83018761125f565b6117ec602083018661125f565b6117f9604083018561138a565b611806606083018461138a565b95945050505050565b7f43616e6e6f742063726561746520706f6f6c2077697468206964656e746963615f8201527f6c20746f6b656e732e0000000000000000000000000000000000000000000000602082015250565b5f611869602983611437565b91506118748261180f565b604082019050919050565b5f6020820190508181035f8301526118968161185d565b9050919050565b7f416d6f756e7473206d7573742062652067726561746572207468616e207a65725f8201527f6f2e000000000000000000000000000000000000000000000000000000000000602082015250565b5f6118f7602283611437565b91506119028261189d565b604082019050919050565b5f6020820190508181035f830152611924816118eb565b9050919050565b7f496e73756666696369656e74206c69717569646974792e0000000000000000005f82015250565b5f61195f601783611437565b915061196a8261192b565b602082019050919050565b5f6020820190508181035f83015261198c81611953565b9050919050565b5f6060820190506119a65f83018661125f565b6119b3602083018561125f565b6119c0604083018461138a565b949350505050565b5f6040820190506119db5f83018561125f565b6119e8602083018461138a565b9392505050565b6119f8816111fc565b8114611a02575f80fd5b50565b5f81519050611a13816119ef565b92915050565b5f60208284031215611a2e57611a2d611287565b5b5f611a3b84828501611a05565b91505092915050565b5f81519050919050565b5f81905092915050565b8281835e5f83830152505050565b5f611a7082611a44565b611a7a8185611a4e565b9350611a8a818560208601611a58565b80840191505092915050565b5f611aa18284611a66565b91508190509291505056fea2646970667358221220ead03df4c8df09a07f47be7f9148d7c4cd6b1247fae0ba088bf7660afcacd41864736f6c63430008190033a26469706673582212201911c0524fa7989e4852e68f96631bd22efba161a8df08be9ce1b5c57f771c0f64736f6c63430008190033",
					"opcodes": "PUSH1 0x80 PUSH1 0x40 MSTORE CALLVALUE DUP1 ISZERO PUSH1 0xE JUMPI PUSH0 DUP1 REVERT JUMPDEST POP PUSH2 0x231C DUP1 PUSH2 0x1C PUSH0 CODECOPY PUSH0 RETURN INVALID PUSH1 0x80 PUSH1 0x40 MSTORE CALLVALUE DUP1 ISZERO PUSH2 0xF JUMPI PUSH0 DUP1 REVERT JUMPDEST POP PUSH1 0x4 CALLDATASIZE LT PUSH2 0x3F JUMPI PUSH0 CALLDATALOAD PUSH1 0xE0 SHR DUP1 PUSH4 0x41D1DE97 EQ PUSH2 0x43 JUMPI DUP1 PUSH4 0x531AA03E EQ PUSH2 0x73 JUMPI DUP1 PUSH4 0xE3433615 EQ PUSH2 0xA3 JUMPI JUMPDEST PUSH0 DUP1 REVERT JUMPDEST PUSH2 0x5D PUSH1 0x4 DUP1 CALLDATASIZE SUB DUP2 ADD SWAP1 PUSH2 0x58 SWAP2 SWAP1 PUSH2 0x550 JUMP JUMPDEST PUSH2 0xD3 JUMP JUMPDEST PUSH1 0x40 MLOAD PUSH2 0x6A SWAP2 SWAP1 PUSH2 0x5BA JUMP JUMPDEST PUSH1 0x40 MLOAD DUP1 SWAP2 SUB SWAP1 RETURN JUMPDEST PUSH2 0x8D PUSH1 0x4 DUP1 CALLDATASIZE SUB DUP2 ADD SWAP1 PUSH2 0x88 SWAP2 SWAP1 PUSH2 0x5FD JUMP JUMPDEST PUSH2 0x10E JUMP JUMPDEST PUSH1 0x40 MLOAD PUSH2 0x9A SWAP2 SWAP1 PUSH2 0x5BA JUMP JUMPDEST PUSH1 0x40 MLOAD DUP1 SWAP2 SUB SWAP1 RETURN JUMPDEST PUSH2 0xBD PUSH1 0x4 DUP1 CALLDATASIZE SUB DUP2 ADD SWAP1 PUSH2 0xB8 SWAP2 SWAP1 PUSH2 0x5FD JUMP JUMPDEST PUSH2 0x14A JUMP JUMPDEST PUSH1 0x40 MLOAD PUSH2 0xCA SWAP2 SWAP1 PUSH2 0x5BA JUMP JUMPDEST PUSH1 0x40 MLOAD DUP1 SWAP2 SUB SWAP1 RETURN JUMPDEST PUSH1 0x1 DUP2 DUP2 SLOAD DUP2 LT PUSH2 0xE2 JUMPI PUSH0 DUP1 REVERT JUMPDEST SWAP1 PUSH0 MSTORE PUSH1 0x20 PUSH0 KECCAK256 ADD PUSH0 SWAP2 POP SLOAD SWAP1 PUSH2 0x100 EXP SWAP1 DIV PUSH20 0xFFFFFFFFFFFFFFFFFFFFFFFFFFFFFFFFFFFFFFFF AND DUP2 JUMP JUMPDEST PUSH0 PUSH1 0x20 MSTORE DUP2 PUSH0 MSTORE PUSH1 0x40 PUSH0 KECCAK256 PUSH1 0x20 MSTORE DUP1 PUSH0 MSTORE PUSH1 0x40 PUSH0 KECCAK256 PUSH0 SWAP2 POP SWAP2 POP SWAP1 SLOAD SWAP1 PUSH2 0x100 EXP SWAP1 DIV PUSH20 0xFFFFFFFFFFFFFFFFFFFFFFFFFFFFFFFFFFFFFFFF AND DUP2 JUMP JUMPDEST PUSH0 DUP2 PUSH20 0xFFFFFFFFFFFFFFFFFFFFFFFFFFFFFFFFFFFFFFFF AND DUP4 PUSH20 0xFFFFFFFFFFFFFFFFFFFFFFFFFFFFFFFFFFFFFFFF AND SUB PUSH2 0x1B9 JUMPI PUSH1 0x40 MLOAD PUSH32 0x8C379A000000000000000000000000000000000000000000000000000000000 DUP2 MSTORE PUSH1 0x4 ADD PUSH2 0x1B0 SWAP1 PUSH2 0x695 JUMP JUMPDEST PUSH1 0x40 MLOAD DUP1 SWAP2 SUB SWAP1 REVERT JUMPDEST PUSH0 PUSH20 0xFFFFFFFFFFFFFFFFFFFFFFFFFFFFFFFFFFFFFFFF AND PUSH0 DUP1 DUP6 PUSH20 0xFFFFFFFFFFFFFFFFFFFFFFFFFFFFFFFFFFFFFFFF AND PUSH20 0xFFFFFFFFFFFFFFFFFFFFFFFFFFFFFFFFFFFFFFFF AND DUP2 MSTORE PUSH1 0x20 ADD SWAP1 DUP2 MSTORE PUSH1 0x20 ADD PUSH0 KECCAK256 PUSH0 DUP5 PUSH20 0xFFFFFFFFFFFFFFFFFFFFFFFFFFFFFFFFFFFFFFFF AND PUSH20 0xFFFFFFFFFFFFFFFFFFFFFFFFFFFFFFFFFFFFFFFF AND DUP2 MSTORE PUSH1 0x20 ADD SWAP1 DUP2 MSTORE PUSH1 0x20 ADD PUSH0 KECCAK256 PUSH0 SWAP1 SLOAD SWAP1 PUSH2 0x100 EXP SWAP1 DIV PUSH20 0xFFFFFFFFFFFFFFFFFFFFFFFFFFFFFFFFFFFFFFFF AND PUSH20 0xFFFFFFFFFFFFFFFFFFFFFFFFFFFFFFFFFFFFFFFF AND EQ PUSH2 0x2BD JUMPI PUSH1 0x40 MLOAD PUSH32 0x8C379A000000000000000000000000000000000000000000000000000000000 DUP2 MSTORE PUSH1 0x4 ADD PUSH2 0x2B4 SWAP1 PUSH2 0x6FD JUMP JUMPDEST PUSH1 0x40 MLOAD DUP1 SWAP2 SUB SWAP1 REVERT JUMPDEST PUSH0 PUSH1 0x40 MLOAD DUP1 PUSH1 0x20 ADD PUSH2 0x2CE SWAP1 PUSH2 0x50C JUMP JUMPDEST PUSH1 0x20 DUP3 ADD DUP2 SUB DUP3 MSTORE PUSH1 0x1F NOT PUSH1 0x1F DUP3 ADD AND PUSH1 0x40 MSTORE POP SWAP1 POP PUSH0 DUP5 DUP5 PUSH1 0x40 MLOAD PUSH1 0x20 ADD PUSH2 0x2F8 SWAP3 SWAP2 SWAP1 PUSH2 0x760 JUMP JUMPDEST PUSH1 0x40 MLOAD PUSH1 0x20 DUP2 DUP4 SUB SUB DUP2 MSTORE SWAP1 PUSH1 0x40 MSTORE DUP1 MLOAD SWAP1 PUSH1 0x20 ADD KECCAK256 SWAP1 POP DUP1 DUP3 MLOAD PUSH1 0x20 DUP5 ADD PUSH0 CREATE2 SWAP3 POP DUP3 PUSH20 0xFFFFFFFFFFFFFFFFFFFFFFFFFFFFFFFFFFFFFFFF AND PUSH4 0x485CC955 DUP7 DUP7 PUSH1 0x40 MLOAD DUP4 PUSH4 0xFFFFFFFF AND PUSH1 0xE0 SHL DUP2 MSTORE PUSH1 0x4 ADD PUSH2 0x356 SWAP3 SWAP2 SWAP1 PUSH2 0x78B JUMP JUMPDEST PUSH0 PUSH1 0x40 MLOAD DUP1 DUP4 SUB DUP2 PUSH0 DUP8 DUP1 EXTCODESIZE ISZERO DUP1 ISZERO PUSH2 0x36D JUMPI PUSH0 DUP1 REVERT JUMPDEST POP GAS CALL ISZERO DUP1 ISZERO PUSH2 0x37F JUMPI RETURNDATASIZE PUSH0 DUP1 RETURNDATACOPY RETURNDATASIZE PUSH0 REVERT JUMPDEST POP POP POP POP DUP3 PUSH0 DUP1 DUP8 PUSH20 0xFFFFFFFFFFFFFFFFFFFFFFFFFFFFFFFFFFFFFFFF AND PUSH20 0xFFFFFFFFFFFFFFFFFFFFFFFFFFFFFFFFFFFFFFFF AND DUP2 MSTORE PUSH1 0x20 ADD SWAP1 DUP2 MSTORE PUSH1 0x20 ADD PUSH0 KECCAK256 PUSH0 DUP7 PUSH20 0xFFFFFFFFFFFFFFFFFFFFFFFFFFFFFFFFFFFFFFFF AND PUSH20 0xFFFFFFFFFFFFFFFFFFFFFFFFFFFFFFFFFFFFFFFF AND DUP2 MSTORE PUSH1 0x20 ADD SWAP1 DUP2 MSTORE PUSH1 0x20 ADD PUSH0 KECCAK256 PUSH0 PUSH2 0x100 EXP DUP2 SLOAD DUP2 PUSH20 0xFFFFFFFFFFFFFFFFFFFFFFFFFFFFFFFFFFFFFFFF MUL NOT AND SWAP1 DUP4 PUSH20 0xFFFFFFFFFFFFFFFFFFFFFFFFFFFFFFFFFFFFFFFF AND MUL OR SWAP1 SSTORE POP PUSH1 0x1 DUP4 SWAP1 DUP1 PUSH1 0x1 DUP2 SLOAD ADD DUP1 DUP3 SSTORE DUP1 SWAP2 POP POP PUSH1 0x1 SWAP1 SUB SWAP1 PUSH0 MSTORE PUSH1 0x20 PUSH0 KECCAK256 ADD PUSH0 SWAP1 SWAP2 SWAP1 SWAP2 SWAP1 SWAP2 PUSH2 0x100 EXP DUP2 SLOAD DUP2 PUSH20 0xFFFFFFFFFFFFFFFFFFFFFFFFFFFFFFFFFFFFFFFF MUL NOT AND SWAP1 DUP4 PUSH20 0xFFFFFFFFFFFFFFFFFFFFFFFFFFFFFFFFFFFFFFFF AND MUL OR SWAP1 SSTORE POP DUP4 PUSH20 0xFFFFFFFFFFFFFFFFFFFFFFFFFFFFFFFFFFFFFFFF AND DUP6 PUSH20 0xFFFFFFFFFFFFFFFFFFFFFFFFFFFFFFFFFFFFFFFF AND PUSH32 0xEBBBE9DC3A19D2F959AC76AC0372B4983CDFB945F5D6AEF4873C36FABB2BA8AA DUP6 PUSH1 0x1 DUP1 SLOAD SWAP1 POP PUSH1 0x40 MLOAD PUSH2 0x4FC SWAP3 SWAP2 SWAP1 PUSH2 0x7C1 JUMP JUMPDEST PUSH1 0x40 MLOAD DUP1 SWAP2 SUB SWAP1 LOG3 POP POP SWAP3 SWAP2 POP POP JUMP JUMPDEST PUSH2 0x1AFE DUP1 PUSH2 0x7E9 DUP4 CODECOPY ADD SWAP1 JUMP JUMPDEST PUSH0 DUP1 REVERT JUMPDEST PUSH0 DUP2 SWAP1 POP SWAP2 SWAP1 POP JUMP JUMPDEST PUSH2 0x52F DUP2 PUSH2 0x51D JUMP JUMPDEST DUP2 EQ PUSH2 0x539 JUMPI PUSH0 DUP1 REVERT JUMPDEST POP JUMP JUMPDEST PUSH0 DUP2 CALLDATALOAD SWAP1 POP PUSH2 0x54A DUP2 PUSH2 0x526 JUMP JUMPDEST SWAP3 SWAP2 POP POP JUMP JUMPDEST PUSH0 PUSH1 0x20 DUP3 DUP5 SUB SLT ISZERO PUSH2 0x565 JUMPI PUSH2 0x564 PUSH2 0x519 JUMP JUMPDEST JUMPDEST PUSH0 PUSH2 0x572 DUP5 DUP3 DUP6 ADD PUSH2 0x53C JUMP JUMPDEST SWAP2 POP POP SWAP3 SWAP2 POP POP JUMP JUMPDEST PUSH0 PUSH20 0xFFFFFFFFFFFFFFFFFFFFFFFFFFFFFFFFFFFFFFFF DUP3 AND SWAP1 POP SWAP2 SWAP1 POP JUMP JUMPDEST PUSH0 PUSH2 0x5A4 DUP3 PUSH2 0x57B JUMP JUMPDEST SWAP1 POP SWAP2 SWAP1 POP JUMP JUMPDEST PUSH2 0x5B4 DUP2 PUSH2 0x59A JUMP JUMPDEST DUP3 MSTORE POP POP JUMP JUMPDEST PUSH0 PUSH1 0x20 DUP3 ADD SWAP1 POP PUSH2 0x5CD PUSH0 DUP4 ADD DUP5 PUSH2 0x5AB JUMP JUMPDEST SWAP3 SWAP2 POP POP JUMP JUMPDEST PUSH2 0x5DC DUP2 PUSH2 0x59A JUMP JUMPDEST DUP2 EQ PUSH2 0x5E6 JUMPI PUSH0 DUP1 REVERT JUMPDEST POP JUMP JUMPDEST PUSH0 DUP2 CALLDATALOAD SWAP1 POP PUSH2 0x5F7 DUP2 PUSH2 0x5D3 JUMP JUMPDEST SWAP3 SWAP2 POP POP JUMP JUMPDEST PUSH0 DUP1 PUSH1 0x40 DUP4 DUP6 SUB SLT ISZERO PUSH2 0x613 JUMPI PUSH2 0x612 PUSH2 0x519 JUMP JUMPDEST JUMPDEST PUSH0 PUSH2 0x620 DUP6 DUP3 DUP7 ADD PUSH2 0x5E9 JUMP JUMPDEST SWAP3 POP POP PUSH1 0x20 PUSH2 0x631 DUP6 DUP3 DUP7 ADD PUSH2 0x5E9 JUMP JUMPDEST SWAP2 POP POP SWAP3 POP SWAP3 SWAP1 POP JUMP JUMPDEST PUSH0 DUP3 DUP3 MSTORE PUSH1 0x20 DUP3 ADD SWAP1 POP SWAP3 SWAP2 POP POP JUMP JUMPDEST PUSH32 0x4964656E746963616C2061646472657373657300000000000000000000000000 PUSH0 DUP3 ADD MSTORE POP JUMP JUMPDEST PUSH0 PUSH2 0x67F PUSH1 0x13 DUP4 PUSH2 0x63B JUMP JUMPDEST SWAP2 POP PUSH2 0x68A DUP3 PUSH2 0x64B JUMP JUMPDEST PUSH1 0x20 DUP3 ADD SWAP1 POP SWAP2 SWAP1 POP JUMP JUMPDEST PUSH0 PUSH1 0x20 DUP3 ADD SWAP1 POP DUP2 DUP2 SUB PUSH0 DUP4 ADD MSTORE PUSH2 0x6AC DUP2 PUSH2 0x673 JUMP JUMPDEST SWAP1 POP SWAP2 SWAP1 POP JUMP JUMPDEST PUSH32 0x506F6F6C20616C72656164792065786973747300000000000000000000000000 PUSH0 DUP3 ADD MSTORE POP JUMP JUMPDEST PUSH0 PUSH2 0x6E7 PUSH1 0x13 DUP4 PUSH2 0x63B JUMP JUMPDEST SWAP2 POP PUSH2 0x6F2 DUP3 PUSH2 0x6B3 JUMP JUMPDEST PUSH1 0x20 DUP3 ADD SWAP1 POP SWAP2 SWAP1 POP JUMP JUMPDEST PUSH0 PUSH1 0x20 DUP3 ADD SWAP1 POP DUP2 DUP2 SUB PUSH0 DUP4 ADD MSTORE PUSH2 0x714 DUP2 PUSH2 0x6DB JUMP JUMPDEST SWAP1 POP SWAP2 SWAP1 POP JUMP JUMPDEST PUSH0 DUP2 PUSH1 0x60 SHL SWAP1 POP SWAP2 SWAP1 POP JUMP JUMPDEST PUSH0 PUSH2 0x731 DUP3 PUSH2 0x71B JUMP JUMPDEST SWAP1 POP SWAP2 SWAP1 POP JUMP JUMPDEST PUSH0 PUSH2 0x742 DUP3 PUSH2 0x727 JUMP JUMPDEST SWAP1 POP SWAP2 SWAP1 POP JUMP JUMPDEST PUSH2 0x75A PUSH2 0x755 DUP3 PUSH2 0x59A JUMP JUMPDEST PUSH2 0x738 JUMP JUMPDEST DUP3 MSTORE POP POP JUMP JUMPDEST PUSH0 PUSH2 0x76B DUP3 DUP6 PUSH2 0x749 JUMP JUMPDEST PUSH1 0x14 DUP3 ADD SWAP2 POP PUSH2 0x77B DUP3 DUP5 PUSH2 0x749 JUMP JUMPDEST PUSH1 0x14 DUP3 ADD SWAP2 POP DUP2 SWAP1 POP SWAP4 SWAP3 POP POP POP JUMP JUMPDEST PUSH0 PUSH1 0x40 DUP3 ADD SWAP1 POP PUSH2 0x79E PUSH0 DUP4 ADD DUP6 PUSH2 0x5AB JUMP JUMPDEST PUSH2 0x7AB PUSH1 0x20 DUP4 ADD DUP5 PUSH2 0x5AB JUMP JUMPDEST SWAP4 SWAP3 POP POP POP JUMP JUMPDEST PUSH2 0x7BB DUP2 PUSH2 0x51D JUMP JUMPDEST DUP3 MSTORE POP POP JUMP JUMPDEST PUSH0 PUSH1 0x40 DUP3 ADD SWAP1 POP PUSH2 0x7D4 PUSH0 DUP4 ADD DUP6 PUSH2 0x5AB JUMP JUMPDEST PUSH2 0x7E1 PUSH1 0x20 DUP4 ADD DUP5 PUSH2 0x7B2 JUMP JUMPDEST SWAP4 SWAP3 POP POP POP JUMP INVALID PUSH1 0x80 PUSH1 0x40 MSTORE CALLVALUE DUP1 ISZERO PUSH1 0xE JUMPI PUSH0 DUP1 REVERT JUMPDEST POP PUSH2 0x1AE2 DUP1 PUSH2 0x1C PUSH0 CODECOPY PUSH0 RETURN INVALID PUSH1 0x80 PUSH1 0x40 MSTORE CALLVALUE DUP1 ISZERO PUSH2 0xF JUMPI PUSH0 DUP1 REVERT JUMPDEST POP PUSH1 0x4 CALLDATASIZE LT PUSH2 0x86 JUMPI PUSH0 CALLDATALOAD PUSH1 0xE0 SHR DUP1 PUSH4 0x565841D1 GT PUSH2 0x59 JUMPI DUP1 PUSH4 0x565841D1 EQ PUSH2 0x112 JUMPI DUP1 PUSH4 0xCF6C62EA EQ PUSH2 0x144 JUMPI DUP1 PUSH4 0xD752FAB2 EQ PUSH2 0x160 JUMPI DUP1 PUSH4 0xD7CB416F EQ PUSH2 0x17C JUMPI PUSH2 0x86 JUMP JUMPDEST DUP1 PUSH4 0x158EF93E EQ PUSH2 0x8A JUMPI DUP1 PUSH4 0x2456AF82 EQ PUSH2 0xA8 JUMPI DUP1 PUSH4 0x485CC955 EQ PUSH2 0xC6 JUMPI DUP1 PUSH4 0x4A5A7270 EQ PUSH2 0xE2 JUMPI JUMPDEST PUSH0 DUP1 REVERT JUMPDEST PUSH2 0x92 PUSH2 0x19A JUMP JUMPDEST PUSH1 0x40 MLOAD PUSH2 0x9F SWAP2 SWAP1 PUSH2 0x1216 JUMP JUMPDEST PUSH1 0x40 MLOAD DUP1 SWAP2 SUB SWAP1 RETURN JUMPDEST PUSH2 0xB0 PUSH2 0x1AD JUMP JUMPDEST PUSH1 0x40 MLOAD PUSH2 0xBD SWAP2 SWAP1 PUSH2 0x126E JUMP JUMPDEST PUSH1 0x40 MLOAD DUP1 SWAP2 SUB SWAP1 RETURN JUMPDEST PUSH2 0xE0 PUSH1 0x4 DUP1 CALLDATASIZE SUB DUP2 ADD SWAP1 PUSH2 0xDB SWAP2 SWAP1 PUSH2 0x12B5 JUMP JUMPDEST PUSH2 0x1D2 JUMP JUMPDEST STOP JUMPDEST PUSH2 0xFC PUSH1 0x4 DUP1 CALLDATASIZE SUB DUP2 ADD SWAP1 PUSH2 0xF7 SWAP2 SWAP1 PUSH2 0x1326 JUMP JUMPDEST PUSH2 0x2C1 JUMP JUMPDEST PUSH1 0x40 MLOAD PUSH2 0x109 SWAP2 SWAP1 PUSH2 0x1399 JUMP JUMPDEST PUSH1 0x40 MLOAD DUP1 SWAP2 SUB SWAP1 RETURN JUMPDEST PUSH2 0x12C PUSH1 0x4 DUP1 CALLDATASIZE SUB DUP2 ADD SWAP1 PUSH2 0x127 SWAP2 SWAP1 PUSH2 0x12B5 JUMP JUMPDEST PUSH2 0x701 JUMP JUMPDEST PUSH1 0x40 MLOAD PUSH2 0x13B SWAP4 SWAP3 SWAP2 SWAP1 PUSH2 0x13B2 JUMP JUMPDEST PUSH1 0x40 MLOAD DUP1 SWAP2 SUB SWAP1 RETURN JUMPDEST PUSH2 0x15E PUSH1 0x4 DUP1 CALLDATASIZE SUB DUP2 ADD SWAP1 PUSH2 0x159 SWAP2 SWAP1 PUSH2 0x1326 JUMP JUMPDEST PUSH2 0x731 JUMP JUMPDEST STOP JUMPDEST PUSH2 0x17A PUSH1 0x4 DUP1 CALLDATASIZE SUB DUP2 ADD SWAP1 PUSH2 0x175 SWAP2 SWAP1 PUSH2 0x13E7 JUMP JUMPDEST PUSH2 0xABC JUMP JUMPDEST STOP JUMPDEST PUSH2 0x184 PUSH2 0xE36 JUMP JUMPDEST PUSH1 0x40 MLOAD PUSH2 0x191 SWAP2 SWAP1 PUSH2 0x126E JUMP JUMPDEST PUSH1 0x40 MLOAD DUP1 SWAP2 SUB SWAP1 RETURN JUMPDEST PUSH1 0x2 PUSH1 0x14 SWAP1 SLOAD SWAP1 PUSH2 0x100 EXP SWAP1 DIV PUSH1 0xFF AND DUP2 JUMP JUMPDEST PUSH1 0x2 PUSH0 SWAP1 SLOAD SWAP1 PUSH2 0x100 EXP SWAP1 DIV PUSH20 0xFFFFFFFFFFFFFFFFFFFFFFFFFFFFFFFFFFFFFFFF AND DUP2 JUMP JUMPDEST PUSH1 0x2 PUSH1 0x14 SWAP1 SLOAD SWAP1 PUSH2 0x100 EXP SWAP1 DIV PUSH1 0xFF AND ISZERO PUSH2 0x222 JUMPI PUSH1 0x40 MLOAD PUSH32 0x8C379A000000000000000000000000000000000000000000000000000000000 DUP2 MSTORE PUSH1 0x4 ADD PUSH2 0x219 SWAP1 PUSH2 0x1491 JUMP JUMPDEST PUSH1 0x40 MLOAD DUP1 SWAP2 SUB SWAP1 REVERT JUMPDEST DUP2 PUSH1 0x1 PUSH0 PUSH2 0x100 EXP DUP2 SLOAD DUP2 PUSH20 0xFFFFFFFFFFFFFFFFFFFFFFFFFFFFFFFFFFFFFFFF MUL NOT AND SWAP1 DUP4 PUSH20 0xFFFFFFFFFFFFFFFFFFFFFFFFFFFFFFFFFFFFFFFF AND MUL OR SWAP1 SSTORE POP DUP1 PUSH1 0x2 PUSH0 PUSH2 0x100 EXP DUP2 SLOAD DUP2 PUSH20 0xFFFFFFFFFFFFFFFFFFFFFFFFFFFFFFFFFFFFFFFF MUL NOT AND SWAP1 DUP4 PUSH20 0xFFFFFFFFFFFFFFFFFFFFFFFFFFFFFFFFFFFFFFFF AND MUL OR SWAP1 SSTORE POP PUSH1 0x1 PUSH1 0x2 PUSH1 0x14 PUSH2 0x100 EXP DUP2 SLOAD DUP2 PUSH1 0xFF MUL NOT AND SWAP1 DUP4 ISZERO ISZERO MUL OR SWAP1 SSTORE POP POP POP JUMP JUMPDEST PUSH0 DUP4 PUSH20 0xFFFFFFFFFFFFFFFFFFFFFFFFFFFFFFFFFFFFFFFF AND DUP6 PUSH20 0xFFFFFFFFFFFFFFFFFFFFFFFFFFFFFFFFFFFFFFFF AND SUB PUSH2 0x330 JUMPI PUSH1 0x40 MLOAD PUSH32 0x8C379A000000000000000000000000000000000000000000000000000000000 DUP2 MSTORE PUSH1 0x4 ADD PUSH2 0x327 SWAP1 PUSH2 0x14F9 JUMP JUMPDEST PUSH1 0x40 MLOAD DUP1 SWAP2 SUB SWAP1 REVERT JUMPDEST PUSH0 DUP4 GT PUSH2 0x372 JUMPI PUSH1 0x40 MLOAD PUSH32 0x8C379A000000000000000000000000000000000000000000000000000000000 DUP2 MSTORE PUSH1 0x4 ADD PUSH2 0x369 SWAP1 PUSH2 0x1587 JUMP JUMPDEST PUSH1 0x40 MLOAD DUP1 SWAP2 SUB SWAP1 REVERT JUMPDEST PUSH1 0x1 PUSH0 SWAP1 SLOAD SWAP1 PUSH2 0x100 EXP SWAP1 DIV PUSH20 0xFFFFFFFFFFFFFFFFFFFFFFFFFFFFFFFFFFFFFFFF AND PUSH20 0xFFFFFFFFFFFFFFFFFFFFFFFFFFFFFFFFFFFFFFFF AND DUP6 PUSH20 0xFFFFFFFFFFFFFFFFFFFFFFFFFFFFFFFFFFFFFFFF AND EQ DUP1 ISZERO PUSH2 0x41A JUMPI POP PUSH1 0x2 PUSH0 SWAP1 SLOAD SWAP1 PUSH2 0x100 EXP SWAP1 DIV PUSH20 0xFFFFFFFFFFFFFFFFFFFFFFFFFFFFFFFFFFFFFFFF AND PUSH20 0xFFFFFFFFFFFFFFFFFFFFFFFFFFFFFFFFFFFFFFFF AND DUP5 PUSH20 0xFFFFFFFFFFFFFFFFFFFFFFFFFFFFFFFFFFFFFFFF AND EQ JUMPDEST DUP1 PUSH2 0x4C9 JUMPI POP PUSH1 0x2 PUSH0 SWAP1 SLOAD SWAP1 PUSH2 0x100 EXP SWAP1 DIV PUSH20 0xFFFFFFFFFFFFFFFFFFFFFFFFFFFFFFFFFFFFFFFF AND PUSH20 0xFFFFFFFFFFFFFFFFFFFFFFFFFFFFFFFFFFFFFFFF AND DUP6 PUSH20 0xFFFFFFFFFFFFFFFFFFFFFFFFFFFFFFFFFFFFFFFF AND EQ DUP1 ISZERO PUSH2 0x4C8 JUMPI POP PUSH1 0x1 PUSH0 SWAP1 SLOAD SWAP1 PUSH2 0x100 EXP SWAP1 DIV PUSH20 0xFFFFFFFFFFFFFFFFFFFFFFFFFFFFFFFFFFFFFFFF AND PUSH20 0xFFFFFFFFFFFFFFFFFFFFFFFFFFFFFFFFFFFFFFFF AND DUP5 PUSH20 0xFFFFFFFFFFFFFFFFFFFFFFFFFFFFFFFFFFFFFFFF AND EQ JUMPDEST JUMPDEST PUSH2 0x508 JUMPI PUSH1 0x40 MLOAD PUSH32 0x8C379A000000000000000000000000000000000000000000000000000000000 DUP2 MSTORE PUSH1 0x4 ADD PUSH2 0x4FF SWAP1 PUSH2 0x15EF JUMP JUMPDEST PUSH1 0x40 MLOAD DUP1 SWAP2 SUB SWAP1 REVERT JUMPDEST PUSH0 DUP1 PUSH0 DUP8 PUSH20 0xFFFFFFFFFFFFFFFFFFFFFFFFFFFFFFFFFFFFFFFF AND PUSH20 0xFFFFFFFFFFFFFFFFFFFFFFFFFFFFFFFFFFFFFFFF AND DUP2 MSTORE PUSH1 0x20 ADD SWAP1 DUP2 MSTORE PUSH1 0x20 ADD PUSH0 KECCAK256 PUSH0 DUP7 PUSH20 0xFFFFFFFFFFFFFFFFFFFFFFFFFFFFFFFFFFFFFFFF AND PUSH20 0xFFFFFFFFFFFFFFFFFFFFFFFFFFFFFFFFFFFFFFFF AND DUP2 MSTORE PUSH1 0x20 ADD SWAP1 DUP2 MSTORE PUSH1 0x20 ADD PUSH0 KECCAK256 SWAP1 POP PUSH2 0x5AF CALLER ADDRESS DUP7 DUP10 PUSH20 0xFFFFFFFFFFFFFFFFFFFFFFFFFFFFFFFFFFFFFFFF AND PUSH2 0xE5B SWAP1 SWAP4 SWAP3 SWAP2 SWAP1 PUSH4 0xFFFFFFFF AND JUMP JUMPDEST PUSH0 DUP2 PUSH0 ADD SLOAD SWAP1 POP PUSH0 DUP3 PUSH1 0x1 ADD SLOAD SWAP1 POP PUSH0 PUSH2 0x3E5 DUP8 PUSH2 0x5CD SWAP2 SWAP1 PUSH2 0x163A JUMP JUMPDEST SWAP1 POP DUP1 PUSH2 0x3E8 DUP5 PUSH2 0x5DE SWAP2 SWAP1 PUSH2 0x163A JUMP JUMPDEST PUSH2 0x5E8 SWAP2 SWAP1 PUSH2 0x167B JUMP JUMPDEST DUP3 DUP3 PUSH2 0x5F4 SWAP2 SWAP1 PUSH2 0x163A JUMP JUMPDEST PUSH2 0x5FE SWAP2 SWAP1 PUSH2 0x16DB JUMP JUMPDEST SWAP5 POP DUP6 DUP6 LT ISZERO PUSH2 0x643 JUMPI PUSH1 0x40 MLOAD PUSH32 0x8C379A000000000000000000000000000000000000000000000000000000000 DUP2 MSTORE PUSH1 0x4 ADD PUSH2 0x63A SWAP1 PUSH2 0x177B JUMP JUMPDEST PUSH1 0x40 MLOAD DUP1 SWAP2 SUB SWAP1 REVERT JUMPDEST DUP7 DUP5 PUSH0 ADD PUSH0 DUP3 DUP3 SLOAD PUSH2 0x655 SWAP2 SWAP1 PUSH2 0x167B JUMP JUMPDEST SWAP3 POP POP DUP2 SWAP1 SSTORE POP DUP5 DUP5 PUSH1 0x1 ADD PUSH0 DUP3 DUP3 SLOAD PUSH2 0x66F SWAP2 SWAP1 PUSH2 0x1799 JUMP JUMPDEST SWAP3 POP POP DUP2 SWAP1 SSTORE POP PUSH2 0x6A1 CALLER DUP7 DUP11 PUSH20 0xFFFFFFFFFFFFFFFFFFFFFFFFFFFFFFFFFFFFFFFF AND PUSH2 0xEDD SWAP1 SWAP3 SWAP2 SWAP1 PUSH4 0xFFFFFFFF AND JUMP JUMPDEST CALLER PUSH20 0xFFFFFFFFFFFFFFFFFFFFFFFFFFFFFFFFFFFFFFFF AND PUSH32 0x764F0DC063C06F32D89A3F3AF80C0DB4BE8A090901F589A478B447E0A51F09F1 DUP11 DUP11 DUP11 DUP10 PUSH1 0x40 MLOAD PUSH2 0x6ED SWAP5 SWAP4 SWAP3 SWAP2 SWAP1 PUSH2 0x17CC JUMP JUMPDEST PUSH1 0x40 MLOAD DUP1 SWAP2 SUB SWAP1 LOG2 POP POP POP POP SWAP5 SWAP4 POP POP POP POP JUMP JUMPDEST PUSH0 PUSH1 0x20 MSTORE DUP2 PUSH0 MSTORE PUSH1 0x40 PUSH0 KECCAK256 PUSH1 0x20 MSTORE DUP1 PUSH0 MSTORE PUSH1 0x40 PUSH0 KECCAK256 PUSH0 SWAP2 POP SWAP2 POP POP DUP1 PUSH0 ADD SLOAD SWAP1 DUP1 PUSH1 0x1 ADD SLOAD SWAP1 DUP1 PUSH1 0x2 ADD SLOAD SWAP1 POP DUP4 JUMP JUMPDEST DUP3 PUSH20 0xFFFFFFFFFFFFFFFFFFFFFFFFFFFFFFFFFFFFFFFF AND DUP5 PUSH20 0xFFFFFFFFFFFFFFFFFFFFFFFFFFFFFFFFFFFFFFFF AND SUB PUSH2 0x79F JUMPI PUSH1 0x40 MLOAD PUSH32 0x8C379A000000000000000000000000000000000000000000000000000000000 DUP2 MSTORE PUSH1 0x4 ADD PUSH2 0x796 SWAP1 PUSH2 0x187F JUMP JUMPDEST PUSH1 0x40 MLOAD DUP1 SWAP2 SUB SWAP1 REVERT JUMPDEST PUSH0 DUP3 GT DUP1 ISZERO PUSH2 0x7AD JUMPI POP PUSH0 DUP2 GT JUMPDEST PUSH2 0x7EC JUMPI PUSH1 0x40 MLOAD PUSH32 0x8C379A000000000000000000000000000000000000000000000000000000000 DUP2 MSTORE PUSH1 0x4 ADD PUSH2 0x7E3 SWAP1 PUSH2 0x190D JUMP JUMPDEST PUSH1 0x40 MLOAD DUP1 SWAP2 SUB SWAP1 REVERT JUMPDEST PUSH1 0x1 PUSH0 SWAP1 SLOAD SWAP1 PUSH2 0x100 EXP SWAP1 DIV PUSH20 0xFFFFFFFFFFFFFFFFFFFFFFFFFFFFFFFFFFFFFFFF AND PUSH20 0xFFFFFFFFFFFFFFFFFFFFFFFFFFFFFFFFFFFFFFFF AND DUP5 PUSH20 0xFFFFFFFFFFFFFFFFFFFFFFFFFFFFFFFFFFFFFFFF AND EQ DUP1 ISZERO PUSH2 0x894 JUMPI POP PUSH1 0x2 PUSH0 SWAP1 SLOAD SWAP1 PUSH2 0x100 EXP SWAP1 DIV PUSH20 0xFFFFFFFFFFFFFFFFFFFFFFFFFFFFFFFFFFFFFFFF AND PUSH20 0xFFFFFFFFFFFFFFFFFFFFFFFFFFFFFFFFFFFFFFFF AND DUP4 PUSH20 0xFFFFFFFFFFFFFFFFFFFFFFFFFFFFFFFFFFFFFFFF AND EQ JUMPDEST PUSH2 0x8D3 JUMPI PUSH1 0x40 MLOAD PUSH32 0x8C379A000000000000000000000000000000000000000000000000000000000 DUP2 MSTORE PUSH1 0x4 ADD PUSH2 0x8CA SWAP1 PUSH2 0x15EF JUMP JUMPDEST PUSH1 0x40 MLOAD DUP1 SWAP2 SUB SWAP1 REVERT JUMPDEST PUSH0 DUP1 PUSH0 DUP7 PUSH20 0xFFFFFFFFFFFFFFFFFFFFFFFFFFFFFFFFFFFFFFFF AND PUSH20 0xFFFFFFFFFFFFFFFFFFFFFFFFFFFFFFFFFFFFFFFF AND DUP2 MSTORE PUSH1 0x20 ADD SWAP1 DUP2 MSTORE PUSH1 0x20 ADD PUSH0 KECCAK256 PUSH0 DUP6 PUSH20 0xFFFFFFFFFFFFFFFFFFFFFFFFFFFFFFFFFFFFFFFF AND PUSH20 0xFFFFFFFFFFFFFFFFFFFFFFFFFFFFFFFFFFFFFFFF AND DUP2 MSTORE PUSH1 0x20 ADD SWAP1 DUP2 MSTORE PUSH1 0x20 ADD PUSH0 KECCAK256 SWAP1 POP PUSH2 0x97A CALLER ADDRESS DUP6 DUP9 PUSH20 0xFFFFFFFFFFFFFFFFFFFFFFFFFFFFFFFFFFFFFFFF AND PUSH2 0xE5B SWAP1 SWAP4 SWAP3 SWAP2 SWAP1 PUSH4 0xFFFFFFFF AND JUMP JUMPDEST PUSH2 0x9A7 CALLER ADDRESS DUP5 DUP8 PUSH20 0xFFFFFFFFFFFFFFFFFFFFFFFFFFFFFFFFFFFFFFFF AND PUSH2 0xE5B SWAP1 SWAP4 SWAP3 SWAP2 SWAP1 PUSH4 0xFFFFFFFF AND JUMP JUMPDEST DUP3 DUP2 PUSH0 ADD PUSH0 DUP3 DUP3 SLOAD PUSH2 0x9B9 SWAP2 SWAP1 PUSH2 0x167B JUMP JUMPDEST SWAP3 POP POP DUP2 SWAP1 SSTORE POP DUP2 DUP2 PUSH1 0x1 ADD PUSH0 DUP3 DUP3 SLOAD PUSH2 0x9D3 SWAP2 SWAP1 PUSH2 0x167B JUMP JUMPDEST SWAP3 POP POP DUP2 SWAP1 SSTORE POP PUSH0 PUSH2 0x9EF DUP4 DUP6 PUSH2 0x9EA SWAP2 SWAP1 PUSH2 0x163A JUMP JUMPDEST PUSH2 0xF5C JUMP JUMPDEST SWAP1 POP DUP1 DUP3 PUSH1 0x2 ADD PUSH0 DUP3 DUP3 SLOAD PUSH2 0xA04 SWAP2 SWAP1 PUSH2 0x167B JUMP JUMPDEST SWAP3 POP POP DUP2 SWAP1 SSTORE POP DUP1 DUP3 PUSH1 0x3 ADD PUSH0 CALLER PUSH20 0xFFFFFFFFFFFFFFFFFFFFFFFFFFFFFFFFFFFFFFFF AND PUSH20 0xFFFFFFFFFFFFFFFFFFFFFFFFFFFFFFFFFFFFFFFF AND DUP2 MSTORE PUSH1 0x20 ADD SWAP1 DUP2 MSTORE PUSH1 0x20 ADD PUSH0 KECCAK256 PUSH0 DUP3 DUP3 SLOAD PUSH2 0xA59 SWAP2 SWAP1 PUSH2 0x167B JUMP JUMPDEST SWAP3 POP POP DUP2 SWAP1 SSTORE POP CALLER PUSH20 0xFFFFFFFFFFFFFFFFFFFFFFFFFFFFFFFFFFFFFFFF AND PUSH32 0xB5BF3F2C68363AA6E695C29010485BCFECB5439239C6B1306FDEC5B26CB7C62E DUP8 DUP8 DUP8 DUP8 PUSH1 0x40 MLOAD PUSH2 0xAAC SWAP5 SWAP4 SWAP3 SWAP2 SWAP1 PUSH2 0x17CC JUMP JUMPDEST PUSH1 0x40 MLOAD DUP1 SWAP2 SUB SWAP1 LOG2 POP POP POP POP POP POP JUMP JUMPDEST PUSH0 DUP1 PUSH0 DUP6 PUSH20 0xFFFFFFFFFFFFFFFFFFFFFFFFFFFFFFFFFFFFFFFF AND PUSH20 0xFFFFFFFFFFFFFFFFFFFFFFFFFFFFFFFFFFFFFFFF AND DUP2 MSTORE PUSH1 0x20 ADD SWAP1 DUP2 MSTORE PUSH1 0x20 ADD PUSH0 KECCAK256 PUSH0 DUP5 PUSH20 0xFFFFFFFFFFFFFFFFFFFFFFFFFFFFFFFFFFFFFFFF AND PUSH20 0xFFFFFFFFFFFFFFFFFFFFFFFFFFFFFFFFFFFFFFFF AND DUP2 MSTORE PUSH1 0x20 ADD SWAP1 DUP2 MSTORE PUSH1 0x20 ADD PUSH0 KECCAK256 SWAP1 POP DUP2 DUP2 PUSH1 0x3 ADD PUSH0 CALLER PUSH20 0xFFFFFFFFFFFFFFFFFFFFFFFFFFFFFFFFFFFFFFFF AND PUSH20 0xFFFFFFFFFFFFFFFFFFFFFFFFFFFFFFFFFFFFFFFF AND DUP2 MSTORE PUSH1 0x20 ADD SWAP1 DUP2 MSTORE PUSH1 0x20 ADD PUSH0 KECCAK256 SLOAD LT ISZERO PUSH2 0xBB8 JUMPI PUSH1 0x40 MLOAD PUSH32 0x8C379A000000000000000000000000000000000000000000000000000000000 DUP2 MSTORE PUSH1 0x4 ADD PUSH2 0xBAF SWAP1 PUSH2 0x1975 JUMP JUMPDEST PUSH1 0x40 MLOAD DUP1 SWAP2 SUB SWAP1 REVERT JUMPDEST PUSH1 0x1 PUSH0 SWAP1 SLOAD SWAP1 PUSH2 0x100 EXP SWAP1 DIV PUSH20 0xFFFFFFFFFFFFFFFFFFFFFFFFFFFFFFFFFFFFFFFF AND PUSH20 0xFFFFFFFFFFFFFFFFFFFFFFFFFFFFFFFFFFFFFFFF AND DUP5 PUSH20 0xFFFFFFFFFFFFFFFFFFFFFFFFFFFFFFFFFFFFFFFF AND EQ DUP1 ISZERO PUSH2 0xC60 JUMPI POP PUSH1 0x2 PUSH0 SWAP1 SLOAD SWAP1 PUSH2 0x100 EXP SWAP1 DIV PUSH20 0xFFFFFFFFFFFFFFFFFFFFFFFFFFFFFFFFFFFFFFFF AND PUSH20 0xFFFFFFFFFFFFFFFFFFFFFFFFFFFFFFFFFFFFFFFF AND DUP4 PUSH20 0xFFFFFFFFFFFFFFFFFFFFFFFFFFFFFFFFFFFFFFFF AND EQ JUMPDEST PUSH2 0xC9F JUMPI PUSH1 0x40 MLOAD PUSH32 0x8C379A000000000000000000000000000000000000000000000000000000000 DUP2 MSTORE PUSH1 0x4 ADD PUSH2 0xC96 SWAP1 PUSH2 0x15EF JUMP JUMPDEST PUSH1 0x40 MLOAD DUP1 SWAP2 SUB SWAP1 REVERT JUMPDEST PUSH0 DUP2 PUSH1 0x2 ADD SLOAD DUP3 PUSH0 ADD SLOAD DUP5 PUSH2 0xCB4 SWAP2 SWAP1 PUSH2 0x163A JUMP JUMPDEST PUSH2 0xCBE SWAP2 SWAP1 PUSH2 0x16DB JUMP JUMPDEST SWAP1 POP PUSH0 DUP3 PUSH1 0x2 ADD SLOAD DUP4 PUSH1 0x1 ADD SLOAD DUP6 PUSH2 0xCD6 SWAP2 SWAP1 PUSH2 0x163A JUMP JUMPDEST PUSH2 0xCE0 SWAP2 SWAP1 PUSH2 0x16DB JUMP JUMPDEST SWAP1 POP DUP4 DUP4 PUSH1 0x3 ADD PUSH0 CALLER PUSH20 0xFFFFFFFFFFFFFFFFFFFFFFFFFFFFFFFFFFFFFFFF AND PUSH20 0xFFFFFFFFFFFFFFFFFFFFFFFFFFFFFFFFFFFFFFFF AND DUP2 MSTORE PUSH1 0x20 ADD SWAP1 DUP2 MSTORE PUSH1 0x20 ADD PUSH0 KECCAK256 PUSH0 DUP3 DUP3 SLOAD PUSH2 0xD30 SWAP2 SWAP1 PUSH2 0x1799 JUMP JUMPDEST SWAP3 POP POP DUP2 SWAP1 SSTORE POP DUP4 DUP4 PUSH1 0x2 ADD PUSH0 DUP3 DUP3 SLOAD PUSH2 0xD4A SWAP2 SWAP1 PUSH2 0x1799 JUMP JUMPDEST SWAP3 POP POP DUP2 SWAP1 SSTORE POP DUP2 DUP4 PUSH0 ADD PUSH0 DUP3 DUP3 SLOAD PUSH2 0xD63 SWAP2 SWAP1 PUSH2 0x1799 JUMP JUMPDEST SWAP3 POP POP DUP2 SWAP1 SSTORE POP DUP1 DUP4 PUSH1 0x1 ADD PUSH0 DUP3 DUP3 SLOAD PUSH2 0xD7D SWAP2 SWAP1 PUSH2 0x1799 JUMP JUMPDEST SWAP3 POP POP DUP2 SWAP1 SSTORE POP PUSH2 0xDAF CALLER DUP4 DUP9 PUSH20 0xFFFFFFFFFFFFFFFFFFFFFFFFFFFFFFFFFFFFFFFF AND PUSH2 0xEDD SWAP1 SWAP3 SWAP2 SWAP1 PUSH4 0xFFFFFFFF AND JUMP JUMPDEST PUSH2 0xDDA CALLER DUP3 DUP8 PUSH20 0xFFFFFFFFFFFFFFFFFFFFFFFFFFFFFFFFFFFFFFFF AND PUSH2 0xEDD SWAP1 SWAP3 SWAP2 SWAP1 PUSH4 0xFFFFFFFF AND JUMP JUMPDEST CALLER PUSH20 0xFFFFFFFFFFFFFFFFFFFFFFFFFFFFFFFFFFFFFFFF AND PUSH32 0xD0AAB0ED3B13A2551C0F217AA790C138F132954984C5D047AE27188F7205DE11 DUP8 DUP8 DUP6 DUP6 PUSH1 0x40 MLOAD PUSH2 0xE26 SWAP5 SWAP4 SWAP3 SWAP2 SWAP1 PUSH2 0x17CC JUMP JUMPDEST PUSH1 0x40 MLOAD DUP1 SWAP2 SUB SWAP1 LOG2 POP POP POP POP POP POP JUMP JUMPDEST PUSH1 0x1 PUSH0 SWAP1 SLOAD SWAP1 PUSH2 0x100 EXP SWAP1 DIV PUSH20 0xFFFFFFFFFFFFFFFFFFFFFFFFFFFFFFFFFFFFFFFF AND DUP2 JUMP JUMPDEST PUSH2 0xED7 DUP5 DUP6 PUSH20 0xFFFFFFFFFFFFFFFFFFFFFFFFFFFFFFFFFFFFFFFF AND PUSH4 0x23B872DD DUP7 DUP7 DUP7 PUSH1 0x40 MLOAD PUSH1 0x24 ADD PUSH2 0xE90 SWAP4 SWAP3 SWAP2 SWAP1 PUSH2 0x1993 JUMP JUMPDEST PUSH1 0x40 MLOAD PUSH1 0x20 DUP2 DUP4 SUB SUB DUP2 MSTORE SWAP1 PUSH1 0x40 MSTORE SWAP2 POP PUSH1 0xE0 SHL PUSH1 0x20 DUP3 ADD DUP1 MLOAD PUSH28 0xFFFFFFFFFFFFFFFFFFFFFFFFFFFFFFFFFFFFFFFFFFFFFFFFFFFFFFFF DUP4 DUP2 DUP4 AND OR DUP4 MSTORE POP POP POP POP PUSH2 0xFB8 JUMP JUMPDEST POP POP POP POP JUMP JUMPDEST PUSH2 0xF57 DUP4 DUP5 PUSH20 0xFFFFFFFFFFFFFFFFFFFFFFFFFFFFFFFFFFFFFFFF AND PUSH4 0xA9059CBB DUP6 DUP6 PUSH1 0x40 MLOAD PUSH1 0x24 ADD PUSH2 0xF10 SWAP3 SWAP2 SWAP1 PUSH2 0x19C8 JUMP JUMPDEST PUSH1 0x40 MLOAD PUSH1 0x20 DUP2 DUP4 SUB SUB DUP2 MSTORE SWAP1 PUSH1 0x40 MSTORE SWAP2 POP PUSH1 0xE0 SHL PUSH1 0x20 DUP3 ADD DUP1 MLOAD PUSH28 0xFFFFFFFFFFFFFFFFFFFFFFFFFFFFFFFFFFFFFFFFFFFFFFFFFFFFFFFF DUP4 DUP2 DUP4 AND OR DUP4 MSTORE POP POP POP POP PUSH2 0xFB8 JUMP JUMPDEST POP POP POP JUMP JUMPDEST PUSH0 DUP1 PUSH1 0x2 PUSH1 0x1 DUP5 PUSH2 0xF6D SWAP2 SWAP1 PUSH2 0x167B JUMP JUMPDEST PUSH2 0xF77 SWAP2 SWAP1 PUSH2 0x16DB JUMP JUMPDEST SWAP1 POP DUP3 SWAP2 POP JUMPDEST DUP2 DUP2 LT ISZERO PUSH2 0xFB2 JUMPI DUP1 SWAP2 POP PUSH1 0x2 DUP2 DUP3 DUP6 PUSH2 0xF97 SWAP2 SWAP1 PUSH2 0x16DB JUMP JUMPDEST PUSH2 0xFA1 SWAP2 SWAP1 PUSH2 0x167B JUMP JUMPDEST PUSH2 0xFAB SWAP2 SWAP1 PUSH2 0x16DB JUMP JUMPDEST SWAP1 POP PUSH2 0xF7D JUMP JUMPDEST POP SWAP2 SWAP1 POP JUMP JUMPDEST PUSH0 PUSH2 0xFE2 DUP3 DUP5 PUSH20 0xFFFFFFFFFFFFFFFFFFFFFFFFFFFFFFFFFFFFFFFF AND PUSH2 0x104D SWAP1 SWAP2 SWAP1 PUSH4 0xFFFFFFFF AND JUMP JUMPDEST SWAP1 POP PUSH0 DUP2 MLOAD EQ ISZERO DUP1 ISZERO PUSH2 0x1006 JUMPI POP DUP1 DUP1 PUSH1 0x20 ADD SWAP1 MLOAD DUP2 ADD SWAP1 PUSH2 0x1004 SWAP2 SWAP1 PUSH2 0x1A19 JUMP JUMPDEST ISZERO JUMPDEST ISZERO PUSH2 0x1048 JUMPI DUP3 PUSH1 0x40 MLOAD PUSH32 0x5274AFE700000000000000000000000000000000000000000000000000000000 DUP2 MSTORE PUSH1 0x4 ADD PUSH2 0x103F SWAP2 SWAP1 PUSH2 0x126E JUMP JUMPDEST PUSH1 0x40 MLOAD DUP1 SWAP2 SUB SWAP1 REVERT JUMPDEST POP POP POP JUMP JUMPDEST PUSH1 0x60 PUSH2 0x105A DUP4 DUP4 PUSH0 PUSH2 0x1062 JUMP JUMPDEST SWAP1 POP SWAP3 SWAP2 POP POP JUMP JUMPDEST PUSH1 0x60 DUP2 SELFBALANCE LT ISZERO PUSH2 0x10A9 JUMPI ADDRESS PUSH1 0x40 MLOAD PUSH32 0xCD78605900000000000000000000000000000000000000000000000000000000 DUP2 MSTORE PUSH1 0x4 ADD PUSH2 0x10A0 SWAP2 SWAP1 PUSH2 0x126E JUMP JUMPDEST PUSH1 0x40 MLOAD DUP1 SWAP2 SUB SWAP1 REVERT JUMPDEST PUSH0 DUP1 DUP6 PUSH20 0xFFFFFFFFFFFFFFFFFFFFFFFFFFFFFFFFFFFFFFFF AND DUP5 DUP7 PUSH1 0x40 MLOAD PUSH2 0x10D1 SWAP2 SWAP1 PUSH2 0x1A96 JUMP JUMPDEST PUSH0 PUSH1 0x40 MLOAD DUP1 DUP4 SUB DUP2 DUP6 DUP8 GAS CALL SWAP3 POP POP POP RETURNDATASIZE DUP1 PUSH0 DUP2 EQ PUSH2 0x110B JUMPI PUSH1 0x40 MLOAD SWAP2 POP PUSH1 0x1F NOT PUSH1 0x3F RETURNDATASIZE ADD AND DUP3 ADD PUSH1 0x40 MSTORE RETURNDATASIZE DUP3 MSTORE RETURNDATASIZE PUSH0 PUSH1 0x20 DUP5 ADD RETURNDATACOPY PUSH2 0x1110 JUMP JUMPDEST PUSH1 0x60 SWAP2 POP JUMPDEST POP SWAP2 POP SWAP2 POP PUSH2 0x1120 DUP7 DUP4 DUP4 PUSH2 0x112B JUMP JUMPDEST SWAP3 POP POP POP SWAP4 SWAP3 POP POP POP JUMP JUMPDEST PUSH1 0x60 DUP3 PUSH2 0x1140 JUMPI PUSH2 0x113B DUP3 PUSH2 0x11B8 JUMP JUMPDEST PUSH2 0x11B0 JUMP JUMPDEST PUSH0 DUP3 MLOAD EQ DUP1 ISZERO PUSH2 0x1166 JUMPI POP PUSH0 DUP5 PUSH20 0xFFFFFFFFFFFFFFFFFFFFFFFFFFFFFFFFFFFFFFFF AND EXTCODESIZE EQ JUMPDEST ISZERO PUSH2 0x11A8 JUMPI DUP4 PUSH1 0x40 MLOAD PUSH32 0x9996B31500000000000000000000000000000000000000000000000000000000 DUP2 MSTORE PUSH1 0x4 ADD PUSH2 0x119F SWAP2 SWAP1 PUSH2 0x126E JUMP JUMPDEST PUSH1 0x40 MLOAD DUP1 SWAP2 SUB SWAP1 REVERT JUMPDEST DUP2 SWAP1 POP PUSH2 0x11B1 JUMP JUMPDEST JUMPDEST SWAP4 SWAP3 POP POP POP JUMP JUMPDEST PUSH0 DUP2 MLOAD GT ISZERO PUSH2 0x11CA JUMPI DUP1 MLOAD DUP1 DUP3 PUSH1 0x20 ADD REVERT JUMPDEST PUSH1 0x40 MLOAD PUSH32 0x1425EA4200000000000000000000000000000000000000000000000000000000 DUP2 MSTORE PUSH1 0x4 ADD PUSH1 0x40 MLOAD DUP1 SWAP2 SUB SWAP1 REVERT JUMPDEST PUSH0 DUP2 ISZERO ISZERO SWAP1 POP SWAP2 SWAP1 POP JUMP JUMPDEST PUSH2 0x1210 DUP2 PUSH2 0x11FC JUMP JUMPDEST DUP3 MSTORE POP POP JUMP JUMPDEST PUSH0 PUSH1 0x20 DUP3 ADD SWAP1 POP PUSH2 0x1229 PUSH0 DUP4 ADD DUP5 PUSH2 0x1207 JUMP JUMPDEST SWAP3 SWAP2 POP POP JUMP JUMPDEST PUSH0 PUSH20 0xFFFFFFFFFFFFFFFFFFFFFFFFFFFFFFFFFFFFFFFF DUP3 AND SWAP1 POP SWAP2 SWAP1 POP JUMP JUMPDEST PUSH0 PUSH2 0x1258 DUP3 PUSH2 0x122F JUMP JUMPDEST SWAP1 POP SWAP2 SWAP1 POP JUMP JUMPDEST PUSH2 0x1268 DUP2 PUSH2 0x124E JUMP JUMPDEST DUP3 MSTORE POP POP JUMP JUMPDEST PUSH0 PUSH1 0x20 DUP3 ADD SWAP1 POP PUSH2 0x1281 PUSH0 DUP4 ADD DUP5 PUSH2 0x125F JUMP JUMPDEST SWAP3 SWAP2 POP POP JUMP JUMPDEST PUSH0 DUP1 REVERT JUMPDEST PUSH2 0x1294 DUP2 PUSH2 0x124E JUMP JUMPDEST DUP2 EQ PUSH2 0x129E JUMPI PUSH0 DUP1 REVERT JUMPDEST POP JUMP JUMPDEST PUSH0 DUP2 CALLDATALOAD SWAP1 POP PUSH2 0x12AF DUP2 PUSH2 0x128B JUMP JUMPDEST SWAP3 SWAP2 POP POP JUMP JUMPDEST PUSH0 DUP1 PUSH1 0x40 DUP4 DUP6 SUB SLT ISZERO PUSH2 0x12CB JUMPI PUSH2 0x12CA PUSH2 0x1287 JUMP JUMPDEST JUMPDEST PUSH0 PUSH2 0x12D8 DUP6 DUP3 DUP7 ADD PUSH2 0x12A1 JUMP JUMPDEST SWAP3 POP POP PUSH1 0x20 PUSH2 0x12E9 DUP6 DUP3 DUP7 ADD PUSH2 0x12A1 JUMP JUMPDEST SWAP2 POP POP SWAP3 POP SWAP3 SWAP1 POP JUMP JUMPDEST PUSH0 DUP2 SWAP1 POP SWAP2 SWAP1 POP JUMP JUMPDEST PUSH2 0x1305 DUP2 PUSH2 0x12F3 JUMP JUMPDEST DUP2 EQ PUSH2 0x130F JUMPI PUSH0 DUP1 REVERT JUMPDEST POP JUMP JUMPDEST PUSH0 DUP2 CALLDATALOAD SWAP1 POP PUSH2 0x1320 DUP2 PUSH2 0x12FC JUMP JUMPDEST SWAP3 SWAP2 POP POP JUMP JUMPDEST PUSH0 DUP1 PUSH0 DUP1 PUSH1 0x80 DUP6 DUP8 SUB SLT ISZERO PUSH2 0x133E JUMPI PUSH2 0x133D PUSH2 0x1287 JUMP JUMPDEST JUMPDEST PUSH0 PUSH2 0x134B DUP8 DUP3 DUP9 ADD PUSH2 0x12A1 JUMP JUMPDEST SWAP5 POP POP PUSH1 0x20 PUSH2 0x135C DUP8 DUP3 DUP9 ADD PUSH2 0x12A1 JUMP JUMPDEST SWAP4 POP POP PUSH1 0x40 PUSH2 0x136D DUP8 DUP3 DUP9 ADD PUSH2 0x1312 JUMP JUMPDEST SWAP3 POP POP PUSH1 0x60 PUSH2 0x137E DUP8 DUP3 DUP9 ADD PUSH2 0x1312 JUMP JUMPDEST SWAP2 POP POP SWAP3 SWAP6 SWAP2 SWAP5 POP SWAP3 POP JUMP JUMPDEST PUSH2 0x1393 DUP2 PUSH2 0x12F3 JUMP JUMPDEST DUP3 MSTORE POP POP JUMP JUMPDEST PUSH0 PUSH1 0x20 DUP3 ADD SWAP1 POP PUSH2 0x13AC PUSH0 DUP4 ADD DUP5 PUSH2 0x138A JUMP JUMPDEST SWAP3 SWAP2 POP POP JUMP JUMPDEST PUSH0 PUSH1 0x60 DUP3 ADD SWAP1 POP PUSH2 0x13C5 PUSH0 DUP4 ADD DUP7 PUSH2 0x138A JUMP JUMPDEST PUSH2 0x13D2 PUSH1 0x20 DUP4 ADD DUP6 PUSH2 0x138A JUMP JUMPDEST PUSH2 0x13DF PUSH1 0x40 DUP4 ADD DUP5 PUSH2 0x138A JUMP JUMPDEST SWAP5 SWAP4 POP POP POP POP JUMP JUMPDEST PUSH0 DUP1 PUSH0 PUSH1 0x60 DUP5 DUP7 SUB SLT ISZERO PUSH2 0x13FE JUMPI PUSH2 0x13FD PUSH2 0x1287 JUMP JUMPDEST JUMPDEST PUSH0 PUSH2 0x140B DUP7 DUP3 DUP8 ADD PUSH2 0x12A1 JUMP JUMPDEST SWAP4 POP POP PUSH1 0x20 PUSH2 0x141C DUP7 DUP3 DUP8 ADD PUSH2 0x12A1 JUMP JUMPDEST SWAP3 POP POP PUSH1 0x40 PUSH2 0x142D DUP7 DUP3 DUP8 ADD PUSH2 0x1312 JUMP JUMPDEST SWAP2 POP POP SWAP3 POP SWAP3 POP SWAP3 JUMP JUMPDEST PUSH0 DUP3 DUP3 MSTORE PUSH1 0x20 DUP3 ADD SWAP1 POP SWAP3 SWAP2 POP POP JUMP JUMPDEST PUSH32 0x416C726561647920696E697469616C697A656400000000000000000000000000 PUSH0 DUP3 ADD MSTORE POP JUMP JUMPDEST PUSH0 PUSH2 0x147B PUSH1 0x13 DUP4 PUSH2 0x1437 JUMP JUMPDEST SWAP2 POP PUSH2 0x1486 DUP3 PUSH2 0x1447 JUMP JUMPDEST PUSH1 0x20 DUP3 ADD SWAP1 POP SWAP2 SWAP1 POP JUMP JUMPDEST PUSH0 PUSH1 0x20 DUP3 ADD SWAP1 POP DUP2 DUP2 SUB PUSH0 DUP4 ADD MSTORE PUSH2 0x14A8 DUP2 PUSH2 0x146F JUMP JUMPDEST SWAP1 POP SWAP2 SWAP1 POP JUMP JUMPDEST PUSH32 0x43616E6E6F742073776170206964656E746963616C20746F6B656E732E000000 PUSH0 DUP3 ADD MSTORE POP JUMP JUMPDEST PUSH0 PUSH2 0x14E3 PUSH1 0x1D DUP4 PUSH2 0x1437 JUMP JUMPDEST SWAP2 POP PUSH2 0x14EE DUP3 PUSH2 0x14AF JUMP JUMPDEST PUSH1 0x20 DUP3 ADD SWAP1 POP SWAP2 SWAP1 POP JUMP JUMPDEST PUSH0 PUSH1 0x20 DUP3 ADD SWAP1 POP DUP2 DUP2 SUB PUSH0 DUP4 ADD MSTORE PUSH2 0x1510 DUP2 PUSH2 0x14D7 JUMP JUMPDEST SWAP1 POP SWAP2 SWAP1 POP JUMP JUMPDEST PUSH32 0x416D6F756E74206D7573742062652067726561746572207468616E207A65726F PUSH0 DUP3 ADD MSTORE PUSH32 0x2E00000000000000000000000000000000000000000000000000000000000000 PUSH1 0x20 DUP3 ADD MSTORE POP JUMP JUMPDEST PUSH0 PUSH2 0x1571 PUSH1 0x21 DUP4 PUSH2 0x1437 JUMP JUMPDEST SWAP2 POP PUSH2 0x157C DUP3 PUSH2 0x1517 JUMP JUMPDEST PUSH1 0x40 DUP3 ADD SWAP1 POP SWAP2 SWAP1 POP JUMP JUMPDEST PUSH0 PUSH1 0x20 DUP3 ADD SWAP1 POP DUP2 DUP2 SUB PUSH0 DUP4 ADD MSTORE PUSH2 0x159E DUP2 PUSH2 0x1565 JUMP JUMPDEST SWAP1 POP SWAP2 SWAP1 POP JUMP JUMPDEST PUSH32 0x546F6B656E7320646F206E6F74206D617463682074686520706F6F6C00000000 PUSH0 DUP3 ADD MSTORE POP JUMP JUMPDEST PUSH0 PUSH2 0x15D9 PUSH1 0x1C DUP4 PUSH2 0x1437 JUMP JUMPDEST SWAP2 POP PUSH2 0x15E4 DUP3 PUSH2 0x15A5 JUMP JUMPDEST PUSH1 0x20 DUP3 ADD SWAP1 POP SWAP2 SWAP1 POP JUMP JUMPDEST PUSH0 PUSH1 0x20 DUP3 ADD SWAP1 POP DUP2 DUP2 SUB PUSH0 DUP4 ADD MSTORE PUSH2 0x1606 DUP2 PUSH2 0x15CD JUMP JUMPDEST SWAP1 POP SWAP2 SWAP1 POP JUMP JUMPDEST PUSH32 0x4E487B7100000000000000000000000000000000000000000000000000000000 PUSH0 MSTORE PUSH1 0x11 PUSH1 0x4 MSTORE PUSH1 0x24 PUSH0 REVERT JUMPDEST PUSH0 PUSH2 0x1644 DUP3 PUSH2 0x12F3 JUMP JUMPDEST SWAP2 POP PUSH2 0x164F DUP4 PUSH2 0x12F3 JUMP JUMPDEST SWAP3 POP DUP3 DUP3 MUL PUSH2 0x165D DUP2 PUSH2 0x12F3 JUMP JUMPDEST SWAP2 POP DUP3 DUP3 DIV DUP5 EQ DUP4 ISZERO OR PUSH2 0x1674 JUMPI PUSH2 0x1673 PUSH2 0x160D JUMP JUMPDEST JUMPDEST POP SWAP3 SWAP2 POP POP JUMP JUMPDEST PUSH0 PUSH2 0x1685 DUP3 PUSH2 0x12F3 JUMP JUMPDEST SWAP2 POP PUSH2 0x1690 DUP4 PUSH2 0x12F3 JUMP JUMPDEST SWAP3 POP DUP3 DUP3 ADD SWAP1 POP DUP1 DUP3 GT ISZERO PUSH2 0x16A8 JUMPI PUSH2 0x16A7 PUSH2 0x160D JUMP JUMPDEST JUMPDEST SWAP3 SWAP2 POP POP JUMP JUMPDEST PUSH32 0x4E487B7100000000000000000000000000000000000000000000000000000000 PUSH0 MSTORE PUSH1 0x12 PUSH1 0x4 MSTORE PUSH1 0x24 PUSH0 REVERT JUMPDEST PUSH0 PUSH2 0x16E5 DUP3 PUSH2 0x12F3 JUMP JUMPDEST SWAP2 POP PUSH2 0x16F0 DUP4 PUSH2 0x12F3 JUMP JUMPDEST SWAP3 POP DUP3 PUSH2 0x1700 JUMPI PUSH2 0x16FF PUSH2 0x16AE JUMP JUMPDEST JUMPDEST DUP3 DUP3 DIV SWAP1 POP SWAP3 SWAP2 POP POP JUMP JUMPDEST PUSH32 0x536C6970706167652070726F74656374696F6E3A20726563656976656420616D PUSH0 DUP3 ADD MSTORE PUSH32 0x6F756E74206973206C657373207468616E2065787065637465642E0000000000 PUSH1 0x20 DUP3 ADD MSTORE POP JUMP JUMPDEST PUSH0 PUSH2 0x1765 PUSH1 0x3B DUP4 PUSH2 0x1437 JUMP JUMPDEST SWAP2 POP PUSH2 0x1770 DUP3 PUSH2 0x170B JUMP JUMPDEST PUSH1 0x40 DUP3 ADD SWAP1 POP SWAP2 SWAP1 POP JUMP JUMPDEST PUSH0 PUSH1 0x20 DUP3 ADD SWAP1 POP DUP2 DUP2 SUB PUSH0 DUP4 ADD MSTORE PUSH2 0x1792 DUP2 PUSH2 0x1759 JUMP JUMPDEST SWAP1 POP SWAP2 SWAP1 POP JUMP JUMPDEST PUSH0 PUSH2 0x17A3 DUP3 PUSH2 0x12F3 JUMP JUMPDEST SWAP2 POP PUSH2 0x17AE DUP4 PUSH2 0x12F3 JUMP JUMPDEST SWAP3 POP DUP3 DUP3 SUB SWAP1 POP DUP2 DUP2 GT ISZERO PUSH2 0x17C6 JUMPI PUSH2 0x17C5 PUSH2 0x160D JUMP JUMPDEST JUMPDEST SWAP3 SWAP2 POP POP JUMP JUMPDEST PUSH0 PUSH1 0x80 DUP3 ADD SWAP1 POP PUSH2 0x17DF PUSH0 DUP4 ADD DUP8 PUSH2 0x125F JUMP JUMPDEST PUSH2 0x17EC PUSH1 0x20 DUP4 ADD DUP7 PUSH2 0x125F JUMP JUMPDEST PUSH2 0x17F9 PUSH1 0x40 DUP4 ADD DUP6 PUSH2 0x138A JUMP JUMPDEST PUSH2 0x1806 PUSH1 0x60 DUP4 ADD DUP5 PUSH2 0x138A JUMP JUMPDEST SWAP6 SWAP5 POP POP POP POP POP JUMP JUMPDEST PUSH32 0x43616E6E6F742063726561746520706F6F6C2077697468206964656E74696361 PUSH0 DUP3 ADD MSTORE PUSH32 0x6C20746F6B656E732E0000000000000000000000000000000000000000000000 PUSH1 0x20 DUP3 ADD MSTORE POP JUMP JUMPDEST PUSH0 PUSH2 0x1869 PUSH1 0x29 DUP4 PUSH2 0x1437 JUMP JUMPDEST SWAP2 POP PUSH2 0x1874 DUP3 PUSH2 0x180F JUMP JUMPDEST PUSH1 0x40 DUP3 ADD SWAP1 POP SWAP2 SWAP1 POP JUMP JUMPDEST PUSH0 PUSH1 0x20 DUP3 ADD SWAP1 POP DUP2 DUP2 SUB PUSH0 DUP4 ADD MSTORE PUSH2 0x1896 DUP2 PUSH2 0x185D JUMP JUMPDEST SWAP1 POP SWAP2 SWAP1 POP JUMP JUMPDEST PUSH32 0x416D6F756E7473206D7573742062652067726561746572207468616E207A6572 PUSH0 DUP3 ADD MSTORE PUSH32 0x6F2E000000000000000000000000000000000000000000000000000000000000 PUSH1 0x20 DUP3 ADD MSTORE POP JUMP JUMPDEST PUSH0 PUSH2 0x18F7 PUSH1 0x22 DUP4 PUSH2 0x1437 JUMP JUMPDEST SWAP2 POP PUSH2 0x1902 DUP3 PUSH2 0x189D JUMP JUMPDEST PUSH1 0x40 DUP3 ADD SWAP1 POP SWAP2 SWAP1 POP JUMP JUMPDEST PUSH0 PUSH1 0x20 DUP3 ADD SWAP1 POP DUP2 DUP2 SUB PUSH0 DUP4 ADD MSTORE PUSH2 0x1924 DUP2 PUSH2 0x18EB JUMP JUMPDEST SWAP1 POP SWAP2 SWAP1 POP JUMP JUMPDEST PUSH32 0x496E73756666696369656E74206C69717569646974792E000000000000000000 PUSH0 DUP3 ADD MSTORE POP JUMP JUMPDEST PUSH0 PUSH2 0x195F PUSH1 0x17 DUP4 PUSH2 0x1437 JUMP JUMPDEST SWAP2 POP PUSH2 0x196A DUP3 PUSH2 0x192B JUMP JUMPDEST PUSH1 0x20 DUP3 ADD SWAP1 POP SWAP2 SWAP1 POP JUMP JUMPDEST PUSH0 PUSH1 0x20 DUP3 ADD SWAP1 POP DUP2 DUP2 SUB PUSH0 DUP4 ADD MSTORE PUSH2 0x198C DUP2 PUSH2 0x1953 JUMP JUMPDEST SWAP1 POP SWAP2 SWAP1 POP JUMP JUMPDEST PUSH0 PUSH1 0x60 DUP3 ADD SWAP1 POP PUSH2 0x19A6 PUSH0 DUP4 ADD DUP7 PUSH2 0x125F JUMP JUMPDEST PUSH2 0x19B3 PUSH1 0x20 DUP4 ADD DUP6 PUSH2 0x125F JUMP JUMPDEST PUSH2 0x19C0 PUSH1 0x40 DUP4 ADD DUP5 PUSH2 0x138A JUMP JUMPDEST SWAP5 SWAP4 POP POP POP POP JUMP JUMPDEST PUSH0 PUSH1 0x40 DUP3 ADD SWAP1 POP PUSH2 0x19DB PUSH0 DUP4 ADD DUP6 PUSH2 0x125F JUMP JUMPDEST PUSH2 0x19E8 PUSH1 0x20 DUP4 ADD DUP5 PUSH2 0x138A JUMP JUMPDEST SWAP4 SWAP3 POP POP POP JUMP JUMPDEST PUSH2 0x19F8 DUP2 PUSH2 0x11FC JUMP JUMPDEST DUP2 EQ PUSH2 0x1A02 JUMPI PUSH0 DUP1 REVERT JUMPDEST POP JUMP JUMPDEST PUSH0 DUP2 MLOAD SWAP1 POP PUSH2 0x1A13 DUP2 PUSH2 0x19EF JUMP JUMPDEST SWAP3 SWAP2 POP POP JUMP JUMPDEST PUSH0 PUSH1 0x20 DUP3 DUP5 SUB SLT ISZERO PUSH2 0x1A2E JUMPI PUSH2 0x1A2D PUSH2 0x1287 JUMP JUMPDEST JUMPDEST PUSH0 PUSH2 0x1A3B DUP5 DUP3 DUP6 ADD PUSH2 0x1A05 JUMP JUMPDEST SWAP2 POP POP SWAP3 SWAP2 POP POP JUMP JUMPDEST PUSH0 DUP2 MLOAD SWAP1 POP SWAP2 SWAP1 POP JUMP JUMPDEST PUSH0 DUP2 SWAP1 POP SWAP3 SWAP2 POP POP JUMP JUMPDEST DUP3 DUP2 DUP4 MCOPY PUSH0 DUP4 DUP4 ADD MSTORE POP POP POP JUMP JUMPDEST PUSH0 PUSH2 0x1A70 DUP3 PUSH2 0x1A44 JUMP JUMPDEST PUSH2 0x1A7A DUP2 DUP6 PUSH2 0x1A4E JUMP JUMPDEST SWAP4 POP PUSH2 0x1A8A DUP2 DUP6 PUSH1 0x20 DUP7 ADD PUSH2 0x1A58 JUMP JUMPDEST DUP1 DUP5 ADD SWAP2 POP POP SWAP3 SWAP2 POP POP JUMP JUMPDEST PUSH0 PUSH2 0x1AA1 DUP3 DUP5 PUSH2 0x1A66 JUMP JUMPDEST SWAP2 POP DUP2 SWAP1 POP SWAP3 SWAP2 POP POP JUMP INVALID LOG2 PUSH5 0x6970667358 0x22 SLT KECCAK256 0xEA 0xD0 RETURNDATASIZE DELEGATECALL 0xC8 0xDF MULMOD LOG0 PUSH32 0x47BE7F9148D7C4CD6B1247FAE0BA088BF7660AFCACD41864736F6C6343000819 STOP CALLER LOG2 PUSH5 0x6970667358 0x22 SLT KECCAK256 NOT GT 0xC0 MSTORE 0x4F 0xA7 SWAP9 SWAP15 BASEFEE MSTORE 0xE6 DUP16 SWAP7 PUSH4 0x1BD22EFB LOG1 PUSH2 0xA8DF ADDMOD 0xBE SWAP13 0xE1 0xB5 0xC5 PUSH32 0x771C0F64736F6C63430008190033000000000000000000000000000000000000 "
				},
				"gasEstimates": {
					"creation": {
						"codeDepositCost": "1797600",
						"executionCost": "1889",
						"totalCost": "1799489"
					},
					"external": {
						"allPools(uint256)": "4922",
						"createPool(address,address)": "infinite",
						"getPool(address,address)": "infinite"
					}
				},
				"methodIdentifiers": {
					"allPools(uint256)": "41d1de97",
					"createPool(address,address)": "e3433615",
					"getPool(address,address)": "531aa03e"
				}
			},
			"storageLayout": {
				"storage": [
					{
						"astId": 1183,
						"contract": "contracts/TheDexFactory.sol:TheDexFactory",
						"label": "getPool",
						"offset": 0,
						"slot": "0",
						"type": "t_mapping(t_address,t_mapping(t_address,t_address))"
					},
					{
						"astId": 1186,
						"contract": "contracts/TheDexFactory.sol:TheDexFactory",
						"label": "allPools",
						"offset": 0,
						"slot": "1",
						"type": "t_array(t_address)dyn_storage"
					}
				],
				"types": {
					"t_address": {
						"encoding": "inplace",
						"label": "address",
						"numberOfBytes": "20"
					},
					"t_array(t_address)dyn_storage": {
						"base": "t_address",
						"encoding": "dynamic_array",
						"label": "address[]",
						"numberOfBytes": "32"
					},
					"t_mapping(t_address,t_address)": {
						"encoding": "mapping",
						"key": "t_address",
						"label": "mapping(address => address)",
						"numberOfBytes": "32",
						"value": "t_address"
					},
					"t_mapping(t_address,t_mapping(t_address,t_address))": {
						"encoding": "mapping",
						"key": "t_address",
						"label": "mapping(address => mapping(address => address))",
						"numberOfBytes": "32",
						"value": "t_mapping(t_address,t_address)"
					}
				}
			},
			"userdoc": {
				"kind": "user",
				"methods": {},
				"version": 1
			}
		}
	}
}