{
	"contracts/TheDexRouter.sol": {
		"TheDexRouter": {
			"abi": [
				{
					"inputs": [
						{
							"internalType": "address",
							"name": "_factory",
							"type": "address"
						}
					],
					"stateMutability": "nonpayable",
					"type": "constructor"
				},
				{
					"inputs": [],
					"name": "factory",
					"outputs": [
						{
							"internalType": "address",
							"name": "",
							"type": "address"
						}
					],
					"stateMutability": "view",
					"type": "function"
				},
				{
					"inputs": [
						{
							"internalType": "uint256",
							"name": "amountIn",
							"type": "uint256"
						},
						{
							"internalType": "uint256",
							"name": "amountOutMin",
							"type": "uint256"
						},
						{
							"internalType": "address[]",
							"name": "path",
							"type": "address[]"
						},
						{
							"internalType": "address",
							"name": "to",
							"type": "address"
						}
					],
					"name": "swapExactTokensForTokens",
					"outputs": [
						{
							"internalType": "uint256[]",
							"name": "amounts",
							"type": "uint256[]"
						}
					],
					"stateMutability": "nonpayable",
					"type": "function"
				}
			],
			"devdoc": {
				"kind": "dev",
				"methods": {},
				"version": 1
			},
			"evm": {
				"assembly": "    /* \"contracts/TheDexRouter.sol\":169:1233  contract TheDexRouter {... */\n  mstore(0x40, 0x80)\n    /* \"contracts/TheDexRouter.sol\":226:291  constructor(address _factory) {... */\n  callvalue\n  dup1\n  iszero\n  tag_1\n  jumpi\n  0x00\n  dup1\n  revert\ntag_1:\n  pop\n  mload(0x40)\n  sub(codesize, bytecodeSize)\n  dup1\n  bytecodeSize\n  dup4\n  codecopy\n  dup2\n  dup2\n  add\n  0x40\n  mstore\n  dup2\n  add\n  swap1\n  tag_2\n  swap2\n  swap1\n  tag_3\n  jump\t// in\ntag_2:\n    /* \"contracts/TheDexRouter.sol\":276:284  _factory */\n  dup1\n    /* \"contracts/TheDexRouter.sol\":266:273  factory */\n  0x00\n  dup1\n    /* \"contracts/TheDexRouter.sol\":266:284  factory = _factory */\n  0x0100\n  exp\n  dup2\n  sload\n  dup2\n  0xffffffffffffffffffffffffffffffffffffffff\n  mul\n  not\n  and\n  swap1\n  dup4\n  0xffffffffffffffffffffffffffffffffffffffff\n  and\n  mul\n  or\n  swap1\n  sstore\n  pop\n    /* \"contracts/TheDexRouter.sol\":226:291  constructor(address _factory) {... */\n  pop\n    /* \"contracts/TheDexRouter.sol\":169:1233  contract TheDexRouter {... */\n  jump(tag_6)\n    /* \"#utility.yul\":88:205   */\ntag_8:\n    /* \"#utility.yul\":197:198   */\n  0x00\n    /* \"#utility.yul\":194:195   */\n  dup1\n    /* \"#utility.yul\":187:199   */\n  revert\n    /* \"#utility.yul\":334:460   */\ntag_10:\n    /* \"#utility.yul\":371:378   */\n  0x00\n    /* \"#utility.yul\":411:453   */\n  0xffffffffffffffffffffffffffffffffffffffff\n    /* \"#utility.yul\":404:409   */\n  dup3\n    /* \"#utility.yul\":400:454   */\n  and\n    /* \"#utility.yul\":389:454   */\n  swap1\n  pop\n    /* \"#utility.yul\":334:460   */\n  swap2\n  swap1\n  pop\n  jump\t// out\n    /* \"#utility.yul\":466:562   */\ntag_11:\n    /* \"#utility.yul\":503:510   */\n  0x00\n    /* \"#utility.yul\":532:556   */\n  tag_20\n    /* \"#utility.yul\":550:555   */\n  dup3\n    /* \"#utility.yul\":532:556   */\n  tag_10\n  jump\t// in\ntag_20:\n    /* \"#utility.yul\":521:556   */\n  swap1\n  pop\n    /* \"#utility.yul\":466:562   */\n  swap2\n  swap1\n  pop\n  jump\t// out\n    /* \"#utility.yul\":568:690   */\ntag_12:\n    /* \"#utility.yul\":641:665   */\n  tag_22\n    /* \"#utility.yul\":659:664   */\n  dup2\n    /* \"#utility.yul\":641:665   */\n  tag_11\n  jump\t// in\ntag_22:\n    /* \"#utility.yul\":634:639   */\n  dup2\n    /* \"#utility.yul\":631:666   */\n  eq\n    /* \"#utility.yul\":621:684   */\n  tag_23\n  jumpi\n    /* \"#utility.yul\":680:681   */\n  0x00\n    /* \"#utility.yul\":677:678   */\n  dup1\n    /* \"#utility.yul\":670:682   */\n  revert\n    /* \"#utility.yul\":621:684   */\ntag_23:\n    /* \"#utility.yul\":568:690   */\n  pop\n  jump\t// out\n    /* \"#utility.yul\":696:839   */\ntag_13:\n    /* \"#utility.yul\":753:758   */\n  0x00\n    /* \"#utility.yul\":784:790   */\n  dup2\n    /* \"#utility.yul\":778:791   */\n  mload\n    /* \"#utility.yul\":769:791   */\n  swap1\n  pop\n    /* \"#utility.yul\":800:833   */\n  tag_25\n    /* \"#utility.yul\":827:832   */\n  dup2\n    /* \"#utility.yul\":800:833   */\n  tag_12\n  jump\t// in\ntag_25:\n    /* \"#utility.yul\":696:839   */\n  swap3\n  swap2\n  pop\n  pop\n  jump\t// out\n    /* \"#utility.yul\":845:1196   */\ntag_3:\n    /* \"#utility.yul\":915:921   */\n  0x00\n    /* \"#utility.yul\":964:966   */\n  0x20\n    /* \"#utility.yul\":952:961   */\n  dup3\n    /* \"#utility.yul\":943:950   */\n  dup5\n    /* \"#utility.yul\":939:962   */\n  sub\n    /* \"#utility.yul\":935:967   */\n  slt\n    /* \"#utility.yul\":932:1051   */\n  iszero\n  tag_27\n  jumpi\n    /* \"#utility.yul\":970:1049   */\n  tag_28\n  tag_8\n  jump\t// in\ntag_28:\n    /* \"#utility.yul\":932:1051   */\ntag_27:\n    /* \"#utility.yul\":1090:1091   */\n  0x00\n    /* \"#utility.yul\":1115:1179   */\n  tag_29\n    /* \"#utility.yul\":1171:1178   */\n  dup5\n    /* \"#utility.yul\":1162:1168   */\n  dup3\n    /* \"#utility.yul\":1151:1160   */\n  dup6\n    /* \"#utility.yul\":1147:1169   */\n  add\n    /* \"#utility.yul\":1115:1179   */\n  tag_13\n  jump\t// in\ntag_29:\n    /* \"#utility.yul\":1105:1179   */\n  swap2\n  pop\n    /* \"#utility.yul\":1061:1189   */\n  pop\n    /* \"#utility.yul\":845:1196   */\n  swap3\n  swap2\n  pop\n  pop\n  jump\t// out\n    /* \"contracts/TheDexRouter.sol\":169:1233  contract TheDexRouter {... */\ntag_6:\n  dataSize(sub_0)\n  dup1\n  dataOffset(sub_0)\n  0x00\n  codecopy\n  0x00\n  return\nstop\n\nsub_0: assembly {\n        /* \"contracts/TheDexRouter.sol\":169:1233  contract TheDexRouter {... */\n      mstore(0x40, 0x80)\n      callvalue\n      dup1\n      iszero\n      tag_1\n      jumpi\n      0x00\n      dup1\n      revert\n    tag_1:\n      pop\n      jumpi(tag_2, lt(calldatasize, 0x04))\n      shr(0xe0, calldataload(0x00))\n      dup1\n      0x472b43f3\n      eq\n      tag_3\n      jumpi\n      dup1\n      0xc45a0155\n      eq\n      tag_4\n      jumpi\n    tag_2:\n      0x00\n      dup1\n      revert\n        /* \"contracts/TheDexRouter.sol\":297:1231  function swapExactTokensForTokens(... */\n    tag_3:\n      tag_5\n      0x04\n      dup1\n      calldatasize\n      sub\n      dup2\n      add\n      swap1\n      tag_6\n      swap2\n      swap1\n      tag_7\n      jump\t// in\n    tag_6:\n      tag_8\n      jump\t// in\n    tag_5:\n      mload(0x40)\n      tag_9\n      swap2\n      swap1\n      tag_10\n      jump\t// in\n    tag_9:\n      mload(0x40)\n      dup1\n      swap2\n      sub\n      swap1\n      return\n        /* \"contracts/TheDexRouter.sol\":197:219  address public factory */\n    tag_4:\n      tag_11\n      tag_12\n      jump\t// in\n    tag_11:\n      mload(0x40)\n      tag_13\n      swap2\n      swap1\n      tag_14\n      jump\t// in\n    tag_13:\n      mload(0x40)\n      dup1\n      swap2\n      sub\n      swap1\n      return\n        /* \"contracts/TheDexRouter.sol\":297:1231  function swapExactTokensForTokens(... */\n    tag_8:\n        /* \"contracts/TheDexRouter.sol\":464:488  uint256[] memory amounts */\n      0x60\n        /* \"contracts/TheDexRouter.sol\":523:524  2 */\n      0x02\n        /* \"contracts/TheDexRouter.sol\":508:512  path */\n      dup5\n      dup5\n        /* \"contracts/TheDexRouter.sol\":508:519  path.length */\n      swap1\n      pop\n        /* \"contracts/TheDexRouter.sol\":508:524  path.length >= 2 */\n      lt\n      iszero\n        /* \"contracts/TheDexRouter.sol\":500:541  require(path.length >= 2, \"Invalid path\") */\n      tag_16\n      jumpi\n      mload(0x40)\n      0x08c379a000000000000000000000000000000000000000000000000000000000\n      dup2\n      mstore\n      0x04\n      add\n      tag_17\n      swap1\n      tag_18\n      jump\t// in\n    tag_17:\n      mload(0x40)\n      dup1\n      swap2\n      sub\n      swap1\n      revert\n    tag_16:\n        /* \"contracts/TheDexRouter.sol\":575:579  path */\n      dup4\n      dup4\n        /* \"contracts/TheDexRouter.sol\":575:586  path.length */\n      swap1\n      pop\n        /* \"contracts/TheDexRouter.sol\":561:587  new uint256[](path.length) */\n      0xffffffffffffffff\n      dup2\n      gt\n      iszero\n      tag_19\n      jumpi\n      tag_20\n      tag_21\n      jump\t// in\n    tag_20:\n    tag_19:\n      mload(0x40)\n      swap1\n      dup1\n      dup3\n      mstore\n      dup1\n      0x20\n      mul\n      0x20\n      add\n      dup3\n      add\n      0x40\n      mstore\n      dup1\n      iszero\n      tag_22\n      jumpi\n      dup2\n      0x20\n      add\n      0x20\n      dup3\n      mul\n      dup1\n      calldatasize\n      dup4\n      calldatacopy\n      dup1\n      dup3\n      add\n      swap2\n      pop\n      pop\n      swap1\n      pop\n    tag_22:\n      pop\n        /* \"contracts/TheDexRouter.sol\":551:587  amounts = new uint256[](path.length) */\n      swap1\n      pop\n        /* \"contracts/TheDexRouter.sol\":610:618  amountIn */\n      dup6\n        /* \"contracts/TheDexRouter.sol\":597:604  amounts */\n      dup2\n        /* \"contracts/TheDexRouter.sol\":605:606  0 */\n      0x00\n        /* \"contracts/TheDexRouter.sol\":597:607  amounts[0] */\n      dup2\n      mload\n      dup2\n      lt\n      tag_23\n      jumpi\n      tag_24\n      tag_25\n      jump\t// in\n    tag_24:\n    tag_23:\n      0x20\n      mul\n      0x20\n      add\n      add\n        /* \"contracts/TheDexRouter.sol\":597:618  amounts[0] = amountIn */\n      dup2\n      dup2\n      mstore\n      pop\n      pop\n        /* \"contracts/TheDexRouter.sol\":634:643  uint256 i */\n      0x00\n        /* \"contracts/TheDexRouter.sol\":629:1132  for (uint256 i; i < path.length - 1; i++) {... */\n    tag_26:\n        /* \"contracts/TheDexRouter.sol\":663:664  1 */\n      0x01\n        /* \"contracts/TheDexRouter.sol\":649:653  path */\n      dup6\n      dup6\n        /* \"contracts/TheDexRouter.sol\":649:660  path.length */\n      swap1\n      pop\n        /* \"contracts/TheDexRouter.sol\":649:664  path.length - 1 */\n      tag_29\n      swap2\n      swap1\n      tag_30\n      jump\t// in\n    tag_29:\n        /* \"contracts/TheDexRouter.sol\":645:646  i */\n      dup2\n        /* \"contracts/TheDexRouter.sol\":645:664  i < path.length - 1 */\n      lt\n        /* \"contracts/TheDexRouter.sol\":629:1132  for (uint256 i; i < path.length - 1; i++) {... */\n      iszero\n      tag_27\n      jumpi\n        /* \"contracts/TheDexRouter.sol\":685:698  address input */\n      0x00\n        /* \"contracts/TheDexRouter.sol\":701:705  path */\n      dup6\n      dup6\n        /* \"contracts/TheDexRouter.sol\":706:707  i */\n      dup4\n        /* \"contracts/TheDexRouter.sol\":701:708  path[i] */\n      dup2\n      dup2\n      lt\n      tag_31\n      jumpi\n      tag_32\n      tag_25\n      jump\t// in\n    tag_32:\n    tag_31:\n      swap1\n      pop\n      0x20\n      mul\n      add\n      0x20\n      dup2\n      add\n      swap1\n      tag_33\n      swap2\n      swap1\n      tag_34\n      jump\t// in\n    tag_33:\n        /* \"contracts/TheDexRouter.sol\":685:708  address input = path[i] */\n      swap1\n      pop\n        /* \"contracts/TheDexRouter.sol\":722:736  address output */\n      0x00\n        /* \"contracts/TheDexRouter.sol\":739:743  path */\n      dup7\n      dup7\n        /* \"contracts/TheDexRouter.sol\":748:749  1 */\n      0x01\n        /* \"contracts/TheDexRouter.sol\":744:745  i */\n      dup6\n        /* \"contracts/TheDexRouter.sol\":744:749  i + 1 */\n      tag_35\n      swap2\n      swap1\n      tag_36\n      jump\t// in\n    tag_35:\n        /* \"contracts/TheDexRouter.sol\":739:750  path[i + 1] */\n      dup2\n      dup2\n      lt\n      tag_37\n      jumpi\n      tag_38\n      tag_25\n      jump\t// in\n    tag_38:\n    tag_37:\n      swap1\n      pop\n      0x20\n      mul\n      add\n      0x20\n      dup2\n      add\n      swap1\n      tag_39\n      swap2\n      swap1\n      tag_34\n      jump\t// in\n    tag_39:\n        /* \"contracts/TheDexRouter.sol\":722:750  address output = path[i + 1] */\n      swap1\n      pop\n        /* \"contracts/TheDexRouter.sol\":764:776  address pool */\n      0x00\n        /* \"contracts/TheDexRouter.sol\":793:800  factory */\n      dup1\n      0x00\n      swap1\n      sload\n      swap1\n      0x0100\n      exp\n      swap1\n      div\n      0xffffffffffffffffffffffffffffffffffffffff\n      and\n        /* \"contracts/TheDexRouter.sol\":779:809  TheDexFactory(factory).getPool */\n      0xffffffffffffffffffffffffffffffffffffffff\n      and\n      0x531aa03e\n        /* \"contracts/TheDexRouter.sol\":810:815  input */\n      dup5\n        /* \"contracts/TheDexRouter.sol\":817:823  output */\n      dup5\n        /* \"contracts/TheDexRouter.sol\":779:824  TheDexFactory(factory).getPool(input, output) */\n      mload(0x40)\n      dup4\n      0xffffffff\n      and\n      0xe0\n      shl\n      dup2\n      mstore\n      0x04\n      add\n      tag_40\n      swap3\n      swap2\n      swap1\n      tag_41\n      jump\t// in\n    tag_40:\n      0x20\n      mload(0x40)\n      dup1\n      dup4\n      sub\n      dup2\n      dup7\n      gas\n      staticcall\n      iszero\n      dup1\n      iszero\n      tag_43\n      jumpi\n      returndatasize\n      0x00\n      dup1\n      returndatacopy\n      revert(0x00, returndatasize)\n    tag_43:\n      pop\n      pop\n      pop\n      pop\n      mload(0x40)\n      returndatasize\n      not(0x1f)\n      0x1f\n      dup3\n      add\n      and\n      dup3\n      add\n      dup1\n      0x40\n      mstore\n      pop\n      dup2\n      add\n      swap1\n      tag_44\n      swap2\n      swap1\n      tag_45\n      jump\t// in\n    tag_44:\n        /* \"contracts/TheDexRouter.sol\":764:824  address pool = TheDexFactory(factory).getPool(input, output) */\n      swap1\n      pop\n        /* \"contracts/TheDexRouter.sol\":862:863  0 */\n      0x00\n        /* \"contracts/TheDexRouter.sol\":846:864  pool != address(0) */\n      0xffffffffffffffffffffffffffffffffffffffff\n      and\n        /* \"contracts/TheDexRouter.sol\":846:850  pool */\n      dup2\n        /* \"contracts/TheDexRouter.sol\":846:864  pool != address(0) */\n      0xffffffffffffffffffffffffffffffffffffffff\n      and\n      sub\n        /* \"contracts/TheDexRouter.sol\":838:888  require(pool != address(0), \"Pool does not exist\") */\n      tag_46\n      jumpi\n      mload(0x40)\n      0x08c379a000000000000000000000000000000000000000000000000000000000\n      dup2\n      mstore\n      0x04\n      add\n      tag_47\n      swap1\n      tag_48\n      jump\t// in\n    tag_47:\n      mload(0x40)\n      dup1\n      swap2\n      sub\n      swap1\n      revert\n    tag_46:\n        /* \"contracts/TheDexRouter.sol\":910:914  pool */\n      dup1\n        /* \"contracts/TheDexRouter.sol\":903:942  TheDex(pool).swapWithSlippageProtection */\n      0xffffffffffffffffffffffffffffffffffffffff\n      and\n      0x4a5a7270\n        /* \"contracts/TheDexRouter.sol\":960:965  input */\n      dup5\n        /* \"contracts/TheDexRouter.sol\":983:989  output */\n      dup5\n        /* \"contracts/TheDexRouter.sol\":1007:1014  amounts */\n      dup9\n        /* \"contracts/TheDexRouter.sol\":1015:1016  i */\n      dup9\n        /* \"contracts/TheDexRouter.sol\":1007:1017  amounts[i] */\n      dup2\n      mload\n      dup2\n      lt\n      tag_49\n      jumpi\n      tag_50\n      tag_25\n      jump\t// in\n    tag_50:\n    tag_49:\n      0x20\n      mul\n      0x20\n      add\n      add\n      mload\n        /* \"contracts/TheDexRouter.sol\":1035:1042  amounts */\n      dup10\n        /* \"contracts/TheDexRouter.sol\":1047:1048  1 */\n      0x01\n        /* \"contracts/TheDexRouter.sol\":1043:1044  i */\n      dup11\n        /* \"contracts/TheDexRouter.sol\":1043:1048  i + 1 */\n      tag_51\n      swap2\n      swap1\n      tag_36\n      jump\t// in\n    tag_51:\n        /* \"contracts/TheDexRouter.sol\":1035:1049  amounts[i + 1] */\n      dup2\n      mload\n      dup2\n      lt\n      tag_52\n      jumpi\n      tag_53\n      tag_25\n      jump\t// in\n    tag_53:\n    tag_52:\n      0x20\n      mul\n      0x20\n      add\n      add\n      mload\n        /* \"contracts/TheDexRouter.sol\":903:1063  TheDex(pool).swapWithSlippageProtection(... */\n      mload(0x40)\n      dup6\n      0xffffffff\n      and\n      0xe0\n      shl\n      dup2\n      mstore\n      0x04\n      add\n      tag_54\n      swap5\n      swap4\n      swap3\n      swap2\n      swap1\n      tag_55\n      jump\t// in\n    tag_54:\n      0x20\n      mload(0x40)\n      dup1\n      dup4\n      sub\n      dup2\n      0x00\n      dup8\n      gas\n      call\n      iszero\n      dup1\n      iszero\n      tag_57\n      jumpi\n      returndatasize\n      0x00\n      dup1\n      returndatacopy\n      revert(0x00, returndatasize)\n    tag_57:\n      pop\n      pop\n      pop\n      pop\n      mload(0x40)\n      returndatasize\n      not(0x1f)\n      0x1f\n      dup3\n      add\n      and\n      dup3\n      add\n      dup1\n      0x40\n      mstore\n      pop\n      dup2\n      add\n      swap1\n      tag_58\n      swap2\n      swap1\n      tag_59\n      jump\t// in\n    tag_58:\n      pop\n        /* \"contracts/TheDexRouter.sol\":1085:1091  output */\n      dup2\n        /* \"contracts/TheDexRouter.sol\":1078:1101  IERC20(output).transfer */\n      0xffffffffffffffffffffffffffffffffffffffff\n      and\n      0xa9059cbb\n        /* \"contracts/TheDexRouter.sol\":1102:1104  to */\n      dup8\n        /* \"contracts/TheDexRouter.sol\":1106:1113  amounts */\n      dup8\n        /* \"contracts/TheDexRouter.sol\":1118:1119  1 */\n      0x01\n        /* \"contracts/TheDexRouter.sol\":1114:1115  i */\n      dup9\n        /* \"contracts/TheDexRouter.sol\":1114:1119  i + 1 */\n      tag_60\n      swap2\n      swap1\n      tag_36\n      jump\t// in\n    tag_60:\n        /* \"contracts/TheDexRouter.sol\":1106:1120  amounts[i + 1] */\n      dup2\n      mload\n      dup2\n      lt\n      tag_61\n      jumpi\n      tag_62\n      tag_25\n      jump\t// in\n    tag_62:\n    tag_61:\n      0x20\n      mul\n      0x20\n      add\n      add\n      mload\n        /* \"contracts/TheDexRouter.sol\":1078:1121  IERC20(output).transfer(to, amounts[i + 1]) */\n      mload(0x40)\n      dup4\n      0xffffffff\n      and\n      0xe0\n      shl\n      dup2\n      mstore\n      0x04\n      add\n      tag_63\n      swap3\n      swap2\n      swap1\n      tag_64\n      jump\t// in\n    tag_63:\n      0x20\n      mload(0x40)\n      dup1\n      dup4\n      sub\n      dup2\n      0x00\n      dup8\n      gas\n      call\n      iszero\n      dup1\n      iszero\n      tag_66\n      jumpi\n      returndatasize\n      0x00\n      dup1\n      returndatacopy\n      revert(0x00, returndatasize)\n    tag_66:\n      pop\n      pop\n      pop\n      pop\n      mload(0x40)\n      returndatasize\n      not(0x1f)\n      0x1f\n      dup3\n      add\n      and\n      dup3\n      add\n      dup1\n      0x40\n      mstore\n      pop\n      dup2\n      add\n      swap1\n      tag_67\n      swap2\n      swap1\n      tag_68\n      jump\t// in\n    tag_67:\n      pop\n        /* \"contracts/TheDexRouter.sol\":671:1132  {... */\n      pop\n      pop\n      pop\n        /* \"contracts/TheDexRouter.sol\":666:669  i++ */\n      dup1\n      dup1\n      0x01\n      add\n      swap2\n      pop\n      pop\n        /* \"contracts/TheDexRouter.sol\":629:1132  for (uint256 i; i < path.length - 1; i++) {... */\n      jump(tag_26)\n    tag_27:\n      pop\n        /* \"contracts/TheDexRouter.sol\":1181:1193  amountOutMin */\n      dup5\n        /* \"contracts/TheDexRouter.sol\":1150:1157  amounts */\n      dup2\n        /* \"contracts/TheDexRouter.sol\":1175:1176  1 */\n      0x01\n        /* \"contracts/TheDexRouter.sol\":1158:1165  amounts */\n      dup4\n        /* \"contracts/TheDexRouter.sol\":1158:1172  amounts.length */\n      mload\n        /* \"contracts/TheDexRouter.sol\":1158:1176  amounts.length - 1 */\n      tag_69\n      swap2\n      swap1\n      tag_30\n      jump\t// in\n    tag_69:\n        /* \"contracts/TheDexRouter.sol\":1150:1177  amounts[amounts.length - 1] */\n      dup2\n      mload\n      dup2\n      lt\n      tag_70\n      jumpi\n      tag_71\n      tag_25\n      jump\t// in\n    tag_71:\n    tag_70:\n      0x20\n      mul\n      0x20\n      add\n      add\n      mload\n        /* \"contracts/TheDexRouter.sol\":1150:1193  amounts[amounts.length - 1] >= amountOutMin */\n      lt\n      iszero\n        /* \"contracts/TheDexRouter.sol\":1142:1224  require(amounts[amounts.length - 1] >= amountOutMin, \"Insufficient output amount\") */\n      tag_72\n      jumpi\n      mload(0x40)\n      0x08c379a000000000000000000000000000000000000000000000000000000000\n      dup2\n      mstore\n      0x04\n      add\n      tag_73\n      swap1\n      tag_74\n      jump\t// in\n    tag_73:\n      mload(0x40)\n      dup1\n      swap2\n      sub\n      swap1\n      revert\n    tag_72:\n        /* \"contracts/TheDexRouter.sol\":297:1231  function swapExactTokensForTokens(... */\n      swap6\n      swap5\n      pop\n      pop\n      pop\n      pop\n      pop\n      jump\t// out\n        /* \"contracts/TheDexRouter.sol\":197:219  address public factory */\n    tag_12:\n      0x00\n      dup1\n      sload\n      swap1\n      0x0100\n      exp\n      swap1\n      div\n      0xffffffffffffffffffffffffffffffffffffffff\n      and\n      dup2\n      jump\t// out\n        /* \"#utility.yul\":88:205   */\n    tag_76:\n        /* \"#utility.yul\":197:198   */\n      0x00\n        /* \"#utility.yul\":194:195   */\n      dup1\n        /* \"#utility.yul\":187:199   */\n      revert\n        /* \"#utility.yul\":211:328   */\n    tag_77:\n        /* \"#utility.yul\":320:321   */\n      0x00\n        /* \"#utility.yul\":317:318   */\n      dup1\n        /* \"#utility.yul\":310:322   */\n      revert\n        /* \"#utility.yul\":334:411   */\n    tag_78:\n        /* \"#utility.yul\":371:378   */\n      0x00\n        /* \"#utility.yul\":400:405   */\n      dup2\n        /* \"#utility.yul\":389:405   */\n      swap1\n      pop\n        /* \"#utility.yul\":334:411   */\n      swap2\n      swap1\n      pop\n      jump\t// out\n        /* \"#utility.yul\":417:539   */\n    tag_79:\n        /* \"#utility.yul\":490:514   */\n      tag_117\n        /* \"#utility.yul\":508:513   */\n      dup2\n        /* \"#utility.yul\":490:514   */\n      tag_78\n      jump\t// in\n    tag_117:\n        /* \"#utility.yul\":483:488   */\n      dup2\n        /* \"#utility.yul\":480:515   */\n      eq\n        /* \"#utility.yul\":470:533   */\n      tag_118\n      jumpi\n        /* \"#utility.yul\":529:530   */\n      0x00\n        /* \"#utility.yul\":526:527   */\n      dup1\n        /* \"#utility.yul\":519:531   */\n      revert\n        /* \"#utility.yul\":470:533   */\n    tag_118:\n        /* \"#utility.yul\":417:539   */\n      pop\n      jump\t// out\n        /* \"#utility.yul\":545:684   */\n    tag_80:\n        /* \"#utility.yul\":591:596   */\n      0x00\n        /* \"#utility.yul\":629:635   */\n      dup2\n        /* \"#utility.yul\":616:636   */\n      calldataload\n        /* \"#utility.yul\":607:636   */\n      swap1\n      pop\n        /* \"#utility.yul\":645:678   */\n      tag_120\n        /* \"#utility.yul\":672:677   */\n      dup2\n        /* \"#utility.yul\":645:678   */\n      tag_79\n      jump\t// in\n    tag_120:\n        /* \"#utility.yul\":545:684   */\n      swap3\n      swap2\n      pop\n      pop\n      jump\t// out\n        /* \"#utility.yul\":690:807   */\n    tag_81:\n        /* \"#utility.yul\":799:800   */\n      0x00\n        /* \"#utility.yul\":796:797   */\n      dup1\n        /* \"#utility.yul\":789:801   */\n      revert\n        /* \"#utility.yul\":813:930   */\n    tag_82:\n        /* \"#utility.yul\":922:923   */\n      0x00\n        /* \"#utility.yul\":919:920   */\n      dup1\n        /* \"#utility.yul\":912:924   */\n      revert\n        /* \"#utility.yul\":936:1053   */\n    tag_83:\n        /* \"#utility.yul\":1045:1046   */\n      0x00\n        /* \"#utility.yul\":1042:1043   */\n      dup1\n        /* \"#utility.yul\":1035:1047   */\n      revert\n        /* \"#utility.yul\":1076:1644   */\n    tag_84:\n        /* \"#utility.yul\":1149:1157   */\n      0x00\n        /* \"#utility.yul\":1159:1165   */\n      dup1\n        /* \"#utility.yul\":1209:1212   */\n      dup4\n        /* \"#utility.yul\":1202:1206   */\n      0x1f\n        /* \"#utility.yul\":1194:1200   */\n      dup5\n        /* \"#utility.yul\":1190:1207   */\n      add\n        /* \"#utility.yul\":1186:1213   */\n      slt\n        /* \"#utility.yul\":1176:1298   */\n      tag_125\n      jumpi\n        /* \"#utility.yul\":1217:1296   */\n      tag_126\n      tag_81\n      jump\t// in\n    tag_126:\n        /* \"#utility.yul\":1176:1298   */\n    tag_125:\n        /* \"#utility.yul\":1330:1336   */\n      dup3\n        /* \"#utility.yul\":1317:1337   */\n      calldataload\n        /* \"#utility.yul\":1307:1337   */\n      swap1\n      pop\n        /* \"#utility.yul\":1360:1378   */\n      0xffffffffffffffff\n        /* \"#utility.yul\":1352:1358   */\n      dup2\n        /* \"#utility.yul\":1349:1379   */\n      gt\n        /* \"#utility.yul\":1346:1463   */\n      iszero\n      tag_127\n      jumpi\n        /* \"#utility.yul\":1382:1461   */\n      tag_128\n      tag_82\n      jump\t// in\n    tag_128:\n        /* \"#utility.yul\":1346:1463   */\n    tag_127:\n        /* \"#utility.yul\":1496:1500   */\n      0x20\n        /* \"#utility.yul\":1488:1494   */\n      dup4\n        /* \"#utility.yul\":1484:1501   */\n      add\n        /* \"#utility.yul\":1472:1501   */\n      swap2\n      pop\n        /* \"#utility.yul\":1550:1553   */\n      dup4\n        /* \"#utility.yul\":1542:1546   */\n      0x20\n        /* \"#utility.yul\":1534:1540   */\n      dup3\n        /* \"#utility.yul\":1530:1547   */\n      mul\n        /* \"#utility.yul\":1520:1528   */\n      dup4\n        /* \"#utility.yul\":1516:1548   */\n      add\n        /* \"#utility.yul\":1513:1554   */\n      gt\n        /* \"#utility.yul\":1510:1638   */\n      iszero\n      tag_129\n      jumpi\n        /* \"#utility.yul\":1557:1636   */\n      tag_130\n      tag_83\n      jump\t// in\n    tag_130:\n        /* \"#utility.yul\":1510:1638   */\n    tag_129:\n        /* \"#utility.yul\":1076:1644   */\n      swap3\n      pop\n      swap3\n      swap1\n      pop\n      jump\t// out\n        /* \"#utility.yul\":1650:1776   */\n    tag_85:\n        /* \"#utility.yul\":1687:1694   */\n      0x00\n        /* \"#utility.yul\":1727:1769   */\n      0xffffffffffffffffffffffffffffffffffffffff\n        /* \"#utility.yul\":1720:1725   */\n      dup3\n        /* \"#utility.yul\":1716:1770   */\n      and\n        /* \"#utility.yul\":1705:1770   */\n      swap1\n      pop\n        /* \"#utility.yul\":1650:1776   */\n      swap2\n      swap1\n      pop\n      jump\t// out\n        /* \"#utility.yul\":1782:1878   */\n    tag_86:\n        /* \"#utility.yul\":1819:1826   */\n      0x00\n        /* \"#utility.yul\":1848:1872   */\n      tag_133\n        /* \"#utility.yul\":1866:1871   */\n      dup3\n        /* \"#utility.yul\":1848:1872   */\n      tag_85\n      jump\t// in\n    tag_133:\n        /* \"#utility.yul\":1837:1872   */\n      swap1\n      pop\n        /* \"#utility.yul\":1782:1878   */\n      swap2\n      swap1\n      pop\n      jump\t// out\n        /* \"#utility.yul\":1884:2006   */\n    tag_87:\n        /* \"#utility.yul\":1957:1981   */\n      tag_135\n        /* \"#utility.yul\":1975:1980   */\n      dup2\n        /* \"#utility.yul\":1957:1981   */\n      tag_86\n      jump\t// in\n    tag_135:\n        /* \"#utility.yul\":1950:1955   */\n      dup2\n        /* \"#utility.yul\":1947:1982   */\n      eq\n        /* \"#utility.yul\":1937:2000   */\n      tag_136\n      jumpi\n        /* \"#utility.yul\":1996:1997   */\n      0x00\n        /* \"#utility.yul\":1993:1994   */\n      dup1\n        /* \"#utility.yul\":1986:1998   */\n      revert\n        /* \"#utility.yul\":1937:2000   */\n    tag_136:\n        /* \"#utility.yul\":1884:2006   */\n      pop\n      jump\t// out\n        /* \"#utility.yul\":2012:2151   */\n    tag_88:\n        /* \"#utility.yul\":2058:2063   */\n      0x00\n        /* \"#utility.yul\":2096:2102   */\n      dup2\n        /* \"#utility.yul\":2083:2103   */\n      calldataload\n        /* \"#utility.yul\":2074:2103   */\n      swap1\n      pop\n        /* \"#utility.yul\":2112:2145   */\n      tag_138\n        /* \"#utility.yul\":2139:2144   */\n      dup2\n        /* \"#utility.yul\":2112:2145   */\n      tag_87\n      jump\t// in\n    tag_138:\n        /* \"#utility.yul\":2012:2151   */\n      swap3\n      swap2\n      pop\n      pop\n      jump\t// out\n        /* \"#utility.yul\":2157:3152   */\n    tag_7:\n        /* \"#utility.yul\":2270:2276   */\n      0x00\n        /* \"#utility.yul\":2278:2284   */\n      dup1\n        /* \"#utility.yul\":2286:2292   */\n      0x00\n        /* \"#utility.yul\":2294:2300   */\n      dup1\n        /* \"#utility.yul\":2302:2308   */\n      0x00\n        /* \"#utility.yul\":2351:2354   */\n      0x80\n        /* \"#utility.yul\":2339:2348   */\n      dup7\n        /* \"#utility.yul\":2330:2337   */\n      dup9\n        /* \"#utility.yul\":2326:2349   */\n      sub\n        /* \"#utility.yul\":2322:2355   */\n      slt\n        /* \"#utility.yul\":2319:2439   */\n      iszero\n      tag_140\n      jumpi\n        /* \"#utility.yul\":2358:2437   */\n      tag_141\n      tag_76\n      jump\t// in\n    tag_141:\n        /* \"#utility.yul\":2319:2439   */\n    tag_140:\n        /* \"#utility.yul\":2478:2479   */\n      0x00\n        /* \"#utility.yul\":2503:2556   */\n      tag_142\n        /* \"#utility.yul\":2548:2555   */\n      dup9\n        /* \"#utility.yul\":2539:2545   */\n      dup3\n        /* \"#utility.yul\":2528:2537   */\n      dup10\n        /* \"#utility.yul\":2524:2546   */\n      add\n        /* \"#utility.yul\":2503:2556   */\n      tag_80\n      jump\t// in\n    tag_142:\n        /* \"#utility.yul\":2493:2556   */\n      swap6\n      pop\n        /* \"#utility.yul\":2449:2566   */\n      pop\n        /* \"#utility.yul\":2605:2607   */\n      0x20\n        /* \"#utility.yul\":2631:2684   */\n      tag_143\n        /* \"#utility.yul\":2676:2683   */\n      dup9\n        /* \"#utility.yul\":2667:2673   */\n      dup3\n        /* \"#utility.yul\":2656:2665   */\n      dup10\n        /* \"#utility.yul\":2652:2674   */\n      add\n        /* \"#utility.yul\":2631:2684   */\n      tag_80\n      jump\t// in\n    tag_143:\n        /* \"#utility.yul\":2621:2684   */\n      swap5\n      pop\n        /* \"#utility.yul\":2576:2694   */\n      pop\n        /* \"#utility.yul\":2761:2763   */\n      0x40\n        /* \"#utility.yul\":2750:2759   */\n      dup7\n        /* \"#utility.yul\":2746:2764   */\n      add\n        /* \"#utility.yul\":2733:2765   */\n      calldataload\n        /* \"#utility.yul\":2792:2810   */\n      0xffffffffffffffff\n        /* \"#utility.yul\":2784:2790   */\n      dup2\n        /* \"#utility.yul\":2781:2811   */\n      gt\n        /* \"#utility.yul\":2778:2895   */\n      iszero\n      tag_144\n      jumpi\n        /* \"#utility.yul\":2814:2893   */\n      tag_145\n      tag_77\n      jump\t// in\n    tag_145:\n        /* \"#utility.yul\":2778:2895   */\n    tag_144:\n        /* \"#utility.yul\":2927:3007   */\n      tag_146\n        /* \"#utility.yul\":2999:3006   */\n      dup9\n        /* \"#utility.yul\":2990:2996   */\n      dup3\n        /* \"#utility.yul\":2979:2988   */\n      dup10\n        /* \"#utility.yul\":2975:2997   */\n      add\n        /* \"#utility.yul\":2927:3007   */\n      tag_84\n      jump\t// in\n    tag_146:\n        /* \"#utility.yul\":2909:3007   */\n      swap4\n      pop\n      swap4\n      pop\n        /* \"#utility.yul\":2704:3017   */\n      pop\n        /* \"#utility.yul\":3056:3058   */\n      0x60\n        /* \"#utility.yul\":3082:3135   */\n      tag_147\n        /* \"#utility.yul\":3127:3134   */\n      dup9\n        /* \"#utility.yul\":3118:3124   */\n      dup3\n        /* \"#utility.yul\":3107:3116   */\n      dup10\n        /* \"#utility.yul\":3103:3125   */\n      add\n        /* \"#utility.yul\":3082:3135   */\n      tag_88\n      jump\t// in\n    tag_147:\n        /* \"#utility.yul\":3072:3135   */\n      swap2\n      pop\n        /* \"#utility.yul\":3027:3145   */\n      pop\n        /* \"#utility.yul\":2157:3152   */\n      swap3\n      swap6\n      pop\n      swap3\n      swap6\n      swap1\n      swap4\n      pop\n      jump\t// out\n        /* \"#utility.yul\":3158:3272   */\n    tag_89:\n        /* \"#utility.yul\":3225:3231   */\n      0x00\n        /* \"#utility.yul\":3259:3264   */\n      dup2\n        /* \"#utility.yul\":3253:3265   */\n      mload\n        /* \"#utility.yul\":3243:3265   */\n      swap1\n      pop\n        /* \"#utility.yul\":3158:3272   */\n      swap2\n      swap1\n      pop\n      jump\t// out\n        /* \"#utility.yul\":3278:3462   */\n    tag_90:\n        /* \"#utility.yul\":3377:3388   */\n      0x00\n        /* \"#utility.yul\":3411:3417   */\n      dup3\n        /* \"#utility.yul\":3406:3409   */\n      dup3\n        /* \"#utility.yul\":3399:3418   */\n      mstore\n        /* \"#utility.yul\":3451:3455   */\n      0x20\n        /* \"#utility.yul\":3446:3449   */\n      dup3\n        /* \"#utility.yul\":3442:3456   */\n      add\n        /* \"#utility.yul\":3427:3456   */\n      swap1\n      pop\n        /* \"#utility.yul\":3278:3462   */\n      swap3\n      swap2\n      pop\n      pop\n      jump\t// out\n        /* \"#utility.yul\":3468:3600   */\n    tag_91:\n        /* \"#utility.yul\":3535:3539   */\n      0x00\n        /* \"#utility.yul\":3558:3561   */\n      dup2\n        /* \"#utility.yul\":3550:3561   */\n      swap1\n      pop\n        /* \"#utility.yul\":3588:3592   */\n      0x20\n        /* \"#utility.yul\":3583:3586   */\n      dup3\n        /* \"#utility.yul\":3579:3593   */\n      add\n        /* \"#utility.yul\":3571:3593   */\n      swap1\n      pop\n        /* \"#utility.yul\":3468:3600   */\n      swap2\n      swap1\n      pop\n      jump\t// out\n        /* \"#utility.yul\":3606:3714   */\n    tag_92:\n        /* \"#utility.yul\":3683:3707   */\n      tag_152\n        /* \"#utility.yul\":3701:3706   */\n      dup2\n        /* \"#utility.yul\":3683:3707   */\n      tag_78\n      jump\t// in\n    tag_152:\n        /* \"#utility.yul\":3678:3681   */\n      dup3\n        /* \"#utility.yul\":3671:3708   */\n      mstore\n        /* \"#utility.yul\":3606:3714   */\n      pop\n      pop\n      jump\t// out\n        /* \"#utility.yul\":3720:3899   */\n    tag_93:\n        /* \"#utility.yul\":3789:3799   */\n      0x00\n        /* \"#utility.yul\":3810:3856   */\n      tag_154\n        /* \"#utility.yul\":3852:3855   */\n      dup4\n        /* \"#utility.yul\":3844:3850   */\n      dup4\n        /* \"#utility.yul\":3810:3856   */\n      tag_92\n      jump\t// in\n    tag_154:\n        /* \"#utility.yul\":3888:3892   */\n      0x20\n        /* \"#utility.yul\":3883:3886   */\n      dup4\n        /* \"#utility.yul\":3879:3893   */\n      add\n        /* \"#utility.yul\":3865:3893   */\n      swap1\n      pop\n        /* \"#utility.yul\":3720:3899   */\n      swap3\n      swap2\n      pop\n      pop\n      jump\t// out\n        /* \"#utility.yul\":3905:4018   */\n    tag_94:\n        /* \"#utility.yul\":3975:3979   */\n      0x00\n        /* \"#utility.yul\":4007:4011   */\n      0x20\n        /* \"#utility.yul\":4002:4005   */\n      dup3\n        /* \"#utility.yul\":3998:4012   */\n      add\n        /* \"#utility.yul\":3990:4012   */\n      swap1\n      pop\n        /* \"#utility.yul\":3905:4018   */\n      swap2\n      swap1\n      pop\n      jump\t// out\n        /* \"#utility.yul\":4054:4786   */\n    tag_95:\n        /* \"#utility.yul\":4173:4176   */\n      0x00\n        /* \"#utility.yul\":4202:4256   */\n      tag_157\n        /* \"#utility.yul\":4250:4255   */\n      dup3\n        /* \"#utility.yul\":4202:4256   */\n      tag_89\n      jump\t// in\n    tag_157:\n        /* \"#utility.yul\":4272:4358   */\n      tag_158\n        /* \"#utility.yul\":4351:4357   */\n      dup2\n        /* \"#utility.yul\":4346:4349   */\n      dup6\n        /* \"#utility.yul\":4272:4358   */\n      tag_90\n      jump\t// in\n    tag_158:\n        /* \"#utility.yul\":4265:4358   */\n      swap4\n      pop\n        /* \"#utility.yul\":4382:4438   */\n      tag_159\n        /* \"#utility.yul\":4432:4437   */\n      dup4\n        /* \"#utility.yul\":4382:4438   */\n      tag_91\n      jump\t// in\n    tag_159:\n        /* \"#utility.yul\":4461:4468   */\n      dup1\n        /* \"#utility.yul\":4492:4493   */\n      0x00\n        /* \"#utility.yul\":4477:4761   */\n    tag_160:\n        /* \"#utility.yul\":4502:4508   */\n      dup4\n        /* \"#utility.yul\":4499:4500   */\n      dup2\n        /* \"#utility.yul\":4496:4509   */\n      lt\n        /* \"#utility.yul\":4477:4761   */\n      iszero\n      tag_162\n      jumpi\n        /* \"#utility.yul\":4578:4584   */\n      dup2\n        /* \"#utility.yul\":4572:4585   */\n      mload\n        /* \"#utility.yul\":4605:4668   */\n      tag_163\n        /* \"#utility.yul\":4664:4667   */\n      dup9\n        /* \"#utility.yul\":4649:4662   */\n      dup3\n        /* \"#utility.yul\":4605:4668   */\n      tag_93\n      jump\t// in\n    tag_163:\n        /* \"#utility.yul\":4598:4668   */\n      swap8\n      pop\n        /* \"#utility.yul\":4691:4751   */\n      tag_164\n        /* \"#utility.yul\":4744:4750   */\n      dup4\n        /* \"#utility.yul\":4691:4751   */\n      tag_94\n      jump\t// in\n    tag_164:\n        /* \"#utility.yul\":4681:4751   */\n      swap3\n      pop\n        /* \"#utility.yul\":4537:4761   */\n      pop\n        /* \"#utility.yul\":4524:4525   */\n      0x01\n        /* \"#utility.yul\":4521:4522   */\n      dup2\n        /* \"#utility.yul\":4517:4526   */\n      add\n        /* \"#utility.yul\":4512:4526   */\n      swap1\n      pop\n        /* \"#utility.yul\":4477:4761   */\n      jump(tag_160)\n    tag_162:\n        /* \"#utility.yul\":4481:4495   */\n      pop\n        /* \"#utility.yul\":4777:4780   */\n      dup6\n        /* \"#utility.yul\":4770:4780   */\n      swap4\n      pop\n        /* \"#utility.yul\":4178:4786   */\n      pop\n      pop\n      pop\n        /* \"#utility.yul\":4054:4786   */\n      swap3\n      swap2\n      pop\n      pop\n      jump\t// out\n        /* \"#utility.yul\":4792:5165   */\n    tag_10:\n        /* \"#utility.yul\":4935:4939   */\n      0x00\n        /* \"#utility.yul\":4973:4975   */\n      0x20\n        /* \"#utility.yul\":4962:4971   */\n      dup3\n        /* \"#utility.yul\":4958:4976   */\n      add\n        /* \"#utility.yul\":4950:4976   */\n      swap1\n      pop\n        /* \"#utility.yul\":5022:5031   */\n      dup2\n        /* \"#utility.yul\":5016:5020   */\n      dup2\n        /* \"#utility.yul\":5012:5032   */\n      sub\n        /* \"#utility.yul\":5008:5009   */\n      0x00\n        /* \"#utility.yul\":4997:5006   */\n      dup4\n        /* \"#utility.yul\":4993:5010   */\n      add\n        /* \"#utility.yul\":4986:5033   */\n      mstore\n        /* \"#utility.yul\":5050:5158   */\n      tag_166\n        /* \"#utility.yul\":5153:5157   */\n      dup2\n        /* \"#utility.yul\":5144:5150   */\n      dup5\n        /* \"#utility.yul\":5050:5158   */\n      tag_95\n      jump\t// in\n    tag_166:\n        /* \"#utility.yul\":5042:5158   */\n      swap1\n      pop\n        /* \"#utility.yul\":4792:5165   */\n      swap3\n      swap2\n      pop\n      pop\n      jump\t// out\n        /* \"#utility.yul\":5171:5289   */\n    tag_96:\n        /* \"#utility.yul\":5258:5282   */\n      tag_168\n        /* \"#utility.yul\":5276:5281   */\n      dup2\n        /* \"#utility.yul\":5258:5282   */\n      tag_86\n      jump\t// in\n    tag_168:\n        /* \"#utility.yul\":5253:5256   */\n      dup3\n        /* \"#utility.yul\":5246:5283   */\n      mstore\n        /* \"#utility.yul\":5171:5289   */\n      pop\n      pop\n      jump\t// out\n        /* \"#utility.yul\":5295:5517   */\n    tag_14:\n        /* \"#utility.yul\":5388:5392   */\n      0x00\n        /* \"#utility.yul\":5426:5428   */\n      0x20\n        /* \"#utility.yul\":5415:5424   */\n      dup3\n        /* \"#utility.yul\":5411:5429   */\n      add\n        /* \"#utility.yul\":5403:5429   */\n      swap1\n      pop\n        /* \"#utility.yul\":5439:5510   */\n      tag_170\n        /* \"#utility.yul\":5507:5508   */\n      0x00\n        /* \"#utility.yul\":5496:5505   */\n      dup4\n        /* \"#utility.yul\":5492:5509   */\n      add\n        /* \"#utility.yul\":5483:5489   */\n      dup5\n        /* \"#utility.yul\":5439:5510   */\n      tag_96\n      jump\t// in\n    tag_170:\n        /* \"#utility.yul\":5295:5517   */\n      swap3\n      swap2\n      pop\n      pop\n      jump\t// out\n        /* \"#utility.yul\":5523:5692   */\n    tag_97:\n        /* \"#utility.yul\":5607:5618   */\n      0x00\n        /* \"#utility.yul\":5641:5647   */\n      dup3\n        /* \"#utility.yul\":5636:5639   */\n      dup3\n        /* \"#utility.yul\":5629:5648   */\n      mstore\n        /* \"#utility.yul\":5681:5685   */\n      0x20\n        /* \"#utility.yul\":5676:5679   */\n      dup3\n        /* \"#utility.yul\":5672:5686   */\n      add\n        /* \"#utility.yul\":5657:5686   */\n      swap1\n      pop\n        /* \"#utility.yul\":5523:5692   */\n      swap3\n      swap2\n      pop\n      pop\n      jump\t// out\n        /* \"#utility.yul\":5698:5860   */\n    tag_98:\n        /* \"#utility.yul\":5838:5852   */\n      0x496e76616c696420706174680000000000000000000000000000000000000000\n        /* \"#utility.yul\":5834:5835   */\n      0x00\n        /* \"#utility.yul\":5826:5832   */\n      dup3\n        /* \"#utility.yul\":5822:5836   */\n      add\n        /* \"#utility.yul\":5815:5853   */\n      mstore\n        /* \"#utility.yul\":5698:5860   */\n      pop\n      jump\t// out\n        /* \"#utility.yul\":5866:6232   */\n    tag_99:\n        /* \"#utility.yul\":6008:6011   */\n      0x00\n        /* \"#utility.yul\":6029:6096   */\n      tag_174\n        /* \"#utility.yul\":6093:6095   */\n      0x0c\n        /* \"#utility.yul\":6088:6091   */\n      dup4\n        /* \"#utility.yul\":6029:6096   */\n      tag_97\n      jump\t// in\n    tag_174:\n        /* \"#utility.yul\":6022:6096   */\n      swap2\n      pop\n        /* \"#utility.yul\":6105:6198   */\n      tag_175\n        /* \"#utility.yul\":6194:6197   */\n      dup3\n        /* \"#utility.yul\":6105:6198   */\n      tag_98\n      jump\t// in\n    tag_175:\n        /* \"#utility.yul\":6223:6225   */\n      0x20\n        /* \"#utility.yul\":6218:6221   */\n      dup3\n        /* \"#utility.yul\":6214:6226   */\n      add\n        /* \"#utility.yul\":6207:6226   */\n      swap1\n      pop\n        /* \"#utility.yul\":5866:6232   */\n      swap2\n      swap1\n      pop\n      jump\t// out\n        /* \"#utility.yul\":6238:6657   */\n    tag_18:\n        /* \"#utility.yul\":6404:6408   */\n      0x00\n        /* \"#utility.yul\":6442:6444   */\n      0x20\n        /* \"#utility.yul\":6431:6440   */\n      dup3\n        /* \"#utility.yul\":6427:6445   */\n      add\n        /* \"#utility.yul\":6419:6445   */\n      swap1\n      pop\n        /* \"#utility.yul\":6491:6500   */\n      dup2\n        /* \"#utility.yul\":6485:6489   */\n      dup2\n        /* \"#utility.yul\":6481:6501   */\n      sub\n        /* \"#utility.yul\":6477:6478   */\n      0x00\n        /* \"#utility.yul\":6466:6475   */\n      dup4\n        /* \"#utility.yul\":6462:6479   */\n      add\n        /* \"#utility.yul\":6455:6502   */\n      mstore\n        /* \"#utility.yul\":6519:6650   */\n      tag_177\n        /* \"#utility.yul\":6645:6649   */\n      dup2\n        /* \"#utility.yul\":6519:6650   */\n      tag_99\n      jump\t// in\n    tag_177:\n        /* \"#utility.yul\":6511:6650   */\n      swap1\n      pop\n        /* \"#utility.yul\":6238:6657   */\n      swap2\n      swap1\n      pop\n      jump\t// out\n        /* \"#utility.yul\":6663:6843   */\n    tag_21:\n        /* \"#utility.yul\":6711:6788   */\n      0x4e487b7100000000000000000000000000000000000000000000000000000000\n        /* \"#utility.yul\":6708:6709   */\n      0x00\n        /* \"#utility.yul\":6701:6789   */\n      mstore\n        /* \"#utility.yul\":6808:6812   */\n      0x41\n        /* \"#utility.yul\":6805:6806   */\n      0x04\n        /* \"#utility.yul\":6798:6813   */\n      mstore\n        /* \"#utility.yul\":6832:6836   */\n      0x24\n        /* \"#utility.yul\":6829:6830   */\n      0x00\n        /* \"#utility.yul\":6822:6837   */\n      revert\n        /* \"#utility.yul\":6849:7029   */\n    tag_25:\n        /* \"#utility.yul\":6897:6974   */\n      0x4e487b7100000000000000000000000000000000000000000000000000000000\n        /* \"#utility.yul\":6894:6895   */\n      0x00\n        /* \"#utility.yul\":6887:6975   */\n      mstore\n        /* \"#utility.yul\":6994:6998   */\n      0x32\n        /* \"#utility.yul\":6991:6992   */\n      0x04\n        /* \"#utility.yul\":6984:6999   */\n      mstore\n        /* \"#utility.yul\":7018:7022   */\n      0x24\n        /* \"#utility.yul\":7015:7016   */\n      0x00\n        /* \"#utility.yul\":7008:7023   */\n      revert\n        /* \"#utility.yul\":7035:7215   */\n    tag_100:\n        /* \"#utility.yul\":7083:7160   */\n      0x4e487b7100000000000000000000000000000000000000000000000000000000\n        /* \"#utility.yul\":7080:7081   */\n      0x00\n        /* \"#utility.yul\":7073:7161   */\n      mstore\n        /* \"#utility.yul\":7180:7184   */\n      0x11\n        /* \"#utility.yul\":7177:7178   */\n      0x04\n        /* \"#utility.yul\":7170:7185   */\n      mstore\n        /* \"#utility.yul\":7204:7208   */\n      0x24\n        /* \"#utility.yul\":7201:7202   */\n      0x00\n        /* \"#utility.yul\":7194:7209   */\n      revert\n        /* \"#utility.yul\":7221:7415   */\n    tag_30:\n        /* \"#utility.yul\":7261:7265   */\n      0x00\n        /* \"#utility.yul\":7281:7301   */\n      tag_182\n        /* \"#utility.yul\":7299:7300   */\n      dup3\n        /* \"#utility.yul\":7281:7301   */\n      tag_78\n      jump\t// in\n    tag_182:\n        /* \"#utility.yul\":7276:7301   */\n      swap2\n      pop\n        /* \"#utility.yul\":7315:7335   */\n      tag_183\n        /* \"#utility.yul\":7333:7334   */\n      dup4\n        /* \"#utility.yul\":7315:7335   */\n      tag_78\n      jump\t// in\n    tag_183:\n        /* \"#utility.yul\":7310:7335   */\n      swap3\n      pop\n        /* \"#utility.yul\":7359:7360   */\n      dup3\n        /* \"#utility.yul\":7356:7357   */\n      dup3\n        /* \"#utility.yul\":7352:7361   */\n      sub\n        /* \"#utility.yul\":7344:7361   */\n      swap1\n      pop\n        /* \"#utility.yul\":7383:7384   */\n      dup2\n        /* \"#utility.yul\":7377:7381   */\n      dup2\n        /* \"#utility.yul\":7374:7385   */\n      gt\n        /* \"#utility.yul\":7371:7408   */\n      iszero\n      tag_184\n      jumpi\n        /* \"#utility.yul\":7388:7406   */\n      tag_185\n      tag_100\n      jump\t// in\n    tag_185:\n        /* \"#utility.yul\":7371:7408   */\n    tag_184:\n        /* \"#utility.yul\":7221:7415   */\n      swap3\n      swap2\n      pop\n      pop\n      jump\t// out\n        /* \"#utility.yul\":7421:7750   */\n    tag_34:\n        /* \"#utility.yul\":7480:7486   */\n      0x00\n        /* \"#utility.yul\":7529:7531   */\n      0x20\n        /* \"#utility.yul\":7517:7526   */\n      dup3\n        /* \"#utility.yul\":7508:7515   */\n      dup5\n        /* \"#utility.yul\":7504:7527   */\n      sub\n        /* \"#utility.yul\":7500:7532   */\n      slt\n        /* \"#utility.yul\":7497:7616   */\n      iszero\n      tag_187\n      jumpi\n        /* \"#utility.yul\":7535:7614   */\n      tag_188\n      tag_76\n      jump\t// in\n    tag_188:\n        /* \"#utility.yul\":7497:7616   */\n    tag_187:\n        /* \"#utility.yul\":7655:7656   */\n      0x00\n        /* \"#utility.yul\":7680:7733   */\n      tag_189\n        /* \"#utility.yul\":7725:7732   */\n      dup5\n        /* \"#utility.yul\":7716:7722   */\n      dup3\n        /* \"#utility.yul\":7705:7714   */\n      dup6\n        /* \"#utility.yul\":7701:7723   */\n      add\n        /* \"#utility.yul\":7680:7733   */\n      tag_88\n      jump\t// in\n    tag_189:\n        /* \"#utility.yul\":7670:7733   */\n      swap2\n      pop\n        /* \"#utility.yul\":7626:7743   */\n      pop\n        /* \"#utility.yul\":7421:7750   */\n      swap3\n      swap2\n      pop\n      pop\n      jump\t// out\n        /* \"#utility.yul\":7756:7947   */\n    tag_36:\n        /* \"#utility.yul\":7796:7799   */\n      0x00\n        /* \"#utility.yul\":7815:7835   */\n      tag_191\n        /* \"#utility.yul\":7833:7834   */\n      dup3\n        /* \"#utility.yul\":7815:7835   */\n      tag_78\n      jump\t// in\n    tag_191:\n        /* \"#utility.yul\":7810:7835   */\n      swap2\n      pop\n        /* \"#utility.yul\":7849:7869   */\n      tag_192\n        /* \"#utility.yul\":7867:7868   */\n      dup4\n        /* \"#utility.yul\":7849:7869   */\n      tag_78\n      jump\t// in\n    tag_192:\n        /* \"#utility.yul\":7844:7869   */\n      swap3\n      pop\n        /* \"#utility.yul\":7892:7893   */\n      dup3\n        /* \"#utility.yul\":7889:7890   */\n      dup3\n        /* \"#utility.yul\":7885:7894   */\n      add\n        /* \"#utility.yul\":7878:7894   */\n      swap1\n      pop\n        /* \"#utility.yul\":7913:7916   */\n      dup1\n        /* \"#utility.yul\":7910:7911   */\n      dup3\n        /* \"#utility.yul\":7907:7917   */\n      gt\n        /* \"#utility.yul\":7904:7940   */\n      iszero\n      tag_193\n      jumpi\n        /* \"#utility.yul\":7920:7938   */\n      tag_194\n      tag_100\n      jump\t// in\n    tag_194:\n        /* \"#utility.yul\":7904:7940   */\n    tag_193:\n        /* \"#utility.yul\":7756:7947   */\n      swap3\n      swap2\n      pop\n      pop\n      jump\t// out\n        /* \"#utility.yul\":7953:8285   */\n    tag_41:\n        /* \"#utility.yul\":8074:8078   */\n      0x00\n        /* \"#utility.yul\":8112:8114   */\n      0x40\n        /* \"#utility.yul\":8101:8110   */\n      dup3\n        /* \"#utility.yul\":8097:8115   */\n      add\n        /* \"#utility.yul\":8089:8115   */\n      swap1\n      pop\n        /* \"#utility.yul\":8125:8196   */\n      tag_196\n        /* \"#utility.yul\":8193:8194   */\n      0x00\n        /* \"#utility.yul\":8182:8191   */\n      dup4\n        /* \"#utility.yul\":8178:8195   */\n      add\n        /* \"#utility.yul\":8169:8175   */\n      dup6\n        /* \"#utility.yul\":8125:8196   */\n      tag_96\n      jump\t// in\n    tag_196:\n        /* \"#utility.yul\":8206:8278   */\n      tag_197\n        /* \"#utility.yul\":8274:8276   */\n      0x20\n        /* \"#utility.yul\":8263:8272   */\n      dup4\n        /* \"#utility.yul\":8259:8277   */\n      add\n        /* \"#utility.yul\":8250:8256   */\n      dup5\n        /* \"#utility.yul\":8206:8278   */\n      tag_96\n      jump\t// in\n    tag_197:\n        /* \"#utility.yul\":7953:8285   */\n      swap4\n      swap3\n      pop\n      pop\n      pop\n      jump\t// out\n        /* \"#utility.yul\":8291:8434   */\n    tag_101:\n        /* \"#utility.yul\":8348:8353   */\n      0x00\n        /* \"#utility.yul\":8379:8385   */\n      dup2\n        /* \"#utility.yul\":8373:8386   */\n      mload\n        /* \"#utility.yul\":8364:8386   */\n      swap1\n      pop\n        /* \"#utility.yul\":8395:8428   */\n      tag_199\n        /* \"#utility.yul\":8422:8427   */\n      dup2\n        /* \"#utility.yul\":8395:8428   */\n      tag_87\n      jump\t// in\n    tag_199:\n        /* \"#utility.yul\":8291:8434   */\n      swap3\n      swap2\n      pop\n      pop\n      jump\t// out\n        /* \"#utility.yul\":8440:8791   */\n    tag_45:\n        /* \"#utility.yul\":8510:8516   */\n      0x00\n        /* \"#utility.yul\":8559:8561   */\n      0x20\n        /* \"#utility.yul\":8547:8556   */\n      dup3\n        /* \"#utility.yul\":8538:8545   */\n      dup5\n        /* \"#utility.yul\":8534:8557   */\n      sub\n        /* \"#utility.yul\":8530:8562   */\n      slt\n        /* \"#utility.yul\":8527:8646   */\n      iszero\n      tag_201\n      jumpi\n        /* \"#utility.yul\":8565:8644   */\n      tag_202\n      tag_76\n      jump\t// in\n    tag_202:\n        /* \"#utility.yul\":8527:8646   */\n    tag_201:\n        /* \"#utility.yul\":8685:8686   */\n      0x00\n        /* \"#utility.yul\":8710:8774   */\n      tag_203\n        /* \"#utility.yul\":8766:8773   */\n      dup5\n        /* \"#utility.yul\":8757:8763   */\n      dup3\n        /* \"#utility.yul\":8746:8755   */\n      dup6\n        /* \"#utility.yul\":8742:8764   */\n      add\n        /* \"#utility.yul\":8710:8774   */\n      tag_101\n      jump\t// in\n    tag_203:\n        /* \"#utility.yul\":8700:8774   */\n      swap2\n      pop\n        /* \"#utility.yul\":8656:8784   */\n      pop\n        /* \"#utility.yul\":8440:8791   */\n      swap3\n      swap2\n      pop\n      pop\n      jump\t// out\n        /* \"#utility.yul\":8797:8966   */\n    tag_102:\n        /* \"#utility.yul\":8937:8958   */\n      0x506f6f6c20646f6573206e6f7420657869737400000000000000000000000000\n        /* \"#utility.yul\":8933:8934   */\n      0x00\n        /* \"#utility.yul\":8925:8931   */\n      dup3\n        /* \"#utility.yul\":8921:8935   */\n      add\n        /* \"#utility.yul\":8914:8959   */\n      mstore\n        /* \"#utility.yul\":8797:8966   */\n      pop\n      jump\t// out\n        /* \"#utility.yul\":8972:9338   */\n    tag_103:\n        /* \"#utility.yul\":9114:9117   */\n      0x00\n        /* \"#utility.yul\":9135:9202   */\n      tag_206\n        /* \"#utility.yul\":9199:9201   */\n      0x13\n        /* \"#utility.yul\":9194:9197   */\n      dup4\n        /* \"#utility.yul\":9135:9202   */\n      tag_97\n      jump\t// in\n    tag_206:\n        /* \"#utility.yul\":9128:9202   */\n      swap2\n      pop\n        /* \"#utility.yul\":9211:9304   */\n      tag_207\n        /* \"#utility.yul\":9300:9303   */\n      dup3\n        /* \"#utility.yul\":9211:9304   */\n      tag_102\n      jump\t// in\n    tag_207:\n        /* \"#utility.yul\":9329:9331   */\n      0x20\n        /* \"#utility.yul\":9324:9327   */\n      dup3\n        /* \"#utility.yul\":9320:9332   */\n      add\n        /* \"#utility.yul\":9313:9332   */\n      swap1\n      pop\n        /* \"#utility.yul\":8972:9338   */\n      swap2\n      swap1\n      pop\n      jump\t// out\n        /* \"#utility.yul\":9344:9763   */\n    tag_48:\n        /* \"#utility.yul\":9510:9514   */\n      0x00\n        /* \"#utility.yul\":9548:9550   */\n      0x20\n        /* \"#utility.yul\":9537:9546   */\n      dup3\n        /* \"#utility.yul\":9533:9551   */\n      add\n        /* \"#utility.yul\":9525:9551   */\n      swap1\n      pop\n        /* \"#utility.yul\":9597:9606   */\n      dup2\n        /* \"#utility.yul\":9591:9595   */\n      dup2\n        /* \"#utility.yul\":9587:9607   */\n      sub\n        /* \"#utility.yul\":9583:9584   */\n      0x00\n        /* \"#utility.yul\":9572:9581   */\n      dup4\n        /* \"#utility.yul\":9568:9585   */\n      add\n        /* \"#utility.yul\":9561:9608   */\n      mstore\n        /* \"#utility.yul\":9625:9756   */\n      tag_209\n        /* \"#utility.yul\":9751:9755   */\n      dup2\n        /* \"#utility.yul\":9625:9756   */\n      tag_103\n      jump\t// in\n    tag_209:\n        /* \"#utility.yul\":9617:9756   */\n      swap1\n      pop\n        /* \"#utility.yul\":9344:9763   */\n      swap2\n      swap1\n      pop\n      jump\t// out\n        /* \"#utility.yul\":9769:9887   */\n    tag_104:\n        /* \"#utility.yul\":9856:9880   */\n      tag_211\n        /* \"#utility.yul\":9874:9879   */\n      dup2\n        /* \"#utility.yul\":9856:9880   */\n      tag_78\n      jump\t// in\n    tag_211:\n        /* \"#utility.yul\":9851:9854   */\n      dup3\n        /* \"#utility.yul\":9844:9881   */\n      mstore\n        /* \"#utility.yul\":9769:9887   */\n      pop\n      pop\n      jump\t// out\n        /* \"#utility.yul\":9893:10446   */\n    tag_55:\n        /* \"#utility.yul\":10070:10074   */\n      0x00\n        /* \"#utility.yul\":10108:10111   */\n      0x80\n        /* \"#utility.yul\":10097:10106   */\n      dup3\n        /* \"#utility.yul\":10093:10112   */\n      add\n        /* \"#utility.yul\":10085:10112   */\n      swap1\n      pop\n        /* \"#utility.yul\":10122:10193   */\n      tag_213\n        /* \"#utility.yul\":10190:10191   */\n      0x00\n        /* \"#utility.yul\":10179:10188   */\n      dup4\n        /* \"#utility.yul\":10175:10192   */\n      add\n        /* \"#utility.yul\":10166:10172   */\n      dup8\n        /* \"#utility.yul\":10122:10193   */\n      tag_96\n      jump\t// in\n    tag_213:\n        /* \"#utility.yul\":10203:10275   */\n      tag_214\n        /* \"#utility.yul\":10271:10273   */\n      0x20\n        /* \"#utility.yul\":10260:10269   */\n      dup4\n        /* \"#utility.yul\":10256:10274   */\n      add\n        /* \"#utility.yul\":10247:10253   */\n      dup7\n        /* \"#utility.yul\":10203:10275   */\n      tag_96\n      jump\t// in\n    tag_214:\n        /* \"#utility.yul\":10285:10357   */\n      tag_215\n        /* \"#utility.yul\":10353:10355   */\n      0x40\n        /* \"#utility.yul\":10342:10351   */\n      dup4\n        /* \"#utility.yul\":10338:10356   */\n      add\n        /* \"#utility.yul\":10329:10335   */\n      dup6\n        /* \"#utility.yul\":10285:10357   */\n      tag_104\n      jump\t// in\n    tag_215:\n        /* \"#utility.yul\":10367:10439   */\n      tag_216\n        /* \"#utility.yul\":10435:10437   */\n      0x60\n        /* \"#utility.yul\":10424:10433   */\n      dup4\n        /* \"#utility.yul\":10420:10438   */\n      add\n        /* \"#utility.yul\":10411:10417   */\n      dup5\n        /* \"#utility.yul\":10367:10439   */\n      tag_104\n      jump\t// in\n    tag_216:\n        /* \"#utility.yul\":9893:10446   */\n      swap6\n      swap5\n      pop\n      pop\n      pop\n      pop\n      pop\n      jump\t// out\n        /* \"#utility.yul\":10452:10595   */\n    tag_105:\n        /* \"#utility.yul\":10509:10514   */\n      0x00\n        /* \"#utility.yul\":10540:10546   */\n      dup2\n        /* \"#utility.yul\":10534:10547   */\n      mload\n        /* \"#utility.yul\":10525:10547   */\n      swap1\n      pop\n        /* \"#utility.yul\":10556:10589   */\n      tag_218\n        /* \"#utility.yul\":10583:10588   */\n      dup2\n        /* \"#utility.yul\":10556:10589   */\n      tag_79\n      jump\t// in\n    tag_218:\n        /* \"#utility.yul\":10452:10595   */\n      swap3\n      swap2\n      pop\n      pop\n      jump\t// out\n        /* \"#utility.yul\":10601:10952   */\n    tag_59:\n        /* \"#utility.yul\":10671:10677   */\n      0x00\n        /* \"#utility.yul\":10720:10722   */\n      0x20\n        /* \"#utility.yul\":10708:10717   */\n      dup3\n        /* \"#utility.yul\":10699:10706   */\n      dup5\n        /* \"#utility.yul\":10695:10718   */\n      sub\n        /* \"#utility.yul\":10691:10723   */\n      slt\n        /* \"#utility.yul\":10688:10807   */\n      iszero\n      tag_220\n      jumpi\n        /* \"#utility.yul\":10726:10805   */\n      tag_221\n      tag_76\n      jump\t// in\n    tag_221:\n        /* \"#utility.yul\":10688:10807   */\n    tag_220:\n        /* \"#utility.yul\":10846:10847   */\n      0x00\n        /* \"#utility.yul\":10871:10935   */\n      tag_222\n        /* \"#utility.yul\":10927:10934   */\n      dup5\n        /* \"#utility.yul\":10918:10924   */\n      dup3\n        /* \"#utility.yul\":10907:10916   */\n      dup6\n        /* \"#utility.yul\":10903:10925   */\n      add\n        /* \"#utility.yul\":10871:10935   */\n      tag_105\n      jump\t// in\n    tag_222:\n        /* \"#utility.yul\":10861:10935   */\n      swap2\n      pop\n        /* \"#utility.yul\":10817:10945   */\n      pop\n        /* \"#utility.yul\":10601:10952   */\n      swap3\n      swap2\n      pop\n      pop\n      jump\t// out\n        /* \"#utility.yul\":10958:11290   */\n    tag_64:\n        /* \"#utility.yul\":11079:11083   */\n      0x00\n        /* \"#utility.yul\":11117:11119   */\n      0x40\n        /* \"#utility.yul\":11106:11115   */\n      dup3\n        /* \"#utility.yul\":11102:11120   */\n      add\n        /* \"#utility.yul\":11094:11120   */\n      swap1\n      pop\n        /* \"#utility.yul\":11130:11201   */\n      tag_224\n        /* \"#utility.yul\":11198:11199   */\n      0x00\n        /* \"#utility.yul\":11187:11196   */\n      dup4\n        /* \"#utility.yul\":11183:11200   */\n      add\n        /* \"#utility.yul\":11174:11180   */\n      dup6\n        /* \"#utility.yul\":11130:11201   */\n      tag_96\n      jump\t// in\n    tag_224:\n        /* \"#utility.yul\":11211:11283   */\n      tag_225\n        /* \"#utility.yul\":11279:11281   */\n      0x20\n        /* \"#utility.yul\":11268:11277   */\n      dup4\n        /* \"#utility.yul\":11264:11282   */\n      add\n        /* \"#utility.yul\":11255:11261   */\n      dup5\n        /* \"#utility.yul\":11211:11283   */\n      tag_104\n      jump\t// in\n    tag_225:\n        /* \"#utility.yul\":10958:11290   */\n      swap4\n      swap3\n      pop\n      pop\n      pop\n      jump\t// out\n        /* \"#utility.yul\":11296:11386   */\n    tag_106:\n        /* \"#utility.yul\":11330:11337   */\n      0x00\n        /* \"#utility.yul\":11373:11378   */\n      dup2\n        /* \"#utility.yul\":11366:11379   */\n      iszero\n        /* \"#utility.yul\":11359:11380   */\n      iszero\n        /* \"#utility.yul\":11348:11380   */\n      swap1\n      pop\n        /* \"#utility.yul\":11296:11386   */\n      swap2\n      swap1\n      pop\n      jump\t// out\n        /* \"#utility.yul\":11392:11508   */\n    tag_107:\n        /* \"#utility.yul\":11462:11483   */\n      tag_228\n        /* \"#utility.yul\":11477:11482   */\n      dup2\n        /* \"#utility.yul\":11462:11483   */\n      tag_106\n      jump\t// in\n    tag_228:\n        /* \"#utility.yul\":11455:11460   */\n      dup2\n        /* \"#utility.yul\":11452:11484   */\n      eq\n        /* \"#utility.yul\":11442:11502   */\n      tag_229\n      jumpi\n        /* \"#utility.yul\":11498:11499   */\n      0x00\n        /* \"#utility.yul\":11495:11496   */\n      dup1\n        /* \"#utility.yul\":11488:11500   */\n      revert\n        /* \"#utility.yul\":11442:11502   */\n    tag_229:\n        /* \"#utility.yul\":11392:11508   */\n      pop\n      jump\t// out\n        /* \"#utility.yul\":11514:11651   */\n    tag_108:\n        /* \"#utility.yul\":11568:11573   */\n      0x00\n        /* \"#utility.yul\":11599:11605   */\n      dup2\n        /* \"#utility.yul\":11593:11606   */\n      mload\n        /* \"#utility.yul\":11584:11606   */\n      swap1\n      pop\n        /* \"#utility.yul\":11615:11645   */\n      tag_231\n        /* \"#utility.yul\":11639:11644   */\n      dup2\n        /* \"#utility.yul\":11615:11645   */\n      tag_107\n      jump\t// in\n    tag_231:\n        /* \"#utility.yul\":11514:11651   */\n      swap3\n      swap2\n      pop\n      pop\n      jump\t// out\n        /* \"#utility.yul\":11657:12002   */\n    tag_68:\n        /* \"#utility.yul\":11724:11730   */\n      0x00\n        /* \"#utility.yul\":11773:11775   */\n      0x20\n        /* \"#utility.yul\":11761:11770   */\n      dup3\n        /* \"#utility.yul\":11752:11759   */\n      dup5\n        /* \"#utility.yul\":11748:11771   */\n      sub\n        /* \"#utility.yul\":11744:11776   */\n      slt\n        /* \"#utility.yul\":11741:11860   */\n      iszero\n      tag_233\n      jumpi\n        /* \"#utility.yul\":11779:11858   */\n      tag_234\n      tag_76\n      jump\t// in\n    tag_234:\n        /* \"#utility.yul\":11741:11860   */\n    tag_233:\n        /* \"#utility.yul\":11899:11900   */\n      0x00\n        /* \"#utility.yul\":11924:11985   */\n      tag_235\n        /* \"#utility.yul\":11977:11984   */\n      dup5\n        /* \"#utility.yul\":11968:11974   */\n      dup3\n        /* \"#utility.yul\":11957:11966   */\n      dup6\n        /* \"#utility.yul\":11953:11975   */\n      add\n        /* \"#utility.yul\":11924:11985   */\n      tag_108\n      jump\t// in\n    tag_235:\n        /* \"#utility.yul\":11914:11985   */\n      swap2\n      pop\n        /* \"#utility.yul\":11870:11995   */\n      pop\n        /* \"#utility.yul\":11657:12002   */\n      swap3\n      swap2\n      pop\n      pop\n      jump\t// out\n        /* \"#utility.yul\":12008:12184   */\n    tag_109:\n        /* \"#utility.yul\":12148:12176   */\n      0x496e73756666696369656e74206f757470757420616d6f756e74000000000000\n        /* \"#utility.yul\":12144:12145   */\n      0x00\n        /* \"#utility.yul\":12136:12142   */\n      dup3\n        /* \"#utility.yul\":12132:12146   */\n      add\n        /* \"#utility.yul\":12125:12177   */\n      mstore\n        /* \"#utility.yul\":12008:12184   */\n      pop\n      jump\t// out\n        /* \"#utility.yul\":12190:12556   */\n    tag_110:\n        /* \"#utility.yul\":12332:12335   */\n      0x00\n        /* \"#utility.yul\":12353:12420   */\n      tag_238\n        /* \"#utility.yul\":12417:12419   */\n      0x1a\n        /* \"#utility.yul\":12412:12415   */\n      dup4\n        /* \"#utility.yul\":12353:12420   */\n      tag_97\n      jump\t// in\n    tag_238:\n        /* \"#utility.yul\":12346:12420   */\n      swap2\n      pop\n        /* \"#utility.yul\":12429:12522   */\n      tag_239\n        /* \"#utility.yul\":12518:12521   */\n      dup3\n        /* \"#utility.yul\":12429:12522   */\n      tag_109\n      jump\t// in\n    tag_239:\n        /* \"#utility.yul\":12547:12549   */\n      0x20\n        /* \"#utility.yul\":12542:12545   */\n      dup3\n        /* \"#utility.yul\":12538:12550   */\n      add\n        /* \"#utility.yul\":12531:12550   */\n      swap1\n      pop\n        /* \"#utility.yul\":12190:12556   */\n      swap2\n      swap1\n      pop\n      jump\t// out\n        /* \"#utility.yul\":12562:12981   */\n    tag_74:\n        /* \"#utility.yul\":12728:12732   */\n      0x00\n        /* \"#utility.yul\":12766:12768   */\n      0x20\n        /* \"#utility.yul\":12755:12764   */\n      dup3\n        /* \"#utility.yul\":12751:12769   */\n      add\n        /* \"#utility.yul\":12743:12769   */\n      swap1\n      pop\n        /* \"#utility.yul\":12815:12824   */\n      dup2\n        /* \"#utility.yul\":12809:12813   */\n      dup2\n        /* \"#utility.yul\":12805:12825   */\n      sub\n        /* \"#utility.yul\":12801:12802   */\n      0x00\n        /* \"#utility.yul\":12790:12799   */\n      dup4\n        /* \"#utility.yul\":12786:12803   */\n      add\n        /* \"#utility.yul\":12779:12826   */\n      mstore\n        /* \"#utility.yul\":12843:12974   */\n      tag_241\n        /* \"#utility.yul\":12969:12973   */\n      dup2\n        /* \"#utility.yul\":12843:12974   */\n      tag_110\n      jump\t// in\n    tag_241:\n        /* \"#utility.yul\":12835:12974   */\n      swap1\n      pop\n        /* \"#utility.yul\":12562:12981   */\n      swap2\n      swap1\n      pop\n      jump\t// out\n\n    auxdata: 0xa26469706673582212205959f1a6f4a075d7836c9df4a39af6ea90297be925fe8bbc14ccb21121fb571064736f6c63430008190033\n}\n",
				"bytecode": {
					"linkReferences": {},
					"object": "608060405234801561000f575f80fd5b50604051610c65380380610c65833981810160405281019061003191906100d4565b805f806101000a81548173ffffffffffffffffffffffffffffffffffffffff021916908373ffffffffffffffffffffffffffffffffffffffff160217905550506100ff565b5f80fd5b5f73ffffffffffffffffffffffffffffffffffffffff82169050919050565b5f6100a38261007a565b9050919050565b6100b381610099565b81146100bd575f80fd5b50565b5f815190506100ce816100aa565b92915050565b5f602082840312156100e9576100e8610076565b5b5f6100f6848285016100c0565b91505092915050565b610b598061010c5f395ff3fe608060405234801561000f575f80fd5b5060043610610034575f3560e01c8063472b43f314610038578063c45a015514610068575b5f80fd5b610052600480360381019061004d91906105c2565b610086565b60405161005f91906106fd565b60405180910390f35b6100706104a9565b60405161007d919061072c565b60405180910390f35b606060028484905010156100cf576040517f08c379a00000000000000000000000000000000000000000000000000000000081526004016100c69061079f565b60405180910390fd5b8383905067ffffffffffffffff8111156100ec576100eb6107bd565b5b60405190808252806020026020018201604052801561011a5781602001602082028036833780820191505090505b50905085815f81518110610131576101306107ea565b5b6020026020010181815250505f5b60018585905061014f9190610844565b811015610435575f85858381811061016a576101696107ea565b5b905060200201602081019061017f9190610877565b90505f868660018561019191906108a2565b8181106101a1576101a06107ea565b5b90506020020160208101906101b69190610877565b90505f805f9054906101000a900473ffffffffffffffffffffffffffffffffffffffff1673ffffffffffffffffffffffffffffffffffffffff1663531aa03e84846040518363ffffffff1660e01b81526004016102149291906108d5565b602060405180830381865afa15801561022f573d5f803e3d5ffd5b505050506040513d601f19601f820116820180604052508101906102539190610910565b90505f73ffffffffffffffffffffffffffffffffffffffff168173ffffffffffffffffffffffffffffffffffffffff16036102c3576040517f08c379a00000000000000000000000000000000000000000000000000000000081526004016102ba90610985565b60405180910390fd5b8073ffffffffffffffffffffffffffffffffffffffff16634a5a727084848888815181106102f4576102f36107ea565b5b60200260200101518960018a61030a91906108a2565b8151811061031b5761031a6107ea565b5b60200260200101516040518563ffffffff1660e01b815260040161034294939291906109b2565b6020604051808303815f875af115801561035e573d5f803e3d5ffd5b505050506040513d601f19601f820116820180604052508101906103829190610a09565b508173ffffffffffffffffffffffffffffffffffffffff1663a9059cbb87876001886103ae91906108a2565b815181106103bf576103be6107ea565b5b60200260200101516040518363ffffffff1660e01b81526004016103e4929190610a34565b6020604051808303815f875af1158015610400573d5f803e3d5ffd5b505050506040513d601f19601f820116820180604052508101906104249190610a90565b50505050808060010191505061013f565b508481600183516104469190610844565b81518110610457576104566107ea565b5b602002602001015110156104a0576040517f08c379a000000000000000000000000000000000000000000000000000000000815260040161049790610b05565b60405180910390fd5b95945050505050565b5f8054906101000a900473ffffffffffffffffffffffffffffffffffffffff1681565b5f80fd5b5f80fd5b5f819050919050565b6104e6816104d4565b81146104f0575f80fd5b50565b5f81359050610501816104dd565b92915050565b5f80fd5b5f80fd5b5f80fd5b5f8083601f84011261052857610527610507565b5b8235905067ffffffffffffffff8111156105455761054461050b565b5b6020830191508360208202830111156105615761056061050f565b5b9250929050565b5f73ffffffffffffffffffffffffffffffffffffffff82169050919050565b5f61059182610568565b9050919050565b6105a181610587565b81146105ab575f80fd5b50565b5f813590506105bc81610598565b92915050565b5f805f805f608086880312156105db576105da6104cc565b5b5f6105e8888289016104f3565b95505060206105f9888289016104f3565b945050604086013567ffffffffffffffff81111561061a576106196104d0565b5b61062688828901610513565b93509350506060610639888289016105ae565b9150509295509295909350565b5f81519050919050565b5f82825260208201905092915050565b5f819050602082019050919050565b610678816104d4565b82525050565b5f610689838361066f565b60208301905092915050565b5f602082019050919050565b5f6106ab82610646565b6106b58185610650565b93506106c083610660565b805f5b838110156106f05781516106d7888261067e565b97506106e283610695565b9250506001810190506106c3565b5085935050505092915050565b5f6020820190508181035f83015261071581846106a1565b905092915050565b61072681610587565b82525050565b5f60208201905061073f5f83018461071d565b92915050565b5f82825260208201905092915050565b7f496e76616c6964207061746800000000000000000000000000000000000000005f82015250565b5f610789600c83610745565b915061079482610755565b602082019050919050565b5f6020820190508181035f8301526107b68161077d565b9050919050565b7f4e487b71000000000000000000000000000000000000000000000000000000005f52604160045260245ffd5b7f4e487b71000000000000000000000000000000000000000000000000000000005f52603260045260245ffd5b7f4e487b71000000000000000000000000000000000000000000000000000000005f52601160045260245ffd5b5f61084e826104d4565b9150610859836104d4565b925082820390508181111561087157610870610817565b5b92915050565b5f6020828403121561088c5761088b6104cc565b5b5f610899848285016105ae565b91505092915050565b5f6108ac826104d4565b91506108b7836104d4565b92508282019050808211156108cf576108ce610817565b5b92915050565b5f6040820190506108e85f83018561071d565b6108f5602083018461071d565b9392505050565b5f8151905061090a81610598565b92915050565b5f60208284031215610925576109246104cc565b5b5f610932848285016108fc565b91505092915050565b7f506f6f6c20646f6573206e6f74206578697374000000000000000000000000005f82015250565b5f61096f601383610745565b915061097a8261093b565b602082019050919050565b5f6020820190508181035f83015261099c81610963565b9050919050565b6109ac816104d4565b82525050565b5f6080820190506109c55f83018761071d565b6109d2602083018661071d565b6109df60408301856109a3565b6109ec60608301846109a3565b95945050505050565b5f81519050610a03816104dd565b92915050565b5f60208284031215610a1e57610a1d6104cc565b5b5f610a2b848285016109f5565b91505092915050565b5f604082019050610a475f83018561071d565b610a5460208301846109a3565b9392505050565b5f8115159050919050565b610a6f81610a5b565b8114610a79575f80fd5b50565b5f81519050610a8a81610a66565b92915050565b5f60208284031215610aa557610aa46104cc565b5b5f610ab284828501610a7c565b91505092915050565b7f496e73756666696369656e74206f757470757420616d6f756e740000000000005f82015250565b5f610aef601a83610745565b9150610afa82610abb565b602082019050919050565b5f6020820190508181035f830152610b1c81610ae3565b905091905056fea26469706673582212205959f1a6f4a075d7836c9df4a39af6ea90297be925fe8bbc14ccb21121fb571064736f6c63430008190033",
					"opcodes": "PUSH1 0x80 PUSH1 0x40 MSTORE CALLVALUE DUP1 ISZERO PUSH2 0xF JUMPI PUSH0 DUP1 REVERT JUMPDEST POP PUSH1 0x40 MLOAD PUSH2 0xC65 CODESIZE SUB DUP1 PUSH2 0xC65 DUP4 CODECOPY DUP2 DUP2 ADD PUSH1 0x40 MSTORE DUP2 ADD SWAP1 PUSH2 0x31 SWAP2 SWAP1 PUSH2 0xD4 JUMP JUMPDEST DUP1 PUSH0 DUP1 PUSH2 0x100 EXP DUP2 SLOAD DUP2 PUSH20 0xFFFFFFFFFFFFFFFFFFFFFFFFFFFFFFFFFFFFFFFF MUL NOT AND SWAP1 DUP4 PUSH20 0xFFFFFFFFFFFFFFFFFFFFFFFFFFFFFFFFFFFFFFFF AND MUL OR SWAP1 SSTORE POP POP PUSH2 0xFF JUMP JUMPDEST PUSH0 DUP1 REVERT JUMPDEST PUSH0 PUSH20 0xFFFFFFFFFFFFFFFFFFFFFFFFFFFFFFFFFFFFFFFF DUP3 AND SWAP1 POP SWAP2 SWAP1 POP JUMP JUMPDEST PUSH0 PUSH2 0xA3 DUP3 PUSH2 0x7A JUMP JUMPDEST SWAP1 POP SWAP2 SWAP1 POP JUMP JUMPDEST PUSH2 0xB3 DUP2 PUSH2 0x99 JUMP JUMPDEST DUP2 EQ PUSH2 0xBD JUMPI PUSH0 DUP1 REVERT JUMPDEST POP JUMP JUMPDEST PUSH0 DUP2 MLOAD SWAP1 POP PUSH2 0xCE DUP2 PUSH2 0xAA JUMP JUMPDEST SWAP3 SWAP2 POP POP JUMP JUMPDEST PUSH0 PUSH1 0x20 DUP3 DUP5 SUB SLT ISZERO PUSH2 0xE9 JUMPI PUSH2 0xE8 PUSH2 0x76 JUMP JUMPDEST JUMPDEST PUSH0 PUSH2 0xF6 DUP5 DUP3 DUP6 ADD PUSH2 0xC0 JUMP JUMPDEST SWAP2 POP POP SWAP3 SWAP2 POP POP JUMP JUMPDEST PUSH2 0xB59 DUP1 PUSH2 0x10C PUSH0 CODECOPY PUSH0 RETURN INVALID PUSH1 0x80 PUSH1 0x40 MSTORE CALLVALUE DUP1 ISZERO PUSH2 0xF JUMPI PUSH0 DUP1 REVERT JUMPDEST POP PUSH1 0x4 CALLDATASIZE LT PUSH2 0x34 JUMPI PUSH0 CALLDATALOAD PUSH1 0xE0 SHR DUP1 PUSH4 0x472B43F3 EQ PUSH2 0x38 JUMPI DUP1 PUSH4 0xC45A0155 EQ PUSH2 0x68 JUMPI JUMPDEST PUSH0 DUP1 REVERT JUMPDEST PUSH2 0x52 PUSH1 0x4 DUP1 CALLDATASIZE SUB DUP2 ADD SWAP1 PUSH2 0x4D SWAP2 SWAP1 PUSH2 0x5C2 JUMP JUMPDEST PUSH2 0x86 JUMP JUMPDEST PUSH1 0x40 MLOAD PUSH2 0x5F SWAP2 SWAP1 PUSH2 0x6FD JUMP JUMPDEST PUSH1 0x40 MLOAD DUP1 SWAP2 SUB SWAP1 RETURN JUMPDEST PUSH2 0x70 PUSH2 0x4A9 JUMP JUMPDEST PUSH1 0x40 MLOAD PUSH2 0x7D SWAP2 SWAP1 PUSH2 0x72C JUMP JUMPDEST PUSH1 0x40 MLOAD DUP1 SWAP2 SUB SWAP1 RETURN JUMPDEST PUSH1 0x60 PUSH1 0x2 DUP5 DUP5 SWAP1 POP LT ISZERO PUSH2 0xCF JUMPI PUSH1 0x40 MLOAD PUSH32 0x8C379A000000000000000000000000000000000000000000000000000000000 DUP2 MSTORE PUSH1 0x4 ADD PUSH2 0xC6 SWAP1 PUSH2 0x79F JUMP JUMPDEST PUSH1 0x40 MLOAD DUP1 SWAP2 SUB SWAP1 REVERT JUMPDEST DUP4 DUP4 SWAP1 POP PUSH8 0xFFFFFFFFFFFFFFFF DUP2 GT ISZERO PUSH2 0xEC JUMPI PUSH2 0xEB PUSH2 0x7BD JUMP JUMPDEST JUMPDEST PUSH1 0x40 MLOAD SWAP1 DUP1 DUP3 MSTORE DUP1 PUSH1 0x20 MUL PUSH1 0x20 ADD DUP3 ADD PUSH1 0x40 MSTORE DUP1 ISZERO PUSH2 0x11A JUMPI DUP2 PUSH1 0x20 ADD PUSH1 0x20 DUP3 MUL DUP1 CALLDATASIZE DUP4 CALLDATACOPY DUP1 DUP3 ADD SWAP2 POP POP SWAP1 POP JUMPDEST POP SWAP1 POP DUP6 DUP2 PUSH0 DUP2 MLOAD DUP2 LT PUSH2 0x131 JUMPI PUSH2 0x130 PUSH2 0x7EA JUMP JUMPDEST JUMPDEST PUSH1 0x20 MUL PUSH1 0x20 ADD ADD DUP2 DUP2 MSTORE POP POP PUSH0 JUMPDEST PUSH1 0x1 DUP6 DUP6 SWAP1 POP PUSH2 0x14F SWAP2 SWAP1 PUSH2 0x844 JUMP JUMPDEST DUP2 LT ISZERO PUSH2 0x435 JUMPI PUSH0 DUP6 DUP6 DUP4 DUP2 DUP2 LT PUSH2 0x16A JUMPI PUSH2 0x169 PUSH2 0x7EA JUMP JUMPDEST JUMPDEST SWAP1 POP PUSH1 0x20 MUL ADD PUSH1 0x20 DUP2 ADD SWAP1 PUSH2 0x17F SWAP2 SWAP1 PUSH2 0x877 JUMP JUMPDEST SWAP1 POP PUSH0 DUP7 DUP7 PUSH1 0x1 DUP6 PUSH2 0x191 SWAP2 SWAP1 PUSH2 0x8A2 JUMP JUMPDEST DUP2 DUP2 LT PUSH2 0x1A1 JUMPI PUSH2 0x1A0 PUSH2 0x7EA JUMP JUMPDEST JUMPDEST SWAP1 POP PUSH1 0x20 MUL ADD PUSH1 0x20 DUP2 ADD SWAP1 PUSH2 0x1B6 SWAP2 SWAP1 PUSH2 0x877 JUMP JUMPDEST SWAP1 POP PUSH0 DUP1 PUSH0 SWAP1 SLOAD SWAP1 PUSH2 0x100 EXP SWAP1 DIV PUSH20 0xFFFFFFFFFFFFFFFFFFFFFFFFFFFFFFFFFFFFFFFF AND PUSH20 0xFFFFFFFFFFFFFFFFFFFFFFFFFFFFFFFFFFFFFFFF AND PUSH4 0x531AA03E DUP5 DUP5 PUSH1 0x40 MLOAD DUP4 PUSH4 0xFFFFFFFF AND PUSH1 0xE0 SHL DUP2 MSTORE PUSH1 0x4 ADD PUSH2 0x214 SWAP3 SWAP2 SWAP1 PUSH2 0x8D5 JUMP JUMPDEST PUSH1 0x20 PUSH1 0x40 MLOAD DUP1 DUP4 SUB DUP2 DUP7 GAS STATICCALL ISZERO DUP1 ISZERO PUSH2 0x22F JUMPI RETURNDATASIZE PUSH0 DUP1 RETURNDATACOPY RETURNDATASIZE PUSH0 REVERT JUMPDEST POP POP POP POP PUSH1 0x40 MLOAD RETURNDATASIZE PUSH1 0x1F NOT PUSH1 0x1F DUP3 ADD AND DUP3 ADD DUP1 PUSH1 0x40 MSTORE POP DUP2 ADD SWAP1 PUSH2 0x253 SWAP2 SWAP1 PUSH2 0x910 JUMP JUMPDEST SWAP1 POP PUSH0 PUSH20 0xFFFFFFFFFFFFFFFFFFFFFFFFFFFFFFFFFFFFFFFF AND DUP2 PUSH20 0xFFFFFFFFFFFFFFFFFFFFFFFFFFFFFFFFFFFFFFFF AND SUB PUSH2 0x2C3 JUMPI PUSH1 0x40 MLOAD PUSH32 0x8C379A000000000000000000000000000000000000000000000000000000000 DUP2 MSTORE PUSH1 0x4 ADD PUSH2 0x2BA SWAP1 PUSH2 0x985 JUMP JUMPDEST PUSH1 0x40 MLOAD DUP1 SWAP2 SUB SWAP1 REVERT JUMPDEST DUP1 PUSH20 0xFFFFFFFFFFFFFFFFFFFFFFFFFFFFFFFFFFFFFFFF AND PUSH4 0x4A5A7270 DUP5 DUP5 DUP9 DUP9 DUP2 MLOAD DUP2 LT PUSH2 0x2F4 JUMPI PUSH2 0x2F3 PUSH2 0x7EA JUMP JUMPDEST JUMPDEST PUSH1 0x20 MUL PUSH1 0x20 ADD ADD MLOAD DUP10 PUSH1 0x1 DUP11 PUSH2 0x30A SWAP2 SWAP1 PUSH2 0x8A2 JUMP JUMPDEST DUP2 MLOAD DUP2 LT PUSH2 0x31B JUMPI PUSH2 0x31A PUSH2 0x7EA JUMP JUMPDEST JUMPDEST PUSH1 0x20 MUL PUSH1 0x20 ADD ADD MLOAD PUSH1 0x40 MLOAD DUP6 PUSH4 0xFFFFFFFF AND PUSH1 0xE0 SHL DUP2 MSTORE PUSH1 0x4 ADD PUSH2 0x342 SWAP5 SWAP4 SWAP3 SWAP2 SWAP1 PUSH2 0x9B2 JUMP JUMPDEST PUSH1 0x20 PUSH1 0x40 MLOAD DUP1 DUP4 SUB DUP2 PUSH0 DUP8 GAS CALL ISZERO DUP1 ISZERO PUSH2 0x35E JUMPI RETURNDATASIZE PUSH0 DUP1 RETURNDATACOPY RETURNDATASIZE PUSH0 REVERT JUMPDEST POP POP POP POP PUSH1 0x40 MLOAD RETURNDATASIZE PUSH1 0x1F NOT PUSH1 0x1F DUP3 ADD AND DUP3 ADD DUP1 PUSH1 0x40 MSTORE POP DUP2 ADD SWAP1 PUSH2 0x382 SWAP2 SWAP1 PUSH2 0xA09 JUMP JUMPDEST POP DUP2 PUSH20 0xFFFFFFFFFFFFFFFFFFFFFFFFFFFFFFFFFFFFFFFF AND PUSH4 0xA9059CBB DUP8 DUP8 PUSH1 0x1 DUP9 PUSH2 0x3AE SWAP2 SWAP1 PUSH2 0x8A2 JUMP JUMPDEST DUP2 MLOAD DUP2 LT PUSH2 0x3BF JUMPI PUSH2 0x3BE PUSH2 0x7EA JUMP JUMPDEST JUMPDEST PUSH1 0x20 MUL PUSH1 0x20 ADD ADD MLOAD PUSH1 0x40 MLOAD DUP4 PUSH4 0xFFFFFFFF AND PUSH1 0xE0 SHL DUP2 MSTORE PUSH1 0x4 ADD PUSH2 0x3E4 SWAP3 SWAP2 SWAP1 PUSH2 0xA34 JUMP JUMPDEST PUSH1 0x20 PUSH1 0x40 MLOAD DUP1 DUP4 SUB DUP2 PUSH0 DUP8 GAS CALL ISZERO DUP1 ISZERO PUSH2 0x400 JUMPI RETURNDATASIZE PUSH0 DUP1 RETURNDATACOPY RETURNDATASIZE PUSH0 REVERT JUMPDEST POP POP POP POP PUSH1 0x40 MLOAD RETURNDATASIZE PUSH1 0x1F NOT PUSH1 0x1F DUP3 ADD AND DUP3 ADD DUP1 PUSH1 0x40 MSTORE POP DUP2 ADD SWAP1 PUSH2 0x424 SWAP2 SWAP1 PUSH2 0xA90 JUMP JUMPDEST POP POP POP POP DUP1 DUP1 PUSH1 0x1 ADD SWAP2 POP POP PUSH2 0x13F JUMP JUMPDEST POP DUP5 DUP2 PUSH1 0x1 DUP4 MLOAD PUSH2 0x446 SWAP2 SWAP1 PUSH2 0x844 JUMP JUMPDEST DUP2 MLOAD DUP2 LT PUSH2 0x457 JUMPI PUSH2 0x456 PUSH2 0x7EA JUMP JUMPDEST JUMPDEST PUSH1 0x20 MUL PUSH1 0x20 ADD ADD MLOAD LT ISZERO PUSH2 0x4A0 JUMPI PUSH1 0x40 MLOAD PUSH32 0x8C379A000000000000000000000000000000000000000000000000000000000 DUP2 MSTORE PUSH1 0x4 ADD PUSH2 0x497 SWAP1 PUSH2 0xB05 JUMP JUMPDEST PUSH1 0x40 MLOAD DUP1 SWAP2 SUB SWAP1 REVERT JUMPDEST SWAP6 SWAP5 POP POP POP POP POP JUMP JUMPDEST PUSH0 DUP1 SLOAD SWAP1 PUSH2 0x100 EXP SWAP1 DIV PUSH20 0xFFFFFFFFFFFFFFFFFFFFFFFFFFFFFFFFFFFFFFFF AND DUP2 JUMP JUMPDEST PUSH0 DUP1 REVERT JUMPDEST PUSH0 DUP1 REVERT JUMPDEST PUSH0 DUP2 SWAP1 POP SWAP2 SWAP1 POP JUMP JUMPDEST PUSH2 0x4E6 DUP2 PUSH2 0x4D4 JUMP JUMPDEST DUP2 EQ PUSH2 0x4F0 JUMPI PUSH0 DUP1 REVERT JUMPDEST POP JUMP JUMPDEST PUSH0 DUP2 CALLDATALOAD SWAP1 POP PUSH2 0x501 DUP2 PUSH2 0x4DD JUMP JUMPDEST SWAP3 SWAP2 POP POP JUMP JUMPDEST PUSH0 DUP1 REVERT JUMPDEST PUSH0 DUP1 REVERT JUMPDEST PUSH0 DUP1 REVERT JUMPDEST PUSH0 DUP1 DUP4 PUSH1 0x1F DUP5 ADD SLT PUSH2 0x528 JUMPI PUSH2 0x527 PUSH2 0x507 JUMP JUMPDEST JUMPDEST DUP3 CALLDATALOAD SWAP1 POP PUSH8 0xFFFFFFFFFFFFFFFF DUP2 GT ISZERO PUSH2 0x545 JUMPI PUSH2 0x544 PUSH2 0x50B JUMP JUMPDEST JUMPDEST PUSH1 0x20 DUP4 ADD SWAP2 POP DUP4 PUSH1 0x20 DUP3 MUL DUP4 ADD GT ISZERO PUSH2 0x561 JUMPI PUSH2 0x560 PUSH2 0x50F JUMP JUMPDEST JUMPDEST SWAP3 POP SWAP3 SWAP1 POP JUMP JUMPDEST PUSH0 PUSH20 0xFFFFFFFFFFFFFFFFFFFFFFFFFFFFFFFFFFFFFFFF DUP3 AND SWAP1 POP SWAP2 SWAP1 POP JUMP JUMPDEST PUSH0 PUSH2 0x591 DUP3 PUSH2 0x568 JUMP JUMPDEST SWAP1 POP SWAP2 SWAP1 POP JUMP JUMPDEST PUSH2 0x5A1 DUP2 PUSH2 0x587 JUMP JUMPDEST DUP2 EQ PUSH2 0x5AB JUMPI PUSH0 DUP1 REVERT JUMPDEST POP JUMP JUMPDEST PUSH0 DUP2 CALLDATALOAD SWAP1 POP PUSH2 0x5BC DUP2 PUSH2 0x598 JUMP JUMPDEST SWAP3 SWAP2 POP POP JUMP JUMPDEST PUSH0 DUP1 PUSH0 DUP1 PUSH0 PUSH1 0x80 DUP7 DUP9 SUB SLT ISZERO PUSH2 0x5DB JUMPI PUSH2 0x5DA PUSH2 0x4CC JUMP JUMPDEST JUMPDEST PUSH0 PUSH2 0x5E8 DUP9 DUP3 DUP10 ADD PUSH2 0x4F3 JUMP JUMPDEST SWAP6 POP POP PUSH1 0x20 PUSH2 0x5F9 DUP9 DUP3 DUP10 ADD PUSH2 0x4F3 JUMP JUMPDEST SWAP5 POP POP PUSH1 0x40 DUP7 ADD CALLDATALOAD PUSH8 0xFFFFFFFFFFFFFFFF DUP2 GT ISZERO PUSH2 0x61A JUMPI PUSH2 0x619 PUSH2 0x4D0 JUMP JUMPDEST JUMPDEST PUSH2 0x626 DUP9 DUP3 DUP10 ADD PUSH2 0x513 JUMP JUMPDEST SWAP4 POP SWAP4 POP POP PUSH1 0x60 PUSH2 0x639 DUP9 DUP3 DUP10 ADD PUSH2 0x5AE JUMP JUMPDEST SWAP2 POP POP SWAP3 SWAP6 POP SWAP3 SWAP6 SWAP1 SWAP4 POP JUMP JUMPDEST PUSH0 DUP2 MLOAD SWAP1 POP SWAP2 SWAP1 POP JUMP JUMPDEST PUSH0 DUP3 DUP3 MSTORE PUSH1 0x20 DUP3 ADD SWAP1 POP SWAP3 SWAP2 POP POP JUMP JUMPDEST PUSH0 DUP2 SWAP1 POP PUSH1 0x20 DUP3 ADD SWAP1 POP SWAP2 SWAP1 POP JUMP JUMPDEST PUSH2 0x678 DUP2 PUSH2 0x4D4 JUMP JUMPDEST DUP3 MSTORE POP POP JUMP JUMPDEST PUSH0 PUSH2 0x689 DUP4 DUP4 PUSH2 0x66F JUMP JUMPDEST PUSH1 0x20 DUP4 ADD SWAP1 POP SWAP3 SWAP2 POP POP JUMP JUMPDEST PUSH0 PUSH1 0x20 DUP3 ADD SWAP1 POP SWAP2 SWAP1 POP JUMP JUMPDEST PUSH0 PUSH2 0x6AB DUP3 PUSH2 0x646 JUMP JUMPDEST PUSH2 0x6B5 DUP2 DUP6 PUSH2 0x650 JUMP JUMPDEST SWAP4 POP PUSH2 0x6C0 DUP4 PUSH2 0x660 JUMP JUMPDEST DUP1 PUSH0 JUMPDEST DUP4 DUP2 LT ISZERO PUSH2 0x6F0 JUMPI DUP2 MLOAD PUSH2 0x6D7 DUP9 DUP3 PUSH2 0x67E JUMP JUMPDEST SWAP8 POP PUSH2 0x6E2 DUP4 PUSH2 0x695 JUMP JUMPDEST SWAP3 POP POP PUSH1 0x1 DUP2 ADD SWAP1 POP PUSH2 0x6C3 JUMP JUMPDEST POP DUP6 SWAP4 POP POP POP POP SWAP3 SWAP2 POP POP JUMP JUMPDEST PUSH0 PUSH1 0x20 DUP3 ADD SWAP1 POP DUP2 DUP2 SUB PUSH0 DUP4 ADD MSTORE PUSH2 0x715 DUP2 DUP5 PUSH2 0x6A1 JUMP JUMPDEST SWAP1 POP SWAP3 SWAP2 POP POP JUMP JUMPDEST PUSH2 0x726 DUP2 PUSH2 0x587 JUMP JUMPDEST DUP3 MSTORE POP POP JUMP JUMPDEST PUSH0 PUSH1 0x20 DUP3 ADD SWAP1 POP PUSH2 0x73F PUSH0 DUP4 ADD DUP5 PUSH2 0x71D JUMP JUMPDEST SWAP3 SWAP2 POP POP JUMP JUMPDEST PUSH0 DUP3 DUP3 MSTORE PUSH1 0x20 DUP3 ADD SWAP1 POP SWAP3 SWAP2 POP POP JUMP JUMPDEST PUSH32 0x496E76616C696420706174680000000000000000000000000000000000000000 PUSH0 DUP3 ADD MSTORE POP JUMP JUMPDEST PUSH0 PUSH2 0x789 PUSH1 0xC DUP4 PUSH2 0x745 JUMP JUMPDEST SWAP2 POP PUSH2 0x794 DUP3 PUSH2 0x755 JUMP JUMPDEST PUSH1 0x20 DUP3 ADD SWAP1 POP SWAP2 SWAP1 POP JUMP JUMPDEST PUSH0 PUSH1 0x20 DUP3 ADD SWAP1 POP DUP2 DUP2 SUB PUSH0 DUP4 ADD MSTORE PUSH2 0x7B6 DUP2 PUSH2 0x77D JUMP JUMPDEST SWAP1 POP SWAP2 SWAP1 POP JUMP JUMPDEST PUSH32 0x4E487B7100000000000000000000000000000000000000000000000000000000 PUSH0 MSTORE PUSH1 0x41 PUSH1 0x4 MSTORE PUSH1 0x24 PUSH0 REVERT JUMPDEST PUSH32 0x4E487B7100000000000000000000000000000000000000000000000000000000 PUSH0 MSTORE PUSH1 0x32 PUSH1 0x4 MSTORE PUSH1 0x24 PUSH0 REVERT JUMPDEST PUSH32 0x4E487B7100000000000000000000000000000000000000000000000000000000 PUSH0 MSTORE PUSH1 0x11 PUSH1 0x4 MSTORE PUSH1 0x24 PUSH0 REVERT JUMPDEST PUSH0 PUSH2 0x84E DUP3 PUSH2 0x4D4 JUMP JUMPDEST SWAP2 POP PUSH2 0x859 DUP4 PUSH2 0x4D4 JUMP JUMPDEST SWAP3 POP DUP3 DUP3 SUB SWAP1 POP DUP2 DUP2 GT ISZERO PUSH2 0x871 JUMPI PUSH2 0x870 PUSH2 0x817 JUMP JUMPDEST JUMPDEST SWAP3 SWAP2 POP POP JUMP JUMPDEST PUSH0 PUSH1 0x20 DUP3 DUP5 SUB SLT ISZERO PUSH2 0x88C JUMPI PUSH2 0x88B PUSH2 0x4CC JUMP JUMPDEST JUMPDEST PUSH0 PUSH2 0x899 DUP5 DUP3 DUP6 ADD PUSH2 0x5AE JUMP JUMPDEST SWAP2 POP POP SWAP3 SWAP2 POP POP JUMP JUMPDEST PUSH0 PUSH2 0x8AC DUP3 PUSH2 0x4D4 JUMP JUMPDEST SWAP2 POP PUSH2 0x8B7 DUP4 PUSH2 0x4D4 JUMP JUMPDEST SWAP3 POP DUP3 DUP3 ADD SWAP1 POP DUP1 DUP3 GT ISZERO PUSH2 0x8CF JUMPI PUSH2 0x8CE PUSH2 0x817 JUMP JUMPDEST JUMPDEST SWAP3 SWAP2 POP POP JUMP JUMPDEST PUSH0 PUSH1 0x40 DUP3 ADD SWAP1 POP PUSH2 0x8E8 PUSH0 DUP4 ADD DUP6 PUSH2 0x71D JUMP JUMPDEST PUSH2 0x8F5 PUSH1 0x20 DUP4 ADD DUP5 PUSH2 0x71D JUMP JUMPDEST SWAP4 SWAP3 POP POP POP JUMP JUMPDEST PUSH0 DUP2 MLOAD SWAP1 POP PUSH2 0x90A DUP2 PUSH2 0x598 JUMP JUMPDEST SWAP3 SWAP2 POP POP JUMP JUMPDEST PUSH0 PUSH1 0x20 DUP3 DUP5 SUB SLT ISZERO PUSH2 0x925 JUMPI PUSH2 0x924 PUSH2 0x4CC JUMP JUMPDEST JUMPDEST PUSH0 PUSH2 0x932 DUP5 DUP3 DUP6 ADD PUSH2 0x8FC JUMP JUMPDEST SWAP2 POP POP SWAP3 SWAP2 POP POP JUMP JUMPDEST PUSH32 0x506F6F6C20646F6573206E6F7420657869737400000000000000000000000000 PUSH0 DUP3 ADD MSTORE POP JUMP JUMPDEST PUSH0 PUSH2 0x96F PUSH1 0x13 DUP4 PUSH2 0x745 JUMP JUMPDEST SWAP2 POP PUSH2 0x97A DUP3 PUSH2 0x93B JUMP JUMPDEST PUSH1 0x20 DUP3 ADD SWAP1 POP SWAP2 SWAP1 POP JUMP JUMPDEST PUSH0 PUSH1 0x20 DUP3 ADD SWAP1 POP DUP2 DUP2 SUB PUSH0 DUP4 ADD MSTORE PUSH2 0x99C DUP2 PUSH2 0x963 JUMP JUMPDEST SWAP1 POP SWAP2 SWAP1 POP JUMP JUMPDEST PUSH2 0x9AC DUP2 PUSH2 0x4D4 JUMP JUMPDEST DUP3 MSTORE POP POP JUMP JUMPDEST PUSH0 PUSH1 0x80 DUP3 ADD SWAP1 POP PUSH2 0x9C5 PUSH0 DUP4 ADD DUP8 PUSH2 0x71D JUMP JUMPDEST PUSH2 0x9D2 PUSH1 0x20 DUP4 ADD DUP7 PUSH2 0x71D JUMP JUMPDEST PUSH2 0x9DF PUSH1 0x40 DUP4 ADD DUP6 PUSH2 0x9A3 JUMP JUMPDEST PUSH2 0x9EC PUSH1 0x60 DUP4 ADD DUP5 PUSH2 0x9A3 JUMP JUMPDEST SWAP6 SWAP5 POP POP POP POP POP JUMP JUMPDEST PUSH0 DUP2 MLOAD SWAP1 POP PUSH2 0xA03 DUP2 PUSH2 0x4DD JUMP JUMPDEST SWAP3 SWAP2 POP POP JUMP JUMPDEST PUSH0 PUSH1 0x20 DUP3 DUP5 SUB SLT ISZERO PUSH2 0xA1E JUMPI PUSH2 0xA1D PUSH2 0x4CC JUMP JUMPDEST JUMPDEST PUSH0 PUSH2 0xA2B DUP5 DUP3 DUP6 ADD PUSH2 0x9F5 JUMP JUMPDEST SWAP2 POP POP SWAP3 SWAP2 POP POP JUMP JUMPDEST PUSH0 PUSH1 0x40 DUP3 ADD SWAP1 POP PUSH2 0xA47 PUSH0 DUP4 ADD DUP6 PUSH2 0x71D JUMP JUMPDEST PUSH2 0xA54 PUSH1 0x20 DUP4 ADD DUP5 PUSH2 0x9A3 JUMP JUMPDEST SWAP4 SWAP3 POP POP POP JUMP JUMPDEST PUSH0 DUP2 ISZERO ISZERO SWAP1 POP SWAP2 SWAP1 POP JUMP JUMPDEST PUSH2 0xA6F DUP2 PUSH2 0xA5B JUMP JUMPDEST DUP2 EQ PUSH2 0xA79 JUMPI PUSH0 DUP1 REVERT JUMPDEST POP JUMP JUMPDEST PUSH0 DUP2 MLOAD SWAP1 POP PUSH2 0xA8A DUP2 PUSH2 0xA66 JUMP JUMPDEST SWAP3 SWAP2 POP POP JUMP JUMPDEST PUSH0 PUSH1 0x20 DUP3 DUP5 SUB SLT ISZERO PUSH2 0xAA5 JUMPI PUSH2 0xAA4 PUSH2 0x4CC JUMP JUMPDEST JUMPDEST PUSH0 PUSH2 0xAB2 DUP5 DUP3 DUP6 ADD PUSH2 0xA7C JUMP JUMPDEST SWAP2 POP POP SWAP3 SWAP2 POP POP JUMP JUMPDEST PUSH32 0x496E73756666696369656E74206F757470757420616D6F756E74000000000000 PUSH0 DUP3 ADD MSTORE POP JUMP JUMPDEST PUSH0 PUSH2 0xAEF PUSH1 0x1A DUP4 PUSH2 0x745 JUMP JUMPDEST SWAP2 POP PUSH2 0xAFA DUP3 PUSH2 0xABB JUMP JUMPDEST PUSH1 0x20 DUP3 ADD SWAP1 POP SWAP2 SWAP1 POP JUMP JUMPDEST PUSH0 PUSH1 0x20 DUP3 ADD SWAP1 POP DUP2 DUP2 SUB PUSH0 DUP4 ADD MSTORE PUSH2 0xB1C DUP2 PUSH2 0xAE3 JUMP JUMPDEST SWAP1 POP SWAP2 SWAP1 POP JUMP INVALID LOG2 PUSH5 0x6970667358 0x22 SLT KECCAK256 MSIZE MSIZE CALL 0xA6 DELEGATECALL LOG0 PUSH22 0xD7836C9DF4A39AF6EA90297BE925FE8BBC14CCB21121 0xFB JUMPI LT PUSH5 0x736F6C6343 STOP ADDMOD NOT STOP CALLER "
				},
				"gasEstimates": {
					"creation": {
						"codeDepositCost": "581000",
						"executionCost": "infinite",
						"totalCost": "infinite"
					},
					"external": {
						"factory()": "2505",
						"swapExactTokensForTokens(uint256,uint256,address[],address)": "infinite"
					}
				},
				"methodIdentifiers": {
					"factory()": "c45a0155",
					"swapExactTokensForTokens(uint256,uint256,address[],address)": "472b43f3"
				}
			},
			"storageLayout": {
				"storage": [
					{
						"astId": 1283,
						"contract": "contracts/TheDexRouter.sol:TheDexRouter",
						"label": "factory",
						"offset": 0,
						"slot": "0",
						"type": "t_address"
					}
				],
				"types": {
					"t_address": {
						"encoding": "inplace",
						"label": "address",
						"numberOfBytes": "20"
					}
				}
			},
			"userdoc": {
				"kind": "user",
				"methods": {},
				"version": 1
			}
		}
	}
}